:100000000C9424030C944C030C944C030C944C035C
:100010000C944C030C944C030C944C030C944C0324
:100020000C944C030C944C030C94F9200C94682110
:100030000C944C030C944C030C944C030C944C0304
:100040000C944C030C944C030C944C030C944C03F4
:100050000C944C030C944C030C944C030C949A2376
:100060000C944C030C944C030C944C030C944C03D4
:100070000C944C030C944C030C944C030C944C03C4
:100080000C944C030C944C030C944C030C944C03B4
:100090000C944C030C944C030C944C030C944C03A4
:1000A0000C944C030C944C030C944C0351697862EF
:1000B0006F790050A820A850A8708870A850A87028
:1000C000A850A850A850A820508850200000000038
:1000D000003E5B4F5B3E3E6B4F6B3E1C3E7C3E1CCE
:1000E000183C7E3C181C577D571C1C5E7F5E1C0014
:1000F000183C1800FFE7C3E7FF0018241800FFE7CB
:10010000DBE7FF30483A060E2629792926407F058D
:100110000507407F05253F5A3CE73C5A7F3E1C1CA3
:1001200008081C1C3E7F14227F22145F5F005F5F63
:1001300006097F017F006689956A6060606060944F
:10014000A2FFA29408047E040810207E2010080854
:100150002A1C08081C2A08081E101010100C1E0C5F
:100160001E0C30383E3830060E3E0E0600000000F1
:100170000000005F00000007000700147F147F14D8
:10018000242A7F2A1223130864623649562050001D
:1001900008070300001C2241000041221C002A1C09
:1001A0007F1C2A08083E08080080703000080808F4
:1001B0000808000060600020100804023E51494514
:1001C0003E00427F400072494949462141494D3332
:1001D0001814127F1027454545393C4A4949314199
:1001E000211109073649494936464949291E000067
:1001F00014000000403400000008142241141414BC
:100200001414004122140802015909063E415D59A7
:100210004E7C1211127C7F494949363E41414122B0
:100220007F4141413E7F494949417F090909013EDA
:10023000414151737F0808087F00417F4100204001
:10024000413F017F081422417F404040407F021C13
:10025000027F7F0408107F3E4141413E7F0909092A
:10026000063E4151215E7F091929462649494932F6
:1002700003017F01033F4040403F1F2040201F3FBC
:100280004038403F63140814630304780403615941
:10029000494D43007F414141020408102000414183
:1002A000417F04020102044040404040000307082F
:1002B0000020545478407F2844443838444444282B
:1002C000384444287F385454541800087E090218D2
:1002D000A4A49C787F0804047800447D400020405A
:1002E000403D007F1028440000417F40007C04789E
:1002F00004787C080404783844444438FC182424E6
:100300001818242418FC7C08040408485454542465
:1003100004043F44243C4040207C1C2040201C3CE2
:100320004030403C44281028444C9090907C4464D9
:10033000544C44000836410000007700000041366C
:10034000080002010204023C2623263C1EA1A161F2
:10035000123A4040207A3854545559215555794124
:100360002154547841215554784020545579400CFB
:100370001E527212395555555939545454593955DC
:100380005454580000457C410002457D420001451F
:100390007C40F0292429F0F0282528F07C5455458C
:1003A000002054547C547C0A097F4932494949321F
:1003B0003248484832324A4848303A4141217A3A34
:1003C00042402078009DA0A07D39444444393D40FE
:1003D00040403D3C24FF2424487E4943662B2FFCAB
:1003E0002F2BFF0929F620C0887E09032054547959
:1003F000410000447D413048484A32384040227A2A
:10040000007A0A0A727D0D19317D2629292F2826A6
:100410002929292630484D402038080808080808AE
:100420000808382F10C8ACBA2F102834FA00007B07
:10043000000008142A142222142A1408950022000D
:1004400095AA005500AAAA55AA55AA000000FF00C7
:10045000101010FF00141414FF001010FF00FF1004
:1004600010F010F0141414FC001414F700FF000036
:10047000FF00FF1414F404FC141417101F10101FB5
:10048000101F1414141F00101010F0000000001FA3
:10049000101010101F10101010F010000000FF10AE
:1004A0001010101010101010FF10000000FF1400AA
:1004B00000FF00FF00001F10170000FC04F41414DC
:1004C0001710171414F404F40000FF00F7141414A8
:1004D00014141414F700F7141414171410101F1028
:1004E0001F141414F4141010F010F000001F101F4B
:1004F0000000001F14000000FC140000F010F010B9
:1005000010FF10FF141414FF141010101F0000002F
:1005100000F010FFFFFFFFFFF0F0F0F0F0FFFFFF33
:100520000000000000FFFF0F0F0F0F0F384444388A
:10053000447C2A2A3E147E02020606027E027E02C5
:1005400063554941633844443C04407E201E2006E4
:10055000027E020299A5E7A5991C2A492A1C4C7221
:1005600001724C304A4D4D303048784830BC625AA8
:10057000463D3E494949007E0101017E2A2A2A2A38
:100580002A44445F444440514A444040444A514014
:100590000000FF0103E080FF000008086B6B0836D5
:1005A00012362436060F090F060000181800000046
:1005B0001010003040FF0101001F01011E00191D35
:1005C0001712003C3C3C3C0000000000D5F08D14AC
:1005D000A1C881CFD9F1AF2000080B0002020200B0
:1005E00000090400000102020000052400100105BA
:1005F00024010101042402060524060001070581E7
:100600000310004009040100020A0000000705026F
:1006100002400000070583024000000403090412A1
:10062000010002EF020140412336000001010203F4
:100630000141726475696E6F204C4C4300417264D5
:1006400075626F790000E62311241FBECFEFDAE058
:10065000DEBFCDBF11E0A0E0B1E0EEEBF1E502C0FE
:1006600005900D92A436B107D9F728E0A4E6B1E0D1
:1006700001C01D92A639B207E1F713E0C4E2D3E04E
:1006800004C02197FE010E94D728C332D107C9F7C1
:100690000E9431260C94DD280C94000081E08093A8
:1006A00001071092070780910B07882379F080914A
:1006B000090790910A07909303078093020780919E
:1006C0000C078093040710920B07089510920407FB
:1006D00080919308882341F08091530890915408A9
:1006E00090930307809302070895BC017595679561
:1006F000A7E4B8E0880F991FFC01E95BF74F90E091
:1007000080E0129632976817790771F01A962D914A
:100710003C911B97448555851B965C934E931A9785
:10072000358724870196EDCF0895FC018091A605B9
:10073000882311F13FB7F89482E08093E90020917B
:10074000F200822F90E01816190614F481E090E070
:10075000882339F0289844E64093A5054091F1009C
:100760004083222339F02091F200211103C02BE6AF
:100770002093E8003FBF08958FEF9FEF08952FB7B4
:10078000F89483E08093E9009091E800892F8072CB
:1007900095FF04C09091F20080E4891B2FBF08955B
:1007A00080919D0581110DC082E08093990584E0C0
:1007B00080939A0510929C0510929B0581E080938E
:1007C0009D0589E995E00895CF93DF931F92CDB7FA
:1007D000DEB76983DC01ED91FC910280F381E02DAD
:1007E00041E050E0BE016F5F7F4F09950F90DF91B0
:1007F000CF91089583E08093E9008091F2008823EF
:1008000019F08AE38093E80008950E94BF0390E006
:100810000895CF93DF931F92CDB7DEB7FC01848597
:10082000958597FD08C02FEF3FEF358724870F9000
:10083000DF91CF910895CE0101960E949503019713
:1008400019F4898190E0F3CF8FEF9FEFF0CF0F93F2
:100850001F93CF93DF931F92CDB7DEB78C01FC01BE
:100860008485958597FF0BC0CE0101960E94950364
:10087000019771F4898190E0F80195878487F801E8
:10088000848595850F90DF91CF911F910F910895E9
:100890008FEF9FEFF1CFFC018485958597FD0BC00D
:1008A0009FB7F89482E08093E9008091F2009FBFA7
:1008B00090E0019608959FB7F89482E08093E90054
:1008C0008091F2009FBF90E0089540919305509170
:1008D0009405209191053091920542175307B4F485
:1008E0009091E8009570E1F39091E80092FD19C0B5
:1008F0008093F100809193059091940501968F73F8
:100900009927892B19F48EEF8093E8008091930545
:10091000909194050196909394058093930581E0BE
:10092000089580E00895EF92FF920F931F93CF9365
:10093000DF93F82E192FE62E042F81E0860F880F03
:100940000E94650483E00E946504CF2DD12FEC0E38
:10095000FD2EF11CCE15DF05B9F007FF13C0FE0117
:1009600084910E946504182F80E00E946504812311
:1009700021968111EFCFDF91CF911F910F91FF90C1
:10098000EF9008958881EDCF81E0F5CFDF92EF926F
:10099000FF920F931F93CF93DF93D82E8A01EB0121
:1009A0007B01E40EF51ECE15DF0559F0D7FE12C00F
:1009B000FE0184910E94650421968111F4CF0FEF0E
:1009C0001FEFC801DF91CF911F910F91FF90EF9022
:1009D000DF9008958881EECF0F931F93CF93DF931D
:1009E0001F92CDB7DEB782E0898342E450E069ED23
:1009F00075E080E80E94C6040E94D003DC011296D4
:100A00000D911C910115110589F0D801ED91FC9112
:100A10000280F381E02DBE016F5F7F4FC801099511
:100A200097FD04C0F80100851185ECCF89810F90F6
:100A3000DF91CF911F910F910895615030F0209177
:100A4000F100FC0120830196F8CF289884E680937A
:100A5000A50508953FB7F89480918D0590918E0576
:100A6000A0918F05B091900526B5A89B05C02F3F9A
:100A700019F00196A11DB11D3FBFBA2FA92F982FC4
:100A80008827BC01CD01620F711D811D911D42E0BF
:100A9000660F771F881F991F4A95D1F708958F9287
:100AA0009F92AF92BF92CF92DF92EF92FF926B0133
:100AB0007C010E942A054B015C01C114D104E104B0
:100AC000F104B9F00E942A05681979098A099B097D
:100AD000683E73408105910580F321E0C21AD10878
:100AE000E108F10888EE880E83E0981EA11CB11C75
:100AF000E4CFFF90EF90DF90CF90BF90AF909F90AA
:100B00008F90089565E070E080E090E00C944F05D0
:100B10008F929F92AF92BF92CF92DF92EF92FF920D
:100B20000F931F93CF93DF936C017B018A01809118
:100B30000D01882309F45CC08091A605882309F47F
:100B400057C08091980580FF05C08091E0008260C9
:100B50008093E000E801B12C8AEFA82E93E0892E63
:100B60002AE3922E209711F4BB20D9F10E94BF03F3
:100B700081110AC0AA94AA20D9F161E070E080E056
:100B800090E00E944F05EECF8C171D0611F00CF07F
:100B90008C2F9FB7F8948092E9002091E80025FD02
:100BA00002C09FBFDFCF282F30E0C21BD30BF7015D
:100BB000815020F041914093F100FACFE20EF31EF4
:100BC000BB2021F09092E800B12CEBCF8091E8009F
:100BD00085FDE7CF9092E800BB24B394209709F3FA
:100BE000F3CF5D9884E680939705101611063CF0CC
:100BF00081E090E0F6019383828310E000E0C80179
:100C0000DF91CF911F910F91FF90EF90DF90CF90E8
:100C1000BF90AF909F908F900895AF92BF92CF9268
:100C2000DF92EF92FF920F931F93CF93DF936C01AC
:100C30007B018B01040F151FEB015E01AE18BF088D
:100C4000C017D10759F06991D601ED91FC9101903F
:100C5000F081E02DC6010995892B79F7C501DF9157
:100C6000CF911F910F91FF90EF90DF90CF90BF90A9
:100C7000AF9008958FB18095807F669B88601C9BA4
:100C800084600895480F592F511D14161506D4F588
:100C900080389105BCF597FF02C090E080E04138B4
:100CA000510514F040E850E0481BFB0177FD3796F2
:100CB00033E0F595E7953A95E1F7F695FE2FEE27A7
:100CC000F795E795E80FF91FE458FE4F677077270F
:100CD00081E090E001C0880F6A95EAF7382F213053
:100CE00041F4415078F08191DF011197832B8C936F
:100CF000F8CF8095415030F09191DF011197982302
:100D00009C93F8CF0895ECE7F1E080E0A0E0B8E034
:100D100000800EBC8111012C1197A0FDFDCF019226
:100D2000B9F70DB40895462F477066956695669598
:100D300090E8699FB001112464587E4F860F972F69
:100D4000911DFC01808190E021E030E0042E02C082
:100D5000220F331F0A94E2F78223932302C0959552
:100D600087954A95E2F7089580389105B8F4603484
:100D70007105A0F420E191E061FD94E060FD990F20
:100D800062FD9295687F269FD0011124A80FA45878
:100D9000BE4F8C9140FF03C0892B8C930895909592
:100DA0008923FBCF2F923F924F925F926F927F9257
:100DB0008F929F92AF92BF92CF92DF92EF92FF926B
:100DC0000F931F93CF93DF93EC018B017A0169019D
:100DD000C61AD70AD7FE03C0D194C194D1084701DF
:100DE0008C1A9D0A97FE03C09194819491088C14EB
:100DF0009D0454F49E2D8F2D7901292F382F9C2F7F
:100E00008D2FE801092F182FEC16FD0654F4902FB2
:100E1000812F8901292F382F9C2F8D2FE701E92E53
:100E2000F82E17012C1A3D0A2901401A510A57FEC3
:100E300003C0519441945108310137FE03C08FEF34
:100E4000681A780A759467948FEF021713070CF4E9
:100E500081E0A82E880FBB08EC16FD06A4F041E047
:100E6000BE01C8018C149D0414F0B801CE010E948B
:100E7000B4066418750877FE04C00A0D1B1D620CC9
:100E8000731C2196E9CFDF91CF911F910F91FF90B5
:100E9000EF90DF90CF90BF90AF909F908F907F901A
:100EA0006F905F904F903F902F9008952F923F92B8
:100EB0004F925F926F927F928F929F92AF92BF926A
:100EC000CF92DF92EF92FF920F931F93CF93DF9316
:100ED00000D000D000D01F92CDB7DEB76D30D9F072
:100EE0003090000140907E0550907F05832D90E06A
:100EF0009F838E836A3051F510927D0510927C0598
:100F000023E0880F991F2A95E1F7480E591E509249
:100F10007F0540927E0581E090E027960FB6F89419
:100F2000DEBF0FBECDBFDF91CF911F910F91FF901C
:100F3000EF90DF90CF90BF90AF909F908F907F9079
:100F40006F905F904F903F902F900895A0907C05F8
:100F5000B0907D0595E0699FB0011124FB01E45339
:100F6000FF4F3F016501212CF5E02F1629F1C30148
:100F70000196F301F491F9833C01420128E02A83B0
:100F8000898181708D8310E000E00315D0F4F801B1
:100F9000EC0DFD1DFC83EB83F12CE12CE31470F4CC
:100FA000B4016E0D7F1D4D818B819C810E94B40622
:100FB000FFEFEF1AFF0AF2CF1982DFCF0F5F1F4F4B
:100FC000E4CF2981269529838A8181508A83EE8105
:100FD000FF818E0E9F1E8111D3CF2394CE0EDF1E74
:100FE000F6E02F12C1CFC501329C800D911D112456
:100FF00090937D0580937C058ECF6F927F928F9228
:101000009F92AF92BF92CF92DF92EF92FF920F9397
:101010001F93CF93DF938091F9059091FA05EC012E
:1010200097FDEF9626E0D595C7952A95E1F76E01D5
:1010300022E0C21AD10860E470E00E94C3287C015B
:1010400022E0E21AF108882499248C1A9D0A3C01B6
:1010500023E0620E711C23968601540182E0A80EE3
:10106000B11C00381105D8F420E4E216F104B8F4FC
:10107000409178015091790160917A0170917B01E2
:10108000C501800F911F04C07695679557954795C8
:101090008A95D2F74170B701C8010E94B4060F5F6C
:1010A0001F4F0C171D07E9F68FEFE81AF80A25E025
:1010B000820E911CE614F70479F610927701DF9105
:1010C000CF911F910F91FF90EF90DF90CF90BF9045
:1010D000AF909F908F907F906F9008958FE390E1F5
:1010E00090935208809351081092930883E0809364
:1010F0004F0880914E088B7F80934E0884E090E0EB
:101100009093460880934508109246071092450731
:101110008FE390E090934807809347078FEF9FE11C
:1011200090934A078093490780EC9FE190934C0786
:1011300080934B0785E99AE090931E0780931D07E3
:101140008AE695E19093200780931F0782E090E064
:10115000909322078093210721E030E03093240709
:10116000209323072FEF3FEF309326072093250787
:101170009093280780932707E9E2F7E080911D0705
:1011800090911E078193919380911F079091200762
:101190009783868387E0E133F80781F710923A0757
:1011A0001092390710920107109276011092750182
:1011B000109274011092770181E090E09093850580
:1011C0008093840508954F925F926F927F928F92E1
:1011D0009F92AF92BF92CF92DF92EF92FF920F93C6
:1011E0001F93CF93DF938091510890915208EC01A7
:1011F00097FDEF9626E0D595C7952A95E1F72297BA
:1012000060E470E00E94C32837ECC32E30E0D32E98
:101210008C01025011092C0123E0420E511C40E8C0
:10122000642E712CF601A490F12CE12CB12CC30199
:101230000E2C02C0959587950A94E2F78A219B218E
:10124000892BB1F04E018E0C9F1CF0E88F16910493
:1012500078F40034110560F4602F8C2F8E0D0E94FD
:10126000930641E0811140E0B801C4010E94B40638
:101270002FEFE21AF20A85E0E816F104C1F6EFEF6B
:10128000CE1ADE0A0F5F1F4F0415150559F6DF91C0
:10129000CF911F910F91FF90EF90DF90CF90BF9073
:1012A000AF909F908F907F906F905F904F90089538
:1012B0008F929F92AF92BF92CF92DF92EF92FF9266
:1012C0000F931F93CF93DF9375E4C72E77E0D72E4C
:1012D000F12CE12CE0E4AE2EB12C60914508709128
:1012E0004608E616F7060CF07BC0F6010191119155
:1012F0006F01FFEFEF1AFF0AC7010E94C328FC012C
:10130000EE0FFF1FEB5BF84FC0814181C801B501B3
:101310000E94C328FC018C2F942FB5010E94C32882
:1013200017FF02C0015C1F4F56E0159507955A95AF
:10133000E1F72C2F342F37FF02C0215C3F4F46E0EE
:10134000359527954A95E1F7E817F907D1F4C901D2
:10135000801B910B422F401B4F5F181619061CF083
:1013600041E0400F421BE034F10508F0B6CFC9015F
:10137000021713070CF4C80121E0BF010E944206C6
:10138000ACCF2017310709F0A8CF9C012E1B3F0BD3
:10139000882E8E1A83941216130624F088248394C0
:1013A0008E0E881A8E179F070CF4FC018E0E9F2E4E
:1013B000911CEF01F7FF02C0D0E0C0E0C40121E4BE
:1013C0008216910414F080E490E0C817D9070CF05D
:1013D00084CF41E0BE01C8010E94B4062196EECF41
:1013E000DF91CF911F910F91FF90EF90DF90CF9001
:1013F000BF90AF909F908F9008952F923F924F9201
:101400005F926F927F928F929F92AF92BF92CF9294
:10141000DF92EF92FF920F931F93CF93DF9300D051
:1014200000D0CDB7DEB79B019A83898397FF05C0B3
:10143000AC01415C5F4F5A83498349815A81E6E0A0
:1014400055954795EA95E1F75C834B8360E470E03E
:101450000E94C328FC016C01390137FF03C05FE320
:10146000650E711C76E0759467947A95E1F7C90171
:1014700060E470E00E94C3285C0183018B819C8141
:10148000081B190B17FF03C01195019511092B813A
:101490003C8144244A94542C261537051CF44424DA
:1014A0004394512C7501EE1AFF0AF7FE03C0F19424
:1014B000E194F108442755274E195F095A8349835F
:1014C00022242A94322CEA15FB051CF422242394AE
:1014D000312C48018E189F086C2D8B810E94930639
:1014E00041E0811140E0B6018B819C810E94B406ED
:1014F0008B819C818615970519F4CA14DB04C1F011
:10150000C401880F991F29813A812817390744F4AB
:101510008E189F084B815C81440D551D5C834B8365
:1015200080179107CCF6800E911EC20CD31CD4CF2D
:101530000F900F900F900F90DF91CF911F910F910F
:10154000FF90EF90DF90CF90BF90AF909F908F90E3
:101550007F906F905F904F903F902F9008956F9283
:101560007F928F929F92AF92BF92CF92DF92EF9233
:10157000FF920F931F93CF93DF9380917401882381
:1015800009F454C08091FB059091FC05EC0197FD96
:10159000EF9626E0D595C7952A95E1F76E0122E0F2
:1015A000C21AD10860E470E00E94C3287C0122E0E6
:1015B000E21AF108882499248C1A9D0A3C0123E040
:1015C000620E711C23968601540182E0A80EB11CA4
:1015D00000381105D8F420E4E216F104B8F4409183
:1015E0007001509171016091720170917301C50198
:1015F000800F911F04C076956795579547958A95FA
:10160000D2F74170B701C8010E94B4060F5F1F4FA7
:101610000C171D07E9F68FEFE81AF80A25E0820E8D
:10162000911CE614F70479F610927401DF91CF91C2
:101630001F910F91FF90EF90DF90CF90BF90AF90F0
:101640009F908F907F906F9008952F923F924F922E
:101650005F926F927F928F929F92AF92BF92CF9242
:10166000DF92EF92FF920F931F93CF93DF939093AC
:10167000FC058093FB0521E020937401109270011A
:101680001092710110927201109273018C0197FFF8
:1016900002C0015C1F4F26E0159507952A95E1F7DA
:1016A000180122E0221A310860E470E00E94C32889
:1016B000EC012297D12CC12C280183E0480E511C4B
:1016C000812C912C54018394710125E02C9D3001D3
:1016D0002D9D700C1124601A710A82E0680E711C35
:1016E00020E8E216F10448F5C034D10530F56C2F3E
:1016F0008E2D0E949306882301F1C3018E0D9F1D3C
:10170000B501A40104C0440F551F661F771F8A95B9
:10171000D2F78091700190917101A0917201B09106
:101720007301842B952BA62BB72B8093700190937C
:101730007101A0937201B09373018FEFE81AF80A58
:101740004E145F0469F62FEFC21AD20A219685E083
:10175000C816D10409F0B8CFDF91CF911F910F9136
:10176000FF90EF90DF90CF90BF90AF909F908F90C1
:101770007F906F905F904F903F902F900895FC0165
:101780002081762F622F718360830895CF930E940A
:101790003A0685FBCC27C0F90E943A0686FDC26056
:1017A0000E943A0687FDC4600E943A0684FDC86024
:1017B0000E943A0683FDC0610E943A0682FDC06223
:1017C0008C2FCF91089508952F923F924F925F9260
:1017D0006F927F928F929F92AF92BF92CF92DF9241
:1017E000EF92FF920F931F93CF93DF93CDB7DEB7A6
:1017F000AA970FB6F894DEBF0FBECDBF20906A0146
:1018000030906B0122E0221631040CF0E5C080918B
:10181000F7059091F8059C0197FF02C0215C3F4FAE
:10182000A90126E0559547952A95E1F75CA34BA3BE
:1018300060E470E00E94C3283C018EE0E2E1F1E048
:10184000DE01519601900D928A95E1F72E0151E14A
:10185000450E511CCE01499698A38F8F5AA249A2DA
:10186000E0916801F0916901FEA3EDA3F20181917D
:1018700091912F01CDA0DEA0C81AD90A1C141D0415
:101880000CF05CC010E000E093012C193D0938A772
:101890002FA3A601460D571D5AA749A72BA13CA16E
:1018A000200F311F3A8329838FA198A5800F911FA4
:1018B0009C838B833E832D8349A55AA5401B510BE6
:1018C00058874F832BA13CA1201B310B3A872987D6
:1018D0005C874B873E872D87988B8F87CE0101963B
:1018E0007C01F701A080B180F0E8AF16B104C0F42C
:1018F000F70182809380F0E48F16910488F421E050
:101900002216310411F440E007C0682D8A2D0E9490
:10191000930641E08111F7CFB401C5010E94B406DE
:1019200034E0E30EF11C49A15AA14E155F05C9F63A
:101930000F5F1F4FC016D1060CF0B0CF8F8D98A14E
:101940004816590609F08CCF809166019091670185
:10195000019618161906ECF09093670180936601C2
:10196000AA960FB6F894DEBF0FBECDBFDF91CF9120
:101970001F910F91FF90EF90DF90CF90BF90AF90AD
:101980009F908F907F906F905F904F903F902F909F
:101990000895109267011092660180916401909100
:1019A0006501EDA1FEA18E0F9F1F8D32F1E09F0713
:1019B0002CF49093690180936801D2CF81E090E08C
:1019C00090936901809368012FEF221A320A3092B6
:1019D0006B0120926A01C4CF21E040E870E060E032
:1019E00090E080E00E9442060E94830601E010E041
:1019F00041E0B80190E080E00E94B40620E04EE7AC
:101A0000B80181E090E00E94420641E0B8018FE712
:101A100090E00E94B4060E9483060E5F1F4F0F33B2
:101A2000110531F702E010E041E0B80190E080E0FC
:101A30000E94B40620E04EE7B80181E090E00E94E9
:101A4000420641E0B8018FE790E00E94B4060E9490
:101A500083060E5F1F4F0034110531F721E040E887
:101A60006FE370E090E080E00E9442060E948306EF
:101A700068EE73E080E090E00E944F050E946E08DF
:101A8000AA960FB6F894DEBF0FBECDBFDF91CF91FF
:101A90001F910F91FF90EF90DF90CF90BF90AF908C
:101AA0009F908F907F906F905F904F903F902F907E
:101AB0000C9458092F923F924F925F926F927F92AF
:101AC0008F929F92AF92BF92CF92DF92EF92FF924E
:101AD0000F931F93CF93DF93CDB7DEB7C154D109D6
:101AE0000FB6F894DEBF0FBECDBF0E94AF0AC09004
:101AF0007501D0907601D7FC32C0760120E4C21681
:101B0000D1047CF181E090E0909385058093840579
:101B100010927601109275010E9458098091510827
:101B2000909152080E94250BCF5BDF4F0FB6F894BF
:101B3000DEBF0FBECDBFDF91CF911F910F91FF9000
:101B4000EF90DF90CF90BF90AF909F908F907F905D
:101B50006F905F904F903F902F900C94E308F12C82
:101B6000E12C40916E0122964FAF229760906C015C
:101B700070906D01BDEF4B2EB5E05B2E10E000E0E4
:101B8000B12CA12C80E4882E912C061517050CF49D
:101B90004CC0FE01339621E030E02A153B050CF4E1
:101BA000B5C0FE0131963F0188248394912C8A149C
:101BB0009B040CF0DFC0D3018D919C91119712967C
:101BC0004D905C908C010F5F1F4F0415150534F587
:101BD000481A590AB2E04B16510404F1E114F10419
:101BE000E9F0480E591E2296EFAD2297EE2309F434
:101BF000B0C0C701800F911F80FD0BC06E2D802FDC
:101C00000E949306811105C041E0B701C8010E94FE
:101C1000B4060F5F1F4F0415150559F7F2E08F0E3C
:101C2000911C24E0620E711CC2CFD2012D913D9116
:101C30002D010F5F1F4FC801B3010E94C328FC0193
:101C4000EE0FFF1FE350FA4F30802180C901B4012D
:101C50000E94C328FC01832D922DB4010E94C32849
:101C6000AF018E179F070CF4AC01E416F5060CF4D7
:101C70008CCFAF01E817F9070CF4AC01E416F506B8
:101C80000CF083CFE817F90709F47FCF37FF02C0C4
:101C9000215C3F4F76E0359527957A95E1F7432D06
:101CA000522D57FF02C0415C5F4F66E05595479546
:101CB0006A95E1F724173507A9F0B7016E1B7F0B72
:101CC000421B530B649FD001659FB00D749FB00DF4
:101CD0001124BC016E1B7F0BCD010E94C328AB01F8
:101CE000420F531FB0E2AB16B1040CF04ECFF5011A
:101CF000EE0FFF1F81E090E08C0F9D1FE80FF91F92
:101D000051834083D50111965D013FCFDF010D91D5
:101D10001D914D01C9010197DF017E916E9106175A
:101D200017073CF4718360830197FD018F3F98078B
:101D300099F7FC013196EE0FFF1F81E090E08C0FC8
:101D40009D1FE80FF91F118300832F5F3F4FF401A0
:101D500024CF6E2D802F0E949306811105C041E093
:101D6000B701C8010E94B4060F5F1F4F0415150587
:101D700081F754CF4FEFC41AD40AD0927601C092A3
:101D8000750180E4C816D1040CF4C6CE81E090E061
:101D900090938505809384051092760110927501C9
:101DA00080915108909152080E94250BB5CE1F9347
:101DB000CF93DF930E94C60B182F10927D051092CF
:101DC0007C0510927F0510927E0581E080930001D2
:101DD000CCEAD0E0FE016491662339F08DEF96E005
:101DE0000E9456072196892BA9F7112331F081E033
:101DF00090E09093850580938405DF91CF911F91AA
:101E000008951F93CF93DF93EC01FB011881498163
:101E1000812F942F60E470E00E94C328E80FF91F1F
:101E2000212F342F37FF02C0215C3F4F207CE0344C
:101E3000F10540F42E0F3F1F39832883DF91CF91A6
:101E40001F910895280F391FF7CFCF93DF93EC012F
:101E5000888199819C0197FF02C0215C3F4FE6E099
:101E600035952795EA95E1F7FB01E20FF31F60E452
:101E700070E00E94C328E038F10560F456E0EE0FF0
:101E8000FF1F5A95E1F78E0F9F1F99838883DF917B
:101E9000CF91089546E0220F331F4A95E1F7820F54
:101EA000931FF3CF60FF04C06FEF7FEF0C94250FFB
:101EB00061FF03C061E070E0F9CF62FF04C06FEF23
:101EC0007FEF0C94010F63FF03C061E070E0F9CF76
:101ED0000895CF93DF93C0915108D091520860913B
:101EE00047086F70862321F081E598E00E94520F29
:101EF0002091510830915208AE01D7FF02C0415CD9
:101F00005F4F76E0559547957A95E1F7C90137FD22
:101F1000CF9666E0959587956A95E1F7481759073A
:101F200071F4E0E4F0E0CE01BF010E94C328EC01AF
:101F3000C901BF010E94C328C817D90741F01092F8
:101F400095081092940881E0DF91CF91089580E088
:101F5000FBCF089590E080E008950F931F93CF93F7
:101F6000DF93FC01CB01AB0177FF02C0415C5F4F07
:101F700076E0559547957A95E1F79F01F7FF02C006
:101F8000215C3F4F66E0359527956A95E1F742174A
:101F90005307C4F024173507BCF422E000E410E036
:101FA000B8010E94C328EC01CF01B8010E94C328E8
:101FB000C817D9075CF42460822FDF91CF911F915D
:101FC0000F91089521E0EACF20E0E8CF8C179D071C
:101FD0009CF72860F1CFCF92DF92EF92FF920F93A0
:101FE0001F93CF93DF9310924F08E0914808F09130
:101FF0004908CF019927DC01AA0FBB1FAB5BB84F83
:102000000D911C912F2F30E0D901AA0FBB1FAB5BA4
:10201000B84FCD91DC91E0904508F09046080197CB
:102020008E0D9F1DB7010E94C328DC01AA0FBB1FA4
:10203000AB5BB84FCD90DC90C9010196B7010E940F
:10204000C328DC01AA0FBB1FAB5BB84FED90FC901F
:10205000FE1315C0B601C8010E94AD0FC82FB7010D
:10206000C8010E94AD0F8C2B80934F08DF91CF9158
:102070001F910F91FF90EF90DF90CF900895E09027
:102080005108F0905208B801C7010E94AD0F182FF7
:10209000BE01C7010E94AD0F812BE6CFCF93DF9326
:1020A0009C01CB01B90137FF02C0615C7F4FF6E0B4
:1020B00075956795FA95E1F7AC0197FF02C0415C11
:1020C0005F4FE6E055954795EA95E1F76417750788
:1020D00079F4E0E4F0E0BF010E94C328EC01C901FB
:1020E000BF010E94C3289C0181E0C217D30709F0F9
:1020F00080E0DF91CF910895CF92DF92EF92FF922F
:102100000F931F93CF93DF939C01CB017A018B0137
:1021100077FF02C0015C1F4F76E0159507957A9511
:10212000E1F7F701F7FCFF9656E0F595E7955A952C
:10213000E1F760E4C62ED12CB6010E94C328EC0161
:10214000C701B6010E94C3287C018C179D070CF4BF
:102150004EC00E171F07F9F4FC01C90137FDCF96D9
:1021600046E0959587954A95E1F70817190789F490
:10217000C90160E470E00E94C3289C01EC16FD06D2
:102180000CF4E7012C173D0724F081E0E217F30778
:102190002CF580E023C0C817D907D9F7C901B601CB
:1021A0000E94C328C817D907A1F737FF02C0215CD6
:1021B0003F4F86E0359527958A95E1F7C801E017EE
:1021C000F1070CF4CF01281739071CF30E171F076E
:1021D0000CF48F0181E002171307DCF2DF91CF913D
:1021E0001F910F91FF90EF90DF90CF9008950E1701
:1021F0001F0779F6FE01B1CF3F924F925F926F9227
:102200007F928F929F92AF92BF92CF92DF92EF9286
:10221000FF920F931F93CF93DF93382F292F6B01DA
:102220005A0160E470E00E94C328EC01632E722E14
:1022300077FE03C08FE3680E711C06E07594679407
:102240000A95E1F72601F12CE12CF0E0E0E080E4D2
:10225000882E912CEA14FB040CF091C0D2012D9130
:102260003D912D01BFEFEB1AFB0AC701B5010E949A
:10227000C328DC01AA0FBB1FAC0DBD1D4C911196EC
:102280003C90C901B4010E94C3288C01842F932D76
:10229000B4010E94C328C017D107CCF1C817D907D1
:1022A000CCF637FF02C0215C3F4FB901B6E075950F
:1022B0006795BA95E1F7242F332D37FF02C0215CD3
:1022C0003F4FA6E035952795AA95E1F7261B370BDA
:1022D000AE01401B510B249FD001259FB00D349FB0
:1022E000B00D1124AC01401B510B9301261B370B81
:1022F000429FC001439F900D529F900D1124A81B37
:10230000B90B1A161B060CF0A5CF3196A3CFC81730
:10231000D9070CF49FCF37FF02C0215C3F4FB901B2
:1023200056E0759567955A95E1F7242F332D37FFC1
:1023300002C0215C3F4F46E0359527954A95E1F76D
:10234000261B370BAE01401B510B249FD001259F4C
:10235000B00D349FB00D1124AC01401B510B930103
:10236000261B370B429FC001439F900D529F900D3B
:102370001124A81BB90BB7FF6DCF31976BCF81E04C
:10238000EF2B09F480E0DF91CF911F910F91FF9027
:10239000EF90DF90CF90BF90AF909F908F907F9005
:1023A0006F905F904F903F9008952F923F924F9281
:1023B0005F926F927F928F929F92AF92BF92CF92D5
:1023C000DF92EF92FF920F931F93CF93DF93CDB7DE
:1023D000DEB7C650D1400FB6F894DEBF0FBECDBFFA
:1023E000209193082230E0F410929308CA5FDE4FE8
:1023F0000FB6F894DEBF0FBECDBFDF91CF911F9116
:102400000F91FF90EF90DF90CF90BF90AF909F9093
:102410008F907F906F905F904F903F902F90089596
:1024200000914A0810914B0838017724012F112799
:10243000780120904C0830904D0821015524232C20
:10244000332430E046145704B4F5C9010E947503E3
:1024500081011701962D872D3201492E582EFE013C
:1024600031966F01CE018F5F9E4F11921192E81746
:10247000F907D9F743E558E0CF5FDE4F598348832A
:10248000C150D140CB5FDE4FD982C882C550D14008
:10249000F601DA01F12CE12CA0909308B12CEA149A
:1024A000FB040CF07BC05FEFE51AF50A8D919D915E
:1024B00081939193F1CF6414750489F6F301EE0FC3
:1024C000FF1FEB5BF84FE080F180F801EE0FFF1F7C
:1024D000EB5BF84FC080D180A701F7FE02C0415CE2
:1024E0005F4FB6E055954795BA95E1F7B601D7FE2F
:1024F00002C0615C7F4FF6E075956795FA95E1F74C
:10250000F901EE0FFF1FEF5AF74F80819181A090E4
:102510005308B09054086417750701F1FC01F7FDEA
:10252000FF96CF01E6E095958795EA95E1F7F501ED
:10253000B7FCFF96B6E0F595E795BA95E1F7461733
:10254000570744F48E179F070CF089CFC9010E94EA
:10255000750385CFE817F907CCF381CFE0E4F0E00D
:10256000BF010E94C3284C01C501BF010E94C328BE
:102570005C01C601BF010E94C3286C01C701BF01F5
:102580000E94C3288C159D0524F48A149B04F4F240
:1025900066CFA814B9040CF062CFD8CFC1014214A1
:1025A000530441F46091450870914608C2010196B8
:1025B0000E94C328F701EE0FFF1FEC0DFD1D8615CD
:1025C0009705C1F0A0E8EA16F10469F1BFEFEB1A34
:1025D000FB0ADC01AA0FBB1FAB5BB84F2D913C91EE
:1025E00021933193019660914508709146080E94AD
:1025F000C328E5CF60167106B1F0E0E8EE16F104ED
:1026000094F4F701EE0FFF1FEC0DFD1DD301AA0F8F
:10261000BB1FAB5BB84F8D919C9191838083A701C9
:102620004F5F5F4F7A0180911D0790911E07E091E7
:102630001F07F09120079C0197FF02C0215C3F4FCC
:1026400046E0359527954A95E1F7AF01F7FF02C0BF
:10265000415C5F4FB6E055954795BA95E1F7240F79
:10266000351F37FF02C02F5F3F4F35952795D901A2
:1026700076E0AA0FBB1F7A95E1F7CD5FDE4FB983F5
:10268000A883C350D140A0E48A2E912CB4010E94AB
:10269000C3289C01CF01B4010E94C328280F391F11
:1026A00037FF02C02F5F3F4F35952795A701B60131
:1026B000CD5FDE4F88819981C350D140820F931F37
:1026C0000E94FC10882309F49AC064147504B9F5BB
:1026D000EDEFF5E090E080E0A816B90691F00196E4
:1026E000CF5FDE4FA881B981C150D1402D913D917E
:1026F000CF5FDE4FB983A883C150D140219331937E
:10270000EBCFB0926D01A0926C01E5E4F7E090E0B0
:1027100080E0E816F90609F407C1CB5FDE4FA88117
:10272000B981C550D1402D913D91CB5FDE4FB9832A
:10273000A883C550D140219331930196EACF60160A
:10274000710649F4C80101966091450870914608E8
:102750000E94C3288C01EDEFF5E030E020E0041585
:102760001505C1F02038310559F12F5F3F4FD801D1
:10277000AA0FBB1FAB5BB84F8D919C918193919336
:10278000C801019660914508709146080E94C328CF
:102790008C01E5CF0215130599F02038310581F041
:1027A000F901EE0FFF1FE350FA4FD801AA0FBB1F2C
:1027B000AB5BB84F8D919C91918380832F5F3F4F8E
:1027C000F501EE0FFF1FE95BF74FD901AA0FBB1F01
:1027D000A350BA4F47E458E04E175F0759F03297BD
:1027E0002038310539F02F5F3F4F848595858D93D3
:1027F0009D93F2CF30936D0120936C0186CFEDEF66
:10280000F5E0D60190E080E06414750409F049C059
:1028100090E080E0A816B90691F00196CF5FDE4FF8
:10282000A881B981C150D1402D913D91CF5FDE4F3C
:10283000B983A883C150D14021933193EBCFB0929B
:102840006D01A0926C016016710649F4C8010196F1
:1028500060914508709146080E94C3288C0196013A
:10286000F12CE12C0415150551F1B0E8EB16F1043B
:10287000F1F1EFEFEE1AFE0AF801EE0FFF1FEB5B2E
:10288000F84F80819181D9018D939D939D01C8015D
:10289000019660914508709146080E94C3288C01FA
:1028A000E1CFE816F90631F02D913D912193319356
:1028B0000196F7CFF0926D01E0926C01C4CF021542
:1028C0001305A9F0B0E8EB16F10489F0D701AA0FBF
:1028D000BB1FAC0DBD1DF801EE0FFF1FEB5BF84FEA
:1028E000808191818D939C93F70131967F01F50151
:1028F000EE0FFF1FE95BF74FD701AA0FBB1FAC0D0F
:10290000BD1D28E0E734F20709F4FFCE329740E816
:10291000E416F10409F4F9CE5FEFE51AF50A8485AF
:1029200095858D939D93EDCFF0924608E0924508F2
:10293000F0E0E0E090E4892E912C20914508309160
:102940004608E217F3070CF077C0253031050CF488
:1029500073C05F01BFEFAB1ABB0ACF010197820FB3
:10296000931FB9010E94C328DC01AA0FBB1FAB5BF8
:10297000B84FCD90DC90CF01880F991FAC014B5B15
:10298000584F3A01DA01ED90FC90C501B9010E945F
:10299000C328DC01AA0FBB1FAB5BB84F0D911C9184
:1029A000C601D7FCCF96A6E095958795AA95E1F745
:1029B000A701F7FE02C0415C5F4F76E05595479551
:1029C0007A95E1F784179507E1F4A80117FF02C093
:1029D000415C5F4F66E0559547956A95E1F784172E
:1029E000950779F4D301CF0121503109821793075C
:1029F000ECF4019612964D915C9113974D935D9373
:102A0000F5CFC601B4010E94C3286C01C701B4010F
:102A10000E94C328C816D90639F4C801B4010E941F
:102A2000C328C816D906F1F2F50187CF30934608BE
:102A3000209345085F01F8CF1092930880910B070F
:102A4000811110920B0780917701882309F4CECC75
:102A5000CA5FDE4F0FB6F894DEBF0FBECDBFDF9169
:102A6000CF911F910F91FF90EF90DF90CF90BF908B
:102A7000AF909F908F907F906F905F904F903F901E
:102A80002F900C94FD072F923F924F925F926F927E
:102A90007F928F929F92AF92BF92CF92DF92EF92EE
:102AA000FF920F931F93CF93DF93CDB7DEB7699754
:102AB0000FB6F894DEBF0FBECDBF282E2091470879
:102AC000922F9F7080914F08392F382309F122955A
:102AD0002F70A9F0921799F020919308203278F482
:102AE0004091510850915208E22FF0E0EE0FFF1F85
:102AF000ED5AF74F518340832F5F2093930840E1B5
:102B0000949F90011124922B909347080E94690F83
:102B100030909308332009F422C18091510890919C
:102B200052082091530830915408BC0197FF02C00D
:102B3000615C7F4FF6E075956795FA95E1F7A9011D
:102B400037FF02C0415C5F4FE6E055954795EA9537
:102B5000E1F76417750771F4E0E4F0E0BF010E944B
:102B6000C3288C01C901BF010E94C3280817190797
:102B700009F4F5C0C0905108D09052084090450823
:102B80005090460810E000E0041515050CF0E7C071
:102B900038018FEF681A780AC301B2010E94C32876
:102BA0007C01FC01EE0FFF1FEB5BF84FA080B180B2
:102BB000F801EE0FFF1FEB5BF84F80809180A501BD
:102BC000B401C6010E947C10882309F498C0B401A6
:102BD000C6010E944E10811102C2B501C6010E94B9
:102BE0004E108111870180914C0890914D088827E3
:102BF000082B192B10934D0800934C086E2D8CE474
:102C000098E00E94BF0B80919308803278F4209165
:102C1000510830915208E82FF0E0EE0FFF1FED5AF7
:102C2000F74F318320838F5F809393080E94D511E3
:102C300082E090E090938505809384051092760160
:102C40001092750120926E010E94AF0A95E4492E00
:102C500097E0592E10E000E0609145087091460819
:102C6000061717070CF075C038019FEF691A790A2B
:102C7000C3010E94C3287C01F201A190B1902F01F1
:102C8000FC01EE0FFF1FEB5BF84F80809180C0903E
:102C90005108D0905208B501C6010E944E108823F9
:102CA00081F180914808909149088827802B912BC9
:102CB0009093490880934808602F88E498E00E9428
:102CC000BF0B81E080936F010E94EB0F69960FB6F6
:102CD000F894DEBF0FBECDBFDF91CF911F910F9152
:102CE000FF90EF90DF90CF90BF90AF909F908F902C
:102CF0007F906F905F904F903F902F900895830149
:102D000043CFB401C6010E944E10882369F0809120
:102D100048089091490888278E299F29909349084F
:102D2000809348086E2DC9CFA401B501C6010E9449
:102D30007C10882361F08091480890914908882789
:102D4000082B192B1093490800934808EBCF8301F7
:102D500083CF80914F088F7C80934F08B2CF8091B2
:102D6000470882958F70813009F401C1823009F4DF
:102D700000C1843009F4FFC0883009F4FEC080E04F
:102D80008095182F1F70512EF1E0F31508F065C0E3
:102D9000232D30E0F9013197C0905108D0905208AE
:102DA000D901AA0FBB1FAF5AB74F8D919C91AC01AF
:102DB00097FF02C0415C5F4FB6E055954795BA95C5
:102DC000E1F7B601D7FE02C0615C7F4FA6E07595C2
:102DD0006795AA95E1F77A01E61AF70A1E141F040F
:102DE0001CF07B01E41AF50A60E4A62EB12CB501B3
:102DF0000E94C3284C01C601B5010E94C328A4014A
:102E0000481B590B141615061CF0AC01481959093A
:102E1000E40EF51E43E0E416F104FCF4EE0FFF1F90
:102E2000ED5AF74F60817181220F331FF901E15B89
:102E3000F74F808191810E94AD0F813009F49FC0CE
:102E4000823009F49EC0843009F49DC0883009F4B2
:102E50009CC080E0582E5094512280912001909186
:102E60002101A0912201B0912301898B9A8BAB8B18
:102E7000BC8B88E0E4E2F1E0DE01199601900D924E
:102E80008A95E1F788E0ECE2F1E0DE01119601902D
:102E90000D928A95E1F71E0181E1280E311C10E0A8
:102EA00000E0F10141901F01842D852109F448C003
:102EB0008091510890915208988F8F8BE9E0F0E053
:102EC000EC0FFD1FE00FF11FC080D180B601CE01D5
:102ED00047960E94250FE1E0F0E0EC0FFD1FE00FA8
:102EE000F11FA080B180B501CE0147960E94010F6D
:102EF000809045089090460830E020E0EF88F88CFC
:102F0000281539050CF043C03901FFEF6F1A7F0A0D
:102F1000C301B4010E94C328FC01EE0FFF1FEB5B4D
:102F2000F84F40815181220F331FF901EB5BF84FBD
:102F300060817181C7010E947C1093018823F1F2A6
:102F40000E5F1F4F0830110509F0ABCF8091930839
:102F50008F3130F08091470882958F7009F05822A8
:102F600080914F088073582A50924F08AFCE82E06C
:102F700007CF81E005CF88E003CF84E001CF82E076
:102F800069CF81E067CF88E065CF84E063CF40916F
:102F90009308498F842F8150990B4C0130E020E039
:102FA00028153905F4F439019FEF691A790AF901F6
:102FB000EE0FFF1FEB5AF74F40815181220F331F55
:102FC000F901ED5AF74F60817181C7010E947C10B1
:102FD0009301882329F3842D80955822B1CF78015D
:102FE00002CE498D442381F04091510850915208FE
:102FF000F401EE0FFF1FED5AF74F60817181C70199
:103000000E947C108111E7CFFE8AED8AB601CE01C5
:1030100045960E94250FB501CE0145960E94010FED
:10302000B0909308EB2DE150FF0B7F0130E020E0E2
:103030002E153F05D4F46901FFEFCF1ADF0AF9011D
:10304000EE0FFF1FEB5AF74F40815181220F331FC4
:10305000F901ED5AF74F608171818D899E890E9437
:103060007C109601882321F3B6CFBB2009F468CFEA
:103070004091510850915208F701EE0FFF1FED5A91
:10308000F74F608171818D899E890E947C10882311
:1030900009F456CFA0CFCF92DF92EF92FF926B014F
:1030A0007C01C114D104E104F10441F00E94E02745
:1030B000A70196010E9440286B017C01C701B6015F
:1030C000FF90EF90DF90CF9008952F923F924F9214
:1030D0005F926F927F928F929F92AF92BF92CF92A8
:1030E000DF92EF92FF920F931F93CF93DF93CDB7B1
:1030F000DEB72A970FB6F894DEBF0FBECDBF809122
:10310000770181110E94FD070E94AF0A0E94C60B41
:10311000382E282F2F70222E809150088F70809586
:10312000982F922380914708992309F450C0807FFB
:10313000892B809347083092500880914F08982F30
:10314000907331F4132D107309F048C010926F0181
:1031500020914F08822F807309F403C603E518E01D
:10316000EE24E394F12C80E4C82ED12C80919308B6
:10317000E82FF0E0EE16FF060CF0E9C0F801A19090
:10318000B1908F0190804181892D942FB6010E94CA
:10319000C3289C01E92DF42FF7FDFF96A6E0F595D5
:1031A000E795AA95E1F7C501B6010E94C328BC01C5
:1031B000C501B7FCCF96AF01E6E095958795EA95F6
:1031C000E1F70E94D206FFEFEF1AFF0ACFCF922F4E
:1031D000982309F0B0CF807F822BABCF90916F0105
:1031E0009111B6CF909147089F709B83992309F462
:1031F000AFCF892309F0ACCF80915108909152084C
:103200009A8389836B81CE0101960E94520F609050
:10321000450870904608A30165E477E089819A81AA
:103220000E94FC10882309F493CF80914F08812BD2
:1032300080934F0865E477E07E836D8310E000E0C3
:10324000061517050CF068C0ED81FE81A190B190C4
:10325000FE83ED832801FFEF4F1A5F0AC201B3011D
:103260000E94C3284C018F83FC01EE0FFF1FEB5B14
:10327000F84FC080D180E0905108F0905208A6012C
:10328000B501C7010E947C10882309F45CC0370196
:10329000F7FE03C02FE3620E711C46E0759467943D
:1032A0004A95E1F7C501B7FCCF9636E0959587952D
:1032B0003A95E1F76816790671F420E430E0C70129
:1032C000B9010E94C328FC01C501B9010E94C328AD
:1032D000E817F907D1F1C601D7FCCF9626E09595FE
:1032E00087952A95E1F76816790679F420E430E0AD
:1032F000C701B9010E94C328FC01C601B9010E949F
:10330000C328E817F90709F4840100934A086F817C
:103310008AE498E00E94BF0B809151089091520876
:10332000909354088093530881E0809393082091F0
:1033300047082F704B8130E1439FC0011124822B3D
:103340008093470805CF82017BCF0F83DECF882390
:1033500091F1EE0FFF1FEF5AF74F10813181F0917D
:103360005108E09152088F2F9E2F60E470E00E9478
:10337000C3287C014F2F5E2F57FF02C0415C5F4F77
:10338000FA01A6E0F595E795AA95E1F7812F932F2D
:1033900060E470E00E94C328A12FB32FB7FDDF9631
:1033A0009701AF01BC01CD01E6E095958795EA95BF
:1033B000E1F70E94D20634FEC1C480914F0884FF19
:1033C000BDC4809186059091870563E070E00E94FE
:1033D000AF28892B19F481E00E94431580910107E1
:1033E000811113C080914F08807390910B0799232E
:1033F00009F422C6209194083091950826303105B1
:1034000008F01AC681110E944E03009101070023A3
:1034100039F080914F08807309F019C610920107A6
:1034200080913D0790913E07019690933E078093CF
:103430003D0720913F0730914007821793070CF416
:1034400029C310923E0710923D07E0902107F090AB
:10345000220763E070E080E090E00E944B1800914A
:103460003B0710913C0711950195110961507109B5
:10347000810991096E0D7F1D601771073CF1E09085
:103480002107F090220763E070E080E090E00E9466
:103490004B1800913B0710913C076150710981095D
:1034A00091096E0D7F1D0617170784F00091210703
:1034B0001091220763E070E080E090E00E944B18DA
:1034C0006150710981099109060F171F1093220796
:1034D00000932107E0902307F090240763E070E059
:1034E00080E090E00E944B1800913B0710913C0750
:1034F00011950195110961507109810991096E0DAC
:103500007F1D601771073CF1E0902307F0902407BE
:1035100063E070E080E090E00E944B1800913B0770
:1035200010913C0761507109810991096E0D7F1D51
:103530000617170784F0009123071091240763E012
:1035400070E080E090E00E944B18615071098109A1
:103550009109060F171F1093240700932307E0908B
:103560002507F090260763E070E080E090E00E947D
:103570004B1800913B0710913C07119501951109DB
:1035800061507109810991096E0D7F1D60177107E6
:103590003CF1E0902507F090260763E070E080E0C2
:1035A00090E00E944B1800913B0710913C0761503E
:1035B0007109810991096E0D7F1D0617170784F0A7
:1035C000009125071091260763E070E080E090E00D
:1035D0000E944B186150710981099109060F171F4C
:1035E0001093260700932507E0902707F0902807FF
:1035F00063E070E080E090E00E944B1800913B0790
:1036000010913C07119501951109615071098109CB
:1036100091096E0D7F1D601771073CF1E09027073F
:10362000F090280763E070E080E090E00E944B1883
:1036300000913B0710913C07615071098109910984
:103640006E0D7F1D0617170784F000912707109154
:10365000280763E070E080E090E00E944B18615022
:10366000710981099109060F171F1093280700930C
:103670002707E0902307F09024078091210790917D
:103680002207892B49F4E114F10431F481E090E040
:103690009093220780932107C0902507D09026079A
:1036A000C114D10441F4012B31F481E090E09093F6
:1036B00028078093270720911F0730912007E0916A
:1036C0001D07F0911E07890137FF02C0015C1F4FE3
:1036D00096E0159507959A95E1F7CF01F7FDCF96FE
:1036E000B6E095958795BA95E1F7081B190B80E42C
:1036F000A82EB12CC901B5010E94C3284C01CF01ED
:10370000B5010E94C328881A990AA80117FF04C0AE
:1037100044275527401B510BB40197FE04C0662770
:10372000772768197909460F571F453151050CF461
:103730007AC04091210750912207101611060CF013
:1037400042C54F5F5F4F509322074093210741E0EE
:10375000C41AD108D0922607C092250740912707A6
:1037600050912807181419040CF037C57FEFE71A99
:10377000F70AF0922407E092230741505109509331
:1037800028074093270760912107709122074091F5
:103790003B0750913C0788279927841B950B681796
:1037A00079070CF424C5461757070CF4BA01709337
:1037B0002207609321076091230770912407B82F97
:1037C000A92F681779073CF0B42FA52F6417750748
:1037D00014F4B62FA72FB0932307A093240760916A
:1037E000250770912607B82FA92F681779073CF095
:1037F000B42FA52F6417750714F4B62FA72FB09315
:103800002507A0932607609127077091280768175E
:1038100079072CF0CA01641775070CF4CB0190935B
:103820002807809327078F01F7FF02C0015C1F4F15
:10383000B801A6E075956795AA95E1F77C836B833F
:1038400040902107509022075B01A40CB51CCF01CA
:1038500060E470E00E94C3288C0120902307309020
:1038600024076C01C20CD31C490137FF03C07FE35E
:10387000870E911C76E0959487947A95E1F7809174
:103880002507909126079E838D837C01E80CF91C07
:10389000C90160E470E00E94C3289A878987E0919B
:1038A0002707F0912807F887EF833C016E0E7F1EF3
:1038B000F0E8AF16B10408F520E4C216D104E8F42C
:1038C0006C2D8A2D0E9493068823B9F088279927AA
:1038D00084199509909322078093210788279927B7
:1038E000821993099093240780932307AB80BC80AF
:1038F000A418B5086801C218D30830E8E316F1042B
:1039000038F540E46416710418F5662D8E2D0E947A
:1039100093068823E9F08D819E8191958195910987
:1039200090932607809325078F819885919581959F
:103930009109909328078093270774016D817E81F8
:10394000E61AF70A69847A848F819885681A790A59
:1039500092E0A91AB108ECE7AE16B10458F08091D4
:1039600021079091220791958195910990932207C3
:1039700080932107F2E0CF1AD1082CE3C216D104BC
:1039800058F0809123079091240791958195910992
:10399000909324078093230732E0E31AF1084CE761
:1039A000E416F10458F0809125079091260791952F
:1039B00081959109909326078093250762E0661A06
:1039C00071087CE36716710458F080912707909185
:1039D000280791958195910990932807809327074F
:1039E0002091250730912607280D391D2F373105E5
:1039F00014F02EE730E01216130614F021E030E048
:103A0000409127075091280789859A85480F591FAB
:103A10004F33510514F04EE350E01416150614F020
:103A200041E050E08091210790912207EB81FC81D9
:103A30008E0F9F1F8F37910514F08EE790E01816B8
:103A4000190614F081E090E066E0880F991F6A95EE
:103A5000E1F76091230770912407060F171F0F33BA
:103A6000110514F00EE310E01016110614F001E039
:103A700010E0800F911F90931E0780931D0716E0A2
:103A8000220F331F1A95E1F7240F351F30932007BB
:103A900020931F078091840590918505019709F077
:103AA00034C180915108909152080E94250B0E94C8
:103AB000E308609143077091440777278091800560
:103AC000909181050E94AF28892B09F052C0609126
:103AD0001F077091200780911D0790911E070E947B
:103AE000FD098091390790913A07FC01EE0FFF1F05
:103AF000E75DF84F20911D0730911E073183208329
:103B0000FC01EE0FFF1FEF5CF84F20911F07309173
:103B1000200731832083019664E070E00E94C3286F
:103B200090933A07809339079C012A5F3F4FF90130
:103B3000EE0FFF1FE35EF84F4081518157FF02C037
:103B4000415C5F4F66E0559547956A95E1F7452BD7
:103B500081F0880F991FFC01EF5CF84F6081718143
:103B6000220F331FF901E35EF84F808191810E949B
:103B7000FD0980910107882309F4C7C080910207DD
:103B8000909103079093FA058093F90521E0209323
:103B90007701109278011092790110927A011092B7
:103BA0007B014C0197FF03C0FFE38F0E911C26E0C1
:103BB000959487942A95E1F7140122E0221A31089E
:103BC00060E470E00E94C3288C0102501109580182
:103BD000D12CC12CB4016D5F7F4F7C836B83412C52
:103BE000512C32014394710175E07C9DC0017D9D93
:103BF000900D112488199909FC013296FE83ED83FA
:103C0000F0E8EF16F10458F520E4A216B10438F5F7
:103C10006A2D8E2D0E949306882309F18D819E8145
:103C20008E0D9F1DB301A20104C0440F551F661FD6
:103C3000771F8A95D2F78091780190917901A091B0
:103C40007A01B0917B01842B952BA62BB72B809307
:103C5000780190937901A0937A01B0937B013FEFB3
:103C6000E31AF30A6B817C816E157F0549F67FEFBD
:103C7000C71AD70A8FEFA81AB80A95E0C916D10457
:103C800009F0B1CF8091070725E0622F0E94A32899
:103C90008370829FC0011124B12CA12CFC01ED5432
:103CA000FF4F3F0180E8882E912CF301EA0DFB1DA8
:103CB000E491F12CE12CCE2ED12CC4010E2C02C0AB
:103CC000959587950A94E2F78C219D21892B69F0BF
:103CD000C1018E0D9F1D8038910538F40034110507
:103CE00020F441E0B8010E94B406FFEFEF1AFF0A8A
:103CF00025E0E216F10409F73FEFA31AB30A0F5FBC
:103D00001F4F45E0A416B10481F62A960FB6F89429
:103D1000DEBF0FBECDBFDF91CF911F910F91FF90FE
:103D2000EF90DF90CF90BF90AF909F908F907F905B
:103D30006F905F904F903F902F90089535FE4ECB3F
:103D400080914F0885FF4ACB809186059091870529
:103D500065E070E00E94AF28892B09F03FCB80E03E
:103D60003BCB222009F43ACB8091860590918705C0
:103D700063E070E00E94AF28892B09F02FCB0091FF
:103D8000510810915208822F0E94690F209151080A
:103D900030915208390137FF03C04FE3640E711CA4
:103DA00086E0759467948A95E1F7C80117FDCF9670
:103DB000B6E095958795BA95E1F76816790679F496
:103DC000E0E4F0E0C901BF010E94C3287C01C80102
:103DD000BF010E94C328E816F90609F4FFCA009142
:103DE00048081091490818013324812E9924F101C3
:103DF000EE0FFF1FEB5BF84FC080D180F401EE0F98
:103E0000FF1FEB5BF84FE080F180A0904508B09079
:103E10004608C601D7FCCF9656E0959587955A95EA
:103E2000E1F76816790681F4E0E4F0E0C901BF012A
:103E30000E94C3282C01C601BF010E94C328602F25
:103E40004816590609F4C7C0C701F7FCCF9646E0EB
:103E5000959587954A95E1F76816790679F4E0E437
:103E6000F0E0C901BF010E94C3289C01C701BF0146
:103E70000E94C3282817390709F4A5C0609051088B
:103E800070905208A701B601C3010E947C108111F5
:103E90003BC0C10101978A0D9B1DB5010E94C3283B
:103EA0002C01FC01EE0FFF1FEB5BF84F40815181AD
:103EB000B601C3010E947C10642D811121C0C40190
:103EC0000196B5010E94C3286C01FC01EE0FFF1F93
:103ED000EB5BF84F40815181B701C3010E947C1018
:103EE00095E4492E97E0592EF12CE12C882309F412
:103EF0007AC000270C291093490800934808682DC0
:103F000088E498E00E94BF0B20914808309149084E
:103F1000632E7724F901FF27EE0FFF1FEB5BF84FAD
:103F2000C080D180F301EE0FFF1FEB5BF84FE08004
:103F3000F180E0915108F09152088F01F7FF02C023
:103F4000015C1F4FA6E015950795AA95E1F7C601FC
:103F5000D7FCCF9676E0959587957A95E1F7081787
:103F6000190781F460E4A62EB12CCF01B5010E949F
:103F7000C3284C01C601B5010E94C32888169906C2
:103F800009F458C0C701F7FCCF9656E09595879580
:103F90005A95E1F70817190711F500E410E0CF0171
:103FA000B8010E94C328FC01C701B8010E94C328C0
:103FB000E817F907A1F42227622A732A70924908A8
:103FC000609248080CC00027082919291093490855
:103FD00000934808682D88E498E00E94BF0B0E9477
:103FE000EB0FFCC97401EA14FB040CF08DCFF20155
:103FF000219131912F014701FFEF8F1A9F0AC401D0
:10400000B5010E94C3286C01FC01EE0FFF1FEB5BA2
:10401000F84F40815181B901C3010E947C1088236F
:1040200009F30027E02AF12AF0924908E0924808B3
:104030006C2DD1CF622FCFCF882309F4E6C98091B0
:104040009408909195088D9708F4DFC9DCC9D09049
:10405000930821E02D1508F0E1C980919408909112
:104060009508059708F4DCC9809107078F5F8431B4
:1040700008F06EC080930707809108078F5F8093D8
:10408000080790910507891708F465C01092080782
:1040900010910407812F90E0AC014F5F5F4F2D2DF1
:1040A00030E0421753070CF058C0880F991FFC01ED
:1040B000EB5AF74FE080F180A0900207B090030721
:1040C000B701C5010E944E10882309F456C01F5F36
:1040D000109304071D1508F450C01092010783E0E7
:1040E00090E090938505809384058091510890918C
:1040F00052089093F8058093F70581E090E0909343
:104100006901809368011092670110926601109214
:104110006B0110926A018AE090E0909365018093B0
:1041200064010E94AF0A20914E08822F90E036E091
:10413000959587953A95E1F70097C1F0815030E465
:10414000839FC00111242F73822B80934E0868C96E
:104150001092070791CF00E09BCF4217530709F059
:104160005FC9E0905108F0905208A6CF84E090E03B
:10417000909385058093840553C9002309F450C9A1
:10418000B701C5010E94AD0F8230B9F050F46FEF56
:104190007FEF813009F044C982E097E00E94250F4B
:1041A0003FC9843069F061E070E0883009F038C9B7
:1041B00082E097E00E94010F33C961E070E0ECCF2C
:1041C0006FEF7FEFF5CF4150510950932207409395
:1041D00021076FEFC61AD60ABDCA81E0E81AF108B6
:1041E000F0922407E09223074F5F5F4FC8CABC01DB
:1041F000DECA1F920F920FB60F9211248F939F93D6
:104200008091E1009091E100937F9093E10083FF22
:104210000FC01092E90091E09093EB001092EC0037
:1042200092E39093ED001092A60598E09093F00031
:1042300082FF22C093E09093E9009091F2009923CD
:1042400019F09AE39093E80090919705992341F033
:1042500090919705915090939705911101C05D9AA7
:104260009091A505992341F09091A50591509093C7
:10427000A505911101C0289A84FF18C08091E20021
:104280008E7E81608093E2008091E1008F7E80933A
:10429000E100809198058E7E8061809398059F91C2
:1042A0008F910F900FBE0F901F90189580FFF7CF42
:1042B0008091E2008E7E80618093E2008091E10037
:1042C0008E7E8093E100809198058E7E8160E5CF9F
:1042D0001F920F920FB60F921124CF92DF92EF929E
:1042E000FF920F931F932F933F934F935F936F937F
:1042F0007F938F939F93AF93BF93EF93FF93CF934E
:10430000DF93CDB7DEB76C97DEBFCDBF1092E9006B
:104310008091E80083FF25C068E0CE0145960E94A9
:104320001D0582EF8093E8008D8987FF39C0909149
:10433000E80090FFFCCF982F907609F034C19E8959
:104340004F89588D2F89F88C911131C0803861F5D3
:10435000809196058093F1001092F1008EEF80938A
:10436000E8006C960FB6F894DEBF0FBECDBFDF91AC
:10437000CF91FF91EF91BF91AF919F918F917F91DD
:104380006F915F914F913F912F911F910F91FF90EE
:10439000EF90DF90CF900F900FBE0F901F90189569
:1043A0009EEF9093E800C7CF1092F100D5CF9130E7
:1043B00059F48111D3CF4130510581F68091960592
:1043C0008D7F80939605CACF933049F48111C6CF73
:1043D0004130510519F6809196058260F2CF9530F3
:1043E00041F48091E80080FFFCCF20682093E30037
:1043F000B5CF963009F0A9C00B8D1C8D22E010922C
:10440000E9001092940510929305F2122EC01092BA
:104410009205109291050E94EC041F8299E0998305
:10442000FA8291E09E8390EA98879AEF998720918B
:10443000930530919405275F3F4F3C832B838D83F9
:104440001092E90010929405109293051093920532
:104450000093910549E050E0BE016F5F7F4F80E01F
:104460000E94C6040E94EC0479CF10939205009339
:1044700091050E94D003DC0112960D911C9101154B
:10448000110509F451C1D801ED91FC910480F58129
:10449000E02DBE016B5E7F4FC8010995009709F0C2
:1044A0003EC1F80100851185EACFF3E0FF120EC08E
:1044B0008F89882309F440C0823061F440E867E0C6
:1044C0008DE396E00E949304811148CF81E28093AE
:1044D000EB0047CF813029F440E86BE081E396E0C0
:1044E000F1CF833099F70E94D003DC011296ED9052
:1044F000FC908E010F5F1F4F6801E114F10479F009
:10450000D701ED91FC910680F781E02DB801C7013C
:104510000995080F111DF701E084F184EECFD80151
:104520001C92F60101900020E9F73197BF016C1948
:104530007D0940E0C601C6CF6BE176E0FB01449106
:1045400050E080E80E94C60409CF973009F4BECF3E
:10455000983021F481E08093F10000CF993009F088
:10456000FDCE837009F0B2CFEFE3F1E081E031E0FE
:1045700096E32191222371F08093E9003093EB00C0
:10458000DF0111972C912093EC009093ED008F5F49
:10459000873079F78EE78093EA001092EA008F89DE
:1045A0008093A605DBCE8B8D9C8D1092E900109236
:1045B0009405109293059093920580939105898DAF
:1045C000811192C08E899D89913A49F4813209F016
:1045D0007DCF47E050E066E071E080E0B3CF9132FC
:1045E00009F074CF833269F48F89988DB0E0A0E030
:1045F0008093020190930301A0930401B0930501FD
:10460000ADCE803269F48091E80082FFFCCF67E094
:1046100086E091E00E941D058BEF8093E8009ECE1E
:10462000823209F09BCE8F8980930D01EEEFFFE778
:10463000859194918B3F9C4D51F1E0E0F8E08091A1
:10464000060190910701A0910801B0910901803BFA
:104650009440A105B105F1F480910D0180FD1AC0CF
:10466000EE3F8AE0F80789F587E797E79183808333
:10467000809160008093950588E19BE00FB6F894E7
:10468000A895809360000FBE9093600067CEEEEF18
:10469000FAE0D5CF808191818737974709F05ECEC8
:1046A000A895809160008861809360008091950555
:1046B00080936000EE3F2AE0F20789F08091FE0AC5
:1046C0009091FF0A9183808349CE808191818737C1
:1046D000980751F29093FF0A8093FE0AC5CF10927B
:1046E000FF0A1092FE0A3ACE0E94D003DC01129615
:1046F0000D911C910115110509F4E8CED801ED9139
:10470000FC910190F081E02DBE016B5E7F4FC801EE
:104710000995811123CEF80100851185EBCF18167C
:1047200019060CF41BCED2CEF1E0FF12BECE6FE123
:1047300076E004CF1F920F920FB60F9211242F93A1
:104740003F938F939F93AF93BF93809189059091EF
:104750008A05A0918B05B0918C053091880523E0E6
:10476000230F2D3758F50196A11DB11D2093880503
:104770008093890590938A05A0938B05B0938C054F
:1047800080918D0590918E05A0918F05B091900537
:104790000196A11DB11D80938D0590938E05A09368
:1047A0008F05B0939005BF91AF919F918F913F91ED
:1047B0002F910F900FBE0F901F90189526E8230F92
:1047C0000296A11DB11DD2CF0C9438280F931F93D0
:1047D000CF93DF931092AA051092A90588EE93E07B
:1047E000A0E0B0E08093AB059093AC05A093AD053D
:1047F000B093AE0589E491E09093A8058093A70556
:104800008FEF9FEF9093B4058093B3051092FC0552
:104810001092FB051092FA051092F9051092F80516
:104820001092F7051092470882E091E090934908B2
:104830008093480810924B0810924A0810924D0835
:1048400010924C0880EC80934E0883E080934F08D0
:1048500010925008E3E5F8E01192119288E0E339F4
:10486000F807D1F7109293081092950810929408C7
:104870008FE390E19093520880935108E5E4F7E0CC
:104880001192119288E0E534F807D1F784E090E0C6
:10489000909346088093450810924607109245076A
:1048A0002FE330E030934807209347072FEF3FE195
:1048B00030934A072093490720EC3FE130934C079F
:1048C00020934B0710922A071092290710922C0769
:1048D00010922B0710922E0710922D07109230077E
:1048E00010922F071092320710923107109234075E
:1048F000109233071092360710923507109238073E
:104900001092370710923A071092390723E030E0EF
:1049100030933C0720933B0710923E0710923D07CF
:1049200022E030E03093400720933F071092420787
:1049300010924107909344078093430785E99AE0DA
:1049400090931E0780931D078AE695E190932007B8
:1049500080931F07009121071091220763E070E008
:1049600080E090E00E944B18C0913B07D0913C073B
:10497000D195C195D1096150710981099109600FE3
:10498000711F6C177D073CF10091210710912207E0
:1049900063E070E080E090E00E944B18C0913B071C
:1049A000D0913C076150710981099109600F711F15
:1049B000C617D70784F0C0912107D091220763E082
:1049C00070E080E090E00E944B186150710981090D
:1049D0009109C60FD71FD0932207C09321070091DA
:1049E00023071091240763E070E080E090E00E94CC
:1049F0004B18C0913B07D0913C07D195C195D10987
:104A00006150710981099109600F711F6C177D0751
:104A10003CF1009123071091240763E070E080E0EF
:104A200090E00E944B18C0913B07D0913C07615029
:104A3000710981099109600F711FC617D70784F0AA
:104A4000C0912307D091240763E070E080E090E0FC
:104A50000E944B186150710981099109C60FD71F37
:104A6000D0932407C09323070091250710912607B0
:104A700063E070E080E090E00E944B18C0913B073B
:104A8000D0913C07D195C195D10961507109810937
:104A90009109600F711F6C177D073CF1009125078C
:104AA0001091260763E070E080E090E00E944B18D0
:104AB000C0913B07D0913C07615071098109910970
:104AC000600F711FC617D70784F0C0912507D091DA
:104AD000260763E070E080E090E00E944B18615090
:104AE000710981099109C60FD71FD0932607C0937A
:104AF0002507009127071091280763E070E080E008
:104B000090E00E944B18C0913B07D0913C07D19593
:104B1000C195D1096150710981099109600F711F17
:104B20006C177D073CF1009127071091280763E07F
:104B300070E080E090E00E944B18C0913B07D0915C
:104B40003C076150710981099109600F711FC617F7
:104B5000D70784F0C0912707D091280763E070E061
:104B600080E090E00E944B18615071098109910921
:104B7000C60FD71FD0932807C093270710922C0782
:104B800010922B07109234071092330710922E07C1
:104B900010922D07109236071092350710923007A9
:104BA00010922F07109238071092370781E090E09B
:104BB00090933A078093390710920F0710921007CD
:104BC00080E090E190930E0780930D0710921307F9
:104BD00010921407909312078093110710921707F1
:104BE00010921807909316078093150710921B07D1
:104BF00010921C0790931A078093190710920107CF
:104C00001092040782E090E09093060780930507D6
:104C1000109207071092080710920A0710920907CE
:104C200010920B0710920C0780E290E1909303071B
:104C300080930207109200071092FF068BE591E027
:104C40009093FE068093FD06EDEFF5E01192119230
:104C500086E0ED3FF807D1F7DF91CF911F910F91DB
:104C60000895789484B5826084BD84B5816084BDE4
:104C700085B5826085BD85B5816085BD80916E00FA
:104C8000816080936E00109281008091810082602B
:104C90008093810080918100816080938100809168
:104CA0008000816080938000809191008260809379
:104CB000910080919100816080939100809190009B
:104CC0008160809390008091C10084608093C100D6
:104CD0008091C10082608093C1008091C100816099
:104CE0008093C1008091C30081608093C300809154
:104CF000C00082608093C0008091C2008160809378
:104D0000C20080917A00846080937A0080917A005A
:104D1000826080937A0080917A00816080937A002B
:104D200080917A00806880937A001092A605109294
:104D30009605109298058091D70081608093D700E6
:104D400080EA8093D80089B5806189BD89B5826089
:104D500089BD09B400FEFDCF61E070E080E090E025
:104D60000E944F058091D8008F7C80618093D8008D
:104D70008091E000807F8093E0008091E1008E7E52
:104D80008093E1008DE08093E200559A209A81ECB7
:104D900080937C0085B1806F85B984B1877E84B9AA
:104DA00084B1876E84B95E9A5F988AB1806D8AB942
:104DB000769A6E9881B3806F81BB899880B38D702D
:104DC00080BB80E58CBD81E08DBD0E9482055F9A2D
:104DD0000E9482055E985C98ECECF5E084918EBDB3
:104DE00000000DB407FEFDCF319685E0E93DF807E0
:104DF000A9F75C9A81E880936400809165008160E6
:104E00008093650080E18093010180E0ECE7F1E0B0
:104E100081118FEF00248193819381938193039477
:104E2000D1F710927F0510927E0510927D051092A9
:104E30007C050E946E080E9458090E94EB0F809129
:104E40005108909152080E94250B0E94E30880911E
:104E500094089091950801969093950880939408F2
:104E60000E94830611E0C0E0D0E001E08FB7F89423
:104E70004091890550918A0560918B0570918C0550
:104E80008FBF80918205882339F010928205209788
:104E900069F30E940000EACF80918305942F981B4C
:104EA000892F90910101891738F48F5F891778F75E
:104EB00013BF889513BEEBCF009382054093830503
:104EC0008091800590918105019690938105809352
:104ED0008005809186059091870501968F3F910509
:104EE000F0F49093870580938605E0918405F09116
:104EF0008505EE0FFF1FEC5CFE4F0190F081E02D69
:104F0000309709F009958091940890919508019641
:104F100090939508809394080E948306B8CF1092CE
:104F2000870510928605E1CF8F929F92AF92BF9234
:104F3000CF92DF92EF92FF92CF93DF93EC016881E3
:104F400079818A819B81611571058105910521F423
:104F500064E279ED8BE597E02DE133EF41E050E03D
:104F60000E94402849015A019B01AC01A7EAB1E423
:104F70000E945F286B017C01ACEEB4EFA5019401A7
:104F80000E946D28C60ED71EE81EF91EF7FE06C049
:104F900081E0C81AD108E10880E8F80AC882D982FD
:104FA000EA82FB82C701B6019F77DF91CF91FF9024
:104FB000EF90DF90CF90BF90AF909F908F9008952B
:104FC0008F929F92AF92BF92CF92DF92EF92FF9219
:104FD00060910E0170910F0180911001909111016B
:104FE000611571058105910521F464E279ED8BE588
:104FF00097E02DE133EF41E050E00E944028490165
:105000005A019B01AC01A7EAB1E40E945F286B0141
:105010007C01ACEEB4EFA50194010E946D28C60E90
:10502000D71EE81EF91EF7FE06C081E0C81AD10897
:10503000E10880E8F80AC0920E01D0920F01E092D8
:105040001001F0921101C701B6019F77FF90EF9018
:10505000DF90CF90BF90AF909F908F900895609316
:105060000E0170930F018093100190931101089528
:10507000F999FECF92BD81BDF89A992780B5089520
:10508000052E97FB1EF400940E94572857FD07D069
:105090000E94722807FC03D04EF40C9457285095B8
:1050A0004095309521953F4F4F4F5F4F0895909514
:1050B0008095709561957F4F8F4F9F4F08950E9407
:1050C0009428A59F900DB49F900DA49F800D911DD5
:1050D00011240895B7FF0C945F280E945F28821B5B
:1050E000930B0895A1E21A2EAA1BBB1BFD010DC054
:1050F000AA1FBB1FEE1FFF1FA217B307E407F50788
:1051000020F0A21BB30BE40BF50B661F771F881F63
:10511000991F1A9469F760957095809590959B01F9
:10512000AC01BD01CF010895A29FB001B39FC001A2
:10513000A39F700D811D1124911DB29F700D811DC3
:105140001124911D0895991B79E004C0991F9617A9
:1051500008F0961B881F7A95C9F780950895AA1BB9
:10516000BB1B51E107C0AA1FBB1FA617B70710F052
:10517000A61BB70B881F991F5A95A9F78095909584
:10518000BC01CD01089597FB072E16F4009407D0BB
:1051900077FD09D00E94AF2807FC05D03EF490951A
:1051A00081959F4F0895709561957F4F0895EE0FFB
:0E51B000FF1F0590F491E02D0994F894FFCFB5
:1051BE000110FFFFFFFF00E10000000000000100F2
:1051CE0000000000030007000B000F001100130089
:1051DE0001020408FFFF01000000000000000000B3
:1051EE00FFFF0100D70E65185A0DE40BE30B00C14B
:1051FE00808100000000000000E40388050504FA29
:10520E00034B04090427040000000056070D06AAEC
:04521E000FA90F00C5
:00000001FF
