:100000000C9424030C944C030C944C030C944C035C
:100010000C944C030C944C030C944C030C944C0324
:100020000C944C030C944C030C94B7220C94262390
:100030000C944C030C944C030C944C030C944C0304
:100040000C944C030C944C030C944C030C944C03F4
:100050000C944C030C944C030C944C030C945825B6
:100060000C944C030C944C030C944C030C944C03D4
:100070000C944C030C944C030C944C030C944C03C4
:100080000C944C030C944C030C944C030C944C03B4
:100090000C944C030C944C030C944C030C944C03A4
:1000A0000C944C030C944C030C944C0351697862EF
:1000B0006F790050A820A850A8708870A850A87028
:1000C000A850A850A850A820508850200000000038
:1000D000003E5B4F5B3E3E6B4F6B3E1C3E7C3E1CCE
:1000E000183C7E3C181C577D571C1C5E7F5E1C0014
:1000F000183C1800FFE7C3E7FF0018241800FFE7CB
:10010000DBE7FF30483A060E2629792926407F058D
:100110000507407F05253F5A3CE73C5A7F3E1C1CA3
:1001200008081C1C3E7F14227F22145F5F005F5F63
:1001300006097F017F006689956A6060606060944F
:10014000A2FFA29408047E040810207E2010080854
:100150002A1C08081C2A08081E101010100C1E0C5F
:100160001E0C30383E3830060E3E0E0600000000F1
:100170000000005F00000007000700147F147F14D8
:10018000242A7F2A1223130864623649562050001D
:1001900008070300001C2241000041221C002A1C09
:1001A0007F1C2A08083E08080080703000080808F4
:1001B0000808000060600020100804023E51494514
:1001C0003E00427F400072494949462141494D3332
:1001D0001814127F1027454545393C4A4949314199
:1001E000211109073649494936464949291E000067
:1001F00014000000403400000008142241141414BC
:100200001414004122140802015909063E415D59A7
:100210004E7C1211127C7F494949363E41414122B0
:100220007F4141413E7F494949417F090909013EDA
:10023000414151737F0808087F00417F4100204001
:10024000413F017F081422417F404040407F021C13
:10025000027F7F0408107F3E4141413E7F0909092A
:10026000063E4151215E7F091929462649494932F6
:1002700003017F01033F4040403F1F2040201F3FBC
:100280004038403F63140814630304780403615941
:10029000494D43007F414141020408102000414183
:1002A000417F04020102044040404040000307082F
:1002B0000020545478407F2844443838444444282B
:1002C000384444287F385454541800087E090218D2
:1002D000A4A49C787F0804047800447D400020405A
:1002E000403D007F1028440000417F40007C04789E
:1002F00004787C080404783844444438FC182424E6
:100300001818242418FC7C08040408485454542465
:1003100004043F44243C4040207C1C2040201C3CE2
:100320004030403C44281028444C9090907C4464D9
:10033000544C44000836410000007700000041366C
:10034000080002010204023C2623263C1EA1A161F2
:10035000123A4040207A3854545559215555794124
:100360002154547841215554784020545579400CFB
:100370001E527212395555555939545454593955DC
:100380005454580000457C410002457D420001451F
:100390007C40F0292429F0F0282528F07C5455458C
:1003A000002054547C547C0A097F4932494949321F
:1003B0003248484832324A4848303A4141217A3A34
:1003C00042402078009DA0A07D39444444393D40FE
:1003D00040403D3C24FF2424487E4943662B2FFCAB
:1003E0002F2BFF0929F620C0887E09032054547959
:1003F000410000447D413048484A32384040227A2A
:10040000007A0A0A727D0D19317D2629292F2826A6
:100410002929292630484D402038080808080808AE
:100420000808382F10C8ACBA2F102834FA00007B07
:10043000000008142A142222142A1408950022000D
:1004400095AA005500AAAA55AA55AA000000FF00C7
:10045000101010FF00141414FF001010FF00FF1004
:1004600010F010F0141414FC001414F700FF000036
:10047000FF00FF1414F404FC141417101F10101FB5
:10048000101F1414141F00101010F0000000001FA3
:10049000101010101F10101010F010000000FF10AE
:1004A0001010101010101010FF10000000FF1400AA
:1004B00000FF00FF00001F10170000FC04F41414DC
:1004C0001710171414F404F40000FF00F7141414A8
:1004D00014141414F700F7141414171410101F1028
:1004E0001F141414F4141010F010F000001F101F4B
:1004F0000000001F14000000FC140000F010F010B9
:1005000010FF10FF141414FF141010101F0000002F
:1005100000F010FFFFFFFFFFF0F0F0F0F0FFFFFF33
:100520000000000000FFFF0F0F0F0F0F384444388A
:10053000447C2A2A3E147E02020606027E027E02C5
:1005400063554941633844443C04407E201E2006E4
:10055000027E020299A5E7A5991C2A492A1C4C7221
:1005600001724C304A4D4D303048784830BC625AA8
:10057000463D3E494949007E0101017E2A2A2A2A38
:100580002A44445F444440514A444040444A514014
:100590000000FF0103E080FF000008086B6B0836D5
:1005A00012362436060F090F060000181800000046
:1005B0001010003040FF0101001F01011E00191D35
:1005C0001712003C3C3C3C0000000000D5F08D14AC
:1005D000A1C881CFD9F1AF2000080B0002020200B0
:1005E00000090400000102020000052400100105BA
:1005F00024010101042402060524060001070581E7
:100600000310004009040100020A0000000705026F
:1006100002400000070583024000000403090412A1
:10062000010002EF020140412336000001010203F4
:100630000141726475696E6F204C4C4300417264D5
:1006400075626F790000A22511241FBECFEFDAE09A
:10065000DEBFCDBF11E0A0E0B1E0E4EEF4E502C002
:1006600005900D92A436B107D9F728E0A4E6B1E0D1
:1006700001C01D92A639B207E1F713E0C4E2D3E04E
:1006800004C02197FE010E946A2AC332D107C9F72C
:100690000E94ED270C94702A0C94000080E0E7EA99
:1006A000F1E081118FEF00248193819381938193F5
:1006B0000394D1F7089581E0809301071092070712
:1006C00080910B07882379F08091090790910A07A0
:1006D000909303078093020780910C07809304078F
:1006E00010920B07089510920407809193088823B5
:1006F00041F08091530890915408909303078093A0
:1007000002070895BC0175956795A7E4B8E0880FC6
:10071000991FFC01E95BF74F90E080E01296329759
:100720006817790771F01A962D913C911B974485B3
:1007300055851B965C934E931A97358724870196AF
:10074000EDCF0895FC0180919C01882311F13FB702
:10075000F89482E08093E9002091F200822F90E0EB
:100760001816190614F481E090E0882339F02898CF
:1007700044E640939B014091F1004083222339F0ED
:100780002091F200211103C02BE62093E8003FBF27
:1007900008958FEF9FEF08952FB7F89483E080932B
:1007A000E9009091E800892F807295FF04C0909134
:1007B000F20080E4891B2FBF08958091930181117D
:1007C0000DC082E080938F0184E0809390011092AD
:1007D00092011092910181E0809393018FE891E062
:1007E0000895CF93DF931F92CDB7DEB76983DC0105
:1007F000ED91FC910280F381E02D41E050E0BE01DB
:100800006F5F7F4F09950F90DF91CF91089583E03F
:100810008093E9008091F200882319F08AE38093A5
:10082000E80008950E94CC0390E00895CF93DF93F1
:100830001F92CDB7DEB7FC018485958597FD08C072
:100840002FEF3FEF358724870F90DF91CF910895E9
:10085000CE0101960E94A203019719F4898190E0CC
:10086000F3CF8FEF9FEFF0CF0F931F93CF93DF93D3
:100870001F92CDB7DEB78C01FC018485958597FF6B
:100880000BC0CE0101960E94A203019771F48981E9
:1008900090E0F80195878487F801848595850F900D
:1008A000DF91CF911F910F9108958FEF9FEFF1CFBF
:1008B000FC018485958597FD0BC09FB7F89482E075
:1008C0008093E9008091F2009FBF90E00196089527
:1008D0009FB7F89482E08093E9008091F2009FBF77
:1008E00090E008954091890150918A0120918701FB
:1008F0003091880142175307B4F49091E800957045
:10090000E1F39091E80092FD19C08093F10080918D
:10091000890190918A0101968F739927892B19F487
:100920008EEF8093E8008091890190918A01019671
:1009300090938A018093890181E0089580E0089571
:10094000EF92FF920F931F93CF93DF93F82E192FFF
:10095000E62E042F81E0860F880F0E94720483E048
:100960000E947204CF2DD12FEC0EFD2EF11CCE155E
:10097000DF05B9F007FF13C0FE0184910E947204E5
:10098000182F80E00E947204812321968111EFCFFD
:10099000DF91CF911F910F91FF90EF900895888183
:1009A000EDCF81E0F5CFDF92EF92FF920F931F938F
:1009B000CF93DF93D82E8A01EB017B01E40EF51E65
:1009C000CE15DF0559F0D7FE12C0FE0184910E94BA
:1009D000720421968111F4CF0FEF1FEFC801DF9150
:1009E000CF911F910F91FF90EF90DF900895888134
:1009F000EECF0F931F93CF93DF931F92CDB7DEB748
:100A000082E0898342E450E069ED75E080E80E946D
:100A1000D3040E94DD03DC0112960D911C91011597
:100A2000110589F0D801ED91FC910280F381E02D50
:100A3000BE016F5F7F4FC801099597FD04C0F801A3
:100A400000851185ECCF89810F90DF91CF911F91A7
:100A50000F910895615030F02091F100FC01208346
:100A60000196F8CF289884E680939B0108953FB7BC
:100A7000F8948091830190918401A0918501B091B7
:100A8000860126B5A89B05C02F3F19F00196A11D30
:100A9000B11D3FBFBA2FA92F982F8827BC01CD01C8
:100AA000620F711D811D911D42E0660F771F881F27
:100AB000991F4A95D1F708958F929F92AF92BF9256
:100AC000CF92DF92EF92FF926B017C010E9437057B
:100AD0004B015C01C114D104E104F104B9F00E949E
:100AE0003705681979098A099B09683E73408105B1
:100AF000910580F321E0C21AD108E108F10888EEDF
:100B0000880E83E0981EA11CB11CE4CFFF90EF90EB
:100B1000DF90CF90BF90AF909F908F90089565E049
:100B200070E080E090E00C945C058F929F92AF9211
:100B3000BF92CF92DF92EF92FF920F931F93CF93CA
:100B4000DF936C017B018A0180910D01882309F4F8
:100B50005CC080919C01882309F457C080918E016C
:100B600080FF05C08091E00082608093E000E80192
:100B7000B12C8AEFA82E93E0892E2AE3922E20979B
:100B800011F4BB20D9F10E94CC0381110AC0AA94B0
:100B9000AA20D9F161E070E080E090E00E945C055D
:100BA000EECF8C171D0611F00CF08C2F9FB7F89428
:100BB0008092E9002091E80025FD02C09FBFDFCFB1
:100BC000282F30E0C21BD30BF701815020F0419158
:100BD0004093F100FACFE20EF31EBB2021F0909279
:100BE000E800B12CEBCF8091E80085FDE7CF909233
:100BF000E800BB24B394209709F3F3CF5D9884E613
:100C000080938D01101611063CF081E090E0F60112
:100C10009383828310E000E0C801DF91CF911F91A0
:100C20000F91FF90EF90DF90CF90BF90AF909F908B
:100C30008F900895AF92BF92CF92DF92EF92FF9282
:100C40000F931F93CF93DF936C017B018B01040FF4
:100C5000151FEB015E01AE18BF08C017D10759F090
:100C60006991D601ED91FC910190F081E02DC601D2
:100C70000995892B79F7C501DF91CF911F910F91CC
:100C8000FF90EF90DF90CF90BF90AF9008958FB11D
:100C90008095807F669B88601C9B84600895480FC8
:100CA000592F511D14161506D4F580389105BCF541
:100CB00097FF02C090E080E04138510514F040E811
:100CC00050E0481BFB0177FD379633E0F595E7953B
:100CD0003A95E1F7F695FE2FEE27F795E795E80FA1
:100CE000F91FE955FE4F6770772781E090E001C05A
:100CF000880F6A95EAF7382F213041F4415078F097
:100D00008191DF011197832B8C93F8CF809541500F
:100D100030F09191DF01119798239C93F8CF0895BB
:100D2000E7EAF1E080E0A0E0B8E000800EBC8111CD
:100D3000012C1197A0FDFDCF0192B9F70DB40895D4
:100D4000462F477066956695669590E8699FB00155
:100D5000112469557E4F860F972F911DFC018081CC
:100D600090E021E030E0042E02C0220F331F0A94ED
:100D7000E2F78223932302C0959587954A95E2F77F
:100D8000089580389105B8F460347105A0F420E12D
:100D900091E061FD94E060FD990F62FD9295687F9E
:100DA000269FD0011124A80FA955BE4F8C9140FF5A
:100DB00003C0892B8C93089590958923FBCF2F92A4
:100DC0003F924F925F926F927F928F929F92AF92DB
:100DD000BF92CF92DF92EF92FF920F931F93CF9328
:100DE000DF93EC018B017A016901C61AD70AD7FE9D
:100DF00003C0D194C194D10847018C1A9D0A97FE73
:100E000003C09194819491088C149D0454F49E2DF8
:100E10008F2D7901292F382F9C2F8D2FE801092F35
:100E2000182FEC16FD0654F4902F812F8901292FDD
:100E3000382F9C2F8D2FE701E92EF82E17012C1A41
:100E40003D0A2901401A510A57FE03C051944194AA
:100E50005108310137FE03C08FEF681A780A759484
:100E600067948FEF021713070CF481E0A82E880F08
:100E7000BB08EC16FD06A4F041E0BE01C8018C14CD
:100E80009D0414F0B801CE010E94C10664187508D3
:100E900077FE04C00A0D1B1D620C731C2196E9CF5E
:100EA000DF91CF911F910F91FF90EF90DF90CF9046
:100EB000BF90AF909F908F907F906F905F904F907A
:100EC0003F902F9008952F923F924F925F926F9292
:100ED0007F928F929F92AF92BF92CF92DF92EF92CA
:100EE000FF920F931F93CF93DF9300D000D000D0D9
:100EF0001F92CDB7DEB76D30D9F030900001409031
:100F0000760150907701832D90E09F838E836A3025
:100F100051F5109275011092740123E0880F991F0A
:100F20002A95E1F7480E591E5092770140927601BA
:100F300081E090E027960FB6F894DEBF0FBECDBFDC
:100F4000DF91CF911F910F91FF90EF90DF90CF90A5
:100F5000BF90AF909F908F907F906F905F904F90D9
:100F60003F902F900895A0907401B090750195E086
:100F7000699FB0011124FB01E453FF4F3F0165015C
:100F8000212CF5E02F1629F1C3010196F301F4910C
:100F9000F9833C01420128E02A83898181708D8395
:100FA00010E000E00315D0F4F801EC0DFD1DFC830A
:100FB000EB83F12CE12CE31470F4B4016E0D7F1D72
:100FC0004D818B819C810E94C106FFEFEF1AFF0AC1
:100FD000F2CF1982DFCF0F5F1F4FE4CF2981269513
:100FE00029838A8181508A83EE81FF818E0E9F1E24
:100FF0008111D3CF2394CE0EDF1EF6E02F12C1CF86
:10100000C501329C800D911D112490937501809330
:1010100074018ECF8FE390E1909352088093510832
:101020001092930883E080934F0880914E088B7F45
:1010300080934E0884E090E09093460880934508A2
:1010400010924607109245078FE390E0909348076F
:10105000809347078FEF9FE190934A07809349075A
:1010600080EC9FE190934C0780934B0785E99AE0D1
:1010700090931E0780931D078AE695E190932007C1
:1010800080931F0782E090E09093220780932107CE
:1010900021E030E030932407209323072FEF3FEF28
:1010A00030932607209325079093280780932707DE
:1010B000E9E2F7E080911D0790911E0781939193DB
:1010C00080911F07909120079783868387E0E13303
:1010D000F80781F710923A0710923907109201072A
:1010E00010927301109272011092710110927001AE
:1010F00081E090E09093A6018093A50108954F921E
:101100005F926F927F928F929F92AF92BF92CF9297
:10111000DF92EF92FF920F931F93CF93DF93809113
:10112000510890915208EC0197FDEF9626E0D59575
:10113000C7952A95E1F7229760E470E00E94562A4D
:1011400037ECC32E30E0D32E8C01025011092C0154
:1011500023E0420E511C40E8642E712CF601A4904D
:10116000F12CE12CB12CC3010E2C02C09595879572
:101170000A94E2F78A219B21892BB1F04E018E0C53
:101180009F1CF0E88F16910478F40034110560F488
:10119000602F8C2F8E0D0E94A00641E0811140E04F
:1011A000B801C4010E94C1062FEFE21AF20A85E0DD
:1011B000E816F104C1F6EFEFCE1ADE0A0F5F1F4FFB
:1011C0000415150559F6DF91CF911F910F91FF90EE
:1011D000EF90DF90CF90BF90AF909F908F907F90D7
:1011E0006F905F904F9008958F929F92AF92BF92B1
:1011F000CF92DF92EF92FF920F931F93CF93DF93E3
:1012000075E4C72E77E0D72EF12CE12CE0E4AE2E6A
:10121000B12C6091450870914608E616F7060CF06F
:101220007BC0F601019111916F01FFEFEF1AFF0AE8
:10123000C7010E94562AFC01EE0FFF1FEB5BF84F1F
:10124000C0814181C801B5010E94562AFC018C2F42
:10125000942FB5010E94562A17FF02C0015C1F4F50
:1012600056E0159507955A95E1F72C2F342F37FF47
:1012700002C0215C3F4F46E0359527954A95E1F73E
:10128000E817F907D1F4C901801B910B422F401BCD
:101290004F5F181619061CF041E0400F421BE03466
:1012A000F10508F0B6CFC901021713070CF4C80105
:1012B00021E0BF010E944F06ACCF2017310709F093
:1012C000A8CF9C012E1B3F0B882E8E1A83941216DA
:1012D000130624F0882483948E0E881A8E179F0795
:1012E0000CF4FC018E0E9F2E911CEF01F7FF02C043
:1012F000D0E0C0E0C40121E48216910414F080E43F
:1013000090E0C817D9070CF084CF41E0BE01C801B6
:101310000E94C1062196EECFDF91CF911F910F91D0
:10132000FF90EF90DF90CF90BF90AF909F908F9005
:1013300008952F923F924F925F926F927F928F9279
:101340009F92AF92BF92CF92DF92EF92FF920F9354
:101350001F93CF93DF9300D000D0CDB7DEB79B01B2
:101360009A83898397FF05C0AC01415C5F4F5A8324
:10137000498349815A81E6E055954795EA95E1F719
:101380005C834B8360E470E00E94562AFC016C0190
:10139000390137FF03C05FE3650E711C76E0759479
:1013A00067947A95E1F7C90160E470E00E94562ADB
:1013B0005C0183018B819C81081B190B17FF03C003
:1013C0001195019511092B813C8144244A94542C98
:1013D000261537051CF444244394512C7501EE1A4C
:1013E000FF0AF7FE03C0F194E194F1084427552762
:1013F0004E195F095A83498322242A94322CEA1514
:10140000FB051CF422242394312C48018E189F08DC
:101410006C2D8B810E94A00641E0811140E0B60155
:101420008B819C810E94C1068B819C8186159705CA
:1014300019F4CA14DB04C1F0C401880F991F298173
:101440003A812817390744F48E189F084B815C8134
:10145000440D551D5C834B8380179107CCF6800E9D
:10146000911EC20CD31CD4CF0F900F900F900F90F1
:10147000DF91CF911F910F91FF90EF90DF90CF9070
:10148000BF90AF909F908F907F906F905F904F90A4
:101490003F902F9008956F927F928F929F92AF927C
:1014A000BF92CF92DF92EF92FF920F931F93CF9351
:1014B000DF9380917001882309F454C08091F9056D
:1014C0009091FA05EC0197FDEF9626E0D595C7952A
:1014D0002A95E1F76E0122E0C21AD10860E470E0BB
:1014E0000E94562A7C0122E0E21AF10888249924FD
:1014F0008C1A9D0A3C0123E0620E711C2396860122
:10150000540182E0A80EB11C00381105D8F420E483
:10151000E216F104B8F440916C0150916D016091B4
:101520006E0170916F01C501800F911F04C0769507
:101530006795579547958A95D2F74170B701C801CD
:101540000E94C1060F5F1F4F0C171D07E9F68FEFB2
:10155000E81AF80A25E0820E911CE614F70479F6E1
:1015600010927001DF91CF911F910F91FF90EF903A
:10157000DF90CF90BF90AF909F908F907F906F90B3
:1015800008956F927F928F929F92AF92BF92CF9267
:10159000DF92EF92FF920F931F93CF93DF9380918F
:1015A0007101882309F454C08091FB059091FC05DA
:1015B000EC0197FDEF9626E0D595C7952A95E1F7C2
:1015C0006E0122E0C21AD10860E470E00E94562A3F
:1015D0007C0122E0E21AF108882499248C1A9D0AE1
:1015E0003C0123E0620E711C23968601540182E0C7
:1015F000A80EB11C00381105D8F420E4E216F1045D
:10160000B8F4409168015091690160916A0170914C
:101610006B01C501800F911F04C0769567955795A2
:1016200047958A95D2F74170B701C8010E94C1065B
:101630000F5F1F4F0C171D07E9F68FEFE81AF80A26
:1016400025E0820E911CE614F70479F610927101E0
:10165000DF91CF911F910F91FF90EF90DF90CF908E
:10166000BF90AF909F908F907F906F90089583E090
:1016700090E09093A6018093A501809151089091EC
:1016800052089093F8058093F70581E090E09093DD
:10169000A4018093A3011092A2011092A1011092C3
:1016A000A00110929F018AE090E090939E018093A8
:1016B0009D010E94C10A20914E08822F90E036E0E1
:1016C000959587953A95E1F7009751F0815030E470
:1016D000839FC00111242F73822B80934E0808959D
:1016E00084E090E09093A6018093A50108952F9245
:1016F0003F924F925F926F927F928F929F92AF92A2
:10170000BF92CF92DF92EF92FF920F931F93CF93EE
:10171000DF939093FC058093FB0521E020937101FA
:10172000109268011092690110926A0110926B0187
:101730008C0197FF02C0015C1F4F26E015950795AD
:101740002A95E1F7180122E0221A310860E470E0DE
:101750000E94562AEC012297D12CC12C280183E04B
:10176000480E511C812C912C54018394710125E069
:101770002C9D30012D9D700C1124601A710A82E09D
:10178000680E711C20E8E216F10448F5C034D1055A
:1017900030F56C2F8E2D0E94A006882301F1C30125
:1017A0008E0D9F1DB501A40104C0440F551F661F77
:1017B000771F8A95D2F78091680190916901A09175
:1017C0006A01B0916B01842B952BA62BB72B8093CC
:1017D000680190936901A0936A01B0936B018FEF48
:1017E000E81AF80A4E145F0469F62FEFC21AD20AFB
:1017F000219685E0C816D10409F0B8CFDF91CF91CA
:101800001F910F91FF90EF90DF90CF90BF90AF901E
:101810009F908F907F906F905F904F903F902F9010
:101820000895FC012081762F622F718360830895D3
:10183000CF930E94470685FBCC27C0F90E9447063C
:1018400086FDC2600E94470687FDC4600E9447066D
:1018500084FDC8600E94470683FDC0610E94470660
:1018600082FDC0628C2FCF91089508952F923F92F0
:101870004F925F926F927F928F929F92AF92BF92A0
:10188000CF92DF92EF92FF920F931F93CF93DF934C
:10189000CDB7DEB7AA970FB6F894DEBF0FBECDBFA7
:1018A00020909F013090A00122E0221631040CF01C
:1018B000E5C08091F7059091F8059C0197FF02C063
:1018C000215C3F4FA90126E0559547952A95E1F700
:1018D0005CA34BA360E470E00E94562A3C018EE0BA
:1018E000E2E1F1E0DE01519601900D928A95E1F777
:1018F0002E0151E1450E511CCE01499698A38F8FC0
:101900005AA249A2E091A301F091A401FEA3EDA384
:10191000F201819191912F01CDA0DEA0C81AD90AC0
:101920001C141D040CF05CC010E000E093012C19A5
:101930003D0938A72FA3A601460D571D5AA749A751
:101940002BA13CA1200F311F3A8329838FA198A599
:10195000800F911F9C838B833E832D8349A55AA5BD
:10196000401B510B58874F832BA13CA1201B310BEF
:101970003A8729875C874B873E872D87988B8F878F
:10198000CE0101967C01F701A080B180F0E8AF168E
:10199000B104C0F4F70182809380F0E48F169104C3
:1019A00088F421E02216310411F440E007C0682DCC
:1019B0008A2D0E94A00641E08111F7CFB401C50134
:1019C0000E94C10634E0E30EF11C49A15AA14E1554
:1019D0005F05C9F60F5F1F4FC016D1060CF0B0CFE0
:1019E0008F8D98A14816590609F08CCF8091A101DE
:1019F0009091A201019618161906ECF09093A2019D
:101A00008093A101AA960FB6F894DEBF0FBECDBF9A
:101A1000DF91CF911F910F91FF90EF90DF90CF90CA
:101A2000BF90AF909F908F907F906F905F904F90FE
:101A30003F902F9008951092A2011092A1018091E1
:101A40009D0190919E01EDA1FEA18E0F9F1F8D32F1
:101A5000F1E09F072CF49093A4018093A301D2CFCF
:101A600081E090E09093A4018093A3012FEF221ACC
:101A7000320A3092A00120929F01C4CF21E040E8B9
:101A800070E060E090E080E00E944F060E949006C7
:101A900001E010E041E0B80190E080E00E94C10662
:101AA00020E04EE7B80181E090E00E944F0641E05F
:101AB000B8018FE790E00E94C1060E9490060E5F79
:101AC0001F4F0F33110531F702E010E041E0B8017C
:101AD00090E080E00E94C10620E04EE7B80181E07E
:101AE00090E00E944F0641E0B8018FE790E00E942D
:101AF000C1060E9490060E5F1F4F0034110531F79A
:101B000021E040E86FE370E090E080E00E944F0643
:101B10000E94900668EE73E080E090E00E945C0511
:101B20000E940A08AA960FB6F894DEBF0FBECDBF7A
:101B3000DF91CF911F910F91FF90EF90DF90CF90A9
:101B4000BF90AF909F908F907F906F905F904F90DD
:101B50003F902F900C94F4082F923F924F925F92F7
:101B60006F927F928F929F92AF92BF92CF92DF92AD
:101B7000EF92FF920F931F93CF93DF93CDB7DEB712
:101B8000C154D1090FB6F894DEBF0FBECDBF0E947D
:101B9000C10AC0907201D0907301D7FC32C07601A7
:101BA00020E4C216D1047CF181E090E09093A6017C
:101BB0008093A50110927301109272010E94F408A3
:101BC00080915108909152080E94770BCF5BDF4FB4
:101BD0000FB6F894DEBF0FBECDBFDF91CF911F913E
:101BE0000F91FF90EF90DF90CF90BF90AF909F90BC
:101BF0008F907F906F905F904F903F902F900C94BC
:101C00007F08F12CE12C4091660122964FAF22977C
:101C10006090640170906501BDEF4B2EB5E05B2EC6
:101C200010E000E0B12CA12C80E4882E912C061548
:101C300017050CF44CC0FE01339621E030E02A1564
:101C40003B050CF4B5C0FE0131963F018824839416
:101C5000912C8A149B040CF0DFC0D3018D919C91D0
:101C6000119712964D905C908C010F5F1F4F0415D9
:101C7000150534F5481A590AB2E04B16510404F11F
:101C8000E114F104E9F0480E591E2296EFAD2297B7
:101C9000EE2309F4B0C0C701800F911F80FD0BC077
:101CA0006E2D802F0E94A006811105C041E0B70172
:101CB000C8010E94C1060F5F1F4F0415150559F793
:101CC000F2E08F0E911C24E0620E711CC2CFD20193
:101CD0002D913D912D010F5F1F4FC801B3010E944F
:101CE000562AFC01EE0FFF1FE350FA4F308021808F
:101CF000C901B4010E94562AFC01832D922DB40122
:101D00000E94562AAF018E179F070CF4AC01E4160F
:101D1000F5060CF48CCFAF01E817F9070CF4AC0111
:101D2000E416F5060CF083CFE817F90709F47FCF26
:101D300037FF02C0215C3F4F76E0359527957A95B5
:101D4000E1F7432D522D57FF02C0415C5F4F66E023
:101D5000559547956A95E1F724173507A9F0B7011E
:101D60006E1B7F0B421B530B649FD001659FB00D10
:101D7000749FB00D1124BC016E1B7F0BCD010E941E
:101D8000562AAB01420F531FB0E2AB16B1040CF060
:101D90004ECFF501EE0FFF1F81E090E08C0F9D1FED
:101DA000E80FF91F51834083D50111965D013FCFA4
:101DB000DF010D911D914D01C9010197DF017E9158
:101DC0006E91061717073CF4718360830197FD013C
:101DD0008F3F980799F7FC013196EE0FFF1F81E0C6
:101DE00090E08C0F9D1FE80FF91F118300832F5F78
:101DF0003F4FF40124CF6E2D802F0E94A006811149
:101E000005C041E0B701C8010E94C1060F5F1F4F26
:101E10000415150581F754CF4FEFC41AD40AD09298
:101E20007301C092720180E4C816D1040CF4C6CECE
:101E300081E090E09093A6018093A5011092730138
:101E40001092720180915108909152080E94770B74
:101E5000B5CE1F93CF93DF930E94180C182F1092CA
:101E6000750110927401109277011092760181E051
:101E700080930001CCEAD0E0FE016491662339F042
:101E80008DEF96E00E9463072196892BA9F7112315
:101E9000E9F00E944E0310927701109276011092A1
:101EA0007501109274010E940A080E94F408809142
:101EB00094089091950801969093950880939408C2
:101EC00081E090E09093A6018093A501DF91CF91EE
:101ED0001F9108951F93CF93DF93EC01FB011881AD
:101EE0004981812F942F60E470E00E94562AE80F08
:101EF000F91F212F342F37FF02C0215C3F4F207C78
:101F0000E034F10540F42E0F3F1F39832883DF9121
:101F1000CF911F910895280F391FF7CFCF93DF93EB
:101F2000EC01888199819C0197FF02C0215C3F4FA1
:101F3000E6E035952795EA95E1F7FB01E20FF31FFF
:101F400060E470E00E94562AE038F10560F456E043
:101F5000EE0FFF1F5A95E1F78E0F9F1F998388831D
:101F6000DF91CF91089546E0220F331F4A95E1F7A4
:101F7000820F931FF3CF60FF04C06FEF7FEF0C94CD
:101F80008E0F61FF03C061E070E0F9CF62FF04C013
:101F90006FEF7FEF0C946A0F63FF03C061E070E0A6
:101FA000F9CF0895CF93DF93C0915108D091520893
:101FB000609147086F70862321F081E598E00E94C8
:101FC000BB0F2091510830915208AE01D7FF02C0DB
:101FD000415C5F4F76E0559547957A95E1F7C901E9
:101FE00037FDCF9666E0959587956A95E1F7481796
:101FF000590771F4E0E4F0E0CE01BF010E94562AD7
:10200000EC01C901BF010E94562AC817D90741F047
:10201000109295081092940881E0DF91CF91089575
:1020200080E0FBCF089590E080E008950F931F9328
:10203000CF93DF93FC01CB01AB0177FF02C0415C82
:102040005F4F76E0559547957A95E1F79F01F7FF49
:1020500002C0215C3F4F66E0359527956A95E1F710
:1020600042175307C4F024173507BCF422E000E4FC
:1020700010E0B8010E94562AEC01CF01B8010E947D
:10208000562AC817D9075CF42460822FDF91CF91BC
:102090001F910F91089521E0EACF20E0E8CF8C173F
:1020A0009D079CF72860F1CFCF92DF92EF92FF92CD
:1020B0000F931F93CF93DF9310924F08E09148083E
:1020C000F0914908CF019927DC01AA0FBB1FAB5B38
:1020D000B84F0D911C912F2F30E0D901AA0FBB1FD3
:1020E000AB5BB84FCD91DC91E0904508F09046088D
:1020F00001978E0D9F1DB7010E94562ADC01AA0F81
:10210000BB1FAB5BB84FCD90DC90C9010196B70106
:102110000E94562ADC01AA0FBB1FAB5BB84FED90A3
:10212000FC90FE1315C0B601C8010E941610C82FFE
:10213000B701C8010E9416108C2B80934F08DF91C5
:10214000CF911F910F91FF90EF90DF90CF90089566
:10215000E0905108F0905208B801C7010E94161093
:10216000182FBE01C7010E941610812BE6CFCF9316
:10217000DF939C01CB01B90137FF02C0615C7F4F47
:10218000F6E075956795FA95E1F7AC0197FF02C007
:10219000415C5F4FE6E055954795EA95E1F7641796
:1021A000750779F4E0E4F0E0BF010E94562AEC01E3
:1021B000C901BF010E94562A9C0181E0C217D307C2
:1021C00009F080E0DF91CF910895CF92DF92EF92F6
:1021D000FF920F931F93CF93DF939C01CB017A0162
:1021E0008B0177FF02C0015C1F4F76E015950795C4
:1021F0007A95E1F7F701F7FCFF9656E0F595E7953C
:102200005A95E1F760E4C62ED12CB6010E94562AF9
:10221000EC01C701B6010E94562A7C018C179D076C
:102220000CF44EC00E171F07F9F4FC01C90137FD6D
:10223000CF9646E0959587954A95E1F708171907D7
:1022400089F4C90160E470E00E94562A9C01EC16F2
:10225000FD060CF4E7012C173D0724F081E0E2179E
:10226000F3072CF580E023C0C817D907D9F7C901B7
:10227000B6010E94562AC817D907A1F737FF02C036
:10228000215C3F4F86E0359527958A95E1F7C80197
:10229000E017F1070CF4CF01281739071CF30E17CC
:1022A0001F070CF48F0181E002171307DCF2DF91A6
:1022B000CF911F910F91FF90EF90DF90CF900895F5
:1022C0000E171F0779F6FE01B1CFEF92FF920F9321
:1022D0001F93CF93DF93382F292F8B01FA0160E4EE
:1022E00070E00E94562A7C01C32FD22FD7FDEF96B3
:1022F00096E0D595C7959A95E1F79F01F7FF02C043
:10230000215C3F4FB6E035952795BA95E1F72C1B38
:102310003D0B86E0220F331F8A95E1F7CF0160E481
:1023200070E00E94562AFC01EE19FF09E20FF31F2C
:10233000980117FF02C0215C3F4F76E03595279545
:102340007A95E1F72C1B3D0BA6E0220F331FAA95CF
:10235000E1F7C80160E470E00E94562A8E199F09D7
:10236000280F391F890137FF02C0015C1F4F56E05B
:10237000159507955A95E1F760E4E62EF12CCF010B
:10238000B7010E94562A089FE001099FD00D189FAF
:10239000D00D1124C901B7010E94562A9F01F7FFF1
:1023A00002C0215C3F4F46E0359527954A95E1F7FD
:1023B000829FA001839F500D929F500D1124CE014A
:1023C000841B950B19F04AF48FEF9FEFDF91CF91AB
:1023D0001F910F91FF90EF90089581E090E0F6CF6C
:1023E0008F929F92AF92BF92CF92DF92EF92FF9225
:1023F0000F931F93CF93DF93EC014B017A01890177
:10240000AC01B901C7010E9465115C01A401B801CA
:10241000C7010E9465116C01A701B401CE010E94A1
:1024200065117C01A801B401CE010E946511AC9C2C
:102430009001AD9C300DBC9C300D112437FF18C0AD
:10244000E89E9001E99E300DF89E300D1124832FF7
:10245000881F8827881FDF91CF911F910F91FF90D0
:10246000EF90DF90CF90BF90AF909F908F900895A6
:1024700080E0F1CF2F923F924F925F926F927F92C6
:102480008F929F92AF92BF92CF92DF92EF92FF9284
:102490000F931F93CF93DF937C013B015A0160E4BC
:1024A00070E00E94562A6C01130110E000E0D0E0B9
:1024B000C0E090E4492E512C0A151B05BCF5F10132
:1024C000219131911F010F5F1F4FC801B5010E947B
:1024D000562AFC01EE0FFF1FE60DF71D0190F0815B
:1024E000E02DCF01B2010E94562A4C01C901B20170
:1024F0000E94562AC816D9066CF0C814D904E4F60E
:10250000A701BF01C9010E94651118161906A4F69A
:102510002196D2CFC814D9047CF2A701BF01C9010A
:102520000E94651197FFC8CF2197C6CF81E0CD2BC0
:1025300009F480E0DF91CF911F910F91FF90EF9010
:10254000DF90CF90BF90AF909F908F907F906F90D3
:102550005F904F903F902F9008952F923F924F920F
:102560005F926F927F928F929F92AF92BF92CF9223
:10257000DF92EF92FF920F931F93CF93DF93CDB72C
:10258000DEB7C450D1400FB6F894DEBF0FBECDBF4A
:10259000909193089230E0F410929308CC5FDE4F54
:1025A0000FB6F894DEBF0FBECDBFDF91CF911F9164
:1025B0000F91FF90EF90DF90CF90BF90AF909F90E2
:1025C0008F907F906F905F904F903F902F900895E5
:1025D00000914A0810914B086801DD24012F112752
:1025E000780160904C0870904D0843019924672C45
:1025F0007724A92EB12C8C149D0494F5C5010E945A
:102600008203830137019C2D8D2D6401892E982E24
:10261000FE0131965F01CE018F5F9E4F11921192A4
:10262000E817F907D9F743E5242E48E0342ECD5FAB
:10263000DE4FB982A882C350D140F501D101F12CFF
:10264000E12C809193088E151F0409F00CF483C0CF
:102650002FEFE21AF20A8D919D9181939193F1CF20
:10266000C814D904A9F6F601EE0FFF1FEB5BF84F73
:102670000190F081E02DD801AA0FBB1FAB5BB84FD2
:10268000ED90FC90AF01F7FF02C0415C5F4F96E018
:10269000559547959A95E1F79701F7FE02C0215CA1
:1026A0003F4FA6E035952795AA95E1F7D501AA0FEA
:1026B000BB1FAF5AB74F8C9111969C913090530825
:1026C000209054082417350729F1BC0177FF02C078
:1026D000615C7F4FCB01F6E095958795FA95E1F720
:1026E000632D722D77FF02C0615C7F4FE6E0759528
:1026F0006795EA95E1F74217530744F48617970761
:102700000CF086CFC5010E94820382CF681779073B
:10271000CCF37ECF20E430E0B9010E94562A2C0190
:10272000832D922DB9010E94562A1C01C701B901BF
:102730000E94562A7C01CF01B9010E94562A8E15AB
:102740009F0524F442145304ECF262CF24143504A0
:102750000CF05ECFD7CFC3018614970441F460918B
:10276000450870914608C40101960E94562AF70157
:10277000EE0FFF1FEA0DFB1D8C159D05C1F040E813
:10278000E416F10461F15FEFE51AF50ADC01AA0F26
:10279000BB1FAB5BB84F2D913C91219331930196B8
:1027A00060914508709146080E94562AE5CFC016F0
:1027B000D106A9F060E8E616F1048CF4F701EE0FFB
:1027C000FF1FEA0DFB1DD601AA0FBB1FAB5BB84F65
:1027D0008D919C9191838083C70101967C018091AA
:1027E0001D0790911E0720911F0730912007AC0113
:1027F00097FF02C0415C5F4FF6E055954795FA950B
:10280000E1F7B90137FF02C0615C7F4FE6E07595E3
:102810006795EA95E1F7460F571F57FF02C04F5FD4
:102820005F4F55954795FA0176E0EE0FFF1F7A95B9
:10283000E1F7CF5FDE4FF983E883C150D140E0E498
:10284000F0E0BF010E94562A2C01C901BF010E947D
:10285000562A480E591E57FE03C0FFEF4F1A5F0A53
:1028600055944794A701B501CF5FDE4F88819981C8
:10287000C150D140840D951D0E943A12882309F45D
:1028800096C0C814D90481F5EDEFF5E090E080E042
:10289000209193082817190649F044F00196D101B8
:1028A0002D913D911D0121933193F2CF90936501BC
:1028B00080936401E5E4F7E090E080E0E816F90633
:1028C00009F409C1CD5FDE4FA881B981C350D14061
:1028D0002D913D91CD5FDE4FB983A883C350D14088
:1028E000219331930196EACFC016D10649F4C8016D
:1028F000019660914508709146080E94562A8C0105
:10290000EDEFF5E030E020E008151905C1F02038C2
:10291000310559F12F5F3F4FD801AA0FBB1FAB5BA9
:10292000B84F8D919C9181939193C80101966091CC
:102930004508709146080E94562A8C01E5CF06157D
:10294000170599F02038310581F0F901EE0FFF1FCE
:10295000E350FA4FD801AA0FBB1FAB5BB84F8D9164
:102960009C91918380832F5F3F4F8091930890E0EB
:10297000FC01EE0FFF1FE95BF74FD901AA0FBB1F48
:10298000A350BA4F820F931F2817390759F0329777
:102990002038310539F02F5F3F4F448555854D93E1
:1029A0005D93F2CF309365012093640183CFEDEF07
:1029B000F5E0D50190E080E0C814D90409F042C0E8
:1029C00090E080E0209193082817190649F044F020
:1029D0000196D1012D913D911D0121933193F2CFAB
:1029E0009093650180936401C016D10649F4C80133
:1029F000019660914508709146080E94562A8C0104
:102A00009501F12CE12C0815190551F1B0E8EB16F0
:102A1000F104F1F1EFEFEE1AFE0AF801EE0FFF1FDD
:102A2000EB5BF84F80819181D9018D939D939D013E
:102A3000C801019660914508709146080E94562A87
:102A40008C01E1CFE816F90631F02D913D912193EB
:102A500031930196F7CFF0926501E0926401C4CF03
:102A600006151705A9F0B0E8EB16F10489F0D701B7
:102A7000AA0FBB1FAA0DBB1DF801EE0FFF1FEB5BDA
:102A8000F84F808191818D939C93F70131967F015E
:102A90008091930890E0DC01AA0FBB1FA95BB74FA0
:102AA000F701EE0FFF1FEA0DFB1D8E0D9F1DE816AF
:102AB000F90609F4FFCE129720E8E216F10409F4B2
:102AC000F9CE4FEFE41AF40A1C962D913C911D9714
:102AD00021933193ECCFF0924608E0924508F0E064
:102AE000E0E090E4892E912C209145083091460831
:102AF000E217F3070CF077C0253031050CF473C0F2
:102B00005F01BFEFAB1ABB0ACF010197820F931F82
:102B1000B9010E94562ADC01AA0FBB1FAB5BB84F5C
:102B2000CD90DC90CF01880F991FAC014B5B584FC3
:102B30003A01DA01ED90FC90C501B9010E94562AD4
:102B4000DC01AA0FBB1FAB5BB84F0D911C91C601F6
:102B5000D7FCCF96A6E095958795AA95E1F7A701B2
:102B6000F7FE02C0415C5F4F76E0559547957A9538
:102B7000E1F784179507E1F4A80117FF02C0415C53
:102B80005F4F66E0559547956A95E1F7841795077D
:102B900079F4D301CF012150310982179307ECF466
:102BA000019612964D915C9113974D935D93F5CFDD
:102BB000C601B4010E94562A6C01C701B4010E94EB
:102BC000562AC816D90639F4C801B4010E94562AFB
:102BD000C816D906F1F2F50187CF30934608209345
:102BE00045085F01F8CF1092930880910B0781117F
:102BF00010920B070E944B0AD1CC2F923F924F921A
:102C00005F926F927F928F929F92AF92BF92CF927C
:102C1000DF92EF92FF920F931F93CF93DF93CDB785
:102C2000DEB76D970FB6F894DEBF0FBECDBF282E6E
:102C300020914708922F9F7080914F08392F382399
:102C400009F122952F70A9F0921799F0209193081D
:102C5000203278F44091510850915208E22FF0E070
:102C6000EE0FFF1FED5AF74F518340832F5F2093E4
:102C7000930840E1949F90011124922B9093470870
:102C80000E94D20F30909308332009F429C180911B
:102C90005108909152082091530830915408BC017A
:102CA00097FF02C0615C7F4FF6E075956795FA95D6
:102CB000E1F7A90137FF02C0415C5F4FE6E055959F
:102CC0004795EA95E1F76417750771F4E0E4F0E0E1
:102CD000BF010E94562A8C01C901BF010E94562AD9
:102CE0000817190709F4FCC0C0905108D090520889
:102CF000409045085090460810E000E00415150586
:102D00000CF0EEC038018FEF681A780AC301B201E7
:102D10000E94562A7C01FC01EE0FFF1FEB5BF84F6F
:102D2000A080B180F801EE0FFF1FEB5BF84F8080B1
:102D30009180A501B401C6010E94E510882309F421
:102D40009FC0B401C6010E94B710811140C2B501F5
:102D5000C6010E94B7108111870180914C089091A3
:102D60004D088827082B192B10934D0800934C0809
:102D70006E2D8CE498E00E94110C809193088032B3
:102D800078F42091510830915208E82FF0E0EE0FCE
:102D9000FF1FED5AF74F318320838F5F8093930895
:102DA0000E94AD1282E090E09093A6018093A5016D
:102DB00010927301109272012092660180910107B6
:102DC000882321F00E944B0A109201070E94C10A39
:102DD00025E4422E27E0522E10E000E060914508E5
:102DE00070914608061717070CF074C038019FEF62
:102DF000691A790AC3010E94562A7C01F201A19046
:102E0000B1902F01FC01EE0FFF1FEB5BF84F8080AC
:102E10009180C0905108D0905208B501C6010E941F
:102E2000B710882379F18091480890914908882744
:102E3000802B912B9093490880934808602F88E459
:102E400098E00E94110C81E0809367016D960FB6A7
:102E5000F894DEBF0FBECDBFDF91CF911F910F91D0
:102E6000FF90EF90DF90CF90BF90AF909F908F90AA
:102E70007F906F905F904F903F902F900C945410E4
:102E800083013CCFB401C6010E94B710882369F0CA
:102E9000809148089091490888278E299F2990930E
:102EA0004908809348086E2DCACFA401B501C60118
:102EB0000E94E510882361F08091480890914908AC
:102EC0008827082B192B1093490800934808EBCF4B
:102ED000830184CF80914F088F7C80934F08B3CFBC
:102EE0008091470882958F70813009F4DEC082306E
:102EF00009F4DDC0843009F4DCC0883009F4DBC09B
:102F000080E08095082F0F70102FF1E0F31508F086
:102F100064C0232D30E0F9013197C0905108D09062
:102F20005208D901AA0FBB1FAF5AB74F8D919C9180
:102F3000AC0197FF02C0415C5F4FB6E055954795E5
:102F4000BA95E1F7B601D7FE02C0615C7F4FA6E0FB
:102F500075956795AA95E1F77A01E61AF70A1E14A6
:102F60001F041CF07B01E41AF50A40E4A42EB12CE6
:102F7000B5010E94562A4C01C601B5010E94562A8D
:102F8000A401481B590B141615061CF0AC01481976
:102F90005909E40EF51E43E0E416F104F4F4EE0FD3
:102FA000FF1FED5AF74F60817181220F331FF90126
:102FB000E15BF74F808191810E94161012E0813011
:102FC00051F011E0823039F018E0843021F010E047
:102FD000883009F414E0109510238091200190911D
:102FE0002101A0912201B0912301898B9A8BAB8B97
:102FF000BC8B88E0E4E2F1E0DE01199601900D92CD
:103000008A95E1F788E0ECE2F1E0DE0111960190AB
:103010000D928A95E1F7CE014196988F8F8BFE0134
:1030200031961F012E01F9E04F0E511C9E012B5EBF
:103030003F4F3E8B2D8BEF89F88D0191F88FEF8BF1
:10304000802F812309F467C0809151089091520824
:10305000F2010190F081E02DFB8FEA8F7C0197FF58
:1030600003C0FFE3EF0EF11CE6E0F594E794EA9568
:10307000E1F72A8D3B8DE20EF31E30E8E316F104F2
:1030800088F4F1010190F081E02DFD8FEC8F60E478
:1030900070E00E94562A5F01A80EB91EF0E4AF1638
:1030A000B10458F00095102336C082E02ACF81E0A9
:1030B00028CF88E026CF84E024CF470176E0880C33
:1030C000991C7A95E1F78A0C9B1C609045087090DA
:1030D000460830E020E0261537050CF053C06901A2
:1030E0004FEFC41AD40AC601B3010E94562AFC014C
:1030F000EE0FFF1FEB5BF84F40815181220F331F12
:10310000F901EB5BF84F60817181C4010E94E51009
:103110009601882301F3F2E02F0E311C22E0420ECB
:10312000511C8F89988DED89FE898E179F0709F0B4
:1031300082CF809193088F3130F08091470882953B
:103140008F7009F0182380914F088073182B10930B
:103150004F086D960FB6F894DEBF0FBECDBFDF915E
:10316000CF911F910F91FF90EF90DF90CF90BF9084
:10317000AF909F908F907F906F905F904F903F9017
:103180002F90089580919308898FE82FE150FF0BCD
:103190006F0130E020E02C153D05DCF43901FFEF34
:1031A0006F1A7F0AF901EE0FFF1FEB5AF74F4081AC
:1031B0005181220F331FF901ED5AF74F6081718160
:1031C000C4010E94E5109301882329F36BCF780195
:1031D000C4CDF98DFF2381F04091510850915208E0
:1031E000F601EE0FFF1FED5AF74F60817181C401A8
:1031F0000E94E510811156CF2A8D3B8DE20EF31E01
:1032000030E8E316F10408F04DCF8C8D9D8DA80EAB
:10321000B91E90E4A916B10408F044CF76E0EE0C94
:10322000FF1C7A95E1F7AE0CBF1C30E020E02C15B6
:103230003D05CCF47901EFEFEE1AFE0AF901EE0F2D
:10324000FF1FEB5AF74F40815181220F331FF901C5
:10325000ED5AF74F60817181C5010E94E510970119
:10326000882329F31FCF298D222309F454CF4091BD
:10327000510850915208F601EE0FFF1FED5AF74F1B
:1032800060817181C5010E94E510882309F443CF54
:1032900009CFCF92DF92EF92FF926B017C01C114B4
:1032A000D104E104F10441F00E947B29A7019601B9
:1032B0000E94D3296B017C01C701B601FF90EF90FA
:1032C000DF90CF9008952F923F924F925F926F922E
:1032D0007F928F929F92AF92BF92CF92DF92EF92A6
:1032E000FF920F931F93CF93DF93CDB7DEB728974D
:1032F0000FB6F894DEBF0FBECDBF80913D07909111
:103300003E07019690933E0780933D0720913F072B
:1033100030914007821793070CF465C310923E0763
:1033200010923D07009121071091220763E070E0A1
:1033300080E090E00E94491920913B0730913C07C2
:103340003195219531093A832983615071098109A9
:103350009109600F711F621773077CF100912107BB
:103360001091220763E070E080E090E00E9449192C
:10337000E0913B07F0913C07FA83E98361507109C2
:1033800081099109600F711FE617F707B4F02091CA
:103390002107309122073A83298363E070E080E0BF
:1033A00090E00E9449196150710981099109E981F0
:1033B000FA81E60FF71FFA83E98329813A81309376
:1033C000220720932107009123071091240763E02F
:1033D00070E080E090E00E944919E0913B07F09195
:1033E0003C07F195E195F109FA83E9836150710990
:1033F00081099109600F711F6E177F077CF10091A1
:1034000023071091240763E070E080E090E00E94C1
:10341000491920913B0730913C073A832983615039
:10342000710981099109600F711F26173707B4F0E0
:1034300060912307709124077A83698363E070E0C9
:1034400080E090E00E944919615071098109910959
:10345000E981FA81E60FF71FFA83E98329813A812E
:103460003093240720932307009125071091260706
:1034700063E070E080E090E00E944919E0913B0732
:10348000F0913C07F195E195F109FA83E9836150E8
:10349000710981099109600F711F6E177F077CF117
:1034A000009125071091260763E070E080E090E02E
:1034B0000E94491920913B0730913C073A832983A8
:1034C0006150710981099109600F711F2617370733
:1034D000B4F060912507709126077A83698363E0D1
:1034E00070E080E090E00E94491961507109810903
:1034F0009109E981FA81E60FF71FFA83E9832981AF
:103500003A813093260720932507009127071091D1
:10351000280763E070E080E090E00E944919E091A4
:103520003B07F0913C07F195E195F109AB01BC0136
:103530004150510961097109400F511F4E175F0732
:1035400094F120912707309128073A83298363E07B
:1035500070E080E090E00E944919E0913B07F09113
:103560003C07AB01BC0141505109610971098981D6
:103570009A81840F951FE817F907ACF0E0912707AF
:10358000F0912807FA83E98363E070E080E090E03F
:103590000E944919DC01CB010197A109B109E98118
:1035A000FA81E80FF91FF0932807E093270720918D
:1035B0002307309124073A832983209121073091F2
:1035C0002207232B51F429813A81232B31F421E066
:1035D00030E03093220720932107E0902507F090F8
:1035E0002607E114F10441F4EF2B31F481E090E07F
:1035F000909328078093270720911F073091200779
:1036000000911D0710911E07F90137FDFF9686E016
:10361000F595E7958A95E1F7C80117FDCF96A6E0E5
:1036200095958795AA95E1F7E81BF90BB0E4CB2EA9
:10363000D12CC901B6010E94562A5C01C801B6010D
:103640000E94562AA81AB90AAF01F7FF04C04427FE
:1036500055274E1B5F0BB501B7FE04C066277727C1
:103660006A197B09460F571F453151050CF47AC082
:1036700040912107509122071E161F060CF0CCC165
:103680004F5F5F4F509322074093210761E0E61A96
:10369000F108F0922607E092250740912707509104
:1036A0002807E981FA811A141B040CF0BFC1319676
:1036B000F0932407E09323074150510950932807C2
:1036C00040932707609121077091220740913B07A3
:1036D00050913C0788279927841B950B6817790719
:1036E0000CF4ACC1461757070CF4BA0170932207CB
:1036F000609321076091230770912407F82FE92F29
:10370000681779073CF0F42FE52F6417750714F458
:10371000F62FE72FF0932307E09324076091250706
:1037200070912607F82FE92F681779073CF0F42FDE
:10373000E52F6417750714F4F62FE72FF09325078C
:10374000E09326076091270770912807681779078B
:103750002CF0CA01641775070CF4CB01909328076D
:10376000809327071A83098317FF05C0B801615C9E
:103770007F4F7A83698389819A81E6E09595879561
:10378000EA95E1F79A838983609021077090220778
:103790006C01C60CD71CC80160E470E00E94562A78
:1037A00098878F8340902307509024077C01E40C76
:1037B000F51C590137FF03C09FE3A90EB11C76E049
:1037C000B594A7947A95E1F72090250730902607C5
:1037D0008501020D131DC90160E470E00E94562AA4
:1037E0009E838D83E0912707F0912807FC83EB836C
:1037F0004C018E0E9F1EF0E8CF16D10410F520E488
:10380000E216F104F0F46E2D8C2D0E94A0068823A0
:10381000C1F08827992786199709909322078093EA
:103820002107882799278419950990932407809365
:103830002307C980DA80C618D708EF80F884E41817
:10384000F5080038110520F530E48316910400F5E1
:10385000682D802F0E94A0068823D1F08827992701
:103860008219930990932607809325078B819C8169
:103870009195819591099093280780932707850159
:10388000021913098D809E806B817C81861A970AAC
:1038900072E0C71AD1088CE7C816D10458F080919D
:1038A0002107909122079195819591099093220784
:1038B0008093210792E0E91AF108ECE3EE16F10497
:1038C00058F0809123079091240791958195910953
:1038D0009093240780932307025011090C37110598
:1038E00058F080912507909126079195819591092F
:1038F0009093260780932507F2E08F1A91082CE316
:103900008216910458F0809127079091280791958D
:103910008195910990932807809327072091250787
:10392000309126072A0D3B1D2F37310514F02EE765
:1039300030E01216130614F021E030E04091270722
:10394000509128076D817E81460F571F4F335105D7
:1039500014F04EE350E01416150614F041E050E068
:103960008091210790912207E981FA818E0F9F1F94
:103970008F37910514F08EE790E01816190614F0B1
:1039800081E090E066E0880F991F6A95E1F7609109
:10399000230770912407EF81F885E60FF71FFA835C
:1039A000E983FF9724F06EE370E07A836983E9810D
:1039B000FA811E161F0624F061E070E07A836983A5
:1039C000E981FA818E0F9F1F90931E0780931D0738
:1039D00086E0220F331F8A95E1F7240F351F3093BD
:1039E000200720931F0728960FB6F894DEBF0FBE5E
:1039F000CDBFDF91CF911F910F91FF90EF90DF909E
:103A0000CF90BF90AF909F908F907F906F905F907E
:103A10004F903F902F9008954150510950932207A5
:103A2000409321077FEFE71AF70A33CE3197F093DF
:103A30002407E09323074F5F5F4F40CEBC0156CE73
:103A40002F923F924F925F926F927F928F929F92AE
:103A5000AF92BF92CF92DF92EF92FF920F931F939C
:103A6000CF93DF9300D000D000D01F92CDB7DEB748
:103A70000E944B0A0E94C10A0E94180C382E282F5F
:103A80002F70222E809150088F708095982F92234E
:103A900080914708992309F453C0807F892B809334
:103AA00047083092500880914F08982F907331F456
:103AB000132D107309F04BC01092670120914F082D
:103AC000822F807309F478C203E518E0EE24E394B2
:103AD000F12C80E4C82ED12C80919308E82FF0E0DF
:103AE000EE16FF060CF0EFC0F801A190B1908F0127
:103AF00090804181892D942FB6010E94562A9C0105
:103B0000E92DF42FF7FDFF96A6E0F595E795AA9528
:103B1000E1F7C501B6010E94562AB7FE03C04FE384
:103B2000A40EB11CAF01BC01C501E6E095958795D7
:103B3000EA95E1F70E94DF068FEFE81AF80ACCCF8A
:103B4000922F982309F0ADCF807F822BA8CF909140
:103B500067019111B3CF909147089F709B83992380
:103B600009F4ACCF892309F0A9CF80915108909135
:103B700052089A8389836B81CE0101960E94BB0F04
:103B8000409145085091460865E477E089819A8123
:103B90000E943A12882309F491CF80914F08812B1B
:103BA00080934F08409045085090460885E497E080
:103BB0009E838D8310E000E0041515050CF068C0AD
:103BC000ED81FE81A190B190FE83ED833801FFEF7E
:103BD0006F1A7F0AC301B2010E94562A4C018F83DB
:103BE000FC01EE0FFF1FEB5BF84FC080D180E0902F
:103BF0005108F0905208A601B501C7010E94E510D6
:103C0000882309F45CC03701F7FE03C02FE3620E7E
:103C1000711C46E0759467944A95E1F7C501B7FCBD
:103C2000CF9636E0959587953A95E1F7681679062F
:103C300071F420E430E0C701B9010E94562AFC016A
:103C4000C501B9010E94562AE817F907D1F1C6014A
:103C5000D7FCCF9626E0959587952A95E1F76816CB
:103C6000790679F420E430E0C701B9010E94562AB0
:103C7000FC01C601B9010E94562AE817F90709F4A8
:103C8000840100934A086F818AE498E00E94110C35
:103C90008091510890915208909354088093530852
:103CA00081E080939308209147082F704B8130E189
:103CB000439FC0011124822B80934708FFCE8301CC
:103CC0007BCF0F83DECF882391F1EE0FFF1FEF5ADA
:103CD000F74F10813181F0915108E09152088F2FF8
:103CE0009E2F60E470E00E94562A7C014F2F5E2FC9
:103CF00057FF02C0415C5F4FFA01A6E0F595E795DA
:103D0000AA95E1F7812F932F60E470E00E94562A74
:103D1000A12FB32FB7FDDF969701AF01BC01CD01F5
:103D2000E6E095958795EA95E1F70E94DF0634FE77
:103D300030C180914F0884FF2CC180917C0190910B
:103D40007D0163E070E00E94422A892B19F481E032
:103D50000E94FD1580915108909152080E94770BA6
:103D60000E947F0880910107811113C080914F0844
:103D7000807390910B07992309F48AC220919408CB
:103D8000309195082630310508F082C281110E94D9
:103D90005B0380910107882309F4C7C08091020763
:103DA000909103079093FA058093F90521E0209301
:103DB000700110926C0110926D0110926E011092C0
:103DC0006F014C0197FF03C02FE3820E911CE6E0C8
:103DD00095948794EA95E1F7140132E0231A3108AB
:103DE00060E470E00E94562A8C01025011095801CB
:103DF000D12CC12CC40103969C838B83412C512C64
:103E0000320143947101E5E0EC9DC001ED9D900D00
:103E10001124881999099C012E5F3F4F3E832D8301
:103E200030E8E316F10458F540E4A416B10438F57F
:103E30006A2D8E2D0E94A006882309F18D819E8116
:103E40008E0D9F1DB301A20104C0440F551F661FB4
:103E5000771F8A95D2F780916C0190916D01A091A6
:103E60006E01B0916F01842B952BA62BB72B8093FD
:103E70006C0190936D01A0936E01B0936F018FEF71
:103E8000E81AF80AEB81FC81EE15FF0549F6FFEF11
:103E9000CF1ADF0A2FEFA21AB20A35E0C316D104F7
:103EA00009F0B0CF8091070725E0622F0E94362AE3
:103EB0008370829FC0011124B12CA12CFC01ED5410
:103EC000FF4F3F0170E8872E912CF301EA0DFB1D97
:103ED000E491F12CE12CCE2ED12CC4010E2C02C089
:103EE000959587950A94E2F78C219D21892B69F09D
:103EF000C1018E0D9F1D8038910538F400341105E5
:103F000020F441E0B8010E94C106FFEFEF1AFF0A5A
:103F100025E0E216F10409F73FEFA31AB30A0F5F99
:103F20001F4F45E0A416B10481F680914F088073BD
:103F300009F4E4C153E5E52E58E0F52E670110E0E1
:103F400000E060E4A62EB12C809193088017110642
:103F500009F00CF4A8C1F601819191916F019C01C7
:103F600097FF02C0215C3F4F46E0359527954A9563
:103F7000E1F72038310550F4B5010E94562A97FD2B
:103F800005C040E0BC01C9010E94C1060F5F1F4F80
:103F9000DBCF35FEDFCE80914F0885FFDBCE8091F1
:103FA0007C0190917D0165E070E00E94422A892B9E
:103FB00009F0D0CE80E0CCCE222009F4CBCE809187
:103FC0007C0190917D0163E070E00E94422A892B80
:103FD00009F0C0CE0091510810915208822F0E9422
:103FE000D20F2091510830915208390137FF03C098
:103FF0009FE3690E711C86E0759467948A95E1F7DA
:10400000C80117FDCF96B6E095958795BA95E1F76B
:104010006816790679F4E0E4F0E0C901BF010E9476
:10402000562A7C01C801BF010E94562AE816F906EB
:1040300009F490CE009148081091490818013324E2
:10404000812E9924F101EE0FFF1FEB5BF84FC0802A
:10405000D180F401EE0FFF1FEB5BF84FE080F180A1
:10406000A0904508B0904608C601D7FCCF9656E010
:10407000959587955A95E1F76816790681F4E0E4FD
:10408000F0E0C901BF010E94562A2C01C601BF0100
:104090000E94562A602F4816590609F483C0C701AA
:1040A000F7FCCF9646E0959587954A95E1F7681617
:1040B000790679F4E0E4F0E0C901BF010E94562AD4
:1040C0009C01C701BF010E94562A2817390709F42D
:1040D00061C06090510870905208A701B601C301F9
:1040E0000E94E510811170C0C10101978A0D9B1DCE
:1040F000B5010E94562A2C01FC01EE0FFF1FEB5B5D
:10410000F84F40815181B601C3010E94E510642D32
:10411000811156C0C4010196B5010E94562A6C0156
:10412000FC01EE0FFF1FEB5BF84F40815181B7019F
:10413000C3010E94E51081113CC085E4482E87E050
:10414000582EF12CE12CEA14FB04F4F5F201219134
:1041500031912F014701FFEF8F1A9F0AC401B5016A
:104160000E94562A6C01FC01EE0FFF1FEB5BF84F1B
:1041700040815181B901C3010E94E510882309F4EF
:1041800083C00027E02AF12AF0924908E09248080B
:104190006C2D08C00027082919291093490800939D
:1041A0004808682D88E498E00E94110C0E94541081
:1041B000D1CD00270C291093490800934808682D99
:1041C00088E498E00E94110C209148083091490839
:1041D000632E7724F901FF27EE0FFF1FEB5BF84FEB
:1041E000C080D180F301EE0FFF1FEB5BF84FE08042
:1041F000F180E0915108F09152088F01F7FF02C061
:10420000015C1F4F56E0159507955A95E1F7C601D9
:10421000D7FCCF9646E0959587954A95E1F7081724
:10422000190779F4B0E4AB2EB12CCF01B5010E948F
:10423000562A4C01C601B5010E94562A88169906D5
:1042400029F1C701F7FCCF96A6E095958795AA9529
:10425000E1F70817190709F0A9CF00E410E0CF0132
:10426000B8010E94562AFC01C701B8010E94562AD3
:10427000E817F90709F09ACF2227622A732A709269
:1042800049086092480892CF74015DCF622F8ACFAF
:10429000882309F47ECD80919408909195080A971F
:1042A00008F477CD74CD0E94631910E000E0B0E40B
:1042B000CB2ED12C809193088017110609F104F1BF
:1042C000F701819191917F019C0197FF02C0215CD0
:1042D0003F4FA6E035952795AA95E1F7203831059F
:1042E00050F4B6010E94562A97FD05C041E0BC017A
:1042F000C9010E94C1060F5F1F4FDCCF0E946319E6
:1043000000910107002339F080914F08807309F074
:104310008AC0109201078091A5019091A601019792
:1043200009F00CC160914307709144077727809191
:104330007801909179010E94422A892B09F0FEC0F0
:1043400060911F077091200780911D0790911E07B3
:104350000E9499098091390790913A07FC01EE0F6C
:10436000FF1FE75DF84F20911D0730911E07318335
:104370002083FC01EE0FFF1FEF5CF84F20911F0719
:104380003091200731832083019664E070E00E9421
:10439000562A90933A0780933907FC01EE0FFF1FCE
:1043A000EF5CF84F60817181880F991FFC01E75D18
:1043B000F84F808191810E94990980914F08807304
:1043C00009F4BCC080919308C0901F07D0902007CB
:1043D000E0901D07F0901E07082F10E0823008F4CF
:1043E0009CC030E020E059014FEFA41AB40AA01697
:1043F000B1060CF092C0F901EE0FFF1FEB5AF74F18
:1044000060817181220F331FF901ED5AF74F960138
:10441000A701808191810E94F0119501882319F3F1
:104420000E94370B8BC0D0909308F1E0FD1508F087
:1044300070CF8091940890919508059708F46BCF00
:10444000809107078F5F8431A0F5809307078091E3
:1044500008078F5F8093080790910507891760F11F
:104460001092080710910407812F90E0AC014F5F74
:104470005F4F2D2D30E04217530704F5880F991F29
:10448000FC01EB5AF74FE080F180A0900207B0905A
:104490000307B701C5010E94B7108823C1F01F5F51
:1044A000109304071D1598F0109201070E94370B16
:1044B00032CF10920707CBCF00E0D4CF421753077B
:1044C00009F029CFE0905108F0905208DECF002388
:1044D00009F421CFB701C5010E9416108230B9F04E
:1044E00050F46FEF7FEF813009F015CF82E097E055
:1044F0000E948E0F10CF843069F061E070E0883048
:1045000009F009CF82E097E00E946A0F04CF61E0D2
:1045100070E0ECCF6FEF7FEFF5CF609151087091B5
:104520005208000F111FF801EF5AF74F9601A7012B
:10453000808191810E94F011811172CF27960FB670
:10454000F894DEBF0FBECDBFDF91CF911F910F91C9
:10455000FF90EF90DF90CF90BF90AF909F908F90A3
:104560007F906F905F904F903F902F9008951F9293
:104570000F920FB60F9211248F939F938091E100B9
:104580009091E100937F9093E10083FF0FC0109220
:10459000E90091E09093EB001092EC0092E390938D
:1045A000ED0010929C0198E09093F00082FF22C0F1
:1045B00093E09093E9009091F200992319F09AE327
:1045C0009093E80090918D01992341F090918D0195
:1045D000915090938D01911101C05D9A90919B0132
:1045E000992341F090919B01915090939B019111DF
:1045F00001C0289A84FF18C08091E2008E7E8160FD
:104600008093E2008091E1008F7E8093E1008091B1
:104610008E018E7E806180938E019F918F910F908D
:104620000FBE0F901F90189580FFF7CF8091E2008A
:104630008E7E80618093E2008091E1008E7E809387
:10464000E10080918E018E7E8160E5CF1F920F92F6
:104650000FB60F921124CF92DF92EF92FF920F9339
:104660001F932F933F934F935F936F937F938F93FA
:104670009F93AF93BF93EF93FF93CF93DF93CDB708
:10468000DEB76C97DEBFCDBF1092E9008091E800E5
:1046900083FF25C068E0CE0145960E942A0582EF7F
:1046A0008093E8008D8987FF39C09091E80090FFE2
:1046B000FCCF982F907609F034C19E894F89588D90
:1046C0002F89F88C911131C0803861F580918C016F
:1046D0008093F1001092F1008EEF8093E8006C96C9
:1046E0000FB6F894DEBF0FBECDBFDF91CF91FF9123
:1046F000EF91BF91AF919F918F917F916F915F915A
:104700004F913F912F911F910F91FF90EF90DF906C
:10471000CF900F900FBE0F901F9018959EEF909323
:10472000E800C7CF1092F100D5CF913059F4811134
:10473000D3CF4130510581F680918C018D7F8093DC
:104740008C01CACF933049F48111C6CF4130510555
:1047500019F680918C018260F2CF953041F48091FE
:10476000E80080FFFCCF20682093E300B5CF9630AF
:1047700009F0A9C00B8D1C8D22E01092E900109267
:104780008A0110928901F2122EC0109288011092B3
:1047900087010E94F9041F8299E09983FA8291E0CF
:1047A0009E8390EA98879AEF9987209189013091AA
:1047B0008A01275F3F4F3C832B838D831092E90052
:1047C00010928A0110928901109388010093870149
:1047D00049E050E0BE016F5F7F4F80E00E94D3044C
:1047E0000E94F90479CF10938801009387010E94F9
:1047F000DD03DC0112960D911C910115110509F4E0
:1048000051C1D801ED91FC910480F581E02DBE01EC
:104810006B5E7F4FC8010995009709F03EC1F80112
:1048200000851185EACFF3E0FF120EC08F8988233F
:1048300009F440C0823061F440E867E08DE396E01F
:104840000E94A004811148CF81E28093EB0047CF02
:10485000813029F440E86BE081E396E0F1CF8330CA
:1048600099F70E94DD03DC011296ED90FC908E0119
:104870000F5F1F4F6801E114F10479F0D701ED914A
:10488000FC910680F781E02DB801C7010995080F5A
:10489000111DF701E084F184EECFD8011C92F601DE
:1048A00001900020E9F73197BF016C197D0940E0C4
:1048B000C601C6CF6BE176E0FB01449150E080E891
:1048C0000E94D30409CF973009F4BECF983021F469
:1048D00081E08093F10000CF993009F0FDCE837024
:1048E00009F0B2CFEFE3F1E081E031E096E321910E
:1048F000222371F08093E9003093EB00DF011197E0
:104900002C912093EC009093ED008F5F873079F726
:104910008EE78093EA001092EA008F8980939C01D1
:10492000DBCE8B8D9C8D1092E90010928A01109243
:1049300089019093880180938701898D811192C0AC
:104940008E899D89913A49F4813209F07DCF47E003
:1049500050E066E071E080E0B3CF913209F074CFAF
:10496000833269F48F89988DB0E0A0E080930201D2
:1049700090930301A0930401B0930501ADCE803262
:1049800069F48091E80082FFFCCF67E086E091E067
:104990000E942A058BEF8093E8009ECE823209F0B8
:1049A0009BCE8F8980930D01EEEFFFE78591949167
:1049B0008B3F9C4D51F1E0E0F8E080910601909131
:1049C0000701A0910801B0910901803B9440A10525
:1049D000B105F1F480910D0180FD1AC0EE3F8AE02F
:1049E000F80789F587E797E79183808380916000D6
:1049F00080938B0188E19BE00FB6F894A895809393
:104A000060000FBE9093600067CEEEEFFAE0D5CF66
:104A1000808191818737974709F05ECEA895809174
:104A2000600088618093600080918B0180936000BA
:104A3000EE3F2AE0F20789F08091FE0A9091FF0A8A
:104A40009183808349CE808191818737980751F285
:104A50009093FF0A8093FE0AC5CF1092FF0A10922E
:104A6000FE0A3ACE0E94DD03DC0112960D911C91E4
:104A70000115110509F4E8CED801ED91FC910190E2
:104A8000F081E02DBE016B5E7F4FC8010995811159
:104A900023CEF80100851185EBCF181619060CF40A
:104AA0001BCED2CEF1E0FF12BECE6FE176E004CF96
:104AB0001F920F920FB60F9211242F933F938F9353
:104AC0009F93AF93BF9380917F0190918001A091BC
:104AD0008101B091820130917E0123E0230F2D37B7
:104AE00058F50196A11DB11D20937E0180937F0191
:104AF00090938001A0938101B09382018091830102
:104B000090918401A0918501B09186010196A11D2B
:104B1000B11D8093830190938401A0938501B0938C
:104B20008601BF91AF919F918F913F912F910F90EF
:104B30000FBE0F901F90189526E8230F0296A11D17
:104B4000B11DD2CF0F931F93CF93DF931092AA057D
:104B50001092A90588EE93E0A0E0B0E08093AB0549
:104B60009093AC05A093AD05B093AE0589E491E0B8
:104B70009093A8058093A7058FEF9FEF9093B405BE
:104B80008093B3051092FC051092FB051092FA0574
:104B90001092F9051092F8051092F7051092470847
:104BA00082E091E0909349088093480810924B0866
:104BB00010924A0810924D0810924C0880EC809395
:104BC0004E0883E080934F0810925008E3E5F8E028
:104BD0001192119288E0E339F807D1F71092930807
:104BE00010929508109294088FE390E190935208E8
:104BF00080935108E5E4F7E01192119288E0E534E2
:104C0000F807D1F784E090E0909346088093450838
:104C100010924607109245072FE330E03093480783
:104C2000209347072FEF3FE130934A07209349072E
:104C300020EC3FE130934C0720934B0710922A075A
:104C40001092290710922C0710922B0710922E0712
:104C500010922D071092300710922F0710923207F2
:104C600010923107109234071092330710923607D2
:104C700010923507109238071092370710923A07B2
:104C80001092390723E030E030933C0720933B0734
:104C900010923E0710923D0722E030E0309340072B
:104CA00020933F07109242071092410790934407C8
:104CB0008093430785E99AE090931E0780931D0730
:104CC0008AE695E19093200780931F0700912107C2
:104CD0001091220763E070E080E090E00E944919A3
:104CE000C0913B07D0913C07D195C195D109615046
:104CF000710981099109600F711F6C177D073CF1E3
:104D0000009121071091220763E070E080E090E0BD
:104D10000E944919C0913B07D0913C07615071092D
:104D200081099109600F711FC617D70784F0C091E0
:104D30002107D091220763E070E080E090E00E94BC
:104D400049196150710981099109C60FD71FD09384
:104D50002207C0932107009123071091240763E0E5
:104D600070E080E090E00E944919C0913B07D0912B
:104D70003C07D195C195D10961507109810991090B
:104D8000600F711F6C177D073CF100912307109194
:104D9000240763E070E080E090E00E944919C09130
:104DA0003B07D0913C076150710981099109600F5F
:104DB000711FC617D70784F0C0912307D09124072D
:104DC00063E070E080E090E00E9449196150710951
:104DD00081099109C60FD71FD0932407C0932307D9
:104DE000009125071091260763E070E080E090E0D5
:104DF0000E944919C0913B07D0913C07D195C195BC
:104E0000D1096150710981099109600F711F6C17F7
:104E10007D073CF1009125071091260763E070E0C3
:104E200080E090E00E944919C0913B07D0913C0777
:104E30006150710981099109600F711FC617D70769
:104E400084F0C0912507D091260763E070E080E0F0
:104E500090E00E9449196150710981099109C60FBA
:104E6000D71FD0932607C0932507009127071091DD
:104E7000280763E070E080E090E00E944919C0914B
:104E80003B07D0913C07D195C195D109615071097B
:104E900081099109600F711F6C177D073CF100912A
:104EA00027071091280763E070E080E090E00E94FF
:104EB0004919C0913B07D0913C07615071098109A4
:104EC0009109600F711FC617D70784F0C09127079B
:104ED000D091280763E070E080E090E00E944919DB
:104EE0006150710981099109C60FD71FD093280716
:104EF000C093270710922C0710922B0710923407AB
:104F00001092330710922E0710922D071092360739
:104F1000109235071092300710922F071092380721
:104F20001092370781E090E090933A078093390719
:104F300010920F071092100780E090E190930E07F7
:104F400080930D0710921307109214079093120785
:104F50008093110710921707109218079093160765
:104F60008093150710921B0710921C0790931A0745
:104F700080931907109201071092040782E090E0D5
:104F80009093060780930507109207071092080771
:104F900010920A071092090710920B0710920C0743
:104FA00080E290E19093030780930207109200073C
:104FB0001092FF068BE591E09093FE068093FD062C
:104FC000EDEFF5E01192119286E0ED3FF807D1F791
:104FD000DF91CF911F910F910895789484B58260ED
:104FE00084BD84B5816084BD85B5826085BD85B58D
:104FF000816085BD80916E00816080936E0010920B
:105000008100809181008260809381008091810085
:105010008160809381008091800081608093800016
:1050200080919100826080939100809191008160D5
:105030008093910080919000816080939000809196
:10504000C10084608093C1008091C1008260809320
:10505000C1008091C10081608093C1008091C30034
:1050600081608093C3008091C00082608093C00003
:105070008091C20081608093C20080917A00846038
:1050800080937A0080917A00826080937A00809188
:105090007A00816080937A0080917A0080688093A2
:1050A0007A0010929C0110928C0110928E018091D6
:1050B000D70081608093D70080EA8093D80089B5BB
:1050C000806189BD89B5826089BD09B400FEFDCFCC
:1050D00061E070E080E090E00E945C058091D80083
:1050E0008F7C80618093D8008091E000807F8093E6
:1050F000E0008091E1008E7E8093E1008DE080935E
:10510000E200559A209A81EC80937C0085B1806FF3
:1051100085B984B1877E84B984B1876E84B95E9A7B
:105120005F988AB1806D8AB9769A6E9881B3806FE4
:1051300081BB899880B38D7080BB80E58CBD81E098
:105140008DBD0E948F055F9A0E948F055E985C98C6
:10515000ECECF5E084918EBD00000DB407FEFDCFB0
:10516000319685E0E93DF807A9F75C9A81E88093DC
:1051700064008091650081608093650080E1809388
:1051800001010E944E031092770110927601109255
:105190007501109274010E94900611E0C0E0D0E009
:1051A00001E08FB7F89440917F01509180016091A8
:1051B0008101709182018FBF80917A01882339F03B
:1051C00010927A01209769F30E940000EACF809143
:1051D0007B01942F981B892F90910101891738F436
:1051E0008F5F891778F713BF889513BEEBCF0093B5
:1051F0007A0140937B018091780190917901019629
:10520000909379018093780180917C0190917D0148
:1052100001968F3F9105F0F490937D0180937C017E
:10522000E091A501F091A601EE0FFF1FEC5CFE4F8F
:105230000190F081E02D309709F009958091940854
:1052400090919508019690939508809394080E94F8
:105250009006B8CF10927D0110927C01E1CF8F9221
:105260009F92AF92BF92CF92DF92EF92FF92CF9335
:10527000DF93EC01688179818A819B8161157105D9
:105280008105910521F464E279ED8BE597E02DE14C
:1052900033EF41E050E00E94D32949015A019B01BC
:1052A000AC01A7EAB1E40E94F2296B017C01ACEEEB
:1052B000B4EFA50194010E94002AC60ED71EE81E75
:1052C000F91EF7FE06C081E0C81AD108E10880E89F
:1052D000F80AC882D982EA82FB82C701B6019F77A9
:1052E000DF91CF91FF90EF90DF90CF90BF90AF9084
:1052F0009F908F9008958F929F92AF92BF92CF927E
:10530000DF92EF92FF9260910E0170910F018091F8
:10531000100190911101611571058105910521F42C
:1053200064E279ED8BE597E02DE133EF41E050E069
:105330000E94D32949015A019B01AC01A7EAB1E4BB
:105340000E94F2296B017C01ACEEB4EFA50194013F
:105350000E94002AC60ED71EE81EF91EF7FE06C0E0
:1053600081E0C81AD108E10880E8F80AC0920E016D
:10537000D0920F01E0921001F0921101C701B60125
:105380009F77FF90EF90DF90CF90BF90AF909F906E
:105390008F90089560930E0170930F018093100118
:1053A000909311010895052E97FB1EF400940E941E
:1053B000EA2957FD07D00E94052A07FC03D04EF4C6
:1053C0000C94EA2950954095309521953F4F4F4FC9
:1053D0005F4F089590958095709561957F4F8F4FA1
:1053E0009F4F08950E94272AA59F900DB49F900D6E
:1053F000A49F800D911D11240895B7FF0C94F229EC
:105400000E94F229821B930B0895A1E21A2EAA1B77
:10541000BB1BFD010DC0AA1FBB1FEE1FFF1FA21764
:10542000B307E407F50720F0A21BB30BE40BF50B61
:10543000661F771F881F991F1A9469F760957095EA
:10544000809590959B01AC01BD01CF010895A29F6D
:10545000B001B39FC001A39F700D811D1124911D48
:10546000B29F700D811D1124911D0895991B79E043
:1054700004C0991F961708F0961B881F7A95C9F7E4
:1054800080950895AA1BBB1B51E107C0AA1FBB1F33
:10549000A617B70710F0A61BB70B881F991F5A95C0
:1054A000A9F780959095BC01CD01089597FB072E33
:1054B00016F4009407D077FD09D00E94422A07FC19
:1054C00005D03EF4909581959F4F08957095619514
:1054D0007F4F0895EE0FFF1F0590F491E02D099482
:0454E000F894FFCF6E
:1054E4000110FFFFFFFF00E10000000000000100C9
:1054F40000000000030007000B000F001100130060
:1055040001020408FFFF0100000000000000000089
:10551400FFFF0100290F201DAC0D360C350C00C116
:10552400808100000000000000F1039505120407CB
:10553400045804160434040000000063071A061318
:045544001012100031
:00000001FF
