:100000000C9424030C944C030C944C030C944C035C
:100010000C944C030C944C030C944C030C944C0324
:100020000C944C030C944C030C94B61C0C94251D9E
:100030000C944C030C944C030C944C030C944C0304
:100040000C944C030C944C030C944C030C944C03F4
:100050000C944C030C944C030C944C030C94571FBD
:100060000C944C030C944C030C944C030C944C03D4
:100070000C944C030C944C030C944C030C944C03C4
:100080000C944C030C944C030C944C030C944C03B4
:100090000C944C030C944C030C944C030C944C03A4
:1000A0000C944C030C944C030C944C0351697862EF
:1000B0006F790050A820A850A8708870A850A87028
:1000C000A850A850A850A820508850200000000038
:1000D000003E5B4F5B3E3E6B4F6B3E1C3E7C3E1CCE
:1000E000183C7E3C181C577D571C1C5E7F5E1C0014
:1000F000183C1800FFE7C3E7FF0018241800FFE7CB
:10010000DBE7FF30483A060E2629792926407F058D
:100110000507407F05253F5A3CE73C5A7F3E1C1CA3
:1001200008081C1C3E7F14227F22145F5F005F5F63
:1001300006097F017F006689956A6060606060944F
:10014000A2FFA29408047E040810207E2010080854
:100150002A1C08081C2A08081E101010100C1E0C5F
:100160001E0C30383E3830060E3E0E0600000000F1
:100170000000005F00000007000700147F147F14D8
:10018000242A7F2A1223130864623649562050001D
:1001900008070300001C2241000041221C002A1C09
:1001A0007F1C2A08083E08080080703000080808F4
:1001B0000808000060600020100804023E51494514
:1001C0003E00427F400072494949462141494D3332
:1001D0001814127F1027454545393C4A4949314199
:1001E000211109073649494936464949291E000067
:1001F00014000000403400000008142241141414BC
:100200001414004122140802015909063E415D59A7
:100210004E7C1211127C7F494949363E41414122B0
:100220007F4141413E7F494949417F090909013EDA
:10023000414151737F0808087F00417F4100204001
:10024000413F017F081422417F404040407F021C13
:10025000027F7F0408107F3E4141413E7F0909092A
:10026000063E4151215E7F091929462649494932F6
:1002700003017F01033F4040403F1F2040201F3FBC
:100280004038403F63140814630304780403615941
:10029000494D43007F414141020408102000414183
:1002A000417F04020102044040404040000307082F
:1002B0000020545478407F2844443838444444282B
:1002C000384444287F385454541800087E090218D2
:1002D000A4A49C787F0804047800447D400020405A
:1002E000403D007F1028440000417F40007C04789E
:1002F00004787C080404783844444438FC182424E6
:100300001818242418FC7C08040408485454542465
:1003100004043F44243C4040207C1C2040201C3CE2
:100320004030403C44281028444C9090907C4464D9
:10033000544C44000836410000007700000041366C
:10034000080002010204023C2623263C1EA1A161F2
:10035000123A4040207A3854545559215555794124
:100360002154547841215554784020545579400CFB
:100370001E527212395555555939545454593955DC
:100380005454580000457C410002457D420001451F
:100390007C40F0292429F0F0282528F07C5455458C
:1003A000002054547C547C0A097F4932494949321F
:1003B0003248484832324A4848303A4141217A3A34
:1003C00042402078009DA0A07D39444444393D40FE
:1003D00040403D3C24FF2424487E4943662B2FFCAB
:1003E0002F2BFF0929F620C0887E09032054547959
:1003F000410000447D413048484A32384040227A2A
:10040000007A0A0A727D0D19317D2629292F2826A6
:100410002929292630484D402038080808080808AE
:100420000808382F10C8ACBA2F102834FA00007B07
:10043000000008142A142222142A1408950022000D
:1004400095AA005500AAAA55AA55AA000000FF00C7
:10045000101010FF00141414FF001010FF00FF1004
:1004600010F010F0141414FC001414F700FF000036
:10047000FF00FF1414F404FC141417101F10101FB5
:10048000101F1414141F00101010F0000000001FA3
:10049000101010101F10101010F010000000FF10AE
:1004A0001010101010101010FF10000000FF1400AA
:1004B00000FF00FF00001F10170000FC04F41414DC
:1004C0001710171414F404F40000FF00F7141414A8
:1004D00014141414F700F7141414171410101F1028
:1004E0001F141414F4141010F010F000001F101F4B
:1004F0000000001F14000000FC140000F010F010B9
:1005000010FF10FF141414FF141010101F0000002F
:1005100000F010FFFFFFFFFFF0F0F0F0F0FFFFFF33
:100520000000000000FFFF0F0F0F0F0F384444388A
:10053000447C2A2A3E147E02020606027E027E02C5
:1005400063554941633844443C04407E201E2006E4
:10055000027E020299A5E7A5991C2A492A1C4C7221
:1005600001724C304A4D4D303048784830BC625AA8
:10057000463D3E494949007E0101017E2A2A2A2A38
:100580002A44445F444440514A444040444A514014
:100590000000FF0103E080FF000008086B6B0836D5
:1005A00012362436060F090F060000181800000046
:1005B0001010003040FF0101001F01011E00191D35
:1005C0001712003C3C3C3C0000000000D5F08D14AC
:1005D000A1C881CFD9F1AF2000080B0002020200B0
:1005E00000090400000102020000052400100105BA
:1005F00024010101042402060524060001070581E7
:100600000310004009040100020A0000000705026F
:1006100002400000070583024000000403090412A1
:10062000010002EF020140412336000001010203F4
:100630000141726475696E6F204C4C4300417264D5
:1006400075626F790000A11F11241FBECFEFDAE0A1
:10065000DEBFCDBF11E0A0E0B1E0E0E2F9E402C00E
:1006600005900D92A636B107D9F728E0A6E6B1E0CD
:1006700001C01D92A839B207E1F713E0C4E2D3E04C
:1006800004C02197FE010E948824C332D107C9F714
:100690000E94FA210C948E240C94000080E0E9EA78
:1006A000F1E081118FEF00248193819381938193F5
:1006B0000394D1F7089581E080930307109209070E
:1006C00080910D07882379F080910B0790910C079A
:1006D000909305078093040780910E078093060787
:1006E00010920D07089510920607809195088823AF
:1006F00041F080915508909156089093050780939A
:1007000004070895BC0175956795A5E5B8E0880FC5
:10071000991FFC01E75BF74F90E080E03297681784
:10072000790761F03C9111962C911197448555857C
:100730004D935D93348725870196F0CF0895FC0192
:1007400080919E01882311F13FB7F89482E0809355
:10075000E9002091F200822F90E01816190614F497
:1007600081E090E0882339F0289844E640939D0189
:100770004091F1004083222339F02091F2002111B1
:1007800003C02BE62093E8003FBF08958FEF9FEF53
:1007900008952FB7F89483E08093E9009091E800E2
:1007A000892F807295FF04C09091F20080E4891B2C
:1007B0002FBF08958091950181110DC082E0809333
:1007C000910184E080939201109294011092930120
:1007D00081E08093950181E991E00895CF93DF93C3
:1007E0001F92CDB7DEB76983DC01ED91FC910280E9
:1007F000F381E02D41E050E0BE016F5F7F4F09952E
:100800000F90DF91CF91089583E08093E90080916C
:10081000F200882319F08AE38093E80008950E948B
:10082000C90390E00895CF93DF931F92CDB7DEB751
:10083000FC018485958597FD08C02FEF3FEF358734
:1008400024870F90DF91CF910895CE0101960E94E9
:100850009F03019719F4898190E0F3CF8FEF9FEF09
:10086000F0CF0F931F93CF93DF931F92CDB7DEB7D7
:100870008C01FC018485958597FF0BC0CE01019604
:100880000E949F03019771F4898190E0F801958798
:100890008487F801848595850F90DF91CF911F9112
:1008A0000F9108958FEF9FEFF1CFFC01848595851F
:1008B00097FD0BC09FB7F89482E08093E900809188
:1008C000F2009FBF90E0019608959FB7F89482E0F0
:1008D0008093E9008091F2009FBF90E008954091DD
:1008E0008B0150918C012091890130918A0142172E
:1008F0005307B4F49091E8009570E1F39091E8000B
:1009000092FD19C08093F10080918B0190918C0130
:1009100001968F739927892B19F48EEF8093E80045
:1009200080918B0190918C01019690938C01809322
:100930008B0181E0089580E00895EF92FF920F937C
:100940001F93CF93DF93F82E192FE62E042F81E00B
:10095000860F880F0E946F0483E00E946F04CF2DE2
:10096000D12FEC0EFD2EF11CCE15DF05B9F007FFDF
:1009700013C0FE0184910E946F04182F80E00E9432
:100980006F04812321968111EFCFDF91CF911F91C9
:100990000F91FF90EF9008958881EDCF81E0F5CF22
:1009A000DF92EF92FF920F931F93CF93DF93D82E96
:1009B0008A01EB017B01E40EF51ECE15DF0559F02F
:1009C000D7FE12C0FE0184910E946F04219681110E
:1009D000F4CF0FEF1FEFC801DF91CF911F910F915F
:1009E000FF90EF90DF9008958881EECF0F931F93D3
:1009F000CF93DF931F92CDB7DEB782E0898342E4C5
:100A000050E069ED75E080E80E94D0040E94DA03AE
:100A1000DC0112960D911C910115110589F0D80188
:100A2000ED91FC910280F381E02DBE016F5F7F4F5D
:100A3000C801099597FD04C0F80100851185ECCF28
:100A400089810F90DF91CF911F910F91089561508F
:100A500030F02091F100FC0120830196F8CF289816
:100A600084E680939D0108953FB7F89480918501B5
:100A700090918601A0918701B091880126B5A89B2D
:100A800005C02F3F19F00196A11DB11D3FBFBA2F20
:100A9000A92F982F8827BC01CD01620F711D811DE0
:100AA000911D42E0660F771F881F991F4A95D1F765
:100AB00008958F929F92AF92BF92CF92DF92EF9262
:100AC000FF926B017C010E9434054B015C01C11453
:100AD000D104E104F104B9F00E94340568197909E0
:100AE0008A099B09683E73408105910580F321E0E6
:100AF000C21AD108E108F10888EE880E83E0981E3A
:100B0000A11CB11CE4CFFF90EF90DF90CF90BF907D
:100B1000AF909F908F90089565E070E080E090E046
:100B20000C9459058F929F92AF92BF92CF92DF9211
:100B3000EF92FF920F931F93CF93DF936C017B0192
:100B40008A0180910D01882309F45CC080919E0187
:100B5000882309F457C08091900180FF05C08091DF
:100B6000E00082608093E000E801B12C8AEFA82EBB
:100B700093E0892E2AE3922E209711F4BB20D9F11D
:100B80000E94C90381110AC0AA94AA20D9F161E088
:100B900070E080E090E00E945905EECF8C171D06B2
:100BA00011F00CF08C2F9FB7F8948092E9002091FF
:100BB000E80025FD02C09FBFDFCF282F30E0C21B19
:100BC000D30BF701815020F041914093F100FACF0F
:100BD000E20EF31EBB2021F09092E800B12CEBCF87
:100BE0008091E80085FDE7CF9092E800BB24B394A4
:100BF000209709F3F3CF5D9884E680938F01101658
:100C000011063CF081E090E0F6019383828310E0CE
:100C100000E0C801DF91CF911F910F91FF90EF90FD
:100C2000DF90CF90BF90AF909F908F900895AF923C
:100C3000BF92CF92DF92EF92FF920F931F93CF93C9
:100C4000DF936C017B018B01040F151FEB015E012B
:100C5000AE18BF08C017D10759F06991D601ED91C0
:100C6000FC910190F081E02DC6010995892B79F75F
:100C7000C501DF91CF911F910F91FF90EF90DF9011
:100C8000CF90BF90AF9008958FB18095807F669B85
:100C900088601C9B84600895480F592F511D411591
:100CA0005105A1F1803891058CF54138510514F0BA
:100CB00040E850E0481BFB0133E0F595E7953A9595
:100CC000E1F7F695FE2FEE27F795E795E80FF91F68
:100CD000E755FE4F6770772781E090E001C0880FED
:100CE0006A95EAF7382F213041F4415078F081912C
:100CF000DF011197832B8C93F8CF8095415030F012
:100D00009191DF01119798239C93F8CF0895E9EA18
:100D1000F1E080E0A0E0B8E000800EBC8111012C81
:100D20001197A0FDFDCF0192B9F70DB40895462F9C
:100D3000477066956695669590E8699FB0011124A5
:100D400067557E4F860F972F911DFC01808190E0A3
:100D500021E030E0042E02C0220F331F0A94E2F794
:100D60008223932302C0959587954A95E2F70895CB
:100D700080389105B8F460347105A0F420E191E069
:100D800061FD94E060FD990F62FD9295687F269F5A
:100D9000D0011124A80FA755BE4F8C9140FF03C06E
:100DA000892B8C93089590958923FBCF2F923F92A6
:100DB0004F925F926F927F928F929F92AF92BF926B
:100DC000CF92DF92EF92FF920F931F93CF93DF9317
:100DD000EC018B017A016901C61AD70AD7FE03C05C
:100DE000D194C194D10847018C1A9D0A97FE03C083
:100DF0009194819491088C149D0454F49E2D8F2D10
:100E00007901292F382F9C2F8D2FE801092F182FBA
:100E1000EC16FD0654F4902F812F8901292F382FCD
:100E20009C2F8D2FE701E92EF82E17012C1A3D0A71
:100E30002901401A510A57FE03C0519441945108A8
:100E4000310137FE03C08FEF681A780A75946794F2
:100E50008FEF021713070CF481E0A82E880FBB0850
:100E6000EC16FD06A4F041E0BE01C8018C149D04FF
:100E700014F0B801CE010E94B8066418750877FE18
:100E800004C00A0D1B1D620C731C2196E9CFDF9173
:100E9000CF911F910F91FF90EF90DF90CF90BF9077
:100EA000AF909F908F907F906F905F904F903F900A
:100EB0002F9008952F923F924F925F926F927F9260
:100EC0008F929F92AF92BF92CF92DF92EF92FF925A
:100ED0000F931F93CF93DF9300D000D000D01F92C9
:100EE000CDB7DEB76D30D9F0309000014090780179
:100EF00050907901832D90E09F838E836A3051F565
:100F0000109277011092760123E0880F991F2A959D
:100F1000E1F7480E591E509279014092780181E024
:100F200090E027960FB6F894DEBF0FBECDBFDF91DD
:100F3000CF911F910F91FF90EF90DF90CF90BF90D6
:100F4000AF909F908F907F906F905F904F903F9069
:100F50002F900895A0907601B090770195E0699F59
:100F6000B0011124FB01E453FF4F3F016501212C27
:100F7000F5E02F1629F1C3010196F301F491F983ED
:100F80003C01420128E02A83898181708D8310E031
:100F900000E00315D0F4F801EC0DFD1DFC83EB839C
:100FA000F12CE12CE31470F4B4016E0D7F1D4D8122
:100FB0008B819C810E94B806FFEFEF1AFF0AF2CFE7
:100FC0001982DFCF0F5F1F4FE4CF29812695298338
:100FD0008A8181508A83EE81FF818E0E9F1E81114E
:100FE000D3CF2394CE0EDF1EF6E02F12C1CFC50162
:100FF000329C800D911D112490937701809376018E
:101000008ECFE9E4F8E080E482878FE38387109253
:10101000950893E0908797819B7F9783E7E4F7E0BB
:1010200024E030E030934808209347081082118272
:10103000128283839FE79483858396831782EFE1EF
:10104000F7E08AE2808395E1918395E5928383833B
:10105000808191819587848782819381958B848B10
:1010600081E090E0958F848F1092030710927501B4
:1010700010927401E2E7F1E0108211829093A801CE
:101080008093A70108955F926F927F928F929F92B3
:10109000AF92BF92CF92DF92EF92FF920F931F9386
:1010A000CF93DF938091530897ECE92E90E0F92ECF
:1010B000C0915408C250DD0B20E8622E712C282FFD
:1010C0002250330B49013EEF532E580EF701C490C6
:1010D00010E000E0D12CC301002E02C09595879549
:1010E0000A94E2F78C219D21892BB1F05401A00EC6
:1010F000B11EF0E8AF16B10478F4C034D10560F445
:101100006C2F852D800F0E94970641E0811140E0F1
:10111000BE01C5010E94B8060F5F1F4F05301105C3
:10112000D1F62FEFE21AF20A21963CECE31630E0FA
:10113000F30661F6DF91CF911F910F91FF90EF9031
:10114000DF90CF90BF90AF909F908F907F906F90E7
:101150005F900895AF92BF92CF92DF92EF92FF928D
:101160000F931F93CF93DF9397E4A92E97E0B92EA7
:10117000D12CC12C6091470870914808C616D7063B
:101180000CF051C0F50100812181FFEFCF1ADF0A79
:10119000C6010E947424FC01EE0FFF1FE95BF84FAB
:1011A0009081818128131AC02034A0F4692F601B1C
:1011B000770BAB0177FF03C05195419551094F5F04
:1011C000622F70E0901708F4092F21E0802F90E043
:1011D0000E944C0662E0A60EB11CCCCF0913FACFD8
:1011E000E22E821708F4E82EF12C10E0821B990BF6
:1011F00097FF03C09195819591098F5FE701C80F13
:10120000D11DCE01C134D10514F080E490E0E81680
:10121000F90604F741E0B701C8010E94B8067FEF64
:10122000E71AF70AEECFDF91CF911F910F91FF9050
:10123000EF90DF90CF90BF90AF9008952F923F92A4
:101240004F925F926F927F928F929F92AF92BF92D6
:10125000CF92DF92EF92FF920F931F93CF93DF9382
:1012600000D000D0CDB7DEB7082F10E0292F30E036
:101270003C832B83662E712CA72EB12C7301E01AB0
:10128000F10AF7FE03C0F194E194F10844244A9472
:10129000542C061517051CF444244394512C650165
:1012A0008B819C81C81AD90AD7FE03C0D194C194FE
:1012B000D108222733272C193D093A8329838B81B2
:1012C0009C8122242A94322C8A159B051CF422240A
:1012D0002394312C47018C189D086B81802F0E942C
:1012E000970641E0811140E06B817C81C8010E943A
:1012F000B8060615170529F42B813C812A153B05F4
:10130000C1F0C401880F991F29813A812817390734
:1013100024F48C189D08040D151D8E159F05ECF600
:101320008E0C9F1C8B819C81820D931D9C838B83D3
:10133000D4CF0F900F900F900F90DF91CF911F910E
:101340000F91FF90EF90DF90CF90BF90AF909F9064
:101350008F907F906F905F904F903F902F90089567
:10136000CF93DF93CFE1D7E06A817B818881998138
:101370000E941E098C8D9D8DFC01EE0FFF1FE55D07
:10138000F84F2881398131832083FC01EE0FFF1F44
:10139000ED5CF84F2A813B8131832083019664E024
:1013A00070E00E9474249D8F8C8FDF91CF910895FF
:1013B0006F927F928F929F92AF92BF92CF92DF9265
:1013C000EF92FF920F931F93CF93DF93C82FD0E03C
:1013D0009E012E583E4F4901F9018081882309F46E
:1013E00047C0FE01EE0FFF1FE550FA4F8081282F06
:1013F0002250330B390101810250110BF12CE12CE9
:10140000CC0FDD1FCC0FDD1FC659DE4F5301D12C91
:10141000C12C30E8A316B104B0F40034110598F4DF
:10142000488159816A817B81C6018E0D9F1D04C050
:1014300076956795579547958A95D2F74170B8018B
:10144000C5010E94B8068FEFC81AD80A9FEFA91AE3
:10145000B90AE5E0CE16D104E1F60F5F1F4FF5E0C3
:10146000EF0EF11C29E1E216F10481F6F40110827D
:10147000DF91CF911F910F91FF90EF90DF90CF9070
:10148000BF90AF909F908F907F906F90089584E071
:1014900090E09093A8018093A701809153089091C8
:1014A00054089093FA058093F90581E090E09093B9
:1014B000A6018093A5011092A4011092A30110929D
:1014C000A2011092A1018AE090E09093A001809384
:1014D0009F0180E00E94D80920915008822F90E05F
:1014E00036E0959587953A95E1F7009751F0815050
:1014F00030E4839FC00111242F73822B8093500806
:10150000089585E090E09093A8018093A701089545
:101510002F923F924F925F926F927F928F929F9203
:10152000AF92BF92CF92DF92EF92FF920F931F93F1
:10153000CF93DF93C62FD0E0FE01EE0FFF1FE550E3
:10154000FA4F80839183FE01EE58FE4F21E0208305
:10155000CC0FDD1FCC0FDD1FC659DE4F188219825C
:101560001A821B82092F10E0D12CC12C282F225067
:10157000330B29014EEF342E380E812C912C54015F
:101580008394F12CE12C380132E0631A71088EEF5C
:10159000282E200EC2018E0D9F1D8038910518F552
:1015A00080E468167104F8F4622D832D8E0D0E947C
:1015B00097068823C1F0C7018C0D9D1DB501A401BC
:1015C00004C0440F551F661F771F8A95D2F7888184
:1015D0009981AA81BB81842B952BA62BB72B88835D
:1015E0009983AA83BB832FEFE21AF20A35E0E31650
:1015F000F10481F60F5F1F4F85E0C80ED11C29E171
:10160000C216D10409F0BDCFDF91CF911F910F9188
:10161000FF90EF90DF90CF90BF90AF909F908F9012
:101620007F906F905F904F903F902F900895FC01B6
:101630002081762F622F718360830895CF930E945B
:10164000440685FBCC27C0F90E94440686FDC26093
:101650000E94440687FDC4600E94440684FDC86061
:101660000E94440683FDC0610E94440682FDC06260
:101670008C2FCF910895FC0160FF04C080818150C0
:101680008083089561FF03C080818F5FF9CF62FF7F
:1016900004C0818181508183089563FFFDCF8181E2
:1016A0008F5FF9CFCF93DF93D0915308C091540847
:1016B000609149086F70862321F083E598E00E94CD
:1016C0003B0B809153088D1304C0809154088C17F4
:1016D00061F080917E0190917F01909397088093B3
:1016E000960881E0DF91CF91089580E0FBCF0895C7
:1016F00008952F923F924F925F926F927F928F92B6
:101700009F92AF92BF92CF92DF92EF92FF920F9390
:101710001F93CF93DF93CDB7DEB7AA970FB6F89498
:10172000DEBF0FBECDBF4090A1015090A20122E0CC
:10173000421651040CF0D8C09091F9052090FA059A
:101740008EE0E2E1F1E0DE01519601900D928A9582
:10175000E1F73E0131E1630E711CFE017996F8A3B9
:10176000EF8F7AA269A2292F30E03EA32DA3312C5E
:101770008091A5019091A6019CA38BA3F301819177
:1017800091913F01CBA0DCA0C81AD90A1C141D04FA
:101790000CF05CC010E000E091012C193D0938A765
:1017A0002FA3C601820D931D9AA789A72DA13EA143
:1017B000200F311F3A8329838FA198A5800F911F95
:1017C0009C838B833E832D8349A55AA5401B510BD7
:1017D00058874F832DA13EA1201B310B3A872987C3
:1017E0005C874B873E872D87988B8F87FE013196CC
:1017F0007F01F701A080B180F0E8AF16B104C0F41A
:10180000F70182809380F0E48F16910488F421E040
:101810004216510411F440E007C0682D8A2D0E9441
:10182000970641E08111F7CFB401C5010E94B806C7
:1018300034E0E30EF11C89A19AA18E159F05C9F62B
:101840000F5F1F4FC016D1060CF0B0CFEF8DF8A17F
:101850006E167F0609F08CCF8091A3019091A401B0
:10186000019618161906ECF09093A4018093A30139
:10187000AA960FB6F894DEBF0FBECDBFDF91CF9111
:101880001F910F91FF90EF90DF90CF90BF90AF909E
:101890009F908F907F906F905F904F903F902F9090
:1018A00008951092A4011092A30180919F0190913C
:1018B000A0012BA13CA1820F931F8D3231E0930731
:1018C0002CF49093A6018093A501D2CF81E090E003
:1018D0009093A6018093A5018FEF481A580A509261
:1018E000A2014092A101C4CF21E040E870E060E095
:1018F00090E080E00E944C060E94870601E010E024
:1019000041E0B80190E080E00E94B80620E04EE798
:10191000B80181E090E00E944C0641E0B8018FE7F9
:1019200090E00E94B8060E9487060E5F1F4F0F339B
:10193000110531F702E010E041E0B80190E080E0ED
:101940000E94B80620E04EE7B80181E090E00E94D6
:101950004C0641E0B8018FE790E00E94B8060E9473
:1019600087060E5F1F4F0034110531F721E040E874
:101970006FE370E090E080E00E944C060E948706D2
:1019800068EE73E080E090E00E9459050E94010833
:10199000AA960FB6F894DEBF0FBECDBFDF91CF91F0
:1019A0001F910F91FF90EF90DF90CF90BF90AF907D
:1019B0009F908F907F906F905F904F903F902F906F
:1019C0000C94AA083F924F925F926F927F928F92EF
:1019D0009F92AF92BF92CF92DF92EF92FF920F93BE
:1019E0001F93CF93DF93CDB7DEB7C054D1090FB6A5
:1019F000F894DEBF0FBECDBF80E00E94D809C09032
:101A00007401D0907501D7FC32C0760120E4C21673
:101A1000D1047CF181E090E09093A8018093A7012C
:101A200010927501109274010E94AA0860E08091E2
:101A30005308909154080E94880AC05CDF4F0FB68B
:101A4000F894DEBF0FBECDBFDF91CF911F910F91F4
:101A5000FF90EF90DF90CF90BF90AF909F908F90CE
:101A60007F906F905F904F903F900C944308F12CC3
:101A7000E12C309068010091660110916701EFEF51
:101A8000F5E030E020E0B12CA12C201731070CF458
:101A900049C0FE01339621E030E02A153B050CF4E5
:101AA00095C0CE0101963C0188248394912C8A1420
:101AB0009B040CF0BFC0D3018D919C91119712969D
:101AC0004D905C908C010F5F1F4F041515051CF5A0
:101AD000481A590AB2E04B165104ECF0E114F10433
:101AE000D1F0480E591E332009F493C0C701800F6E
:101AF000911F80FD0BC06E2D802F0E9497068111D3
:101B000005C041E0B701C8010E94B8060F5F1F4F32
:101B10000415150559F7E2E08E0E911CF4E06F0EE6
:101B2000711CC5CF41812F5F3F4FC901B8010E9491
:101B30007424DC01AA0FBB1FA150BA4F11966C91FF
:101B40001197842F641708F4862F8E151F0409F04F
:101B5000DCF5842F461708F4862F8E151F04A1F19B
:101B60009CF1461789F180808C91482E512C881663
:101B7000B9F0912C50E03701641A750AD201A81906
:101B8000B9096A9EC0016B9E900D7A9E900D11243A
:101B900070E0641B750B0E9474242B01480C591CC7
:101BA00040E2A416B10484F4C501880F991FA1E096
:101BB000B0E0AC0FBD1F8A0F9B1FDC014D925C9201
:101BC000A5014F5F5F4F5A0132965FCFDF010D9144
:101BD0001D914D01C9010197DF017E916E9106179C
:101BE00017073CF4718360830197FD018F3F9807CD
:101BF00099F7FC013196EE0FFF1F41E050E04C0FCA
:101C00005D1FE40FF51F118300832F5F3F4FF40129
:101C100044CF6E2D802F0E949706811105C041E0B0
:101C2000B701C8010E94B8060F5F1F4F04151505C4
:101C300081F771CF2FEFC21AD20AD0927501C092EC
:101C4000740140E4C416D1040CF4EECE81E090E0BF
:101C50009093A8018093A7011092750110927401CE
:101C600060E080915308909154080E94880ADCCE6D
:101C7000089590E080E00895681738F0861738F4EA
:101C800082E0791730F48460089581E0FACF80E033
:101C9000F8CF971708F488600895CF92DF92EF92FB
:101CA000FF920F931F93CF93DF9310925108E0910F
:101CB0004A08F0914B08CF019927DC01AA0FBB1FFE
:101CC000A95BB84F0D911C912F2F30E0D901AA0FBD
:101CD000BB1FA95BB84FCD91DC91E0904708F09015
:101CE000480801978E0D9F1DB7010E947424DC01E6
:101CF000AA0FBB1FA95BB84FCD90DC90C90101961C
:101D0000B7010E947424DC01AA0FBB1FA95BB84F66
:101D1000ED90FC90FE1315C0B601C8010E943C0E68
:101D2000C82FB701C8010E943C0E8C2B809351082C
:101D3000DF91CF911F910F91FF90EF90DF90CF90A7
:101D40000895E0905308F0905408B801C7010E942C
:101D50003C0E182FBE01C7010E943C0E812BE6CF1E
:101D60001F93CF93DF930E941E0B182F10927701C1
:101D700010927601109279011092780181E080939F
:101D80000001CCEAD0E0FE016491662339F08FEFC8
:101D900096E00E945A072196892BA9F71123F1F0AA
:101DA0000E944E03109279011092780110927701EF
:101DB000109276010E9401080E94AA080E944D0E0E
:101DC00060E080915308909154080E94880A0E9414
:101DD0004308DF91CF911F910C94B009DF91CF910F
:101DE0001F910895282F5717A0F0352F6417A1F0E1
:101DF00075131CC097131AC0862F461708F4842F3A
:101E00002817A0F0641708F4642F81E0621770F0BF
:101E1000089564130BC0372F261308C0571708F412
:101E2000752F971718F081E0391790F780E0F0CF01
:101E3000272F681B591B659FB0011124291B481BC4
:101E4000CB01249F801991091124009731F01CF4D3
:101E50008FEF9FEF089581E090E008958F929F9219
:101E6000AF92BF92CF92DF92EF92FF920F931F93A8
:101E7000CF93DF93EC014B017A018901AC01B901E9
:101E8000C7010E94180F5C01A401B801C7010E949C
:101E9000180F6C01A701B401CE010E94180F7C013C
:101EA000A801B401CE010E94180FAC9C9001AD9C1A
:101EB000300DBC9C300D112437FF18C0E89E9001F6
:101EC000E99E300DF89E300D1124832F881F88273E
:101ED000881FDF91CF911F910F91FF90EF90DF90BE
:101EE000CF90BF90AF909F908F90089580E0F1CFFA
:101EF0008F929F92AF92BF92CF92DF92EF92FF921A
:101F00000F931F93CF93DF934C017B016A018B01E9
:101F1000D0E0C0E0B12CA12CCC15DD0574F5F801A2
:101F2000219131918F01319740812196CE01B601E7
:101F30000E947424FC01EE0FFF1FEE0DFF1D608157
:101F400071818181941668F0981630F7A401C90157
:101F50000E94180F18161906FCF6FFEFAF1ABF0AF9
:101F6000DBCF9816C8F2A401C9010E94180F97FF91
:101F7000D3CF81E0A81AB108CFCF81E0AB2809F414
:101F800080E0DF91CF911F910F91FF90EF90DF9054
:101F9000CF90BF90AF909F908F9008954F925F9297
:101FA0006F927F928F929F92AF92BF92CF92DF9269
:101FB000EF92FF920F931F93CF93DF93CDB7DEB7CE
:101FC000DA950FB6F894DEBF0FBECDBF80919508AD
:101FD0008230C8F410929508D3950FB6F894DEBFFE
:101FE0000FBECDBFDF91CF911F910F91FF90EF906A
:101FF000DF90CF90BF90AF909F908F907F906F9029
:102000005F904F90089500914C0810914D08680121
:10201000DD24012F1127780160904E0870904F0841
:102020005301BB24672C772490E0AC14BD045CF50D
:102030000E948203830137019C2D8D2D6501A92EFD
:10204000B82ECE0101964C019395F40110821182B5
:1020500032968E179F07D1F7E5E54E2EE8E05E2E0B
:10206000F401D201F12CE12C809195088E151F040A
:1020700009F00CF443C09FEFE91AF90A8D919D9184
:1020800081939193F1CFCA14DB04D9F6D601AA0F3C
:10209000BB1FA95BB84F4C919801220F331F295BDE
:1020A000384FF9015081FC013197541799F0209174
:1020B0005508FC01EE0FFF1FED5AF74F3081451711
:1020C00030F4321708F0BDCF0E948203BACF231735
:1020D000D8F3B7CF50915608EE0FFF1FE75BF74FCD
:1020E0004585F901318111962C91231718F4451774
:1020F00058F3A7CF541708F0A4CFE6CFC301A61416
:10210000B70441F46091470870914808C5010196F1
:102110000E947424F701EE0FFF1FE80DF91D8C15C6
:102120009D05C1F0A0E8EA16F10461F1BFEFEB1ADA
:10213000FB0ADC01AA0FBB1FA95BB84F2D913C9194
:1021400021933193019660914708709148080E944D
:102150007424E5CFC016D106A9F0E0E8EE16F1042C
:102160008CF4F701EE0FFF1FE80DF91DD601AA0F41
:10217000BB1FA95BB84F8D919C9191838083C70150
:1021800001967C012091200780912207280F332798
:10219000331F3595279580911F0790912107890F4F
:1021A0009927991F95958795A701B401922F0E94B1
:1021B000780F882309F48CC0CA14DB0431F5EFEFE3
:1021C000F5E090E080E0209195082817190649F085
:1021D00044F00196D2012D913D912D01219331932F
:1021E000F2CF9093670180936601E7E4F7E090E017
:1021F00080E0E816F90609F4FDC0D4012D913D9167
:102200004D01219331930196F4CFC016D10649F4C4
:10221000C801019660914708709148080E94742493
:102220008C01EFEFF5E030E020E00A151B05C1F06E
:102230002038310559F12F5F3F4FD801AA0FBB1F3E
:10224000A95BB84F8D919C9181939193C8010196A0
:1022500060914708709148080E9474248C01E5CF72
:102260000615170599F02038310581F0F901EE0FB8
:10227000FF1FE150FA4FD801AA0FBB1FA95BB84F4F
:102280008D919C91918380832F5F3F4F8091950822
:1022900090E0FC01EE0FFF1FE75BF74FD901AA0F9B
:1022A000BB1FA150BA4F820F931F2817390759F04F
:1022B00032972038310539F02F5F3F4F44855585DF
:1022C0004D935D93F2CF30936701209366018DCFDC
:1022D000EFEFF5E0D40190E080E0CA14DB0409F0F0
:1022E00042C090E080E0209195082817190649F037
:1022F00044F00196D2012D913D912D01219331930E
:10230000F2CF9093670180936601C016D10649F41D
:10231000C801019660914708709148080E94742492
:102320008C019401F12CE12C0A151B0551F1B0E848
:10233000EB16F104F1F1EFEFEE1AFE0AF801EE0FE1
:10234000FF1FE95BF84F80819181D9018D939D93A7
:102350009D01C801019660914708709148080E944C
:1023600074248C01E1CFE816F90631F02D913D91EE
:10237000219331930196F7CFF0926701E0926601C5
:10238000C4CF06151705A9F0B0E8EB16F10489F0E3
:10239000D701AA0FBB1FA80DB91DF801EE0FFF1F33
:1023A000E95BF84F808191818D939C93F701319681
:1023B0007F018091950890E0FC01EE0FFF1FE75B25
:1023C000F74FD701AA0FBB1FA80DB91D8E0D9F1D7A
:1023D000E816F90609F409CF329720E8E216F1046D
:1023E00009F403CF2FEFE21AF20A248535852D93E5
:1023F0003D93EECFF0924808E092470810E000E0ED
:102400002091470830914808021713070CF045C087
:10241000253031050CF441C07801BFEFEB1AFB0AFF
:10242000C8010197820F931FB9010E947424FC0117
:10243000EE0FFF1FE95BF84FD0804181F801EE0FEE
:10244000FF1FE95BF84FC180C701B9010E947424E6
:10245000DC01AA0FBB1FA95BB84F8081D8120FC047
:102460008C91D8120CC0C8012150310982179307F2
:1024700074F401964281538141935193F7CF4C11EB
:1024800004C011968C91481771F38701B9CF30932E
:102490004808209347087801F8CF1092950880915A
:1024A0000D07811110920D0781E00E94D80994CD8B
:1024B0002F923F924F925F926F927F928F929F9254
:1024C000AF92BF92CF92DF92EF92FF920F931F9342
:1024D000CF93DF93CDB7DEB767970FB6F894DEBF23
:1024E0000FBECDBF8E8B20914908922F9F70809197
:1024F0005108392F382309F122952F70A9F092172E
:1025000099F020919508203278F440915308309149
:102510005408E22FF0E0EE0FFF1FEB5AF74F408315
:1025200031832F5F2093950840E1949F90011124FF
:10253000922B909349080E94520B809195088D8BA5
:10254000882309F495C0409053088091550848129B
:1025500007C09091540880915608981709F488C0D4
:10256000909153089F8B50905408A0904708B090CA
:10257000480810E000E00A151B050CF079C048017E
:10258000EFEF8E1A9E0AC401B5010E9474241C014B
:102590007C013101660C771CF301E95BF84F408147
:1025A0005181C801880F991F9C01295B384F69012F
:1025B000F901608171818F89952D0E94F20E882327
:1025C00099F0F60181819081491203C0581609F4EF
:1025D0006DC1F301E95BF84F81819081491267C1B8
:1025E000581265C1810163C18401C5CF80914A0839
:1025F00090914B088827802B912B90934B088093C8
:102600004A08602F8AE498E00E94170B81E08093CB
:10261000690167960FB6F894DEBF0FBECDBFDF919C
:10262000CF911F910F91FF90EF90DF90CF90BF90CF
:10263000AF909F908F907F906F905F904F903F9062
:102640002F900C944D0E80914A0890914B0888274A
:102650008E299F2990934B0880934A086E2DD2CFE4
:10266000850169C1809151088F7C80935108CECF3C
:102670008091490882958F70813009F4E7C08230DB
:1026800009F4E6C0843009F4E5C0883009F0E4C0FC
:1026900084E08095082F0F70102F2D89223008F4C8
:1026A0003FC030E0F9013197D901AA0FBB1FAD5AE5
:1026B000B74F8C9190915308891B990B97FF03C0DA
:1026C00091958195910911964C9150915408451B13
:1026D000550B57FF03C0519541955109840F951F24
:1026E0000397F4F4EE0FFF1FEB5AF74F60817181EF
:1026F000220F331FF901EF5AF74F808191810E9419
:102700003C0E12E0813051F011E0823039F018E0D7
:10271000843021F014E0883009F010E01095102387
:102720008091200190912101A0912201B09123017B
:10273000898B9A8BAB8BBC8B88E0E4E2F1E0DE0105
:10274000199601900D928A95E1F788E0ECE2F1E0AC
:10275000DE01119601900D928A95E1F75E0131E15B
:10276000A30EB11CD12CC12CF50131905F01832D3A
:102770008123D9F1E9E0F0E0EC0FFD1FEC0DFD1D28
:10278000508000915308050DE1E0F0E0EC0FFD1FD3
:10279000EC0DFD1D608070905408760C8090470809
:1027A0009090480830E020E0281539050CF056C01C
:1027B0007901FFEFEF1AFF0AC701B4010E947424E8
:1027C000FC01EE0FFF1FE95BF84F40815181220FA2
:1027D000331FF901E95BF84F60817181802F972DDC
:1027E0000E94F20E97018823F9F292E0C90ED11CE3
:1027F000E8E0CE16D10409F0B7CF809195088F316B
:1028000030F08091490882958F7009F018238091EB
:1028100051088073182B1093510867960FB6F894DF
:10282000DEBF0FBECDBFDF91CF911F910F91FF9003
:10283000EF90DF90CF90BF90AF909F908F907F9060
:102840006F905F904F903F902F90089582E021CF3E
:1028500081E01FCF88E01DCF80E01BCF409095081E
:10286000242D2150330B790130E020E02E153F0557
:102870000CF0A1C049014FEF841A940AF901EE0F40
:10288000FF1FE95AF74F40815181220F331FF90191
:10289000EB5AF74F60817181802F972D0E94F20EC5
:1028A0009401882319F3309413219FCF78018091EC
:1028B0004E0890914F088827082B192B10934F082A
:1028C00000934E086E2D8EE498E00E94170B8091C5
:1028D0009508803278F42091530890915408E82F9D
:1028E000F0E0EE0FFF1FEB5AF74F208391838F5FCD
:1028F000809395080E94CE0F83E090E09093A8010A
:102900008093A7011092750110927401FE89F093D3
:10291000680180910307882329F081E00E94D8098B
:102920001092030780E00E94D809B7E4CB2EB7E0ED
:10293000DB2E10E000E06091470870914808061710
:1029400017070CF08FCE58012FEFA21AB20AC5015B
:102950000E9474247C01F60160817181F2E0CF0E47
:10296000D11CFC01EE0FFF1FE95BF84F4081518144
:102970009091530880915408961303C0871709F467
:1029800035CE941303C0851709F45DCE80915308AA
:10299000909154080E94F20E882309F461CE809130
:1029A0004A0890914B088827082B192B10934B0845
:1029B00000934A0853CE442089F040915308509127
:1029C0005408F701EE0FFF1FEB5AF74F608171813A
:1029D000802F972D0E94F20E811165CF050D760C88
:1029E00030E020E02E153F05D4F449018FEF881A1E
:1029F000980AF901EE0FFF1FE95AF74F4081518104
:102A0000220F331FF901EB5AF74F60817181802F3C
:102A1000972D0E94F20E9401882321F344CF442085
:102A200009F4E3CE4091530850915408F701EE0F9A
:102A3000FF1FEB5AF74F60817181802F972D0E9405
:102A4000F20E811130CFD1CECF92DF92EF92FF9272
:102A50006B017C01C114D104E104F10441F00E9436
:102A60009923A70196010E94F1236B017C01C70104
:102A7000B601FF90EF90DF90CF9008952F923F9294
:102A80004F925F926F927F928F929F92AF92BF927E
:102A9000CF92DF92EF92FF920F931F93CF93DF932A
:102AA000CDB7DEB728970FB6F894DEBF0FBECDBF07
:102AB00080913F0790914007019690934007809343
:102AC0003F072091410730914207821793070CF48A
:102AD00003C31092400710923F0700912307109103
:102AE000240763E070E080E090E00E9424152091CC
:102AF0003D0730913E073195219531093A8329836D
:102B00006150710981099109600F711F6217730784
:102B10005CF1009123071091240763E070E080E0EE
:102B200090E00E94241540913D0750913E075A8342
:102B300049836150710981099109600F711F46171E
:102B4000570794F0009123071091240763E070E089
:102B500080E090E00E94241561507109810991097B
:102B6000060F171F1A83098329813A81309324079E
:102B700020932307009125071091260763E070E05A
:102B800080E090E00E94241540913D0750913E075F
:102B90005195419551095A834983615071098109C1
:102BA0009109600F711F641775075CF1009125078B
:102BB0001091260763E070E080E090E00E94241509
:102BC000E0913D07F0913E07FA83E9836150710976
:102BD00081099109600F711FE617F70794F00091C2
:102BE00025071091260763E070E080E090E00E94E6
:102BF00024156150710981099109060F171F1A8365
:102C0000098329813A813093260720932507009173
:102C100027071091280763E070E080E090E00E94B1
:102C2000241540913D0750913E075195419551091A
:102C30005A8349836150710981099109600F711F9D
:102C4000641775075CF1009127071091280763E06E
:102C500070E080E090E00E942415E0913D07F09143
:102C60003E07FA83E9836150710981099109600F78
:102C7000711FE617F70794F00091270710912807B6
:102C800063E070E080E090E00E94241561507109DB
:102C900081099109060F171F1A83098329813A8137
:102CA00030932807209327070091290710912A07BE
:102CB00063E070E080E090E00E94241540913D07C1
:102CC00050913E075195419551095A83498361506E
:102CD000710981099109600F711F641775075CF113
:102CE0000091290710912A0763E070E080E090E0EE
:102CF0000E942415E0913D07F0913E07FA83E98395
:102D00006150710981099109600F711FE617F7077A
:102D100094F00091290710912A0763E070E080E0A9
:102D200090E00E9424156150710981099109060FF4
:102D3000171F1A83098329813A8130932A07209328
:102D4000290780912507909126072091230730912C
:102D50002407232B41F4009731F421E030E0309335
:102D60002407209323072091270730912807211556
:102D7000310551F449815A81452B31F441E050E04D
:102D800050932A074093290720902107E0911F07BD
:102D9000022D0E1B110B1A8309836091220770917B
:102DA0002007462F471B550BDA01A80117FF03C068
:102DB0005195419551098D01B7FF04C00027112796
:102DC0000A1B1B0B400F511F453151050CF479C0F4
:102DD000409123075091240709811A81101611068A
:102DE0000CF093C14F5F5F4F50932407409323072C
:102DF0002150310930932807209327072091290774
:102E000030912A071A161B060CF088C10196909380
:102E10002607809325072150310930932A072093F4
:102E20002907409123075091240720913D073091B5
:102E30003E0788279927821B930B481759070CF4E4
:102E400075C1241735070CF4A9015093240740934A
:102E500023074091250750912607A82FF92F4817DF
:102E600059073CF0A22FF32F4217530714F4A42F55
:102E7000F52FA0932507F09326074091270750913F
:102E80002807A82FF92F481759073CF0A22FF32F36
:102E90004217530714F4A42FF52FA0932707F0939C
:102EA00028074091290750912A07481759072CF005
:102EB000C901421753070CF4CA0190932A07809363
:102EC00029070E2F10E01A83098380902307909022
:102ED00024076801C80CD91C072F10E01C830B8342
:102EE000A0902507B09026077801EA0CFB1C312C36
:102EF00060902707709028078101060D171D262F67
:102F000030E03E832D834090290750902A07240DFE
:102F1000351D38872F8330E8C316D10410F540E4FF
:102F2000E416F104F0F46E2D8C2D0E949706882390
:102F3000C1F08827992788199909909324078093CD
:102F40002307882799278A199B099093260780933E
:102F50002507C980DA80C818D908EB80FC80EA18F8
:102F6000FB080038110520F58F8198858034910584
:102F7000F8F46F81802F0E9497068823C9F0882774
:102F80009927861997099093280780932707882700
:102F900099278419950990932A078093290781011D
:102FA00006191709ED81FE81E419F509F887EF8309
:102FB000F2E0CF1AD1082CE7C216D10458F0809164
:102FC0002307909124079195819591099093240767
:102FD0008093230732E0E31AF1084CE3E416F1048E
:102FE00058F0809125079091260791958195910938
:102FF0009093260780932507025011090C3711057D
:1030000058F0809127079091280791958195910913
:1030100090932807809327070F8118850250110984
:103020000C33110558F08091290790912A0791954A
:103030008195910990932A0780932907609127072A
:1030400070912807620D731D6F37710514F06EE7DC
:1030500070E01616170614F061E070E02091290761
:1030600030912A070D811E81200F311F2F3331052A
:1030700014F02EE330E01216130614F021E030E0D5
:1030800080912507909126070B811C81800F911F4D
:103090008F33910514F08EE390E01816190614F0A2
:1030A00081E090E0409123075091240709811A8123
:1030B000400F511F4F37510514F04EE750E01416E2
:1030C000150614F041E050E040931F07809320075D
:1030D000609321072093220728960FB6F894DEBF4D
:1030E0000FBECDBFDF91CF911F910F91FF90EF9059
:1030F000DF90CF90BF90AF909F908F907F906F9018
:103100005F904F903F902F900895415051095093F8
:103110002407409323072F5F3F4F6CCE0197909376
:103120002607809325072F5F3F4F77CEAC018DCECA
:103130002F923F924F925F926F927F928F929F92C7
:10314000AF92BF92CF92DF92EF92FF920F931F93B5
:10315000CF93DF9300D01F92CDB7DEB781E00E94FE
:10316000D80980E00E94D8090E941E0B082F282F42
:103170002F70722E809152088F708095982F922315
:10318000809149089923C1F1807F892B8093490858
:103190000093520880915108982F907331F4302F8A
:1031A0003073F32E79F51092690120915108822F26
:1031B000807309F416C1E9E4EE2EE8E0FE2ECC247B
:1031C000C394D12C80919508E82FF0E092E0E90EAD
:1031D000F11CCE16DF060CF0AAC0F701258530E001
:1031E000448550E0638570E0828590E00E94D606B9
:1031F000FFEFCF1ADF0AE6CF922F982349F6807FA0
:10320000822BC4CF909169019111CFCF10914908C1
:103210001F7059F2812349F6809153089091540808
:103220009A838983612FCE0101960E943B0B4091C6
:1032300047085091480867E477E089819A810E94A5
:10324000780F882309F4B1CF809151088F2980939A
:103250005108B7E4AB2EB7E0BB2EF12CE12C609106
:10326000470870914808E616F7060CF049C0F501CA
:10327000208031804701FFEF8F1A9F0AC4010E940E
:103280007424582E692EC82ED92EF601EE0FFF1F7A
:10329000E95BF84F408021812B83442D522FB101EF
:1032A00080915308909154080E94F20E32E0A30ED0
:1032B000B11C882391F080915308281204C090918A
:1032C0005408391661F048120BC0809154086B8184
:1032D000681306C0E52CF62C03C07401C0CF67014B
:1032E00080914C0890914D088827E82AF92AF0929D
:1032F0004D08E0924C086C2D8CE498E00E94170B6E
:1033000080915408909153089093550880935608E3
:1033100081E080939508209149082F7070E1179FF4
:10332000C0011124122F182B109349083ECF882377
:1033300081F0EE0FFF1FED5AF74F2091540830E057
:103340004091530850E0618170E0808190E00E94DC
:10335000D6068091510804FF34C084FF32C08091AA
:103360007E0190917F0163E070E00E946024892BD0
:1033700019F481E00E94581280915108807309F479
:103380003BC109E418E07801D12CC12C809195084B
:103390008C151D0409F00CF412C1F701848587FD1A
:1033A00009C0658570E06034710524F440E090E068
:1033B0000E94B806FFEFCF1ADF0A22E0E20EF11CEE
:1033C000E5CF05FFD9CF85FFD7CF80917E019091C2
:1033D0007F0165E070E00E946024892B69F680E03F
:1033E000C9CF772009F408C180917E0190917F01B7
:1033F00063E070E00E946024892B09F0FDC0009119
:10340000530810915408822F0E94520B8091530848
:10341000081305C090915408191709F4ADCF009115
:103420004A0810914B086801DD24812E9924F60189
:10343000EE0FFF1FE95BF84F40805180F401EE0F63
:10344000FF1FE95BF84F60807180E0904708F090C3
:103450004808841105C090915408602F591671F0E6
:10346000861113C08091540878120FC000270829D4
:10347000192910934B0800934A08682D8AE498E0B4
:103480000E94170B0E944D0E77CFA0905308B0906A
:103490005408A301B201C5010E94F20E811160C05F
:1034A000C60101978E0D9F1DB7010E9474246C0107
:1034B000FC01EE0FFF1FE95BF84F40815181B20123
:1034C000C5010E94F20E6C2D811146C0C401019607
:1034D000B7010E9474246C01FC01EE0FFF1FE95B31
:1034E000F84F40815181B301C5010E94F20E811154
:1034F0002CC097E4492E97E0592ED12CC12CCE1424
:10350000DF0474F5F201219131912F013601FFEFB3
:103510006F1A7F0AC301B7010E9474244C01FC0199
:10352000EE0FFF1FE95BF84F40815181B901C501E2
:103530000E94F20E882309F440C00027C02AD12A35
:10354000D0924B08C0924A0898CF00270C291093BC
:103550004B0800934A08682D8AE498E00E94170BF4
:1035600060914A0870914B08872F9927FB01FF272C
:10357000EE0FFF1FE95BF84FDC01AA0FBB1FA95B31
:10358000B84F3C91209153084081421306C05181AD
:1035900040915408541709F471CF321373CF119628
:1035A0003C912091540832136DCF6627682B792BFC
:1035B00070934B0860934A0865CF6301A0CF0E94C7
:1035C0003E15F12CE12C809195088E151F04B1F069
:1035D000ACF0F801848587FD09C0658570E0603432
:1035E000710524F441E090E00E94B806FFEFEF1A65
:1035F000FF0A0E5F1F4FE7CF0E943E158091030721
:1036000081111EC080910D0720915108882309F473
:103610008AC0409196085091970880917E019091C0
:103620007F018417950708F47BC0841B950B0697D0
:1036300008F079C0822F807309F475C00E945B0383
:1036400020910307222339F080915108807309F0FB
:1036500081C0109203078091A7019091A801019762
:1036600009F06EC1609145077091460777278091F8
:103670007A0190917B010E946024892B09F0F7C0A8
:103680000E94B00980913B0790913C0764E070E094
:103690000E947424FC01EE0FFF1FED5CF84F608167
:1036A0007181880F991FFC01E55DF84F8081918140
:1036B0000E941E0980915108807309F4D8C080913E
:1036C0009508082F10E0C0902107D0902207E090C5
:1036D0001F07F0902007823008F4B8C030E020E0E7
:1036E00059016FEFA61AB60AA016B1060CF0AEC0CB
:1036F000F901EE0FFF1FE95AF74F60817181220F28
:10370000331FF901EB5AF74F9601A7018081918190
:103710000E942E0F9501882319F30E94470AA7C023
:1037200081509F4F82CF207309F48ACF2091960851
:103730003091970880917E0190917F0182179307C5
:1037400030F0821B930B0A9708F47ACF77CF815021
:103750009F4FF7CF30919508323008F47ACF4091DF
:1037600096085091970880917E0190917F0184176F
:103770009507D8F1841B950B059708F46CCF8091C1
:1037800009078F5F8431A0F58093090780910A07AC
:103790008F5F80930A0790910707891760F1109255
:1037A0000A0780910607E82FF0E0BF016F5F7F4FA7
:1037B000432F50E06417750704F5EE0FFF1FE95A19
:1037C000F74F608171819091040796131FC090910B
:1037D000050797131BC08F5F809306078317B0F010
:1037E000109203070E94470A36CF81509F4FC2CFE5
:1037F00010920907CBCF20E0D4CF6417750709F0EA
:103800002ACF6091530870915408DDCF222309F428
:1038100022CF80910407909105070E943C0E8230D0
:1038200079F038F4813009F016CF8FEF80930407D8
:1038300012CF843039F0883009F00DCF81E003C019
:1038400081E0F4CF8FEF8093050705CF6091530897
:1038500070915408000F111FF801ED5AF74F9601AF
:10386000A701808191810E942E0F811156CF60E0C7
:1038700080915308909154080E94880A0E9443083E
:1038800080910307882309F45BC061E080910407FD
:10389000909105070E94880A80910307882309F404
:1038A0004FC040910407309105078091090725E03A
:1038B000622F0E9454248370829FC001112410E063
:1038C00000E0FC01ED54FF4F1F0180E8482E512C11
:1038D000642F6250770B3B01832F8250990B5C0160
:1038E000F101E00FF11FE491F12CE12CCE2ED12C4F
:1038F0004501800E911EC2010E2C02C09595879540
:103900000A94E2F78C219D21892B71F0C3018E0D61
:103910009F1D8038910540F4E0E48E16910420F458
:1039200041E0B4010E94B806FFEFEF1AFF0A25E05C
:10393000E216F10401F70F5F1F4F0530110581F604
:103940000F900F900F90DF91CF911F910F91FF90EB
:10395000EF90DF90CF90BF90AF909F908F907F902F
:103960006F905F904F903F902F9008951F920F920D
:103970000FB60F9211248F939F938091E100909145
:10398000E100937F9093E10083FF0FC01092E90064
:1039900091E09093EB001092EC0092E39093ED0095
:1039A00010929E0198E09093F00082FF22C093E075
:1039B0009093E9009091F200992319F09AE3909383
:1039C000E80090918F01992341F090918F019150DF
:1039D00090938F01911101C05D9A90919D0199235F
:1039E00041F090919D01915090939D01911101C0E2
:1039F000289A84FF18C08091E2008E7E81608093B7
:103A0000E2008091E1008F7E8093E100809190013F
:103A10008E7E8061809390019F918F910F900FBE59
:103A20000F901F90189580FFF7CF8091E2008E7E57
:103A300080618093E2008091E1008E7E8093E100BE
:103A4000809190018E7E8160E5CF1F920F920FB61C
:103A50000F921124CF92DF92EF92FF920F931F9358
:103A60002F933F934F935F936F937F938F939F9386
:103A7000AF93BF93EF93FF93CF93DF93CDB7DEB7B1
:103A80006C97DEBFCDBF1092E9008091E80083FF04
:103A900025C068E0CE0145960E94270582EF8093FD
:103AA000E8008D8987FF39C09091E80090FFFCCF36
:103AB000982F907609F034C19E894F89588D2F89AF
:103AC000F88C911131C0803861F580918E0180931E
:103AD000F1001092F1008EEF8093E8006C960FB623
:103AE000F894DEBF0FBECDBFDF91CF91FF91EF9174
:103AF000BF91AF919F918F917F916F915F914F9106
:103B00003F912F911F910F91FF90EF90DF90CF90F9
:103B10000F900FBE0F901F9018959EEF9093E800A6
:103B2000C7CF1092F100D5CF913059F48111D3CF86
:103B30004130510581F680918E018D7F80938E01F9
:103B4000CACF933049F48111C6CF4130510519F6DF
:103B500080918E018260F2CF953041F48091E8002F
:103B600080FFFCCF20682093E300B5CF963009F0AA
:103B7000A9C00B8D1C8D22E01092E90010928C01DF
:103B800010928B01F2122EC010928A0110928901BC
:103B90000E94F6041F8299E09983FA8291E09E8345
:103BA00090EA98879AEF998720918B0130918C0148
:103BB000275F3F4F3C832B838D831092E900109247
:103BC0008C0110928B0110938A010093890149E0C6
:103BD00050E0BE016F5F7F4F80E00E94D0040E94E2
:103BE000F60479CF10938A01009389010E94DA03C9
:103BF000DC0112960D911C910115110509F451C1BA
:103C0000D801ED91FC910480F581E02DBE016B5E41
:103C10007F4FC8010995009709F03EC1F801008562
:103C20001185EACFF3E0FF120EC08F89882309F4D3
:103C300040C0823061F440E867E08DE396E00E9486
:103C40009D04811148CF81E28093EB0047CF813002
:103C500029F440E86BE081E396E0F1CF833099F7F7
:103C60000E94DA03DC011296ED90FC908E010F5F4A
:103C70001F4F6801E114F10479F0D701ED91FC9137
:103C80000680F781E02DB801C7010995080F111DC5
:103C9000F701E084F184EECFD8011C92F601019087
:103CA0000020E9F73197BF016C197D0940E0C6019A
:103CB000C6CF6BE176E0FB01449150E080E80E94C2
:103CC000D00409CF973009F4BECF983021F481E0B9
:103CD0008093F10000CF993009F0FDCE837009F098
:103CE000B2CFE1E4F1E081E031E096E321912223DB
:103CF00071F08093E9003093EB00DF0111972C9174
:103D00002093EC009093ED008F5F873079F78EE77A
:103D10008093EA001092EA008F8980939E01DBCEA7
:103D20008B8D9C8D1092E90010928C0110928B016A
:103D300090938A0180938901898D811192C08E8927
:103D40009D89913A49F4813209F07DCF47E050E0F6
:103D500066E071E080E0B3CF913209F074CF833236
:103D600069F48F89988DB0E0A0E080930201909370
:103D70000301A0930401B0930501ADCE803269F434
:103D80008091E80082FFFCCF67E086E091E00E942E
:103D900027058BEF8093E8009ECE823209F09BCE00
:103DA0008F8980930D01EEEFFFE7859194918B3F12
:103DB0009C4D51F1E0E0F8E08091060190910701FF
:103DC000A0910801B0910901803B9440A105B10583
:103DD000F1F480910D0180FD1AC0EE3F8AE0F807F2
:103DE00089F587E797E791838083809160008093CE
:103DF0008D0188E19BE00FB6F894A8958093600050
:103E00000FBE9093600067CEEEEFFAE0D5CF8081D1
:103E100091818737974709F05ECEA8958091600021
:103E200088618093600080918D0180936000EE3FF7
:103E30002AE0F20789F08091FE0A9091FF0A9183AF
:103E4000808349CE808191818737980751F2909382
:103E5000FF0A8093FE0AC5CF1092FF0A1092FE0A55
:103E60003ACE0E94DA03DC0112960D911C910115E5
:103E7000110509F4E8CED801ED91FC910190F08193
:103E8000E02DBE016B5E7F4FC8010995811123CEE5
:103E9000F80100851185EBCF181619060CF41BCE1E
:103EA000D2CEF1E0FF12BECE6FE176E004CF1F92DA
:103EB0000F920FB60F9211242F933F938F939F93DE
:103EC000AF93BF938091810190918201A091830172
:103ED000B09184013091800123E0230F2D3758F5F4
:103EE0000196A11DB11D20938001809381019093C3
:103EF0008201A0938301B093840180918501909108
:103F00008601A0918701B09188010196A11DB11D84
:103F10008093850190938601A0938701B0938801D7
:103F2000BF91AF919F918F913F912F910F900FBEB5
:103F30000F901F90189526E8230F0296A11DB11D22
:103F4000D2CF0F931F93CF93DF931092AC051092B3
:103F5000AB0588EE93E0A0E0B0E08093AD059093D0
:103F6000AE05A093AF05B093B0058BE491E09093BC
:103F7000AA058093A9058FEF9FEF9093B6058093D4
:103F8000B5051092FB051092FC051092FD051092EC
:103F9000FE051092F9051092FA051092490882E088
:103FA00091E090934B0880934A0810924D0810922C
:103FB0004C0810924F0810924E0880EC80935008E5
:103FC00083E08093510810925208E5E5F8E01082F2
:103FD0001182329688E0E539F807C9F71092950802
:103FE000109297081092960880E4809353088FE30C
:103FF00080935408E7E4F7E087E498E010821182A8
:1040000032968E179F07D1F784E090E0909348088E
:10401000809347081092470710924807109249076B
:104020003FE330934A072FE720934B0730934C0729
:1040300020934D0710924E0710922B0710922C07D9
:1040400010922D0710922E0710922F071092300712
:1040500010923107109232071092330710923407F2
:1040600010923507109236071092370710923807D2
:104070001092390710923A0710923C0710923B07B2
:1040800023E030E030933E0720933D071092400735
:1040900010923F0722E030E030934207209341071F
:1040A0001092440710924307909346078093450768
:1040B0008AE280931F0795E19093200795E59093FE
:1040C000210780932207009123071091240763E0C2
:1040D00070E080E090E00E942415C0913D07D091EF
:1040E0003E07D195C195D1096150710981099109A6
:1040F000600F711F6C177D073CF100912307109131
:10410000240763E070E080E090E00E942415C091F5
:104110003D07D0913E076150710981099109600FF7
:10412000711FC617D70784F0C0912307D0912407C9
:1041300063E070E080E090E00E9424156150710916
:1041400081099109C60FD71FD0932407C093230775
:10415000009125071091260763E070E080E090E071
:104160000E942415C0913D07D0913E07D195C1957D
:10417000D1096150710981099109600F711F6C1794
:104180007D073CF1009125071091260763E070E060
:1041900080E090E00E942415C0913D07D0913E0739
:1041A0006150710981099109600F711FC617D70706
:1041B00084F0C0912507D091260763E070E080E08D
:1041C00090E00E9424156150710981099109C60F80
:1041D000D71FD0932607C09325070091270710917A
:1041E000280763E070E080E090E00E942415C09111
:1041F0003D07D0913E07D195C195D1096150710914
:1042000081099109600F711F6C177D073CF10091C6
:1042100027071091280763E070E080E090E00E949B
:104220002415C0913D07D0913E0761507109810965
:104230009109600F711FC617D70784F0C091270737
:10424000D091280763E070E080E090E00E942415A0
:104250006150710981099109C60FD71FD0932807B2
:10426000C09327070091290710912A0763E070E0A7
:1042700080E090E00E942415C0913D07D0913E0758
:10428000D195C195D1096150710981099109600FDA
:10429000711F6C177D073CF10091290710912A07C7
:1042A00063E070E080E090E00E942415C0913D073B
:1042B000D0913E076150710981099109600F711F0A
:1042C000C617D70784F0C0912907D0912A0763E069
:1042D00070E080E090E00E9424156150710981092E
:1042E0009109C60FD71FD0932A07C09329071092B0
:1042F0002D0710922E071092350710923607109254
:104300002F0710923007109237071092380710923B
:104310003107109232071092390710923A078091B4
:104320001F079091200790932C0780932B07809173
:10433000210790912207909334078093330781E0FF
:1043400090E090933C0780933B07109210071092E7
:1043500011071092120780E480930F071092140740
:1043600010921507109216078093130710921807E2
:104370001092190710921A078093170710921C07C2
:1043800010921D0710921E0780931B0710920307BF
:104390001092060722E030E03093080720930707C9
:1043A0001092090710920A0710920B0710920C073F
:1043B00010920D0710920E078093040780E28093FD
:1043C000050710920207109201078DE591E0909386
:1043D00000078093FF06EFEFF5E08FEF96E0108285
:1043E000118232968E179F07D1F7DF91CF911F91DF
:1043F0000F910895789484B5826084BD84B58160FE
:1044000084BD85B5826085BD85B5816085BD80919F
:104410006E00816080936E00109281008091810017
:10442000826080938100809181008160809381000F
:1044300080918000816080938000809191008260F3
:104440008093910080919100816080939100809190
:1044500090008160809390008091C100846080937F
:10446000C1008091C10082608093C1008091C10031
:1044700081608093C1008091C30081608093C300FC
:104480008091C00082608093C0008091C2008160F2
:104490008093C20080917A00846080937A0080913A
:1044A0007A00826080937A0080917A0081608093A4
:1044B0007A0080917A00806880937A0010929E0141
:1044C00010928E01109290018091D70081608093AC
:1044D000D70080EA8093D80089B5806189BD89B50D
:1044E000826089BD09B400FEFDCF61E070E080E02C
:1044F00090E00E9459058091D8008F7C8061809364
:10450000D8008091E000807F8093E0008091E100FE
:104510008E7E8093E1008DE08093E200559A209A90
:1045200081EC80937C0085B1806F85B984B1877EF2
:1045300084B984B1876E84B95E9A5F988AB1806DC0
:104540008AB9769A6E9881B3806F81BB899880B35F
:104550008D7080BB80E58CBD81E08DBD0E948C0597
:104560005F9A0E948C055E985C98ECECF5E089ED12
:1045700095E024912EBD00000DB407FEFDCF3196CD
:104580008E179F07B1F75C9A81E880936400809151
:1045900065008160809365000E94440687FF15C016
:1045A0005C9885EA8EBD00000DB407FEFDCF5C9AD5
:1045B0002E982F982D9880916400806280936400DB
:1045C00081E083BF889513BEFCCF80E18093010119
:1045D0000E944E0310927901109278011092770197
:1045E000109276010E94870611E0C0E0D0E001E061
:1045F0008FB7F894409181015091820160918301BD
:10460000709184018FBF80917C01882339F01092D2
:104610007C01209769F30E940000EACF80917D0120
:10462000942F981B892F90910101891738F48F5F7F
:10463000891778F713BF889513BEEBCF00937C01E1
:1046400040937D0180917A0190917B010196909336
:104650007B0180937A0180917E0190917F01019688
:104660008F3F9105A8F490937F0180937E01E091A4
:10467000A701F091A801EE0FFF1FEC5CFE4F019027
:10468000F081E02D309709F009950E948706C1CF8F
:1046900010927F0110927E01EACF8F929F92AF928B
:1046A000BF92CF92DF92EF92FF92CF93DF93EC0114
:1046B000688179818A819B816115710581059105E8
:1046C00021F464E279ED8BE597E02DE133EF41E0F1
:1046D00050E00E94F12349015A019B01AC01A7EA75
:1046E000B1E40E9410246B017C01ACEEB4EFA50193
:1046F00094010E941E24C60ED71EE81EF91EF7FE66
:1047000006C081E0C81AD108E10880E8F80AC8822A
:10471000D982EA82FB82C701B6019F77DF91CF91F0
:10472000FF90EF90DF90CF90BF90AF909F908F90D1
:1047300008958F929F92AF92BF92CF92DF92EF92A5
:10474000FF9260910E0170910F0180911001909184
:104750001101611571058105910521F464E279ED7E
:104760008BE597E02DE133EF41E050E00E94F1232B
:1047700049015A019B01AC01A7EAB1E40E9410244F
:104780006B017C01ACEEB4EFA50194010E941E24E4
:10479000C60ED71EE81EF91EF7FE06C081E0C81A35
:1047A000D108E10880E8F80AC0920E01D0920F010A
:1047B000E0921001F0921101C701B6019F77FF90BE
:1047C000EF90DF90CF90BF90AF909F908F90089523
:1047D00060930E0170930F0180931001909311016B
:1047E0000895052E97FB1EF400940E94082457FD9F
:1047F00007D00E94232407FC03D04EF40C94082415
:1048000050954095309521953F4F4F4F5F4F0895FC
:1048100090958095709561957F4F8F4F9F4F08952C
:104820000E944524A59F900DB49F900DA49F800DDC
:10483000911D11240895B7FF0C9410240E94102498
:10484000821B930B0895A1E21A2EAA1BBB1BFD012C
:104850000DC0AA1FBB1FEE1FFF1FA217B307E4075F
:10486000F50720F0A21BB30BE40BF50B661F771FB7
:10487000881F991F1A9469F7609570958095909597
:104880009B01AC01BD01CF010895A29FB001B39F70
:10489000C001A39F700D811D1124911DB29F700D49
:1048A000811D1124911D0895991B79E004C0991F61
:1048B000961708F0961B881F7A95C9F7809508957A
:1048C000AA1BBB1B51E107C0AA1FBB1FA617B70736
:1048D00010F0A61BB70B881F991F5A95A9F7809552
:1048E0009095BC01CD01089597FB072E16F4009416
:1048F00007D077FD09D00E94602407FC05D03EF464
:10490000909581959F4F0895709561957F4F08957B
:10491000EE0FFF1F0590F491E02D0994F894FFCF5E
:104920000110FFFFFFFF00E1000000000000010098
:1049300000000000030007000B000F00110013002F
:1049400001020408FFFF0100000000000000000059
:10495000FFFF0100B00E9818770BE20C790B780B73
:1049600000C1808100000000000000EE0392050FEE
:10497000040404550413043104000000005A07170E
:0649800006390E380E009E
:00000001FF
