:100000000C9416030C943E030C943E030C943E0394
:100010000C943E030C943E030C943E030C943E035C
:100020000C943E030C943E030C948C120C94FB1223
:100030000C943E030C943E030C943E030C943E033C
:100040000C943E030C943E030C943E030C943E032C
:100050000C943E030C943E030C943E030C942D151B
:100060000C943E030C943E030C943E030C943E030C
:100070000C943E030C943E030C943E030C943E03FC
:100080000C943E030C943E030C943E030C943E03EC
:100090000C943E030C943E030C943E030C943E03DC
:1000A0000C943E030C943E030C943E032050885065
:1000B0002000000000003E5B4F5B3E3E6B4F6B3EFE
:1000C0001C3E7C3E1C183C7E3C181C577D571C1C5B
:1000D0005E7F5E1C00183C1800FFE7C3E7FF0018B6
:1000E000241800FFE7DBE7FF30483A060E2629799F
:1000F0002926407F050507407F05253F5A3CE73C00
:100100005A7F3E1C1C08081C1C3E7F14227F2214B0
:100110005F5F005F5F06097F017F006689956A6007
:100120006060606094A2FFA29408047E040810201E
:100130007E201008082A1C08081C2A08081E101017
:1001400010100C1E0C1E0C30383E3830060E3E0EC1
:1001500006000000000000005F000000070007002C
:10016000147F147F14242A7F2A1223130864623612
:10017000495620500008070300001C22410000419E
:10018000221C002A1C7F1C2A08083E0808008070D8
:10019000300008080808080000606000201008040B
:1001A000023E5149453E00427F400072494949465E
:1001B0002141494D331814127F1027454545393CDC
:1001C0004A494931412111090736494949364649C9
:1001D00049291E00001400000040340000000814EB
:1001E0002241141414141400412214080201590964
:1001F000063E415D594E7C1211127C7F49494936B9
:100200003E414141227F4141413E7F494949417F31
:10021000090909013E414151737F0808087F0041E7
:100220007F41002040413F017F081422417F404030
:1002300040407F021C027F7F0408107F3E41414105
:100240003E7F090909063E4151215E7F0919294671
:10025000264949493203017F01033F4040403F1F87
:100260002040201F3F4038403F63140814630304BC
:100270007804036159494D43007F4141410204081C
:100280001020004141417F040201020440404040EF
:1002900040000307080020545478407F2844443825
:1002A0003844444428384444287F3854545418006F
:1002B000087E090218A4A49C787F080404780044EE
:1002C0007D40002040403D007F1028440000417FD9
:1002D00040007C047804787C080404783844444462
:1002E00038FC1824241818242418FC7C080404085A
:1002F000485454542404043F44243C4040207C1C73
:100300002040201C3C4030403C44281028444C9065
:1003100090907C4464544C440008364100000077BF
:100320000000004136080002010204023C26232698
:100330003C1EA1A161123A4040207A3854545559CC
:100340002155557941215454784121555478402004
:10035000545579400C1E527212395555555939541D
:1003600054545939555454580000457C41000245B5
:100370007D420001457C40F0292429F0F028252801
:10038000F07C545545002054547C547C0A097F4924
:1003900032494949323248484832324A4848303A6C
:1003A0004141217A3A42402078009DA0A07D394405
:1003B0004444393D4040403D3C24FF2424487E498C
:1003C00043662B2FFC2F2BFF0929F620C0887E09BE
:1003D0000320545479410000447D413048484A325A
:1003E000384040227A007A0A0A727D0D19317D2642
:1003F00029292F28262929292630484D4020380828
:1004000008080808080808382F10C8ACBA2F1028A8
:1004100034FA00007B000008142A142222142A1443
:10042000089500220095AA005500AAAA55AA55AA27
:10043000000000FF00101010FF00141414FF001043
:1004400010FF00FF1010F010F0141414FC0014142E
:10045000F700FF0000FF00FF1414F404FC1414174D
:10046000101F10101F101F1414141F00101010F074
:10047000000000001F101010101F10101010F010BE
:10048000000000FF101010101010101010FF1000CE
:100490000000FF140000FF00FF00001F1017000005
:1004A000FC04F414141710171414F404F40000FFDF
:1004B00000F714141414141414F700F71414141778
:1004C0001410101F101F141414F4141010F010F056
:1004D00000001F101F0000001F14000000FC14008B
:1004E00000F010F01010FF10FF141414FF1410107F
:1004F000101F00000000F010FFFFFFFFFFF0F0F002
:10050000F0F0FFFFFF0000000000FFFF0F0F0F0FD4
:100510000F38444438447C2A2A3E147E02020606E0
:10052000027E027E0263554941633844443C0440E4
:100530007E201E2006027E020299A5E7A5991C2AAC
:10054000492A1C4C7201724C304A4D4D303048786B
:100550004830BC625A463D3E494949007E0101018E
:100560007E2A2A2A2A2A44445F444440514A44406D
:1005700040444A51400000FF0103E080FF000008B2
:10058000086B6B083612362436060F090F0600007A
:1005900018180000001010003040FF0101001F017A
:1005A000011E00191D1712003C3C3C3C00000000DD
:1005B00000D5F08D14A1C881CFD9F1AF2000080B70
:1005C000000202020000090400000102020000050E
:1005D000240010010524010101042402060524065B
:1005E00000010705810310004009040100020A0010
:1005F00000000705020240000007058302400000DA
:100600000403090412010002EF02014041233600F5
:1006100000010102030141726475696E6F204C4C48
:10062000430041726475626F7900771511241FBE13
:10063000CFEFDAE0DEBFCDBF11E0A0E0B1E0E4E053
:10064000F9E302C005900D92AC33B107D9F727E06A
:10065000ACE3B1E001C01D92A132B207E1F713E0B3
:10066000C6E1D3E004C02197FE010E947A1CC53187
:10067000D107C9F70E9410160C94801C0C9400003E
:10068000BC0175956795A4EDB6E0880F991FFC0134
:10069000EC52F94F90E080E0129632976817790794
:1006A00071F01A962D913C911B97448555851B96A8
:1006B0005C934E931A97358724870196EDCF089562
:1006C000E0E7F1E080E0A0E0B8E000800EBC81113E
:1006D000012C1197A0FDFDCF0192B9F70DB408953B
:1006E000FC0180916F01882311F13FB7F89482E0FB
:1006F0008093E9002091F200822F90E018161906ED
:1007000014F481E090E0882339F0289844E640937F
:100710006E014091F1004083222339F02091F200D4
:10072000211103C02BE62093E8003FBF08958FEF0F
:100730009FEF08952FB7F89483E08093E90090919C
:10074000E800892F807295FF04C09091F20080E448
:10075000891B2FBF08958091660181110DC082E031
:100760008093620184E0809363011092650110928E
:10077000640181E08093660182E691E00895CF9361
:10078000DF931F92CDB7DEB76983DC01ED91FC9159
:100790000280F381E02D41E050E0BE016F5F7F4FAA
:1007A00009950F90DF91CF91089583E08093E90040
:1007B0008091F200882319F08AE38093E80008957D
:1007C0000E949A0390E00895CF93DF931F92CDB7D4
:1007D000DEB7FC018485958597FD08C02FEF3FEFBC
:1007E000358724870F90DF91CF910895CE01019630
:1007F0000E947003019719F4898190E0F3CF8FEF85
:100800009FEFF0CF0F931F93CF93DF931F92CDB73E
:10081000DEB78C01FC018485958597FF0BC0CE0166
:1008200001960E947003019771F4898190E0F801AC
:1008300095878487F801848595850F90DF91CF9106
:100840001F910F9108958FEF9FEFF1CFFC018485E9
:10085000958597FD0BC09FB7F89482E08093E900DF
:100860008091F2009FBF90E0019608959FB7F894A1
:1008700082E08093E9008091F2009FBF90E00895AC
:1008800040915C0150915D0120915A0130915B01D2
:1008900042175307B4F49091E8009570E1F39091FA
:1008A000E80092FD19C08093F10080915C01909165
:1008B0005D0101968F739927892B19F48EEF809330
:1008C000E80080915C0190915D01019690935D013B
:1008D00080935C0181E0089580E00895EF92FF929B
:1008E0000F931F93CF93DF93F82E192FE62E042F2B
:1008F00081E0860F880F0E94400483E00E9440043C
:10090000CF2DD12FEC0EFD2EF11CCE15DF05B9F049
:1009100007FF13C0FE0184910E944004182F80E05D
:100920000E944004812321968111EFCFDF91CF9166
:100930001F910F91FF90EF9008958881EDCF81E096
:10094000F5CFDF92EF92FF920F931F93CF93DF9338
:10095000D82E8A01EB017B01E40EF51ECE15DF05D2
:1009600059F0D7FE12C0FE0184910E9440042196E6
:100970008111F4CF0FEF1FEFC801DF91CF911F91CD
:100980000F91FF90EF90DF9008958881EECF0F9345
:100990001F93CF93DF931F92CDB7DEB782E0898399
:1009A00042E450E06EEB75E080E80E94A1040E94F2
:1009B000AB03DC0112960D911C910115110589F014
:1009C000D801ED91FC910280F381E02DBE016F5FB3
:1009D0007F4FC801099597FD04C0F8010085118576
:1009E000ECCF89810F90DF91CF911F910F910895E6
:1009F000615030F02091F100FC0120830196F8CF86
:100A0000289884E680936E0108953FB7F89480910A
:100A1000560190915701A0915801B091590126B506
:100A2000A89B05C02F3F19F00196A11DB11D3FBF26
:100A3000BA2FA92F982F8827BC01CD01620F711DF5
:100A4000811D911D42E0660F771F881F991F4A95EF
:100A5000D1F708958F929F92AF92BF92CF92DF927B
:100A6000EF92FF926B017C010E9405054B015C0136
:100A7000C114D104E104F104B9F00E94050568191C
:100A800079098A099B09683E73408105910580F3C5
:100A900021E0C21AD108E108F10888EE880E83E04F
:100AA000981EA11CB11CE4CFFF90EF90DF90CF9077
:100AB000BF90AF909F908F90089565E070E080E0C8
:100AC00090E00C942A058F929F92AF92BF92CF92A2
:100AD000DF92EF92FF920F931F93CF93DF936C01FE
:100AE0007B018A0180910E01882309F45CC080910A
:100AF0006F01882309F457C08091610180FF05C010
:100B00008091E00082608093E000E801B12C8AEFE0
:100B1000A82E93E0892E2AE3922E209711F4BB2071
:100B2000D9F10E949A0381110AC0AA94AA20D9F18E
:100B300061E070E080E090E00E942A05EECF8C1723
:100B40001D0611F00CF08C2F9FB7F8948092E900ED
:100B50002091E80025FD02C09FBFDFCF282F30E0A5
:100B6000C21BD30BF701815020F041914093F1005B
:100B7000FACFE20EF31EBB2021F09092E800B12CD8
:100B8000EBCF8091E80085FDE7CF9092E800BB2491
:100B9000B394209709F3F3CF5D9884E680936001C6
:100BA000101611063CF081E090E0F60193838283F9
:100BB00010E000E0C801DF91CF911F910F91FF90ED
:100BC000EF90DF90CF90BF90AF909F908F9008955F
:100BD000AF92BF92CF92DF92EF92FF920F931F934B
:100BE000CF93DF936C017B018B01040F151FEB0189
:100BF0005E01AE18BF08C017D10759F06991D60140
:100C0000ED91FC910190F081E02DC6010995892BB1
:100C100079F7C501DF91CF911F910F91FF90EF9070
:100C2000DF90CF90BF90AF9008958FB18095807F77
:100C3000669B88601C9B8460089580389105B8F499
:100C400060347105A0F420E191E061FD94E060FD65
:100C5000990F62FD9295687F269FD0011124A80FFD
:100C6000A059BE4F8C9140FF03C0892B8C930895EF
:100C700090958923FBCF2F923F924F925F926F9274
:100C80007F928F929F92AF92BF92CF92DF92EF921C
:100C9000FF920F931F93CF93DF93EC018B017A01A7
:100CA0006901C61AD70AD7FE03C0D194C194D108EE
:100CB00047018C1A9D0A97FE03C091948194910874
:100CC0008C149D0454F49E2D8F2D7901292F382FDB
:100CD0009C2F8D2FE801092F182FEC16FD0654F4D8
:100CE000902F812F8901292F382F9C2F8D2FE701DD
:100CF000E92EF82E17012C1A3D0A2901401A510A33
:100D000057FE03C0519441945108310137FE03C08E
:100D10008FEF681A780A759467948FEF021713079C
:100D20000CF481E0A82E880FBB08EC16FD06A4F099
:100D300041E0BE01C8018C149D0414F0B801CE013D
:100D40000E941D066418750877FE04C00A0D1B1D5D
:100D5000620C731C2196E9CFDF91CF911F910F9107
:100D6000FF90EF90DF90CF90BF90AF909F908F90CB
:100D70007F906F905F904F903F902F9008958F924B
:100D80009F92AF92BF92CF92DF92EF92FF920F931A
:100D90001F93CF93DF936D3089F0C0904301D090C3
:100DA00044016A30D1F4109242011092410188E06E
:100DB000C80ED11CD0924401C092430181E090E062
:100DC000DF91CF911F910F91FF90EF90DF90CF9027
:100DD000BF90AF909F908F90089500914101109126
:100DE0004201E5E06E9FE0011124CF54DF4F48013E
:100DF000F12CF5E0E12CFF1629F0CE010196FE0161
:100E0000E490EC01B12CA12C4E2D4170B6016A0D7D
:100E10007B1DC4010E941D06E694FFEFAF1ABF0AB6
:100E200088E0A816B10481F7F394EFEF8E1A9E0ABA
:100E3000F6E0FF12DECF0A5F1F4F109342010093CE
:100E40004101BCCF6F927F928F929F92AF92BF92DF
:100E5000CF92DF92EF92FF920F931F93CF93DF9386
:100E60008091DE069091DF06EC0197FDEF9626E07B
:100E7000D595C7952A95E1F760E470E00E94661C5D
:100E80003CEAC32E30E0D32E8C01025011093C0104
:100E900023E0620E711C40E8842E912C2297F6010B
:100EA000A490F12CE12CB12CC4010E2C02C095951C
:100EB00087950A94E2F78A219B21892B69F0CE015C
:100EC0008E0D9F1D8038910538F40034110520F4F3
:100ED00041E0B8010E941D06FFEFEF1AFF0A25E06E
:100EE000E216F10409F78FEFC81AD80A0F5F1F4FF7
:100EF00006151705A1F6DF91CF911F910F91FF9075
:100F0000EF90DF90CF90BF90AF909F908F907F90A9
:100F10006F9008957F928F929F92AF92BF92CF92DF
:100F2000DF92EF92FF920F931F93CF93DF93B2E57F
:100F3000CB2EB6E0DB2EF12CE12CC0E4AC2EB12C94
:100F4000772473946091D2067091D306E616F70663
:100F50000CF0A9C0F601019111916F01FFEFEF1A9A
:100F6000FF0AC7010E94661CFC01EE0FFF1FEE5A2C
:100F7000F94FC081E181C801B5010E94661C9C0146
:100F80008C2F9E2FB5010E94661C17FF02C0015CCA
:100F90001F4F76E0159507957A95E1F74C2F5E2F58
:100FA00057FF02C0415C5F4F66E0559547956A95D3
:100FB000E1F72817390709F04AC0CA01801B910BD5
:100FC000181619060CF040C0842F801B2034310500
:100FD00008F0B8CF401751070CF48A01800F912F09
:100FE000911D181619060CF0ADCF003811050CF044
:100FF000A9CF17FF02C010E000E08138910514F07E
:1010000080E890E0801BA90147705527972D01C00B
:10101000990F4A95EAF7492FF90193E0F595E7957D
:101020009A95E1F7F695FE2FEE27F795E795E00FF5
:10103000F11FE059FE4F815008F484CF9191DF01F8
:101040001197942B9C93F7CF802F841BBFCF04174D
:10105000150709F077CFAC01421B530B882E821A7B
:101060001416150614F0822E881A821793070CF4B2
:101070009C01820E932E911CE90137FF02C0D0E043
:10108000C0E0C401E1E48E16910414F080E490E025
:10109000C817D9070CF056CF41E0BE01C8010E9425
:1010A0001D062196EECFDF91CF911F910F91FF90FA
:1010B000EF90DF90CF90BF90AF909F908F907F90F8
:1010C00008956F927F928F929F92AF92BF92CF922C
:1010D000DF92EF92FF920F931F93CF93DF93809154
:1010E0004001882309F454C08091C0059091C10546
:1010F000EC0197FDEF9626E0D595C7952A95E1F787
:101100006E0122E0C21AD10860E470E00E94661C01
:101110007C0122E0E21AF108882499248C1A9D0AA5
:101120003C0123E0620E711C23968601540182E08B
:10113000A80EB11C00381105D8F420E4E216F10421
:10114000B8F440913C0150913D0160913E01709195
:101150003F01C501800F911F04C076956795579593
:1011600047958A95D2F74170B701C8010E941D06C4
:101170000F5F1F4F0C171D07E9F68FEFE81AF80AEB
:1011800025E0820E911CE614F70479F610924001D6
:10119000DF91CF911F910F91FF90EF90DF90CF9053
:1011A000BF90AF909F908F907F906F9008952F92F7
:1011B0003F924F925F926F927F928F929F92AF92E7
:1011C000BF92CF92DF92EF92FF920F931F93CF9334
:1011D000DF93CDB7DEB728970FB6F894DEBF0FBE0A
:1011E000CDBF9093C1058093C00521E020934001BD
:1011F000FC0197FDFF9646E0F595E7954A95E1F7E6
:101200009F012250310938872F8360E470E00E94EB
:10121000661C0297C12CD12C760170E060E0AF0112
:101220004D5F5F4F5E834D83812C912C54018394DD
:10123000282F269526952695A0E82A9FA0011124FF
:101240005A834983282F2770422F50E05C834B83B9
:1012500066246394712C02C0660C771C2A95E2F711
:101260004F815885A5E0A69F9001A79F300D1124BE
:101270002E1B3F0B89010E5F1F4F4038510528F58B
:101280008034910510F5A981BA81A40FB51FA0592A
:10129000BE4F2C9130E0262137210B8002C03595BE
:1012A00027950A94E2F7222381F09801240F351F35
:1012B0001401250104C0220C331C441C551C2A9522
:1012C000D2F7C228D328E428F5284F5F5F4F2D813D
:1012D0003E812417350789F66F5F7F4F0196653091
:1012E000710509F0A5CFC0923C01D0923D01E0927A
:1012F0003E01F0923F0128960FB6F894DEBF0FBE74
:10130000CDBFDF91CF911F910F91FF90EF90DF90B4
:10131000CF90BF90AF909F908F907F906F905F9095
:101320004F903F902F900895FC0120813181207CC7
:101330006F73262B3183208308951F93CF93DF9300
:10134000EC01FB0118814981812F942F60E470E04A
:101350000E94661CE80FF91F212F342F37FF02C0AF
:10136000215C3F4F207CE034F10540F42E0F3F1FFD
:1013700039832883DF91CF911F910895280F391F5A
:10138000F7CFCF93DF93EC01888199819C0197FF80
:1013900002C0215C3F4FE6E035952795EA95E1F7DD
:1013A000FB01E20FF31F60E470E00E94661CE0386E
:1013B000F10560F456E0EE0FFF1F5A95E1F78E0F2E
:1013C0009F1F99838883DF91CF91089546E0220F74
:1013D000331F4A95E1F7820F931FF3CF9091D40604
:1013E000292F2F708223C1F06FEF7FEF90FD04C093
:1013F00091FF06C061E070E08EED96E00C94C109AB
:101400006FEF7FEF92FD04C093FF06C061E070E0D4
:101410008EED96E00C949D090895089590E080E08B
:1014200008950F931F93CF93DF93FC01CB01AB0182
:1014300077FF02C0415C5F4F76E0559547957A95FE
:10144000E1F79F01F7FF02C0215C3F4F66E0359551
:1014500027956A95E1F742175307C4F0241735071B
:10146000BCF422E000E410E0B8010E94661CEC012C
:10147000CF01B8010E94661CC817D9075CF424602C
:10148000822FDF91CF911F910F91089521E0EACF34
:1014900020E0E8CF8C179D079CF72860F1CFCF9212
:1014A000DF92EF92FF920F931F93CF93DF931092EF
:1014B000DC068091D5069091D606382F3F7326E042
:1014C000969587952A95E1F7282F2F73432F50E0A3
:1014D000FA01EE0FFF1FEE5AF94FC081D181E22FC2
:1014E000F0E0DF01AA0FBB1FAE5AB94F0D911C915E
:1014F000E090D206F090D30641505109CA018E0DFA
:101500009F1DB7010E94661CDC01AA0FBB1FAE5ACB
:10151000B94FCD90DC90CF010196B7010E94661CB7
:10152000FC01EE0FFF1FEE5AF94FE080F18023130C
:1015300015C0B601CE010E94110A182FB701CE01C5
:101540000E94110A812B8093DC06DF91CF911F91BD
:101550000F91FF90EF90DF90CF900895E090DE061E
:10156000F090DF06BE01C7010E94110AC82FB80122
:10157000C7010E94110A8C2BE6CFCF92DF92EF9227
:10158000FF920F931F93CF93DF939C01CB017A01BE
:101590008B0177FF02C0015C1F4F76E01595079520
:1015A0007A95E1F7F701F7FCFF9656E0F595E79598
:1015B0005A95E1F760E4C62ED12CB6010E94661C54
:1015C000EC01C701B6010E94661C7C018C179D07C7
:1015D0000CF44EC00E171F07F9F4FC01C90137FDCA
:1015E000CF9646E0959587954A95E1F70817190734
:1015F00089F4C90160E470E00E94661C9C01EC164D
:10160000FD060CF4E7012C173D0724F081E0E217FA
:10161000F3072CF580E023C0C817D907D9F7C90113
:10162000B6010E94661CC817D907A1F737FF02C090
:10163000215C3F4F86E0359527958A95E1F7C801F3
:10164000E017F1070CF4CF01281739071CF30E1728
:101650001F070CF48F0181E002171307DCF2DF9102
:10166000CF911F910F91FF90EF90DF90CF90089551
:101670000E171F0779F6FE01B1CF3F924F925F928E
:101680006F927F928F929F92AF92BF92CF92DF9292
:10169000EF92FF920F931F93CF93DF93382F292F51
:1016A0006B015A0160E470E00E94661CEC01632E3D
:1016B000722E77FE03C08FE3680E711C06E07594EE
:1016C00067940A95E1F72601F12CE12CF0E0E0E0C7
:1016D00080E4882E912CEA14FB040CF091C0D20116
:1016E0002D913D912D01BFEFEB1AFB0AC701B5010A
:1016F0000E94661CDC01AA0FBB1FAC0DBD1D4C91E6
:1017000011963C90C901B4010E94661C8C01842F83
:10171000932DB4010E94661CC017D107CCF1C817E5
:10172000D907CCF637FF02C0215C3F4FB901B6E0C4
:1017300075956795BA95E1F7242F332D37FF02C0D1
:10174000215C3F4FA6E035952795AA95E1F7261B2A
:10175000370BAE01401B510B249FD001259FB00DCC
:10176000349FB00D1124AC01401B510B9301261B7B
:10177000370B429FC001439F900D529F900D112443
:10178000A81BB90B1A161B060CF0A5CF3196A3CFD8
:10179000C817D9070CF49FCF37FF02C0215C3F4F19
:1017A000B90156E0759567955A95E1F7242F332DC9
:1017B00037FF02C0215C3F4F46E0359527954A959B
:1017C000E1F7261B370BAE01401B510B249FD001C4
:1017D000259FB00D349FB00D1124AC01401B510B5F
:1017E0009301261B370B429FC001439F900D529FD0
:1017F000900D1124A81BB90BB7FF6DCF31976BCF9C
:1018000081E0EF2B09F480E0DF91CF911F910F91E0
:10181000FF90EF90DF90CF90BF90AF909F908F9010
:101820007F906F905F904F903F900895FC012081D2
:1018300031812F733327F0E46F9FB0011124607C56
:101840007F70622B732BFC017183608308952F924C
:101850003F924F925F926F927F928F929F92AF9240
:10186000BF92CF92DF92EF92FF920F931F93CF938D
:10187000DF93CDB7DEB7C959D1090FB6F894DEBFF3
:101880000FBECDBFC756DF4F8883C959D0402091C6
:10189000D406922F9F708091DC06392F382309F1EE
:1018A00022952F70A9F0921799F0209120072032ED
:1018B00078F44091DE065091DF06E22FF0E0EE0F63
:1018C000FF1FE052F94F518340832F5F2093200781
:1018D00040E1949F90011124922B9093D4060E9492
:1018E000EE0950912007CF56DF4F5883C159D040A1
:1018F000552309F465C4E090DE06F090DF06370159
:10190000F7FE03C08FE3680E711C16E075946794B0
:101910001A95E1F72091E0063091E106C90137FD03
:10192000CF96B6E095958795BA95E1F76816790652
:1019300079F4E0E4F0E0C701BF010E94661C8C016D
:10194000C901BF010E94661C0817190709F438C4B1
:101950002090D2063090D306A2E5B6E0CA56DF4FFB
:10196000B983A883C659D040CD56DF4FB983A88329
:10197000C359D04010E000E0021513050CF020C45C
:10198000CD56DF4FA881B981C359D040AD90BD90ED
:10199000CD56DF4FB983A883C359D0402801BFEF8C
:1019A0004B1A5B0AC201B1010E94661C4C01C85669
:1019B000DF4F8883C859D040FC01EE0FFF1FEE5A5D
:1019C000F94FC080D180A601B5018091DE069091CB
:1019D000DF060E94BD0ACB56DF4F8883C559D04031
:1019E000882309F4F7C0C501B7FCCF96E6E09595CA
:1019F0008795EA95E1F76816790679F420E430E0F6
:101A0000C701B9010E94661CFC01C501B9010E9411
:101A1000661CE817F90709F4DFC0C601D7FCCF96AA
:101A200076E0959587957A95E1F76816790679F4C9
:101A300020E430E0C701B9010E94661CFC01C60128
:101A4000B9010E94661CE817F90709F48401602FA8
:101A500089ED96E00E949409C856DF4F6881C85905
:101A6000D04089ED96E00E94160C809120078032CC
:101A700078F42091DE063091DF06E82FF0E0EE0FDB
:101A8000FF1FE052F94F318320838F5F809320073F
:101A900020912007223008F0A5C01092200710E006
:101AA00000E050E4E52EF12C6091D2067091D3064F
:101AB000061717070CF07EC3CA56DF4FE881F9817D
:101AC000C659D04021913191CA56DF4FF983E8833E
:101AD000C659D0402801FFEF4F1A5F0AC2010E9489
:101AE000661C6C01FC01EE0FFF1FEE5AF94F0190CE
:101AF000F081E02DA090DE06B090DF063501B7FE44
:101B000003C04FE3640E711C66E0759467946A9598
:101B1000E1F7C90137FDCF9656E0959587955A951F
:101B2000E1F76816790609F019C3C501B7010E94EB
:101B3000661C4C01C901B7010E94661C88169906F3
:101B400009F00CC3602F85ED96E00E949409602F88
:101B500085ED96E00E94160C82E090E090930201E1
:101B60008093010110924A0110924901C756DF4F3C
:101B70005881C959D04050934E010E946108CB56FC
:101B8000DF4F8881C559D040811105C08091DC06A6
:101B90008F7C8093DC0681E080934B010E944F0A8A
:101BA000C756DF4F0FB6F894DEBF0FBECDBFDF9133
:101BB000CF911F910F91FF90EF90DF90CF90BF904A
:101BC000AF909F908F907F906F905F904F903F90DD
:101BD0002F9008958201D0CEC856DF4F0883C85990
:101BE000D04035CF0091D7061091D806802F8F7343
:101BF000682E712C36E0169507953A95E1F70F732C
:101C000010E08091D9069091DA06382F3F73432E69
:101C1000512C46E0969587954A95E1F78F73282ECB
:101C2000312C30E046145704ACF5C9010E94400342
:101C3000902F812F8101292E382E962D872D32014C
:101C4000492E582EFE0131966F01CE018F579F4FBE
:101C500011921192E817F907D9F750EE852E56E048
:101C6000952ECF56DF4FD982C882C159D040F60198
:101C7000D401F12CE12CA0902007B12CEA14FB0434
:101C80000CF07AC02FEFE21AF20A8D919D918193A8
:101C90009193F1CF64147504A9F6F301EE0FFF1FC1
:101CA000EE5AF94FC080D180F801EE0FFF1FEE5AB7
:101CB000F94FE080F180B601D7FE02C0615C7F4F32
:101CC000B6E075956795BA95E1F7A701F7FE02C0F2
:101CD000415C5F4F86E0559547958A95E1F7809185
:101CE000E0069091E106F901EE0FFF1FE252F94F75
:101CF000A080B18064177507F9F0FC01F7FDFF962D
:101D0000B6E0F595E795BA95E1F7C501B7FCCF9632
:101D1000A6E095958795AA95E1F76417750744F4B1
:101D20008E179F070CF08ECFC9010E9440038ACF07
:101D3000E817F907CCF386CFE0E4F0E0BF010E949A
:101D4000661C4C01C501BF010E94661C5C01C601F6
:101D5000BF010E94661C6C01C701BF010E94661C86
:101D6000C816D90624F4A814B904F4F26BCF8A1467
:101D70009B040CF067CFD8CFC1014214530441F447
:101D80006091D2067091D306C20101960E94661C32
:101D9000F701EE0FFF1FEC0DFD1D86159705C1F035
:101DA00040E4E416F10461F15FEFE51AF50ADC01A5
:101DB000AA0FBB1FAE5AB94F2D913C91219331937D
:101DC00001966091D2067091D3060E94661CE5CF01
:101DD00060167106A9F080E4E816F1048CF4F701AE
:101DE000EE0FFF1FEC0DFD1DD301AA0FBB1FAE5A56
:101DF000B94F8D919C9191838083D70111967D017C
:101E0000A701B60180914E0690914F060E943D0BAE
:101E1000882309F490C06414750469F5E2ECF5E0D8
:101E200090E080E0A816B90641F00196D4012D910A
:101E30003D914D0121933193F5CFB0924D01A09288
:101E40004C01E2E5F6E090E080E0E816F90609F4DE
:101E5000FDC0CF56DF4FA881B981C159D0402D9127
:101E60003D91CF56DF4FB983A883C159D04021930C
:101E700031930196EACF6016710649F4C8010196C4
:101E80006091D2067091D3060E94661C8C01E2EC30
:101E9000F5E030E020E004151505C1F020343105EF
:101EA00059F12F5F3F4FD801AA0FBB1FAE5AB94F50
:101EB0008D919C9181939193C80101966091D20676
:101EC0007091D3060E94661C8C01E5CF02151305A4
:101ED00099F02034310581F0F901EE0FFF1FEE5328
:101EE000FA4FD801AA0FBB1FAE5AB94F8D919C91E2
:101EF000918380832F5F3F4FF501EE0FFF1FEC5260
:101F0000F94FD901AA0FBB1FAE53BA4F44ED56E0AB
:101F10004E175F0759F032972034310539F02F5FA3
:101F20003F4F848595858D939D93F2CF30934D01DE
:101F300020934C0186CFE2ECF5E0D60190E080E002
:101F40006414750409F03FC090E080E0A816B9065B
:101F500041F00196D4012D913D914D012193319392
:101F6000F5CFB0924D01A0924C016016710649F474
:101F7000C80101966091D2067091D3060E94661C3A
:101F80008C019601F12CE12C0415150551F1B0E4FA
:101F9000EB16F104F1F1EFEFEE1AFE0AF801EE0F85
:101FA000FF1FEE5AF94F80819181D9018D939D9346
:101FB0009D01C80101966091D2067091D3060E94DE
:101FC000661C8C01E1CFE816F90631F02D913D91A8
:101FD000219331930196F7CFF0924D01E0924C019D
:101FE000C4CF02151305A9F0B0E4EB16F10489F093
:101FF000D701AA0FBB1FAC0DBD1DF801EE0FFF1FCF
:10200000EE5AF94F808191818D939C93F70131961F
:102010007F01F501EE0FFF1FEC52F94FD701AA0F18
:10202000BB1FAC0DBD1D26E0E43DF20709F409CF4E
:10203000329740E4E416F10409F403CF5FEFE51AA8
:10204000F50A848595858D939D93EDCFF092D30607
:10205000E092D206F0E0E0E0A0E48A2E912C2091FC
:10206000D2063091D306E217F3070CF016CD2530D7
:1020700031050CF412CD5F01BFEFAB1ABB0ACF01E3
:102080000197820F931FB9010E94661CDC01AA0F01
:10209000BB1FAE5AB94FCD90DC90CF01880F991F6E
:1020A000AC014E5A594F3A01DA01ED90FC90C5014E
:1020B000B9010E94661CDC01AA0FBB1FAE5AB94FC2
:1020C0000D911C91C601D7FCCF9646E0959587955A
:1020D0004A95E1F7A701F7FE02C0415C5F4FB6E009
:1020E00055954795BA95E1F784179507E1F4A8014E
:1020F00017FF02C0415C5F4FA6E055954795AA9532
:10210000E1F78417950779F4D301CF012150310904
:1021100082179307ECF4019612964D915C911397F8
:102120004D935D93F5CFC601B4010E94661C6C010E
:10213000C701B4010E94661CC816D90639F4C8014B
:10214000B4010E94661CC816D906F1F2F50187CFCA
:102150003093D3062093D2065F01F8CFCF01F7FD6D
:10216000CF9646E0959587954A95E1F768167906EA
:1021700099F4C501B7010E94661C5C01CF01B7014B
:102180000E94661CA816B90639F46C2D85ED96E000
:102190000E9494096C2DDCCCAF01B9018091DE0660
:1021A0009091DF060E94BD0A882311F0602FEECFC8
:1021B00082017ACCCB56DF4F1882C559D040CCCCA7
:1021C0008091D40682958F7002E0813051F001E059
:1021D000823039F008E0843021F000E0883009F4E2
:1021E00004E08FE00827102FCF56DF4F9881C159A8
:1021F000D040923008F464C0292F30E0F9013197C3
:10220000C090DE06D090DF06D901AA0FBB1FA252F4
:10221000B94F8D919C91AC0197FF02C0415C5F4F1B
:10222000B6E055954795BA95E1F7B601D7FE02C0DD
:10223000615C7F4FA6E075956795AA95E1F77A01F5
:10224000E61AF70A1E141F041CF07B01E41AF50AB3
:1022500060E4A62EB12CB5010E94661C4C01C6019B
:10226000B5010E94661CA401481B590B14161506E3
:102270001CF0AC0148195909E40EF51EA3E0EA165A
:10228000F104F4F4EE0FFF1FE052F94F6081718109
:10229000220F331FF901E452F94F808191810E948E
:1022A000110A12E0813051F011E0823039F018E06B
:1022B000843021F010E0883009F414E010951023E8
:1022C00080910F0190911001A0911101B091120124
:1022D000C757DF4F88839983AA83BB83C958D040EF
:1022E00088E0E3E1F1E0DE01AF57BF4F01900D92CE
:1022F0008A95E1F788E0EBE1F1E0DE0111960190CB
:102300000D928A95E1F7FE01E757FF4F2F01F12C5F
:10231000E12CD2010D912D01802F812309F450C0B1
:102320008091DE069091DF06C157DF4F9983888345
:10233000CF58D040E1E8F0E0EC0FFD1FEE0DFF1D9F
:10234000C080D180B601CE0181579F4F0E94C10944
:10235000E1E0F0E0EC0FFD1FEE0DFF1DA080B1806D
:10236000B501CE0181579F4F0E949D096090D20612
:102370007090D30630E020E02615370584F549013A
:10238000BFEF8B1A9B0AC401B3010E94661CFC01BB
:10239000EE0FFF1FEE5AF94F40815181220F331F7C
:1023A000F901EE5AF94F60817181C157DF4F888181
:1023B0009981CF58D0400E94BD0A94018823E1F250
:1023C00082E0E80EF11C98E0E916F10409F0A1CFD3
:1023D0008091DC068073182B1093DC06E1CB3090E3
:1023E0002007E32DE150FF0B3F0130E020E02615F0
:1023F000370504F54901FFEF8F1A9F0AF901EE0F27
:10240000FF1FEE51F94F40815181220F331FF90117
:10241000E052F94F60817181C157DF4F8881998106
:10242000CF58D0400E94BD0A9401882301F3009543
:102430001023C6CF3320A9F04091DE065091DF066D
:10244000F301EE0FFF1FE052F94F60817181C15718
:10245000DF4F88819981CF58D0400E94BD0A8111F9
:10246000E6CFC157DF4F88819981CF58D040C357FD
:10247000DF4F99838883CD58D040B601CE01835772
:102480009F4F0E94C109B501CE0183579F4F0E9403
:102490009D0990902007492D4150550B6A0130E06D
:1024A00020E02C153D05F4F459015FEFA51AB50A9B
:1024B000F901EE0FFF1FEE51F94F40815181220FBC
:1024C000331FF901E052F94F60817181C357DF4F2B
:1024D00088819981CD58D0400E94BD0A95018823FA
:1024E00001F3A5CF992009F46BCF4091DE065091FE
:1024F000DF06F601EE0FFF1FE052F94F6081718198
:10250000C357DF4F88819981CD58D0400E94BD0AC2
:10251000882309F455CF8BCF1F920F920FB60F92DD
:1025200011248F939F938091E1009091E100937F1C
:102530009093E10083FF0FC01092E90091E0909327
:10254000EB001092EC0092E39093ED0010926F017B
:1025500098E09093F00082FF22C093E09093E9000E
:102560009091F200992319F09AE39093E8009091EA
:102570006001992341F09091600191509093600126
:10258000911101C05D9A90916E01992341F0909153
:102590006E01915090936E01911101C0289A84FFB1
:1025A00018C08091E2008E7E81608093E20080916D
:1025B000E1008F7E8093E100809161018E7E8061D9
:1025C000809361019F918F910F900FBE0F901F908C
:1025D000189580FFF7CF8091E2008E7E8061809316
:1025E000E2008091E1008E7E8093E10080916101A4
:1025F0008E7E8160E5CF1F920F920FB60F9211244D
:10260000CF92DF92EF92FF920F931F932F933F93FE
:102610004F935F936F937F938F939F93AF93BF93EA
:10262000EF93FF93CF93DF93CDB7DEB76C97DEBF09
:10263000CDBF1092E9008091E80083FF25C068E0DB
:10264000CE0145960E94F80482EF8093E8008D89C0
:1026500087FF39C09091E80090FFFCCF982F9076CB
:1026600009F034C19E894F89588D2F89F88C9111BA
:1026700031C0803861F580915F018093F100109244
:10268000F1008EEF8093E8006C960FB6F894DEBFF1
:102690000FBECDBFDF91CF91FF91EF91BF91AF9171
:1026A0009F918F917F916F915F914F913F912F916A
:1026B0001F910F91FF90EF90DF90CF900F900FBE82
:1026C0000F901F9018959EEF9093E800C7CF10923F
:1026D000F100D5CF913059F48111D3CF413051055C
:1026E00081F680915F018D7F80935F01CACF933027
:1026F00049F48111C6CF4130510519F680915F012F
:102700008260F2CF953041F48091E80080FFFCCFE9
:1027100020682093E300B5CF963009F0A9C00B8D57
:102720001C8D22E01092E90010925D0110925C0174
:10273000F2122EC010925B0110925A010E94C7043F
:102740001F8299E09983FA8291E09E8390EA9887AC
:102750009AEF998720915C0130915D01275F3F4F8F
:102760003C832B838D831092E90010925D011092BF
:102770005C0110935B0100935A0149E050E0BE01F7
:102780006F5F7F4F80E00E94A1040E94C70479CF51
:1027900010935B0100935A010E94AB03DC01129677
:1027A0000D911C910115110509F451C1D801ED914C
:1027B000FC910480F581E02DBE016B5E7F4FC80166
:1027C0000995009709F03EC1F80100851185EACF0F
:1027D000F3E0FF120EC08F89882309F440C08230D5
:1027E00061F440E867E082E296E00E946E048111A5
:1027F00048CF81E28093EB0047CF813029F440E855
:102800006BE086E196E0F1CF833099F70E94AB034D
:10281000DC011296ED90FC908E010F5F1F4F680156
:10282000E114F10479F0D701ED91FC910680F78174
:10283000E02DB801C7010995080F111DF701E084CB
:10284000F184EECFD8011C92F60101900020E9F747
:102850003197BF016C197D0940E0C601C6CF60E029
:1028600076E0FB01449150E080E80E94A10409CF8A
:10287000973009F4BECF983021F481E08093F100C5
:1028800000CF993009F0FDCE837009F0B2CFE4E2B9
:10289000F1E081E031E096E32191222371F0809311
:1028A000E9003093EB00DF0111972C912093EC00AD
:1028B0009093ED008F5F873079F78EE78093EA0081
:1028C0001092EA008F8980936F01DBCE8B8D9C8DF7
:1028D0001092E90010925D0110925C0190935B01EF
:1028E00080935A01898D811192C08E899D89913A78
:1028F00049F4813209F07DCF47E050E067E071E0B4
:1029000080E0B3CF913209F074CF833269F48F89BC
:10291000988DB0E0A0E08093030190930401A09310
:102920000501B0930601ADCE803269F48091E800D4
:1029300082FFFCCF67E087E091E00E94F8048BEF14
:102940008093E8009ECE823209F09BCE8F898093DF
:102950000E01EEEFFFE7859194918B3F9C4D51F175
:10296000E0E0F8E08091070190910801A091090151
:10297000B0910A01803B9440A105B105F1F480912A
:102980000E0180FD1AC0EE3F8AE0F80789F587E75F
:1029900097E7918380838091600080935E0188E156
:1029A0009BE00FB6F894A895809360000FBE9093BB
:1029B000600067CEEEEFFAE0D5CF80819181873756
:1029C000974709F05ECEA89580916000886180935A
:1029D000600080915E0180936000EE3F2AE0F20784
:1029E00089F08091FE0A9091FF0A9183808349CEFD
:1029F000808191818737980751F29093FF0A8093E5
:102A0000FE0AC5CF1092FF0A1092FE0A3ACE0E942B
:102A1000AB03DC0112960D911C910115110509F40F
:102A2000E8CED801ED91FC910190F081E02DBE013E
:102A30006B5E7F4FC8010995811123CEF801008597
:102A40001185EBCF181619060CF41BCED2CEF1E08F
:102A5000FF12BECE64E076E004CF1F920F920FB655
:102A60000F9211242F933F938F939F93AF93BF9314
:102A70008091520190915301A0915401B091550160
:102A80003091510123E0230F2D3758F50196A11DF8
:102A9000B11D209351018093520190935301A09353
:102AA0005401B09355018091560190915701A09126
:102AB0005801B09159010196A11DB11D8093560195
:102AC00090935701A0935801B0935901BF91AF91D2
:102AD0009F918F913F912F910F900FBE0F901F905C
:102AE000189526E8230F0296A11DB11DD2CF109292
:102AF00073051092720588EE93E0A0E0B0E0809339
:102B0000740590937505A0937605B09377058EE2D2
:102B100091E090937105809370058FEF9FEF9093F4
:102B20007D0580937C051092C1051092C00510921E
:102B3000D40682E490E09093D6068093D506109256
:102B4000D8061092D7061092DA061092D9068CE0B9
:102B50008093DB0683E08093DC061092DD06E0EED6
:102B6000F6E01192119287E0E032F807D1F7109267
:102B700020078FE390E19093DF068093DE06E2E585
:102B8000F6E01192119286E0E23DF807D1F784E079
:102B900090E09093D3068093D20610925306109241
:102BA00052068FE390E090935506809354068FEF82
:102BB0009FE1909357068093560680EC9FE1909397
:102BC00059068093580681E090E0909351068093D7
:102BD000500680E290E190934F0680934E0610924B
:102BE00044069093430680934206109247069093C2
:102BF00046068093450610924A06909349068093B4
:102C0000480610924D0690934C0680934B06E2ECDA
:102C1000F5E01192119286E0E234F807D1F70895B9
:102C2000CF93DF93CDB7DEB7CA54D1090FB6F8946E
:102C3000DEBF0FBECDBF789484B5826084BD84B5FD
:102C4000816084BD85B5826085BD85B5816085BDA7
:102C500080916E00816080936E001092810080915F
:102C600081008260809381008091810081608093E7
:102C7000810080918000816080938000809191002C
:102C80008260809391008091910081608093910097
:102C9000809190008160809390008091C100846059
:102CA0008093C1008091C10082608093C1008091B7
:102CB000C10081608093C1008091C30081608093D6
:102CC000C3008091C00082608093C0008091C200E8
:102CD00081608093C20080917A00846080937A0042
:102CE00080917A00826080937A0080917A0081607E
:102CF00080937A0080917A00806880937A001092A5
:102D00006F0110925F01109261018091D700816084
:102D10008093D70080EA8093D80089B5806189BD0F
:102D200089B5826089BD09B400FEFDCF61E070E025
:102D300080E090E00E942A058091D8008F7C80611D
:102D40008093D8008091E000807F8093E0008091A4
:102D5000E1008E7E8093E1008DE08093E200559A41
:102D6000209A81EC80937C0085B1806F85B984B115
:102D7000877E84B984B1876E84B95E9A5F988AB180
:102D8000806D8AB9769A6E9881B3806F81BB89987D
:102D900080B38D7080BB80E58CBD81E08DBD0E94CD
:102DA0005D055F9A0E945D055E985C98E1EBF5E039
:102DB0008EEB95E024912EBD00000DB407FEFDCFF3
:102DC00031968E179F07B1F75C9A81E88093640073
:102DD0008091650081608093650080E180930001AF
:102DE00080E0E0E7F1E081118FEF0024819381938F
:102DF000819381930394D1F710924401109243017F
:102E000010924201109241010E948A070E944F0ACB
:102E10008091DE069091DF060E94D7080E9422076B
:102E20000E946003E0E42E2E312C8FB7F89440917D
:102E300052015091530160915401709155018FBF1F
:102E400080914701882349F01092470120E030E04B
:102E5000232B59F30E940000E8CF80914801242FD2
:102E6000281B822F90910001291740F48F5F89174A
:102E700068F781E083BF889513BEE8CF81E0809337
:102E80004701409348018091450190914601019688
:102E9000909346018093450180914F01909150019C
:102EA00001968F3F910508F094C090935001809354
:102EB0004F0180910101909102018130910509F04B
:102EC00053C30E9461080E94150685FB552450F8E3
:102ED0000E94150686FF02C0689451F80E941506EC
:102EE00087FF02C0689452F80E94150684FF02C052
:102EF000689453F80E94150683FF02C0689454F842
:102F00000E94150682FF02C0689455F8352D3F7067
:102F100022963FAF22978091DD068F708095932F88
:102F200098238091D406992309F458C0807F892B77
:102F30008093D4065092DD068091DC06982F907322
:102F400031F4152D107309F055C010924B012091EA
:102F5000DC06822F807309F48DC190EEE92E96E095
:102F6000F92ECC24C394D12C80912007E82FF0E0D7
:102F7000CE16DF060CF01AC1D7010D911D917D010F
:102F8000FC9111964C918F2F942FB1010E94661CD9
:102F90009C018F2F942F97FDCF96FC0186E0F5952D
:102FA000E7958A95E1F7C801B1010E94661C17FFF9
:102FB00002C0015C1F4FAF01BC01C80116E095952E
:102FC00087951A95E1F70E943B06BFEFCB1ADB0A03
:102FD000CBCF1092500110924F016BCF22969FAD34
:102FE0002297982309F0A6CF807F22964FAD229793
:102FF000842B9ECF90914B019111A9CF0091D406C3
:10300000502F5F70452E09F4A2CF852309F09FCF82
:103010008091DE069091DF069A8389836FEF7FEFC0
:1030200000FD04C001FF06C061E070E0CE01019622
:103030000E94C1096FEF7FEF02FD04C003FF06C0CD
:1030400061E070E0CE0101960E949D098090D20659
:103050009090D306A40162E576E089819A810E946E
:103060003D0B882309F473CF8091DC06182B109355
:10307000DC0682E596E027969FAF8EAF279710E09B
:1030800000E0081519050CF071C02796AEADBFAD74
:103090002797AD90BD902796BFAFAEAF2797F801A9
:1030A00031962596FFAFEEAF2597CF01B4010E9470
:1030B000661C3C0128968FAF2897FC01EE0FFF1F7E
:1030C000EE5AF94FC080D180E090DE06F090DF0626
:1030D000A601B501C7010E94BD0A882309F45DC09D
:1030E0009701F7FE02C0215C3F4F66E035952795BA
:1030F0006A95E1F7C501B7FCCF9656E0959587959F
:103100005A95E1F72817390769F4C701B1010E9400
:10311000661CFC01C501B1010E94661CE817F90795
:1031200009F440C0C601D7FCCF9646E09595879537
:103130004A95E1F72817390769F4C701B1010E94E0
:10314000661C9C01C601B1010E94661C2817390744
:1031500009F48301602F87ED96E00E949409289678
:103160006FAD289787ED96E00E94160C8091DE06E1
:103170009091DF069093E1068093E00681E08093D2
:1031800020078091D4068F70F0E14F9E90011124AA
:10319000482E422A4092D406DACE25960EAD1FADB7
:1031A00025976FCF28960FAF2897D4CF882361F14A
:1031B000EE0FFF1FE252F94F40811181F090DE06C1
:1031C0000091DF068F2D902FB1010E94661C9C019B
:1031D000EF2DF02FF7FDFF96A6E0F595E795AA9560
:1031E000E1F7842F912FB1010E94661CA42FB12F0B
:1031F000B7FDDF96AF01BC01CD01E6E0959587955F
:10320000EA95E1F70E943B0654FE22C08091DC065D
:1032100084FF1EC080914F019091500163E070E0E7
:103220000E94521C892B19F481E00E94270C809186
:10323000010190910201019741F48091DE06909185
:10324000DF060E94D7080E9422070E946003FECD7D
:1032500055FEEDCF8091DC0685FFE9CF80914F01CF
:103260009091500165E070E00E94521C892BF9F6A4
:1032700080E0DBCF2296EFAD2297EE23C1F2809162
:103280004F019091500163E070E00E94521C892B25
:1032900071F60091DE061091DF06822F0E94EE0982
:1032A0002091DE063091DF06F90137FDFF9656E0EA
:1032B000F595E7955A95E1F7C80117FDCF9646E0D9
:1032C000959587954A95E1F7E817F90769F4C901DB
:1032D000B1010E94661C7C01C801B1010E94661CFC
:1032E000E816F90609F4A3CF8091D5069091D60689
:1032F000082F0F73802E912C66E0969587956A951E
:10330000E1F7182F1F73412E512CD401AA0FBB1FB8
:10331000AE5AB94F6D907C90D201AA0FBB1FAE5A26
:10332000B94FED90FC90C090D206D090D306C30167
:1033300077FCCF9656E0959587955A95E1F7E81773
:10334000F907C9F4C901B1010E94661C5C01C301FF
:10335000B1010E94661CA816B90669F4602F85EDBC
:1033600096E00E949409602F85ED96E00E94160C6D
:103370000E944F0A5CCFC701F7FCCF9646E09595B7
:1033800087954A95E1F7E817F90769F4C901B10192
:103390000E94661C9C01C701B1010E94661C28178F
:1033A000390709F48BC0A090DE06B090DF06A701B4
:1033B000B301C5010E94BD0A811120C0C40101975B
:1033C0008C0D9D1DB6010E94661C4C01FC01EE0F88
:1033D000FF1FEE5AF94F40815181B301C5010E9490
:1033E000BD0A882309F471C0602F85ED96E00E9424
:1033F0009409682D85ED96E00E94160C4091D50643
:103400005091D606E42FEF73BE2EE6E05695479511
:10341000EA95E1F74F73EB2DF0E0EE0FFF1FEE5A48
:10342000F94FE080F180E42FF0E0EE0FFF1FEE5A3D
:10343000F94F008111812091DE063091DF06F901FC
:1034400037FDFF9676E0F595E7957A95E1F7C701A8
:10345000F7FCCF9666E0959587956A95E1F7E817B2
:10346000F90769F4C901B1010E94661C6C01C7012A
:10347000B1010E94661CC816D90609F473C0C801C0
:1034800017FDCF9656E0959587955A95E1F7E81781
:10349000F90709F06DCFC901B1010E94661C9C01BA
:1034A000C801B1010E94661C2817390709F060CFD6
:1034B000642F85ED96E00E9494095ACF612F85ED27
:1034C00096E00E949409612F4FCFC2010196B60188
:1034D0000E94661C4C01FC01EE0FFF1FEE5AF94FD3
:1034E00040815181B701C5010E94BD0A811131C0DF
:1034F00002E5802E06E0902E10E000E00C151D0580
:103500000CF07CCFD4012D913D914D017801BFEF9E
:10351000EB1AFB0AC701B6010E94661CFC01EE0F04
:10352000FF1FEE5AF94F40815181B901C5010E9438
:10353000BD0A8823A9F0602F85ED96E00E949409CA
:103540006091D2067091D306C7010E94661C682F55
:103550000BCF682D85ED96E00E949409612F4ACF2C
:103560008701CCCF6B2D00CF029709F06ECE0E9461
:1035700061086090490170904A0177FC12C0830194
:10358000F0E46F1671047CF021E030E0309302012A
:103590002093010110924A01109249010E948A076A
:1035A0004CCE10E000E030914E0124963FAF2497BE
:1035B000A0904C01B0904D0122EC822E25E0922E7D
:1035C000D12CC12C512C412CCA14DB040CF480C02A
:1035D000FE01339621E030E0241535050CF4E7C0F8
:1035E000C80153E0959587955A95E1F7DC01B695AA
:1035F000BA2FAA27B795A7952996BFAFAEAF29973F
:10360000C80187709927E1E0F0E001C0EE0F8A95CC
:10361000EAF7E0952696EFAF26979E012F5F3F4F82
:1036200023963FAF2EAF2397AA24A394B12CA414C2
:10363000B5040CF01CC12396AEADBFAD2397ED9041
:10364000FC90119712968D909C90C7010196881559
:1036500099050CF0EEC08E189F0894012150310995
:10366000121613060CF0E5C00115110509F4E1C0AE
:103670002496BFAD2497BB2309F4E8C0280F392F47
:10368000311D121613060CF0B5C0803891050CF0F0
:10369000B1C097FF02C090E080E02138310514F0FE
:1036A00020E830E0281B2996EEADFFAD29978E0F5C
:1036B0009F1FFC01E059FE4F215008F49BC08191EF
:1036C000DF01119726963FAD269783238C93F4CF85
:1036D000D401ED91FD914D01BFEFCB1ADB0AC6017C
:1036E000B5010E94661CDC01AA0FBB1FAE53BA4F86
:1036F0004C9111963C91CF01B1010E94661C7C0156
:10370000842F932FB1010E94661CBC01C7016E1566
:103710007F050CF4CB01081719070CF455CFC7012E
:10372000E616F7060CF4CB01081719070CF04CCF7E
:10373000E616F70609F448CFF7FDFF9686E0F59503
:10374000E7958A95E1F7842F932F97FDCF969C01FB
:10375000B6E035952795BA95E1F7E217F30799F0AA
:10376000A8014E195F092E1B3F0B429FC001439FCA
:10377000900D529F900D11246E197F090E94661CB6
:103780009B012E0F3F1FE0E24E1651040CF01CCFA0
:10379000F201EE0FFF1F41E050E04C0F5D1FE40F00
:1037A000F51F31832083C20101962C010DCFDF016B
:1037B0006D917D916D01C9010197DF01FE90EE9041
:1037C0006E157F053CF4F182E0820197FD018F3F89
:1037D000980799F7FC013196EE0FFF1F41E050E08A
:1037E0004C0F5D1FE40FF51F718360832F5F3F4F08
:1037F000F601F2CECC24C394D12CA8014E0D5F1D4E
:103800002B965FAF4EAF2B97C7018C0D9D1D2B964E
:103810002EAD3FAD2B972C0D3D1D20FD04C041E08A
:10382000B8010E941D065FEFC51AD50A8C149D04CD
:1038300059F792E0A90EB11C2396AEADBFAD239708
:1038400014962396BFAFAEAF2397F1CECC24C3948A
:10385000D12C41E0B801C7018C0D9D1D0E941D06B1
:103860008FEFC81AD80A8C149D0499F7E2CFC301D0
:10387000019690934A0180934901803491050CF49C
:103880008DCEE1E0F0E0F0930201E09301011092AF
:103890004A01109249018091DE069091DF060E9454
:1038A000D7087CCEAA1BBB1B51E107C0AA1FBB1FB8
:1038B000A617B70710F0A61BB70B881F991F5A95BC
:1038C000A9F780959095BC01CD01089597FB072E2F
:1038D00016F4009407D077FD09D00E94521C07FC13
:1038E00005D03EF4909581959F4F08957095619510
:1038F0007F4F0895EE0FFF1F0590F491E02D09947E
:04390000F894FFCF69
:10390400100100FFFFFFFF00E100000000000001C4
:10391400020408FFFF01000000000000000000FF97
:10392400FF010000C1808100000000000000BF030F
:0C3934006305E003D5032604E40302044D
:00000001FF
