:100000000C9420030C9448030C9448030C9448036C
:100010000C9448030C9448030C9448030C94480334
:100020000C9448030C9448030C9450130C94BF1385
:100030000C9448030C9448030C9448030C94480314
:100040000C9448030C9448030C9448030C94480304
:100050000C9448030C9448030C9448030C94F11539
:100060000C9448030C9448030C9448030C944803E4
:100070000C9448030C9448030C9448030C944803D4
:100080000C9448030C9448030C9448030C944803C4
:100090000C9448030C9448030C9448030C944803B4
:1000A0000C9448030C9448030C9448032050885047
:1000B0002000000000003E5B4F5B3E3E6B4F6B3EFE
:1000C0001C3E7C3E1C183C7E3C181C577D571C1C5B
:1000D0005E7F5E1C00183C1800FFE7C3E7FF0018B6
:1000E000241800FFE7DBE7FF30483A060E2629799F
:1000F0002926407F050507407F05253F5A3CE73C00
:100100005A7F3E1C1C08081C1C3E7F14227F2214B0
:100110005F5F005F5F06097F017F006689956A6007
:100120006060606094A2FFA29408047E040810201E
:100130007E201008082A1C08081C2A08081E101017
:1001400010100C1E0C1E0C30383E3830060E3E0EC1
:1001500006000000000000005F000000070007002C
:10016000147F147F14242A7F2A1223130864623612
:10017000495620500008070300001C22410000419E
:10018000221C002A1C7F1C2A08083E0808008070D8
:10019000300008080808080000606000201008040B
:1001A000023E5149453E00427F400072494949465E
:1001B0002141494D331814127F1027454545393CDC
:1001C0004A494931412111090736494949364649C9
:1001D00049291E00001400000040340000000814EB
:1001E0002241141414141400412214080201590964
:1001F000063E415D594E7C1211127C7F49494936B9
:100200003E414141227F4141413E7F494949417F31
:10021000090909013E414151737F0808087F0041E7
:100220007F41002040413F017F081422417F404030
:1002300040407F021C027F7F0408107F3E41414105
:100240003E7F090909063E4151215E7F0919294671
:10025000264949493203017F01033F4040403F1F87
:100260002040201F3F4038403F63140814630304BC
:100270007804036159494D43007F4141410204081C
:100280001020004141417F040201020440404040EF
:1002900040000307080020545478407F2844443825
:1002A0003844444428384444287F3854545418006F
:1002B000087E090218A4A49C787F080404780044EE
:1002C0007D40002040403D007F1028440000417FD9
:1002D00040007C047804787C080404783844444462
:1002E00038FC1824241818242418FC7C080404085A
:1002F000485454542404043F44243C4040207C1C73
:100300002040201C3C4030403C44281028444C9065
:1003100090907C4464544C440008364100000077BF
:100320000000004136080002010204023C26232698
:100330003C1EA1A161123A4040207A3854545559CC
:100340002155557941215454784121555478402004
:10035000545579400C1E527212395555555939541D
:1003600054545939555454580000457C41000245B5
:100370007D420001457C40F0292429F0F028252801
:10038000F07C545545002054547C547C0A097F4924
:1003900032494949323248484832324A4848303A6C
:1003A0004141217A3A42402078009DA0A07D394405
:1003B0004444393D4040403D3C24FF2424487E498C
:1003C00043662B2FFC2F2BFF0929F620C0887E09BE
:1003D0000320545479410000447D413048484A325A
:1003E000384040227A007A0A0A727D0D19317D2642
:1003F00029292F28262929292630484D4020380828
:1004000008080808080808382F10C8ACBA2F1028A8
:1004100034FA00007B000008142A142222142A1443
:10042000089500220095AA005500AAAA55AA55AA27
:10043000000000FF00101010FF00141414FF001043
:1004400010FF00FF1010F010F0141414FC0014142E
:10045000F700FF0000FF00FF1414F404FC1414174D
:10046000101F10101F101F1414141F00101010F074
:10047000000000001F101010101F10101010F010BE
:10048000000000FF101010101010101010FF1000CE
:100490000000FF140000FF00FF00001F1017000005
:1004A000FC04F414141710171414F404F40000FFDF
:1004B00000F714141414141414F700F71414141778
:1004C0001410101F101F141414F4141010F010F056
:1004D00000001F101F0000001F14000000FC14008B
:1004E00000F010F01010FF10FF141414FF1410107F
:1004F000101F00000000F010FFFFFFFFFFF0F0F002
:10050000F0F0FFFFFF0000000000FFFF0F0F0F0FD4
:100510000F38444438447C2A2A3E147E02020606E0
:10052000027E027E0263554941633844443C0440E4
:100530007E201E2006027E020299A5E7A5991C2AAC
:10054000492A1C4C7201724C304A4D4D303048786B
:100550004830BC625A463D3E494949007E0101018E
:100560007E2A2A2A2A2A44445F444440514A44406D
:1005700040444A51400000FF0103E080FF000008B2
:10058000086B6B083612362436060F090F0600007A
:1005900018180000001010003040FF0101001F017A
:1005A000011E00191D1712003C3C3C3C00000000DD
:1005B00000D5F08D14A1C881CFD9F1AF200050A88B
:1005C00020A850A8708870A850A870A850A850A85B
:1005D00050A8080B000202020000090400000102FA
:1005E0000200000524001001052401010104240279
:1005F00006052406000107058103100040090401D7
:1006000000020A00000007050202400000070583FF
:10061000024000000403090412010002EF0201403D
:100620004123360000010102030141726475696EC5
:100630006F204C4C430041726475626F79003D1627
:1006400011241FBECFEFDAE0DEBFCDBF11E0A0E086
:10065000B1E0ECE6F1E402C005900D92AA34B107D6
:10066000D9F729E0AAE4B1E001C01D92A639B2078A
:10067000E1F713E0C0E2D3E004C02197FE010E943D
:10068000AE20CF31D107C9F70E9406170C94B420D1
:100690000C94000081E0809371071092770780919D
:1006A0007B07882379F08091790790917A0790935E
:1006B00073078093720780917C0780937407109270
:1006C0007B0708951092740780919309882341F065
:1006D00080912F099091300990937307809372074E
:1006E0000895BC0175956795A3E2B9E0880F991F3D
:1006F000FC01ED5DF64F90E080E0129632976817AE
:10070000790771F01A962D913C911B974485558578
:100710001B965C934E931A97358724870196EDCFED
:100720000895FC0180918A05882311F13FB7F89460
:1007300082E08093E9002091F200822F90E0181669
:10074000190614F481E090E0882339F0289844E6F3
:10075000409389054091F1004083222339F0209194
:10076000F200211103C02BE62093E8003FBF08955B
:100770008FEF9FEF08952FB7F89483E08093E900FF
:100780009091E800892F807295FF04C09091F2004B
:1007900080E4891B2FBF08958091810581110DC0D0
:1007A00082E080937D0584E080937E051092800531
:1007B00010927F0581E0809381058DE795E0089593
:1007C000CF93DF931F92CDB7DEB76983DC01ED9144
:1007D000FC910280F381E02D41E050E0BE016F5FAB
:1007E0007F4F09950F90DF91CF91089583E080931B
:1007F000E9008091F200882319F08AE38093E800F1
:1008000008950E94BB0390E00895CF93DF931F9259
:10081000CDB7DEB7FC018485958597FD08C02FEF25
:100820003FEF358724870F90DF91CF910895CE0158
:1008300001960E949103019719F4898190E0F3CF0A
:100840008FEF9FEFF0CF0F931F93CF93DF931F9204
:10085000CDB7DEB78C01FC018485958597FF0BC071
:10086000CE0101960E949103019771F4898190E075
:10087000F80195878487F801848595850F90DF912D
:10088000CF911F910F9108958FEF9FEFF1CFFC0152
:100890008485958597FD0BC09FB7F89482E080937F
:1008A000E9008091F2009FBF90E0019608959FB704
:1008B000F89482E08093E9008091F2009FBF90E07D
:1008C00008954091770550917805209175053091F4
:1008D000760542175307B4F49091E8009570E1F360
:1008E0009091E80092FD19C08093F1008091770506
:1008F0009091780501968F739927892B19F48EEFC3
:100900008093E80080917705909178050196909307
:1009100078058093770581E0089580E00895EF924F
:10092000FF920F931F93CF93DF93F82E192FE62E8C
:10093000042F81E0860F880F0E94610483E00E94EB
:100940006104CF2DD12FEC0EFD2EF11CCE15DF054D
:10095000B9F007FF13C0FE0184910E946104182FB3
:1009600080E00E946104812321968111EFCFDF9105
:10097000CF911F910F91FF90EF9008958881EDCF57
:1009800081E0F5CFDF92EF92FF920F931F93CF9309
:10099000DF93D82E8A01EB017B01E40EF51ECE1504
:1009A000DF0559F0D7FE12C0FE0184910E94610458
:1009B00021968111F4CF0FEF1FEFC801DF91CF9186
:1009C0001F910F91FF90EF90DF9008958881EECFF7
:1009D0000F931F93CF93DF931F92CDB7DEB782E0C3
:1009E000898342E450E062ED75E080E80E94C20431
:1009F0000E94CC03DC0112960D911C91011511058A
:100A000089F0D801ED91FC910280F381E02DBE01C7
:100A10006F5F7F4FC801099597FD04C0F8010085FD
:100A20001185ECCF89810F90DF91CF911F910F91AC
:100A30000895615030F02091F100FC01208301966F
:100A4000F8CF289884E68093890508953FB7F894F5
:100A50008091710590917205A0917305B091740514
:100A600026B5A89B05C02F3F19F00196A11DB11D09
:100A70003FBFBA2FA92F982F8827BC01CD01620F45
:100A8000711D811D911D42E0660F771F881F991F00
:100A90004A95D1F708958F929F92AF92BF92CF92CD
:100AA000DF92EF92FF926B017C010E9426054B01C1
:100AB0005C01C114D104E104F104B9F00E942605DF
:100AC000681979098A099B09683E73408105910577
:100AD00080F321E0C21AD108E108F10888EE880EFF
:100AE00083E0981EA11CB11CE4CFFF90EF90DF9033
:100AF000CF90BF90AF909F908F90089565E070E089
:100B000080E090E00C944B058F929F92AF92BF9241
:100B1000CF92DF92EF92FF920F931F93CF93DF93C9
:100B20006C017B018A0180910E01882309F45CC06D
:100B300080918A05882309F457C080917C0580FF45
:100B400005C08091E00082608093E000E801B12C54
:100B50008AEFA82E93E0892E2AE3922E209711F493
:100B6000BB20D9F10E94BB0381110AC0AA94AA201C
:100B7000D9F161E070E080E090E00E944B05EECF9B
:100B80008C171D0611F00CF08C2F9FB7F8948092F3
:100B9000E9002091E80025FD02C09FBFDFCF282F8C
:100BA00030E0C21BD30BF701815020F041914093FC
:100BB000F100FACFE20EF31EBB2021F09092E80084
:100BC000B12CEBCF8091E80085FDE7CF9092E80053
:100BD000BB24B394209709F3F3CF5D9884E6809308
:100BE0007B05101611063CF081E090E0F60193833E
:100BF000828310E000E0C801DF91CF911F910F9137
:100C0000FF90EF90DF90CF90BF90AF909F908F902C
:100C10000895AF92BF92CF92DF92EF92FF920F931F
:100C20001F93CF93DF936C017B018B01040F151F82
:100C3000EB015E01AE18BF08C017D10759F06991EA
:100C4000D601ED91FC910190F081E02DC60109954E
:100C5000892B79F7C501DF91CF911F910F91FF90FB
:100C6000EF90DF90CF90BF90AF9008958FB18095B7
:100C7000807F669B88601C9B84600895480F592F75
:100C8000511D14161506D4F580389105BCF597FF53
:100C900002C090E080E04138510514F040E850E097
:100CA000481BFB0177FD379633E0F595E7953A95BC
:100CB000E1F7F695FE2FEE27F795E795E80FF91F78
:100CC000E25BFE4F6770772781E090E001C0880FFC
:100CD0006A95EAF7382F213041F4415078F081913C
:100CE000DF011197832B8C93F8CF8095415030F022
:100CF0009191DF01119798239C93F8CF0895EEE42A
:100D0000F1E080E0A0E0B8E000800EBC8111012C91
:100D10001197A0FDFDCF0192B9F70DB40895462FAC
:100D2000477066956695669590E8699FB0011124B5
:100D3000625B7E4F860F972F911DFC01808190E0B2
:100D400021E030E0042E02C0220F331F0A94E2F7A4
:100D50008223932302C0959587954A95E2F70895DB
:100D600080389105B8F460347105A0F420E191E079
:100D700061FD94E060FD990F62FD9295687F269F6A
:100D8000D0011124A80FA25BBE4F8C9140FF03C07D
:100D9000892B8C93089590958923FBCF2F923F92B6
:100DA0004F925F926F927F928F929F92AF92BF927B
:100DB000CF92DF92EF92FF920F931F93CF93DF9327
:100DC000EC018B017A016901C61AD70AD7FE03C06C
:100DD000D194C194D10847018C1A9D0A97FE03C093
:100DE0009194819491088C149D0454F49E2D8F2D20
:100DF0007901292F382F9C2F8D2FE801092F182FCB
:100E0000EC16FD0654F4902F812F8901292F382FDD
:100E10009C2F8D2FE701E92EF82E17012C1A3D0A81
:100E20002901401A510A57FE03C0519441945108B8
:100E3000310137FE03C08FEF681A780A7594679402
:100E40008FEF021713070CF481E0A82E880FBB0860
:100E5000EC16FD06A4F041E0BE01C8018C149D040F
:100E600014F0B801CE010E94B0066418750877FE30
:100E700004C00A0D1B1D620C731C2196E9CFDF9183
:100E8000CF911F910F91FF90EF90DF90CF90BF9087
:100E9000AF909F908F907F906F905F904F903F901A
:100EA0002F9008958F929F92AF92BF92CF92DF9230
:100EB000EF92FF920F931F93CF93DF936D3089F0E2
:100EC000C0905005D09051056A30D1F410924F0572
:100ED00010924E0588E0C80ED11CD0925105C092E8
:100EE000500581E090E0DF91CF911F910F91FF902D
:100EF000EF90DF90CF90BF90AF909F908F9008952C
:100F000000914E0510914F05E5E06E9FE001112420
:100F1000CF54DF4F4801F12CF5E0E12CFF1629F00A
:100F2000CE010196FE01E490EC01B12CA12C4E2DD6
:100F30004170B6016A0D7B1DC4010E94B006E694A3
:100F4000FFEFAF1ABF0A88E0A816B10481F7F39447
:100F5000EFEF8E1A9E0AF6E0FF12DECF0A5F1F4FF8
:100F600010934F0500934E05BCCF6F927F928F92E6
:100F70009F92AF92BF92CF92DF92EF92FF920F9328
:100F80001F93CF93DF938091DD059091DE05EC01F7
:100F900097FDEF9626E0D595C7952A95E1F76E0166
:100FA00022E0C21AD10860E470E00E949A207C011D
:100FB00022E0E21AF108882499248C1A9D0A3C0147
:100FC00023E0620E711C23968601540182E0A80E74
:100FD000B11C00381105D8F420E4E216F104B8F48D
:100FE0004091590550915A0560915B0570915C05DF
:100FF000C501800F911F04C0769567955795479559
:101000008A95D2F74170B701C8010E94B0060F5F00
:101010001F4F0C171D07E9F68FEFE81AF80A25E0B5
:10102000820E911CE614F70479F610926605DF91A2
:10103000CF911F910F91FF90EF90DF90CF90BF90D5
:10104000AF909F908F907F906F9008956F927F9256
:101050008F929F92AF92BF92CF92DF92EF92FF92C8
:101060000F931F93CF93DF9380912D0990912E09B9
:10107000EC0197FDEF9626E0D595C7952A95E1F707
:1010800060E470E00E949A203CEAC32E30E0D32E48
:101090008C01025011093C0123E0620E711C40E8F2
:1010A000842E912C2297F601A490F12CE12CB12CE6
:1010B000C4010E2C02C0959587950A94E2F78A2107
:1010C0009B21892B69F0CE018E0D9F1D80389105E3
:1010D00038F40034110520F441E0B8010E94B00654
:1010E000FFEFEF1AFF0A25E0E216F10409F78FEF90
:1010F000C81AD80A0F5F1F4F06151705A1F6DF9112
:10110000CF911F910F91FF90EF90DF90CF90BF9004
:10111000AF909F908F907F906F9008958F929F9245
:10112000AF92BF92CF92DF92EF92FF920F931F93F5
:10113000CF93DF9371E9C72E77E0D72EF12CE12C06
:10114000E0E4AE2EB12C6091210970912209E616DF
:10115000F7060CF076C0F601019111916F01FFEFD7
:10116000EF1AFF0AC7010E949A20FC01EE0FFF1F31
:10117000EF56F84FC0814181C801B5010E949A2005
:10118000FC018C2F942FB5010E949A2017FF02C0FA
:10119000015C1F4F56E0159507955A95E1F72C2FE6
:1011A000342F37FF02C0215C3F4F46E0359527952D
:1011B0004A95E1F7E817F907C1F4C901801B910BC3
:1011C000422F401B1816190614F0402F421BE03422
:1011D000F10508F0B8CFC901021713070CF4C801D4
:1011E00021E0BF010E943E06AECF2017310709F073
:1011F000AACF9C012E1B3F0B882E8E1A12161306A7
:1012000014F08E2E881A8E179F070CF4FC018E0E98
:101210009F2E911CEF01F7FF02C0D0E0C0E0C40197
:1012200021E48216910414F080E490E0C817D907F5
:101230000CF089CF41E0BE01C8010E94B0062196A2
:10124000EECFDF91CF911F910F91FF90EF90DF9044
:10125000CF90BF90AF909F908F9008956F927F92A4
:101260008F929F92AF92BF92CF92DF92EF92FF92B6
:101270000F931F93CF93DF9380915605882309F432
:1012800054C08091DF059091E005EC0197FDEF9649
:1012900026E0D595C7952A95E1F76E0122E0C21A9E
:1012A000D10860E470E00E949A207C0122E0E21AFA
:1012B000F108882499248C1A9D0A3C0123E0620ECF
:1012C000711C23968601540182E0A80EB11C0038DF
:1012D0001105D8F420E4E216F104B8F440914A0173
:1012E00050914B0160914C0170914D01C501800FEF
:1012F000911F04C076956795579547958A95D2F7C3
:101300004170B701C8010E94B0060F5F1F4F0C1754
:101310001D07E9F68FEFE81AF80A25E0820E911C06
:10132000E614F70479F610925605DF91CF911F91DC
:101330000F91FF90EF90DF90CF90BF90AF909F9074
:101340008F907F906F9008952F923F924F925F926F
:101350006F927F928F929F92AF92BF92CF92DF92C5
:10136000EF92FF920F931F93CF93DF939093E0053B
:101370008093DF0521E02093560510924A011092D8
:101380004B0110924C0110924D018C0197FF02C04D
:10139000015C1F4F26E0159507952A95E1F7180186
:1013A00022E0221A310860E470E00E949A20EC01E9
:1013B0002297D12CC12C280183E0480E511C812C8E
:1013C000912C54018394710125E02C9D30012D9DB9
:1013D000700C1124601A710A82E0680E711C20E8FA
:1013E000E216F10448F5C034D10530F56C2F8E2D8E
:1013F0000E948F06882301F1C3018E0D9F1DB50148
:10140000A40104C0440F551F661F771F8A95D2F7A9
:1014100080914A0190914B01A0914C01B0914D01F6
:10142000842B952BA62BB72B80934A0190934B01CD
:10143000A0934C01B0934D018FEFE81AF80A4E14B7
:101440005F0469F62FEFC21AD20A219685E0C8160A
:10145000D10409F0B8CFDF91CF911F910F91FF9088
:10146000EF90DF90CF90BF90AF909F908F907F9044
:101470006F905F904F903F902F900895FC012081D6
:10148000762F622F7183608308951F93CF93DF932C
:10149000EC01FB0118814981812F942F60E470E0F9
:1014A0000E949A20E80FF91F212F342F37FF02C026
:1014B000215C3F4F207CE034F10540F42E0F3F1FAC
:1014C00039832883DF91CF911F910895280F391F09
:1014D000F7CFCF93DF93EC01888199819C0197FF2F
:1014E00002C0215C3F4FE6E035952795EA95E1F78C
:1014F000FB01E20FF31F60E470E00E949A20E038E5
:10150000F10560F456E0EE0FFF1F5A95E1F78E0FDC
:101510009F1F99838883DF91CF91089546E0220F22
:10152000331F4A95E1F7820F931FF3CFCF93DF93D9
:10153000C0912D09D0912E0990912309292F2F7048
:10154000822361F06FEF7FEF90FD04C091FF35C003
:1015500061E070E08DE299E00E94690A20912D0916
:1015600030912E09AE01D7FF02C0415C5F4F76E09B
:10157000559547957A95E1F7C90137FDCF9666E015
:10158000959587956A95E1F74817590771F4E0E456
:10159000F0E0CE01BF010E949A20EC01C901BF0119
:1015A0000E949A20C817D907A9F0109295091092A5
:1015B000940981E0DF91CF9108956FEF7FEF92FD65
:1015C00004C093FFCBCF61E070E08DE299E00E9410
:1015D000450AC4CF80E0EECF089590E080E0089502
:1015E0000F931F93CF93DF93FC01CB01AB0177FFE8
:1015F00002C0415C5F4F76E0559547957A95E1F7DB
:101600009F01F7FF02C0215C3F4F66E035952795AB
:101610006A95E1F742175307C4F024173507BCF465
:1016200022E000E410E0B8010E949A20EC01CF0112
:10163000B8010E949A20C817D9075CF42460822F51
:10164000DF91CF911F910F91089521E0EACF20E023
:10165000E8CF8C179D079CF72860F1CFCF92DF92DF
:10166000EF92FF920F931F93CF93DF9310922B096A
:10167000E0912409F0912509CF019927DC01AA0FF7
:10168000BB1FAF56B84F0D911C912F2F30E0D901E1
:10169000AA0FBB1FAF56B84FCD91DC91E090210946
:1016A000F090220901978E0D9F1DB7010E949A208C
:1016B000DC01AA0FBB1FAF56B84FCD90DC90C9011B
:1016C0000196B7010E949A20DC01AA0FBB1FAF56FA
:1016D000B84FED90FC90FE1315C0B601C8010E94F2
:1016E000F00AC82FB701C8010E94F00A8C2B809322
:1016F0002B09DF91CF911F910F91FF90EF90DF9019
:10170000CF900895E0902D09F0902E09B801C701FF
:101710000E94F00A182FBE01C7010E94F00A812B17
:10172000E6CFCF92DF92EF92FF920F931F93CF936A
:10173000DF939C01CB017A018B0177FF02C0015C32
:101740001F4F76E0159507957A95E1F7F701F7FCBD
:10175000FF9656E0F595E7955A95E1F760E4C62EB9
:10176000D12CB6010E949A20EC01C701B6010E945B
:101770009A207C018C179D070CF44EC00E171F0792
:10178000F9F4FC01C90137FDCF9646E095958795A0
:101790004A95E1F70817190789F4C90160E470E078
:1017A0000E949A209C01EC16FD060CF4E7012C1710
:1017B0003D0724F081E0E217F3072CF580E023C019
:1017C000C817D907D9F7C901B6010E949A20C817CE
:1017D000D907A1F737FF02C0215C3F4F86E035955E
:1017E00027958A95E1F7C801E017F1070CF4CF01BE
:1017F000281739071CF30E171F070CF48F0181E01F
:1018000002171307DCF2DF91CF911F910F91FF9028
:10181000EF90DF90CF9008950E171F0779F6FE0125
:10182000B1CF3F924F925F926F927F928F929F9231
:10183000AF92BF92CF92DF92EF92FF920F931F93DE
:10184000CF93DF93382F292F6B015A0160E470E0AA
:101850000E949A20EC01632E722E77FE03C08FE364
:10186000680E711C06E0759467940A95E1F72601ED
:10187000F12CE12CF0E0E0E080E4882E912CEA14D9
:10188000FB040CF091C0D2012D913D912D01BFEFD1
:10189000EB1AFB0AC701B5010E949A20DC01AA0FCE
:1018A000BB1FAC0DBD1D4C9111963C90C901B401FC
:1018B0000E949A208C01842F932DB4010E949A20BB
:1018C000C017D107CCF1C817D907CCF637FF02C033
:1018D000215C3F4FB901B6E075956795BA95E1F780
:1018E000242F332D37FF02C0215C3F4FA6E03595F2
:1018F0002795AA95E1F7261B370BAE01401B510B2C
:10190000249FD001259FB00D349FB00D1124AC0150
:10191000401B510B9301261B370B429FC001439F75
:10192000900D529F900D1124A81BB90B1A161B067F
:101930000CF0A5CF3196A3CFC817D9070CF49FCFD1
:1019400037FF02C0215C3F4FB90156E0759567959E
:101950005A95E1F7242F332D37FF02C0215C3F4F0A
:1019600046E0359527954A95E1F7261B370BAE01E2
:10197000401B510B249FD001259FB00D349FB00D0B
:101980001124AC01401B510B9301261B370B429FC6
:10199000C001439F900D529F900D1124A81BB90BBD
:1019A000B7FF6DCF31976BCF81E0EF2B09F480E06B
:1019B000DF91CF911F910F91FF90EF90DF90CF902B
:1019C000BF90AF909F908F907F906F905F904F905F
:1019D0003F9008952F923F924F925F926F927F9225
:1019E0008F929F92AF92BF92CF92DF92EF92FF922F
:1019F0000F931F93CF93DF93CDB7DEB7C259D1407A
:101A00000FB6F894DEBF0FBECDBF90919309923010
:101A1000E0F410929309CE56DE4F0FB6F894DEBF75
:101A20000FBECDBFDF91CF911F910F91FF90EF902F
:101A3000DF90CF90BF90AF909F908F907F906F90EE
:101A40005F904F903F902F9008950091260910913C
:101A500027096801DD24012F11277801409028090A
:101A60005090290942019924452C5524A92EB12CC6
:101A70008C149D0494F5C5010E9471038201270115
:101A80009C2D8D2D6401892E982EFE0131965F01CB
:101A9000CE018F569E4F11921192E817F907D9F790
:101AA000BFE22B2EB9E03B2ECF56DE4FB982A88283
:101AB000C159D140F501D101F12CE12C609093097D
:101AC000712CE614F7040CF080C02FEFE21AF20A32
:101AD0008D919D9181939193F1CFC814D904A9F66A
:101AE000F601EE0FFF1FEF56F84F0190F081E02D49
:101AF000D801AA0FBB1FAF56B84FED90FC90AF01B5
:101B0000F7FF02C0415C5F4F96E0559547959A9567
:101B1000E1F79701F7FE02C0215C3F4FA6E0359543
:101B20002795AA95E1F7D501AA0FBB1FA35DB64F74
:101B30008C9111969C9130902F0920903009241798
:101B4000350711F1BC0177FF02C0615C7F4FF6E001
:101B500075956795FA95E1F7832D922D97FDCF96B0
:101B6000E6E095958795EA95E1F74217530744F427
:101B7000681779070CF089CFC5010E94710385CFE2
:101B800086179707CCF381CF20E430E0B9010E949B
:101B90009A203C01832D922DB9010E949A201C01AC
:101BA000C701B9010E949A207C01CF01B9010E94AE
:101BB0009A208E159F0524F462147304ECF265CF0D
:101BC000261437040CF061CFD7CFC20184149504DA
:101BD00041F46091210970912209C40101960E948B
:101BE0009A20F701EE0FFF1FEA0DFB1D8C159D05D6
:101BF000C1F048ECE416F10461F15FEFE51AF50A73
:101C0000DC01AA0FBB1FAF56B84F2D913C91219319
:101C10003193019660912109709122090E949A20C6
:101C2000E5CFC016D106A9F088ECE816F1048CF4D3
:101C3000F701EE0FFF1FEA0DFB1DD601AA0FBB1F18
:101C4000AF56B84F8D919C9191838083D7011196A7
:101C50007D01A701B50180918D0790918E070E94AB
:101C6000110C882309F490C0C814D90469F5E1EE79
:101C7000F5E090E080E06816790641F00196D10128
:101C80002D913D911D0121933193F5CF70926805FF
:101C900060926705E1E9F7E090E080E0E816F90678
:101CA00009F4FEC0CF56DE4FA881B981C159D14099
:101CB0002D913D91CF56DE4FB983A883C159D140B4
:101CC000219331930196EACFC016D10649F4C80199
:101CD000019660912109709122090E949A208C013D
:101CE000E1EEF5E030E020E008151905C1F0283CF0
:101CF000310559F12F5F3F4FD801AA0FBB1FAF56D7
:101D0000B84F8D919C9181939193C80101966091F8
:101D10002109709122090E949A208C01E5CF0415B7
:101D2000150599F0283C310581F0F901EE0FFF1FF0
:101D3000EF51FA4FD801AA0FBB1FAF56B84F8D9184
:101D40009C91918380832F5F3F4FF301EE0FFF1F24
:101D5000ED5DF64FD901AA0FBB1FAF51BA4F43E259
:101D600059E04E175F0759F03297283C310539F09A
:101D70002F5F3F4F848595858D939D93F2CF309350
:101D800068052093670586CFE1EEF5E0D50190E088
:101D900080E0C814D90409F03FC090E080E06816E4
:101DA000790641F00196D1012D913D911D012193BC
:101DB0003193F5CF7092680560926705C016D10621
:101DC00049F4C801019660912109709122090E948D
:101DD0009A208C019501F12CE12C0815190551F17F
:101DE000B8ECEB16F104F1F1EFEFEE1AFE0AF80190
:101DF000EE0FFF1FEF56F84F80819181D9018D932F
:101E00009D939D01C801019660912109709122095D
:101E10000E949A208C01E1CFE816F90631F02D914D
:101E20003D91219331930196F7CFF0926805E092AE
:101E30006705C4CF04151505A9F0B8ECEB16F1043D
:101E400089F0D701AA0FBB1FAA0DBB1DF801EE0F29
:101E5000FF1FEF56F84F808191818D939C93F7017E
:101E600031967F01F301EE0FFF1FED5DF64FD701B5
:101E7000AA0FBB1FAA0DBB1D23E239E02E173F0797
:101E800009F408CF329748ECE416F10409F402CFC4
:101E90005FEFE51AF50A848595858D939D93EECFC6
:101EA000F0922209E0922109F0E0E0E090E4892E2E
:101EB000912C2091210930912209E217F3070CF0AF
:101EC00077C0253031050CF473C05F01BFEFAB1A4A
:101ED000BB0ACF010197820F931FB9010E949A207C
:101EE000DC01AA0FBB1FAF56B84FCD90DC90CF01DD
:101EF000880F991FAC014F56584F3A01DA01ED9007
:101F0000FC90C501B9010E949A20DC01AA0FBB1FF9
:101F1000AF56B84F0D911C91C601D7FCCF96A6E0E5
:101F200095958795AA95E1F7A701F7FE02C0415C58
:101F30005F4F76E0559547957A95E1F784179507B9
:101F4000E1F4A80117FF02C0415C5F4F66E05595C0
:101F500047956A95E1F78417950779F4D301CF0186
:101F60002150310982179307ECF4019612964D9196
:101F70005C9113974D935D93F5CFC601B4010E9418
:101F80009A206C01C701B4010E949A20C816D90694
:101F900039F4C801B4010E949A20C816D906F1F29A
:101FA000F50187CF30932209209321095F01F8CFF3
:101FB0001092930980917B07811110927B07809189
:101FC0006605882309F427CDCE56DE4F0FB6F89468
:101FD000DEBF0FBECDBFDF91CF911F910F91FF905C
:101FE000EF90DF90CF90BF90AF909F908F907F90B9
:101FF0006F905F904F903F902F900C94B5072F9269
:102000003F924F925F926F927F928F929F92AF9288
:10201000BF92CF92DF92EF92FF920F931F93CF93D5
:10202000DF93CDB7DEB7A0970FB6F894DEBF0FBE33
:10203000CDBF88A320912309922F9F7080912B09F7
:10204000392F382309F122952F70A9F0921799F0B2
:1020500020919309223378F440912D0950912E0953
:10206000E22FF0E0EE0FFF1FE15DF64F518340835A
:102070002F5F2093930940E1949F90011124922BAC
:10208000909323090E94960A80919309898F88234F
:1020900009F480C1E0902D09F0902E093701F7FE78
:1020A00003C09FE3690E711C56E0759467945A95BE
:1020B000E1F720912F0930913009C90137FDCF9602
:1020C00046E0959587954A95E1F76816790679F483
:1020D000E0E4F0E0C701BF010E949A208C01C90131
:1020E000BF010E949A200817190709F453C12090D4
:1020F000210930902209E1E9F7E0FC8FEB8FFE8F98
:10210000ED8F10E000E0021513050CF043C1ED8DDA
:10211000FE8DA190B190FE8FED8F2801FFEF4F1A39
:102120005F0AC201B1010E949A204C018F8FFC010D
:10213000EE0FFF1FEF56F84FC080D180A601B5010A
:1021400080912D0990912E090E94910B8A8F8823EE
:10215000A1F1C501B7FCCF9616E0959587951A9524
:10216000E1F76816790671F420E430E0C701B9019F
:102170000E949A20FC01C501B9010E949A20E8172B
:10218000F907E9F0C601D7FCCF96B6E0959587959B
:10219000BA95E1F76816790699F420E430E0C701B2
:1021A000B9010E949A20FC01C601B9010E949A203F
:1021B000E817F90729F4840103C08201A4CF0F8F27
:1021C000009328096F8D88E299E00E943E0A809171
:1021D0009309823378F420912D0930912E09E82F4C
:1021E000F0E0EE0FFF1FE15DF64F318320838F5F3C
:1021F000809393090E94EA0C10E000E0E0E4EE2EE8
:10220000F12C6091210970912209061717070CF033
:10221000BFC0EB8DFC8D21913191FC8FEB8F28019C
:10222000FFEF4F1A5F0AC2010E949A206C01FC0165
:10223000EE0FFF1FEF56F84F0190F081E02DA090B8
:102240002D09B0902E093501B7FE03C04FE3640E8F
:10225000711C66E0759467946A95E1F7C90137FDD2
:10226000CF9656E0959587955A95E1F768167906C9
:1022700009F052C0C501B7010E949A204C01C90162
:10228000B7010E949A208816990609F045C08091EE
:102290002409909125098827802B912B909325095B
:1022A00080932409602F84E299E00E943E0A82E034
:1022B00090E09093020180930101109258051092D2
:1022C000570588A1809369050E942E099A8D911166
:1022D00005C080912B098F7C80932B0981E080932E
:1022E00065050E942E0BA0960FB6F894DEBF0FBEB8
:1022F000CDBFDF91CF911F910F91FF90EF90DF90B5
:10230000CF90BF90AF909F908F907F906F905F9095
:102310004F903F902F900895CF01F7FDCF9646E064
:10232000959587954A95E1F768167906C9F4C50130
:10233000B7010E949A205C01CF01B7010E949A2048
:10234000A816B90669F48091240990912509882777
:102350008C299D2990932509809324096C2DA3CF66
:10236000AF01B90180912D0990912E090E94910B26
:10237000882361F080912409909125098827082BF2
:10238000192B1093250900932409E8CF820139CF36
:102390001A8E8DCF8091230982958F7012E0813043
:1023A00051F011E0823039F018E0843021F014E06F
:1023B000883009F010E08FE01827512EE98DE230C7
:1023C00008F465C02E2F30E0F9013197C0902D0937
:1023D000D0902E09D901AA0FBB1FA35DB64F8D91D6
:1023E0009C91AC0197FF02C0415C5F4FB6E05595F0
:1023F0004795BA95E1F7B601D7FE02C0615C7F4F01
:10240000A6E075956795AA95E1F77A01E61AF70AAD
:102410001E141F041CF07B01E41AF50A60E4A62ECA
:10242000B12CB5010E949A204C01C601B5010E9451
:102430009A20A401481B590B141615061CF0AC0178
:1024400048195909E40EF51E43E0E416F104FCF4C2
:10245000EE0FFF1FE15DF64F60817181220F331F88
:10246000F901E55DF64F808191810E94F00A81308B
:1024700009F48CC0823009F48BC0843009F48AC01E
:10248000883009F089C084E0582E50945122809100
:102490000F0190911001A0911101B0911201898B4F
:1024A0009A8BAB8BBC8B88E0E3E1F1E0DE011996FF
:1024B00001900D928A95E1F788E0EBE1F1E0DE0111
:1024C000119601900D928A95E1F71E0181E1280E87
:1024D000311C10E000E0F10141901F01842D8521A5
:1024E00009F447C080912D0990912E09988F8F8B08
:1024F000E9E0F0E0EC0FFD1FE00FF11FC080D1809C
:10250000B601CE0147960E94690AE1E0F0E0EC0FC7
:10251000FD1FE00FF11FA080B180B501CE014796ED
:102520000E94450A809021099090220930E020E025
:10253000EF88F88C281539058CF53901FFEF6F1AF3
:102540007F0AC301B4010E949A20FC01EE0FFF1F15
:10255000EF56F84F40815181220F331FF901EF569A
:10256000F84F60817181C7010E94910B930188230C
:10257000F9F20E5F1F4F0830110509F0ACCF8091C2
:102580002B098073582A50922B09ADCE82E07CCF64
:1025900081E07ACF88E078CF80E076CF40919309D0
:1025A000498F842F8150990B4C0130E020E0281591
:1025B0003905E4F439019FEF691A790AF901EE0F40
:1025C000FF1FEF5CF64F40815181220F331FF9014D
:1025D000E15DF64F60817181C7010E94910B93010B
:1025E000882329F3842D80955822C3CF498D442315
:1025F00081F040912D0950912E09F401EE0FFF1F3B
:10260000E15DF64F60817181C7010E94910B8111DC
:10261000E9CFFE8AED8AB601CE0145960E94690A8D
:10262000B501CE0145960E94450AB0909309EB2D65
:10263000E150FF0B7F0130E020E02E153F05D4F480
:102640006901FFEFCF1ADF0AF901EE0FFF1FEF5C00
:10265000F64F40815181220F331FF901E15DF64FA2
:10266000608171818D899E890E94910B96018823DA
:1026700021F3B8CFBB2009F47CCF40912D095091B4
:102680002E09F701EE0FFF1FE15DF64F60817181AA
:102690008D899E890E94910B882309F46ACFA2CF6D
:1026A0001F920F920FB60F9211248F939F938091D8
:1026B000E1009091E100937F9093E10083FF0FC0D0
:1026C0001092E90091E09093EB001092EC0092E3FD
:1026D0009093ED0010928A0598E09093F00082FFAD
:1026E00022C093E09093E9009091F200992319F0B1
:1026F0009AE39093E80090917B05992341F09091A3
:102700007B05915090937B05911101C05D9A90914A
:102710008905992341F090918905915090938905FD
:10272000911101C0289A84FF18C08091E2008E7E2A
:1027300081608093E2008091E1008F7E8093E100D0
:1027400080917C058E7E806180937C059F918F9126
:102750000F900FBE0F901F90189580FFF7CF8091BC
:10276000E2008E7E80618093E2008091E1008E7EA7
:102770008093E10080917C058E7E8160E5CF1F9281
:102780000F920FB60F921124CF92DF92EF92FF9229
:102790000F931F932F933F934F935F936F937F9369
:1027A0008F939F93AF93BF93EF93FF93CF93DF9359
:1027B000CDB7DEB76C97DEBFCDBF1092E900809138
:1027C000E80083FF25C068E0CE0145960E94190508
:1027D00082EF8093E8008D8987FF39C09091E800EF
:1027E00090FFFCCF982F907609F034C19E894F89D5
:1027F000588D2F89F88C911131C0803861F5809106
:102800007A058093F1001092F1008EEF8093E8003A
:102810006C960FB6F894DEBF0FBECDBFDF91CF919F
:10282000FF91EF91BF91AF919F918F917F916F91A8
:102830005F914F913F912F911F910F91FF90EF90DA
:10284000DF90CF900F900FBE0F901F9018959EEFC6
:102850009093E800C7CF1092F100D5CF913059F492
:102860008111D3CF4130510581F680917A058D7F5A
:1028700080937A05CACF933049F48111C6CF413095
:10288000510519F680917A058260F2CF953041F4B6
:102890008091E80080FFFCCF20682093E300B5CF53
:1028A000963009F0A9C00B8D1C8D22E01092E90032
:1028B0001092780510927705F2122EC010927605CC
:1028C000109275050E94E8041F8299E09983FA82AC
:1028D00091E09E8390EA98879AEF998720917705F7
:1028E00030917805275F3F4F3C832B838D83109277
:1028F000E900109278051092770510937605009301
:10290000750549E050E0BE016F5F7F4F80E00E9497
:10291000C2040E94E80479CF1093760500937505F0
:102920000E94CC03DC0112960D911C91011511053A
:1029300009F451C1D801ED91FC910480F581E02D9D
:10294000BE016B5E7F4FC8010995009709F03EC13B
:10295000F80100851185EACFF3E0FF120EC08F89E0
:10296000882309F440C0823061F440E867E086E3E0
:1029700096E00E948F04811148CF81E28093EB00A2
:1029800047CF813029F440E86BE08AE296E0F1CF4E
:10299000833099F70E94CC03DC011296ED90FC90F5
:1029A0008E010F5F1F4F6801E114F10479F0D70128
:1029B000ED91FC910680F781E02DB801C7010995E2
:1029C000080F111DF701E084F184EECFD8011C92AD
:1029D000F60101900020E9F73197BF016C197D09DC
:1029E00040E0C601C6CF64E176E0FB01449150E0CF
:1029F00080E80E94C20409CF973009F4BECF983016
:102A000021F481E08093F10000CF993009F0FDCEF0
:102A1000837009F0B2CFE2E3F1E081E031E096E3C8
:102A20002191222371F08093E9003093EB00DF01C4
:102A300011972C912093EC009093ED008F5F8730DD
:102A400079F78EE78093EA001092EA008F898093ED
:102A50008A05DBCE8B8D9C8D1092E9001092780553
:102A6000109277059093760580937505898D811175
:102A700092C08E899D89913A49F4813209F07DCFC7
:102A800047E050E067E071E080E0B3CF913209F0B9
:102A900074CF833269F48F89988DB0E0A0E0809381
:102AA000030190930401A0930501B0930601ADCEFC
:102AB000803269F48091E80082FFFCCF67E087E014
:102AC00091E00E9419058BEF8093E8009ECE823240
:102AD00009F09BCE8F8980930E01EEEFFFE7859181
:102AE00094918B3F9C4D51F1E0E0F8E0809107011B
:102AF00090910801A0910901B0910A01803B944096
:102B0000A105B105F1F480910E0180FD1AC0EE3FE0
:102B10008AE0F80789F587E797E7918380838091BA
:102B200060008093790588E19BE00FB6F894A89542
:102B3000809360000FBE9093600067CEEEEFFAE0E6
:102B4000D5CF808191818737974709F05ECEA895D0
:102B50008091600088618093600080917905809306
:102B60006000EE3F2AE0F20789F08091FE0A909122
:102B7000FF0A9183808349CE8081918187379807AE
:102B800051F29093FF0A8093FE0AC5CF1092FF0A7C
:102B90001092FE0A3ACE0E94CC03DC0112960D91EF
:102BA0001C910115110509F4E8CED801ED91FC91B5
:102BB0000190F081E02DBE016B5E7F4FC801099549
:102BC000811123CEF80100851185EBCF1816190667
:102BD0000CF41BCED2CEF1E0FF12BECE68E176E05F
:102BE00004CF1F920F920FB60F9211242F933F9391
:102BF0008F939F93AF93BF9380916D0590916E05D6
:102C0000A0916F05B091700530916C0523E0230F02
:102C10002D3758F50196A11DB11D20936C058093A9
:102C20006D0590936E05A0936F05B093700580912C
:102C3000710590917205A0917305B091740501968C
:102C4000A11DB11D8093710590937205A09373052A
:102C5000B0937405BF91AF919F918F913F912F9148
:102C60000F900FBE0F901F90189526E8230F029625
:102C7000A11DB11DD2CF0C94722010928E0510921E
:102C80008D0588EE93E0A0E0B0E080938F059093EF
:102C90009005A0939105B09392058CE391E09093F9
:102CA0008C0580938B058FEF9FEF90939805809311
:102CB00097051092E0051092DF051092DE05109244
:102CC000DD051092DC051092DB051092230982E0ED
:102CD00091E090932509809324091092270910927E
:102CE0002609109229091092280980EC80932A095C
:102CF00083E080932B0910922C09EFE2F9E0119206
:102D0000119289E0E339F807D1F7109293091092F4
:102D10009509109294098FE390E190932E09809386
:102D20002D09E1E9F7E01192119289E0E132F8070B
:102D3000D1F784E090E090932209809321091092CA
:102D40009207109291078FE390E0909394078093FD
:102D500093078FEF9FE1909396078093950780EC00
:102D60009FE1909398078093970781E090E090937C
:102D7000900780938F0720E230E130938E072093F5
:102D80008D0710927F071092800780E090E190936A
:102D90007E0780937D07109283071092840790939B
:102DA000820780938107109287071092880790937B
:102DB00086078093850710928B0710928C0790935B
:102DC0008A0780938907109271071092740782E036
:102DD00090E0909376078093750710927707109292
:102DE000780710927A071092790710927B07109259
:102DF0007C073093730720937207E1EEF5E01192A0
:102E0000119287E0E137F807D1F70895CF93DF9368
:102E1000CDB7DEB7CC55D1090FB6F894DEBF0FBEE3
:102E2000CDBF789484B5826084BD84B5816084BD53
:102E300085B5826085BD85B5816085BD80916E0058
:102E4000816080936E001092810080918100826089
:102E500080938100809181008160809381008091C6
:102E600080008160809380008091910082608093D7
:102E700091008091910081608093910080919000F9
:102E80008160809390008091C10084608093C10034
:102E90008091C10082608093C1008091C1008160F7
:102EA0008093C1008091C30081608093C3008091B2
:102EB000C00082608093C0008091C20081608093D6
:102EC000C20080917A00846080937A0080917A00B9
:102ED000826080937A0080917A00816080937A008A
:102EE00080917A00806880937A0010928A0510920F
:102EF0007A0510927C058091D70081608093D7007D
:102F000080EA8093D80089B5806189BD89B58260E7
:102F100089BD09B400FEFDCF61E070E080E090E083
:102F20000E944B058091D8008F7C80618093D800EF
:102F30008091E000807F8093E0008091E1008E7EB0
:102F40008093E1008DE08093E200559A209A81EC15
:102F500080937C0085B1806F85B984B1877E84B908
:102F600084B1876E84B95E9A5F988AB1806D8AB9A0
:102F7000769A6E9881B3806F81BB899880B38D708B
:102F800080BB80E58CBD81E08DBD0E947E055F9A8F
:102F90000E947E055E985C98E1EBF5E084918EBD21
:102FA00000000DB407FEFDCF319625E0EE3BF207A1
:102FB000A9F75C9A81E88093640080916500816044
:102FC0008093650080E18093000180E0EEE4F1E011
:102FD00081118FEF002481938193819381930394D6
:102FE000D1F7109251051092500510924F05109292
:102FF0004E050E948E080E942E0B80912D09909103
:103000002E090E94A4090E9426088091940990919B
:103010009509019690939509809394090E947F06E3
:10302000E0E42E2E312CAE014F5E5F4F61965FAF14
:103030004EAF61978FB7F89440916D0550916E0532
:1030400060916F05709170058FBF809154056496F3
:103050008FAF6497882349F01092540580E090E088
:10306000892B41F30E940000E5CF80915505942FF4
:10307000981B892F90910001891740F48F5F891761
:1030800068F7A1E0A3BF889513BEE8CFB1E0B09385
:103090005405409355058091520590915305019632
:1030A000909353058093520580916A0590916B052A
:1030B00001968F3F910508F098C090936B0580931F
:1030C0006A0580910101909102018130910509F01A
:1030D0001AC58091660581110E94B5070E942E09CC
:1030E0000E94360685FB552450F80E94360686FF5E
:1030F00002C0689451F80E94360687FF02C06894A7
:1031000052F80E94360684FF02C0689453F80E9469
:10311000360683FF02C0689454F80E94360682FF88
:1031200002C0689455F8E52DEF706296EFAF629794
:1031300080912C098F7080959E2F98238091230970
:10314000992309F457C0807F892B809323095092DB
:103150002C0980912B09982F907331F4152D107341
:1031600009F054C01092650520912B09822F8073BD
:1031700009F480C20FE219E0EE24E394F12C80916F
:103180009309E82FF0E0EE16FF060CF017C1D80106
:10319000CD90DD908D01FC9111964C918F2F942F45
:1031A000B1010E949A209C018F2F942F97FDCF96FA
:1031B000FC01A6E0F595E795AA95E1F7C601B101F6
:1031C0000E949A20D7FE03C0BFE3CB0ED11CAF01F3
:1031D000BC01C601E6E095958795EA95E1F70E9466
:1031E000CE06EFEFEE1AFE0ACACF10926B051092D0
:1031F0006A0567CF62969FAD6297982309F0A7CFC3
:10320000807F6296FFAD62978F2B9FCF909165056F
:103210009111AACF00912309202F2F70422E09F47B
:10322000A3CF822309F0A0CF80912D0990912E0980
:103230009A8389836FEF7FEF00FD04C001FF06C012
:1032400061E070E0CE0101960E94690A6FEF7FEFA6
:1032500002FD04C003FF06C061E070E0CE010196EC
:103260000E94450AA0902109B0902209A50161E9B8
:1032700077E089819A810E94110C882309F474CF28
:1032800080912B09182B10932B0941E957E069967F
:103290005FAF4EAF6997712C612C6A147B040CF000
:1032A0006DC06996AEADBFAD6997CD90DD90699662
:1032B000BFAFAEAF6997F30131966796FFAFEEAF40
:1032C0006797CF01B5010E949A204C016A968FAF93
:1032D0006A97FC01EE0FFF1FEF56F84FE080F18078
:1032E00000912D0910912E09A701B601C8010E9475
:1032F000910B882309F459C0980117FF02C0215C83
:103300003F4F66E0359527956A95E1F7C601D7FCF2
:10331000CF9656E0959587955A95E1F72817390786
:1033200061F4C801B1010E949A20FC01C601B101FB
:103330000E949A20E817F907E9F1C701F7FCCF9638
:1033400046E0959587954A95E1F72817390769F47E
:10335000C801B1010E949A209C01C701B1010E94DD
:103360009A202817390709F43401609226096A96D1
:103370006FAD6A9786E299E00E943E0A80912D091E
:1033800090912E099093300980932F09F1E0F093EA
:103390009309809123098F7040E1449E900111248C
:1033A000482E422A40922309DFCE67966EAC7FAC4E
:1033B000679773CF6A966FAE6A97D7CF882369F104
:1033C000EE0FFF1FE35DF64F4081118100912D0943
:1033D000F0912E09802F9F2FB1010E949A209C010D
:1033E000802F9F2F97FDCF96FC01A6E0F595E795DE
:1033F000AA95E1F7842F912FB1010E949A20A42F62
:10340000B12FB7FDDF96AF01BC01CD01E6E0959588
:103410008795EA95E1F70E94CE0654FE18C1809187
:103420002B0984FF14C180916A0590916B0563E0BC
:1034300070E00E948620892B19F481E00E94FF0F22
:1034400080917107811113C080912B098073909135
:103450007B07992309F46FC2209194093091950953
:103460002630310508F067C281110E944A0390910D
:103470007107992339F080912B09807309F066C296
:10348000109271078091010190910201019709F05A
:10349000D2C080912D0990912E090E94A4090E940A
:1034A000260880917107882309F4C5C080917207AE
:1034B000909173079093DE058093DD0521E02093C2
:1034C00066051092590510925A0510925B051092EC
:1034D0005C058C0197FF02C0015C1F4F26E015952B
:1034E00007952A95E1F7280132E0431A5108B10106
:1034F0000E949A203C0142E0641A71085301D12CC9
:10350000C12CC801039663969FAF8EAF639772017B
:1035100095E09C9D40019D9D900C1124801A910A7C
:10352000A2E08A0E911CB0E8EB16F10460F5E0E42D
:10353000AE16B10440F56A2D8E2D0E948F068823A9
:1035400011F1C4018E0D9F1D41E050E060E070E07C
:1035500004C0440F551F661F771F8A95D2F78091CC
:10356000590590915A05A0915B05B0915C05842B9B
:10357000952BA62BB72B8093590590935A05A093B2
:103580005B05B0935C05FFEFEF1AFF0A63962EAD63
:103590003FAD63972E153F0531F63FEFC31AD30AAF
:1035A0004FEFA41AB40A55E0C516D10409F0AFCF05
:1035B0008091770705E0602F0E947A208370809FBA
:1035C00080011124B12CA12C02541A4F80E8882EBE
:1035D000912CF801EA0DFB1DE491F12CE12CCE2E8B
:1035E000D12CC4010E2C02C0959587950A94E2F760
:1035F0008C219D21892B71F0C2018E0D9F1D803879
:10360000910540F4A0E46A16710420F441E0B3018E
:103610000E94B006BFEFEB1AFB0AE5E0EE16F104DC
:1036200001F7FFEFAF1ABF0A2FEF621A720A35E0F7
:10363000A316B10471F680919409909195090196B1
:1036400090939509809394090E947F0607CD55FEBB
:10365000F7CE80912B0985FFF3CE80916A0590917A
:103660006B0565E070E00E948620892B09F0E8CEAA
:1036700080E0E4CE6296FFAD6297FF2309F4E0CECE
:1036800080916A0590916B0563E070E00E9486204E
:10369000892B09F0D5CE00912D0910912E09822F8A
:1036A0000E94960A20912D0930912E09F90137FDCB
:1036B000FF9656E0F595E7955A95E1F7C80117FD95
:1036C000CF9646E0959587954A95E1F7E817F90773
:1036D00069F4C901B1010E949A207C01C801B101BD
:1036E0000E949A20E816F90609F4AACE60902409EF
:1036F0007090250943019924C72CDD24D401AA0F19
:10370000BB1FAF56B84FED90FC90D601AA0FBB1F60
:10371000AF56B84F0D911C9140902109509022094D
:10372000C701F7FCCF9656E0959587955A95E1F736
:10373000E817F90771F4C901B1010E949A205C01F0
:10374000C701B1010E949A20662DA816B90609F496
:1037500081C0C80117FDCF9646E0959587954A959B
:10376000E1F7E817F90769F4C901B1010E949A204D
:103770009C01C801B1010E949A202817390709F459
:1037800061C0A0902D09B0902E09A801B701C50114
:103790000E94910B811170C0C4010197840D951D89
:1037A000B2010E949A204C01FC01EE0FFF1FEF5660
:1037B000F84F40815181B701C5010E94910B682DDE
:1037C000811156C0C6010196B2010E949A207C0167
:1037D000FC01EE0FFF1FEF56F84F40815181B801F9
:1037E000C5010E94910B81113CC071E9C72E77E0A1
:1037F000D72E10E000E004151505F4F5D6012D9143
:103800003D916D017801BFEFEB1AFB0AC701B201D0
:103810000E949A204C01FC01EE0FFF1FEF56F84F5B
:1038200040815181B901C5010E94910B882309F49F
:103830007EC06624062917291093250900932409C0
:10384000682D08C066246C287D2870922509609236
:1038500024096C2D84E299E00E943E0A0E942E0BFE
:10386000EFCD66246E2870922509609224096C2D94
:1038700084E299E00E943E0A2091240930912509B2
:10388000A32EBB24F901FF27EE0FFF1FEF56F84FC1
:10389000C080D180F501EE0FFF1FEF56F84FE0809A
:1038A000F180E0912D09F0912E098F01F7FF02C000
:1038B000015C1F4F86E0159507958A95E1F7C601D3
:1038C000D7FCCF96B6E095958795BA95E1F708179E
:1038D000190761F4CF01B1010E949A204C01C60181
:1038E000B1010E949A208816990619F1C701F7FCC8
:1038F000CF96A6E095958795AA95E1F70817190741
:1039000009F0ACCFCF01B1010E949A20FC01C701A0
:10391000B1010E949A20E817F90709F09FCF2227EA
:10392000A22AB32AB0922509A092240997CF870131
:1039300062CF622F8FCF882309F499CD80919409AB
:10394000909195098D9708F492CD8FCD10919309A0
:10395000123008F495CD20919409309195092530C5
:10396000310508F48FCD809177078F5F843108F09F
:103970008BC080937707809178078F5F809378075B
:1039800020917507821728F01092780764969FAFF0
:10399000649740917407842F90E0BC016F5F7F4F64
:1039A000212F30E0621773070CF071C0880F991F48
:1039B000FC01EF5CF64F208131818091720790917C
:1039C0007307FC0197FDFF9666E0F595E7956A950C
:1039D000E1F7B90137FF02C0615C7F4F56E0759592
:1039E00067955A95E1F7E617F70709F060C0B1014E
:1039F0000E949A20FC01C901B1010E949A20E81797
:103A0000F90709F054C04F5F40937407411708F459
:103A10004EC01092710783E090E090930201809372
:103A2000010180912D0990912E099093DC058093DE
:103A3000DB0581E090E0909364058093630510922C
:103A40006205109261051092600510925F058AE090
:103A500090E090935E0580935D050E942E09209171
:103A60002A09822F90E036E0959587953A95E1F7FF
:103A70000097B1F08150E0E48E9FC00111242F73B4
:103A8000822B80932A09FECC1092770774CF62179D
:103A9000730709F0F7CC20912D0930912E098DCFB5
:103AA00084E090E09093020180930101EBCC649656
:103AB000FFAD6497FF2309F4E5CCB901809172074B
:103AC000909173070E94F00A8230B9F050F46FEFC2
:103AD0007FEF813009F0D6CC82E797E00E94690A37
:103AE000D1CC843069F061E070E0883009F0CACC54
:103AF00082E797E00E94450AC5CC61E070E0ECCF18
:103B00006FEF7FEFF5CF8230910509F05DC10E9424
:103B10002E09809057059090580597FC1AC02401F3
:103B200040E484169104BCF081E090E0909302019F
:103B30008093010110925805109257050E948E083B
:103B400080912D0990912E090E94A4090E942608B7
:103B500072CD512C412C5091690564965FAF6497EA
:103B6000C0906705D090680501EEA02E05E0B02E4C
:103B7000F12CE12C712C612CEC14FD040CF469C0C7
:103B8000FE01339621E030E0261537050CF4D0C055
:103B9000DE0111966396BFAFAEAF6397AA24A394DC
:103BA000B12CA614B7040CF0F4C06396AEADBFAD53
:103BB0006397ED90FC90119712960D911C91C7019F
:103BC000019680179107BCF50E191F09A8014150F5
:103BD0005109141615067CF54114510461F16496DF
:103BE000BFAD6497CC24C394D12CBB2309F4C3C0CC
:103BF00020E0B2010E943E06CC24C394D12CF201F5
:103C0000EE0DFF1D6796FFAFEEAF6797C7018C0DF6
:103C10009D1D67962EAD3FAD67972C0D3D1D20FD78
:103C200004C041E0B2010E94B006FFEFCF1ADF0AE4
:103C30000C151D0559F732E0A30EB11C63964EAD6D
:103C40005FAD63974C5F5F4F63965FAF4EAF639717
:103C5000A8CFD501ED91FD915D01BFEFEB1AFB0AF5
:103C6000C701B6010E949A20DC01AA0FBB1FAF5109
:103C7000BA4F4C9111963C91CF01B1010E949A200C
:103C80008C01842F932FB1010E949A20BC01C8019E
:103C9000601771070CF4CB01481659060CF46CCF71
:103CA000C801061717070CF4CB01481659060CF08B
:103CB00063CF0617170709F45FCFF7FDFF96B6E04D
:103CC000F595E795BA95E1F7842F932F97FDCF9659
:103CD0009C01A6E035952795AA95E1F7E217F30731
:103CE00099F0A201401B510B2E1B3F0B429FC001BC
:103CF000439F900D529F900D1124601B710B0E94E9
:103D00009A209B012E0F3F1FE0E26E1671040CF00B
:103D100033CFF301EE0FFF1F41E050E04C0F5D1F6A
:103D2000E40FF51F31832083C30101963C0124CFAA
:103D3000DF016D917D917D01C9010197DF011E9128
:103D40000E91601771073CF4118300830197FD0108
:103D50008F3F980799F7FC013196EE0FFF1F41E066
:103D600050E04C0F5D1FE40FF51F718360832F5FE0
:103D70003F4FF70109CF41E0B201C7018C0D9D1DF6
:103D80000E94B0062FEFC21AD20A0C151D0599F732
:103D900052CFC40101969093580580935705803403
:103DA00091050CF4CBCE81E090E0909302018093DA
:103DB0000101109258051092570580912D0990919C
:103DC0002E090E94A409BACE039709F034CC609062
:103DD0005F057090600552E0651671040CF0EBC051
:103DE0008091DB059091DC059C0197FF02C0215C6E
:103DF0003F4FD90126E0B595A7952A95E1F763963F
:103E0000BFAFAEAF6397B1010E949A2067969FAF94
:103E10008EAF67978EE0E3E2F1E0DE01AF5BBF4F6C
:103E200001900D928A95E1F72E01B1E44B0E511CE1
:103E3000F20138966996FFAFEEAF6997209163055E
:103E40003091640565963FAF2EAF6597D2018D9195
:103E50009D912D014901881A990A181419040CF032
:103E600071C010E000E06796EEADFFAD6797E8190E
:103E7000F9096B96FFAFEEAF6B9767962EAD3FAD2E
:103E80006797280D391D6D963FAF2EAF6D976396DE
:103E90002EAD3FAD6397200F311F3A8329836B9678
:103EA0008EAD9FAD6B97800F911F9C838B833E835C
:103EB0002D836D964EAD5FAD6D97401B510B5887AE
:103EC0004F8363962EAD3FAD6397201B310B3A872E
:103ED00029875C874B873E872D87988B8F87AE011C
:103EE0004F5F5F4F7A01D701CD90DC90B0E8CB16E1
:103EF000D104C0F4F701A280B380F0E4AF16B1049E
:103F000088F421E06216710411F440E007C06A2DC4
:103F10008C2D0E948F0641E08111F7CFB501C601BB
:103F20000E94B00634E0E30EF11C61964EAD5FAD29
:103F300061974E155F05B9F60F5F1F4F801691060A
:103F40000CF0A5CF69968EAD9FAD699748165906BE
:103F500009F074CF80916105909162050196181661
:103F600019062CF0909362058093610564CB109242
:103F700062051092610580915D0590915E056596E0
:103F8000AEADBFAD65978A0F9B1F8D32B1E09B0729
:103F90002CF490936405809363054DCB81E090E011
:103FA0009093640580936305C30101969093600527
:103FB00080935F0540CB21E040E870E060E090E056
:103FC00080E00E943E060E947F0601E010E041E092
:103FD000B80190E080E00E94B00620E04EE7B80112
:103FE00081E090E00E943E0641E0B8018FE790E05A
:103FF0000E94B0060E947F060E5F1F4F0F3311050F
:1040000031F702E010E041E0B80190E080E00E946A
:10401000B00620E04EE7B80181E090E00E943E0645
:1040200041E0B8018FE790E00E94B0060E947F0651
:104030000E5F1F4F0034110531F721E040E86FE3B8
:1040400070E090E080E00E943E060E947F0668EEED
:1040500073E080E090E00E944B05EFE3F0E1F09325
:104060002E09E0932D091092930983E080932B0988
:1040700080912A098B7F80932A0984E090E09093B5
:1040800022098093210910929207109291078FE3E1
:1040900090E090939407809393078FEF9FE1909324
:1040A00096078093950780EC9FE190939807809303
:1040B000970780E290E190938E0780938D0710928E
:1040C00071071092580510925705109256051092DC
:1040D000660581E090E090930201809301010E94C7
:1040E0008E08A9CAF999FECF92BD81BDF89A992789
:1040F00080B50895991B79E004C0991F961708F0C0
:10410000961B881F7A95C9F780950895AA1BBB1B3B
:1041100051E107C0AA1FBB1FA617B70710F0A61BC7
:10412000B70B881F991F5A95A9F780959095BC01E8
:10413000CD01089597FB072E16F4009407D077FD64
:1041400009D00E94862007FC05D03EF49095819509
:104150009F4F0895709561957F4F0895EE0FFF1F53
:0C4160000590F491E02D0994F894FFCF35
:10416C00100100FFFFFFFF00E10000000000000154
:10417C00020408FFFF01000000000000000000FF27
:10418C00FF01000000030007000B000F00110013DB
:10419C000000C1808100000000000000E0038405E5
:0A41AC000104F60347040504230490
:00000001FF
