:100000000C9424030C944C030C944C030C944C035C
:100010000C944C030C944C030C944C030C944C0324
:100020000C944C030C944C030C94EA1B0C94591C38
:100030000C944C030C944C030C944C030C944C0304
:100040000C944C030C944C030C944C030C944C03F4
:100050000C944C030C944C030C944C030C948B1E8A
:100060000C944C030C944C030C944C030C944C03D4
:100070000C944C030C944C030C944C030C944C03C4
:100080000C944C030C944C030C944C030C944C03B4
:100090000C944C030C944C030C944C030C944C03A4
:1000A0000C944C030C944C030C944C0351697862EF
:1000B0006F790050A820A850A8708870A850A87028
:1000C000A850A850A850A820508850200000000038
:1000D000003E5B4F5B3E3E6B4F6B3E1C3E7C3E1CCE
:1000E000183C7E3C181C577D571C1C5E7F5E1C0014
:1000F000183C1800FFE7C3E7FF0018241800FFE7CB
:10010000DBE7FF30483A060E2629792926407F058D
:100110000507407F05253F5A3CE73C5A7F3E1C1CA3
:1001200008081C1C3E7F14227F22145F5F005F5F63
:1001300006097F017F006689956A6060606060944F
:10014000A2FFA29408047E040810207E2010080854
:100150002A1C08081C2A08081E101010100C1E0C5F
:100160001E0C30383E3830060E3E0E0600000000F1
:100170000000005F00000007000700147F147F14D8
:10018000242A7F2A1223130864623649562050001D
:1001900008070300001C2241000041221C002A1C09
:1001A0007F1C2A08083E08080080703000080808F4
:1001B0000808000060600020100804023E51494514
:1001C0003E00427F400072494949462141494D3332
:1001D0001814127F1027454545393C4A4949314199
:1001E000211109073649494936464949291E000067
:1001F00014000000403400000008142241141414BC
:100200001414004122140802015909063E415D59A7
:100210004E7C1211127C7F494949363E41414122B0
:100220007F4141413E7F494949417F090909013EDA
:10023000414151737F0808087F00417F4100204001
:10024000413F017F081422417F404040407F021C13
:10025000027F7F0408107F3E4141413E7F0909092A
:10026000063E4151215E7F091929462649494932F6
:1002700003017F01033F4040403F1F2040201F3FBC
:100280004038403F63140814630304780403615941
:10029000494D43007F414141020408102000414183
:1002A000417F04020102044040404040000307082F
:1002B0000020545478407F2844443838444444282B
:1002C000384444287F385454541800087E090218D2
:1002D000A4A49C787F0804047800447D400020405A
:1002E000403D007F1028440000417F40007C04789E
:1002F00004787C080404783844444438FC182424E6
:100300001818242418FC7C08040408485454542465
:1003100004043F44243C4040207C1C2040201C3CE2
:100320004030403C44281028444C9090907C4464D9
:10033000544C44000836410000007700000041366C
:10034000080002010204023C2623263C1EA1A161F2
:10035000123A4040207A3854545559215555794124
:100360002154547841215554784020545579400CFB
:100370001E527212395555555939545454593955DC
:100380005454580000457C410002457D420001451F
:100390007C40F0292429F0F0282528F07C5455458C
:1003A000002054547C547C0A097F4932494949321F
:1003B0003248484832324A4848303A4141217A3A34
:1003C00042402078009DA0A07D39444444393D40FE
:1003D00040403D3C24FF2424487E4943662B2FFCAB
:1003E0002F2BFF0929F620C0887E09032054547959
:1003F000410000447D413048484A32384040227A2A
:10040000007A0A0A727D0D19317D2629292F2826A6
:100410002929292630484D402038080808080808AE
:100420000808382F10C8ACBA2F102834FA00007B07
:10043000000008142A142222142A1408950022000D
:1004400095AA005500AAAA55AA55AA000000FF00C7
:10045000101010FF00141414FF001010FF00FF1004
:1004600010F010F0141414FC001414F700FF000036
:10047000FF00FF1414F404FC141417101F10101FB5
:10048000101F1414141F00101010F0000000001FA3
:10049000101010101F10101010F010000000FF10AE
:1004A0001010101010101010FF10000000FF1400AA
:1004B00000FF00FF00001F10170000FC04F41414DC
:1004C0001710171414F404F40000FF00F7141414A8
:1004D00014141414F700F7141414171410101F1028
:1004E0001F141414F4141010F010F000001F101F4B
:1004F0000000001F14000000FC140000F010F010B9
:1005000010FF10FF141414FF141010101F0000002F
:1005100000F010FFFFFFFFFFF0F0F0F0F0FFFFFF33
:100520000000000000FFFF0F0F0F0F0F384444388A
:10053000447C2A2A3E147E02020606027E027E02C5
:1005400063554941633844443C04407E201E2006E4
:10055000027E020299A5E7A5991C2A492A1C4C7221
:1005600001724C304A4D4D303048784830BC625AA8
:10057000463D3E494949007E0101017E2A2A2A2A38
:100580002A44445F444440514A444040444A514014
:100590000000FF0103E080FF000008086B6B0836D5
:1005A00012362436060F090F060000181800000046
:1005B0001010003040FF0101001F01011E00191D35
:1005C0001712003C3C3C3C0000000000D5F08D14AC
:1005D000A1C881CFD9F1AF2000080B0002020200B0
:1005E00000090400000102020000052400100105BA
:1005F00024010101042402060524060001070581E7
:100600000310004009040100020A0000000705026F
:1006100002400000070583024000000403090412A1
:10062000010002EF020140412336000001010203F4
:100630000141726475696E6F204C4C4300417264D5
:1006400075626F790000D71E11241FBECFEFDAE06C
:10065000DEBFCDBF11E0A0E0B1E0E2EAF2E402C00B
:1006600005900D92A036B107D9F728E0A0E6B1E0D9
:1006700001C01D92AE36B207E1F713E0C4E2D3E049
:1006800004C02197FE010E944921C332D107C9F756
:100690000E94AA1F0C944F210C94000081E08093CB
:1006A000FD061092030780910707882379F0809157
:1006B0000507909106079093FF068093FE068091B0
:1006C000080780930007109207070895109200070B
:1006D00080916B08882341F080912B0890912C0821
:1006E0009093FF068093FE060895BC01759567956B
:1006F000AFE1B8E0880F991FFC01E15EF74F90E091
:1007000080E0129632976817790771F01A962D914A
:100710003C911B97448555851B965C934E931A9785
:10072000358724870196EDCF0895FC018091A205BD
:10073000882311F13FB7F89482E08093E90020917B
:10074000F200822F90E01816190614F481E090E070
:10075000882339F0289844E64093A1054091F100A0
:100760004083222339F02091F200211103C02BE6AF
:100770002093E8003FBF08958FEF9FEF08952FB7B4
:10078000F89483E08093E9009091E800892F8072CB
:1007900095FF04C09091F20080E4891B2FBF08955B
:1007A0008091990581110DC082E08093950584E0C8
:1007B00080939605109298051092970581E080939A
:1007C000990585E995E00895CF93DF931F92CDB702
:1007D000DEB76983DC01ED91FC910280F381E02DAD
:1007E00041E050E0BE016F5F7F4F09950F90DF91B0
:1007F000CF91089583E08093E9008091F2008823EF
:1008000019F08AE38093E80008950E94BF0390E006
:100810000895CF93DF931F92CDB7DEB7FC01848597
:10082000958597FD08C02FEF3FEF358724870F9000
:10083000DF91CF910895CE0101960E949503019713
:1008400019F4898190E0F3CF8FEF9FEFF0CF0F93F2
:100850001F93CF93DF931F92CDB7DEB78C01FC01BE
:100860008485958597FF0BC0CE0101960E94950364
:10087000019771F4898190E0F80195878487F801E8
:10088000848595850F90DF91CF911F910F910895E9
:100890008FEF9FEFF1CFFC018485958597FD0BC00D
:1008A0009FB7F89482E08093E9008091F2009FBFA7
:1008B00090E0019608959FB7F89482E08093E90054
:1008C0008091F2009FBF90E0089540918F05509174
:1008D000900520918D0530918E0542175307B4F491
:1008E0009091E8009570E1F39091E80092FD19C0B5
:1008F0008093F10080918F059091900501968F7300
:100900009927892B19F48EEF8093E80080918F0549
:100910009091900501969093900580938F0581E0CA
:10092000089580E00895EF92FF920F931F93CF9365
:10093000DF93F82E192FE62E042F81E0860F880F03
:100940000E94650483E00E946504CF2DD12FEC0E38
:10095000FD2EF11CCE15DF05B9F007FF13C0FE0117
:1009600084910E946504182F80E00E946504812311
:1009700021968111EFCFDF91CF911F910F91FF90C1
:10098000EF9008958881EDCF81E0F5CFDF92EF926F
:10099000FF920F931F93CF93DF93D82E8A01EB0121
:1009A0007B01E40EF51ECE15DF0559F0D7FE12C00F
:1009B000FE0184910E94650421968111F4CF0FEF0E
:1009C0001FEFC801DF91CF911F910F91FF90EF9022
:1009D000DF9008958881EECF0F931F93CF93DF931D
:1009E0001F92CDB7DEB782E0898342E450E069ED23
:1009F00075E080E80E94C6040E94D003DC011296D4
:100A00000D911C910115110589F0D801ED91FC9112
:100A10000280F381E02DBE016F5F7F4FC801099511
:100A200097FD04C0F80100851185ECCF89810F90F6
:100A3000DF91CF911F910F910895615030F0209177
:100A4000F100FC0120830196F8CF289884E680937A
:100A5000A10508953FB7F8948091890590918A0582
:100A6000A0918B05B0918C0526B5A89B05C02F3FA2
:100A700019F00196A11DB11D3FBFBA2FA92F982FC4
:100A80008827BC01CD01620F711D811D911D42E0BF
:100A9000660F771F881F991F4A95D1F708958F9287
:100AA0009F92AF92BF92CF92DF92EF92FF926B0133
:100AB0007C010E942A054B015C01C114D104E104B0
:100AC000F104B9F00E942A05681979098A099B097D
:100AD000683E73408105910580F321E0C21AD10878
:100AE000E108F10888EE880E83E0981EA11CB11C75
:100AF000E4CFFF90EF90DF90CF90BF90AF909F90AA
:100B00008F90089565E070E080E090E00C944F05D0
:100B10008F929F92AF92BF92CF92DF92EF92FF920D
:100B20000F931F93CF93DF936C017B018A01809118
:100B30000D01882309F45CC08091A205882309F483
:100B400057C08091940580FF05C08091E0008260CD
:100B50008093E000E801B12C8AEFA82E93E0892E63
:100B60002AE3922E209711F4BB20D9F10E94BF03F3
:100B700081110AC0AA94AA20D9F161E070E080E056
:100B800090E00E944F05EECF8C171D0611F00CF07F
:100B90008C2F9FB7F8948092E9002091E80025FD02
:100BA00002C09FBFDFCF282F30E0C21BD30BF7015D
:100BB000815020F041914093F100FACFE20EF31EF4
:100BC000BB2021F09092E800B12CEBCF8091E8009F
:100BD00085FDE7CF9092E800BB24B394209709F3FA
:100BE000F3CF5D9884E680939305101611063CF0D0
:100BF00081E090E0F6019383828310E000E0C80179
:100C0000DF91CF911F910F91FF90EF90DF90CF90E8
:100C1000BF90AF909F908F900895AF92BF92CF9268
:100C2000DF92EF92FF920F931F93CF93DF936C01AC
:100C30007B018B01040F151FEB015E01AE18BF088D
:100C4000C017D10759F06991D601ED91FC9101903F
:100C5000F081E02DC6010995892B79F7C501DF9157
:100C6000CF911F910F91FF90EF90DF90CF90BF90A9
:100C7000AF9008958FB18095807F669B88601C9BA4
:100C800084600895480F592F511D14161506D4F588
:100C900080389105BCF597FF02C090E080E04138B4
:100CA000510514F040E850E0481BFB0177FD3796F2
:100CB00033E0F595E7953A95E1F7F695FE2FEE27A7
:100CC000F795E795E80FF91FE858FE4F677077270B
:100CD00081E090E001C0880F6A95EAF7382F213053
:100CE00041F4415078F08191DF011197832B8C936F
:100CF000F8CF8095415030F09191DF011197982302
:100D00009C93F8CF0895E8E7F1E080E0A0E0B8E038
:100D100000800EBC8111012C1197A0FDFDCF019226
:100D2000B9F70DB40895462F477066956695669598
:100D300090E8699FB001112468587E4F860F972F65
:100D4000911DFC01808190E021E030E0042E02C082
:100D5000220F331F0A94E2F78223932302C0959552
:100D600087954A95E2F7089580389105B8F4603484
:100D70007105A0F420E191E061FD94E060FD990F20
:100D800062FD9295687F269FD0011124A80FA85874
:100D9000BE4F8C9140FF03C0892B8C930895909592
:100DA0008923FBCF2F923F924F925F926F927F9257
:100DB0008F929F92AF92BF92CF92DF92EF92FF926B
:100DC0000F931F93CF93DF93EC018B017A0169019D
:100DD000C61AD70AD7FE03C0D194C194D1084701DF
:100DE0008C1A9D0A97FE03C09194819491088C14EB
:100DF0009D0454F49E2D8F2D7901292F382F9C2F7F
:100E00008D2FE801092F182FEC16FD0654F4902FB2
:100E1000812F8901292F382F9C2F8D2FE701E92E53
:100E2000F82E17012C1A3D0A2901401A510A57FEC3
:100E300003C0519441945108310137FE03C08FEF34
:100E4000681A780A759467948FEF021713070CF4E9
:100E500081E0A82E880FBB08EC16FD06A4F041E047
:100E6000BE01C8018C149D0414F0B801CE010E948B
:100E7000B4066418750877FE04C00A0D1B1D620CC9
:100E8000731C2196E9CFDF91CF911F910F91FF90B5
:100E9000EF90DF90CF90BF90AF909F908F907F901A
:100EA0006F905F904F903F902F9008952F923F92B8
:100EB0004F925F926F927F928F929F92AF92BF926A
:100EC000CF92DF92EF92FF920F931F93CF93DF9316
:100ED00000D000D000D01F92CDB7DEB76D30D9F072
:100EE0003090000140907A0550907B05832D90E072
:100EF0009F838E836A3051F51092790510927805A0
:100F000023E0880F991F2A95E1F7480E591E509249
:100F10007B0540927A0581E090E027960FB6F89421
:100F2000DEBF0FBECDBFDF91CF911F910F91FF901C
:100F3000EF90DF90CF90BF90AF909F908F907F9079
:100F40006F905F904F903F902F900895A0907805FC
:100F5000B090790595E0699FB0011124FB01E4533D
:100F6000FF4F3F016501212CF5E02F1629F1C30148
:100F70000196F301F491F9833C01420128E02A83B0
:100F8000898181708D8310E000E00315D0F4F801B1
:100F9000EC0DFD1DFC83EB83F12CE12CE31470F4CC
:100FA000B4016E0D7F1D4D818B819C810E94B40622
:100FB000FFEFEF1AFF0AF2CF1982DFCF0F5F1F4F4B
:100FC000E4CF2981269529838A8181508A83EE8105
:100FD000FF818E0E9F1E8111D3CF2394CE0EDF1E74
:100FE000F6E02F12C1CFC501329C800D911D112456
:100FF00090937905809378058ECF6F927F928F9230
:101000009F92AF92BF92CF92DF92EF92FF920F9397
:101010001F93CF93DF938091F5059091F605EC0136
:1010200097FDEF9626E0D595C7952A95E1F76E01D5
:1010300022E0C21AD10860E470E00E9435217C01F0
:1010400022E0E21AF108882499248C1A9D0A3C01B6
:1010500023E0620E711C23968601540182E0A80EE3
:10106000B11C00381105D8F420E4E216F104B8F4FC
:1010700040917401509175016091760170917701F2
:10108000C501800F911F04C07695679557954795C8
:101090008A95D2F74170B701C8010E94B4060F5F6C
:1010A0001F4F0C171D07E9F68FEFE81AF80A25E025
:1010B000820E911CE614F70479F610927301DF9109
:1010C000CF911F910F91FF90EF90DF90CF90BF9045
:1010D000AF909F908F907F906F900895EFE1F8E030
:1010E0008FE390E19387828710926B0883E080877B
:1010F00087818B7F8783EDE1F7E084E090E0909338
:101100001E0880931D08118210828FE390E0938364
:1011100082838FEF9FE19583848380EC9FE19783A7
:10112000868380E290E190931A07809319071092CA
:10113000FD061092720110927101109270011092CE
:10114000730181E090E0909381058093800508957C
:101150004F925F926F927F928F929F92AF92BF92C7
:10116000CF92DF92EF92FF920F931F93CF93DF9373
:101170008091290890912A08EC0197FDEF9626E0CE
:10118000D595C7952A95E1F7229760E470E00E9413
:10119000352137ECC32E30E0D32E8C0102501109DB
:1011A0002C0123E0420E511C40E8642E712CF60104
:1011B000A490F12CE12CB12CC3010E2C02C095950A
:1011C00087950A94E2F78A219B21892BB1F04E0181
:1011D0008E0C9F1CF0E88F16910478F400341105F2
:1011E00060F4602F8C2F8E0D0E94930641E08111D8
:1011F00040E0B801C4010E94B4062FEFE21AF20ADF
:1012000085E0E816F104C1F6EFEFCE1ADE0A0F5FB3
:101210001F4F0415150559F6DF91CF911F910F91BE
:10122000FF90EF90DF90CF90BF90AF909F908F9006
:101230007F906F905F904F9008958F929F92AF92A2
:10124000BF92CF92DF92EF92FF920F931F93CF93B3
:10125000DF937DE1C72E77E0D72EF12CE12CE0E47F
:10126000AE2EB12C60911D0870911E08E616F7068F
:101270000CF07BC0F601019111916F01FFEFEF1AA5
:10128000FF0AC7010E943521FC01EE0FFF1FE35E3C
:10129000F84FC0814181C801B5010E943521FC0190
:1012A0008C2F942FB5010E94352117FF02C0015CDD
:1012B0001F4F56E0159507955A95E1F72C2F342FBF
:1012C00037FF02C0215C3F4F46E0359527954A9590
:1012D000E1F7E817F907D1F4C901801B910B422F00
:1012E000401B4F5F181619061CF041E0400F421BCF
:1012F000E034F10508F0B6CFC901021713070CF46A
:10130000C80121E0BF010E944206ACCF201731077F
:1013100009F0A8CF9C012E1B3F0B882E8E1A8394B8
:101320001216130624F0882483948E0E881A8E17C2
:101330009F070CF4FC018E0E9F2E911CEF01F7FF0E
:1013400002C0D0E0C0E0C40121E48216910414F090
:1013500080E490E0C817D9070CF084CF41E0BE01CB
:10136000C8010E94B4062196EECFDF91CF911F9164
:101370000F91FF90EF90DF90CF90BF90AF909F9034
:101380008F9008956F927F928F929F92AF92BF92AB
:10139000CF92DF92EF92FF920F931F93CF93DF9341
:1013A00080917001882309F454C08091F7059091D1
:1013B000F805EC0197FDEF9626E0D595C7952A959F
:1013C000E1F76E0122E0C21AD10860E470E00E94E9
:1013D00035217C0122E0E21AF108882499248C1A34
:1013E0009D0A3C0123E0620E711C23968601540184
:1013F00082E0A80EB11C00381105D8F420E4E216F2
:10140000F104B8F440916C0150916D0160916E014E
:1014100070916F01C501800F911F04C0769567958B
:10142000579547958A95D2F74170B701C8010E9438
:10143000B4060F5F1F4F0C171D07E9F68FEFE81A70
:10144000F80A25E0820E911CE614F70479F6109252
:101450007001DF91CF911F910F91FF90EF90DF907E
:10146000CF90BF90AF909F908F907F906F90089596
:101470002F923F924F925F926F927F928F929F92A4
:10148000AF92BF92CF92DF92EF92FF920F931F9392
:10149000CF93DF939093F8058093F70521E0209395
:1014A000700110926C0110926D0110926E011092F9
:1014B0006F018C0197FF02C0015C1F4F26E015955C
:1014C00007952A95E1F7180122E0221A310860E415
:1014D00070E00E943521EC012297D12CC12C28010B
:1014E00083E0480E511C812C912C5401839471018E
:1014F00025E02C9D30012D9D700C1124601A710A7D
:1015000082E0680E711C20E8E216F10448F5C03450
:10151000D10530F56C2F8E2D0E949306882301F1A2
:10152000C3018E0D9F1DB501A40104C0440F551FBA
:10153000661F771F8A95D2F780916C0190916D019B
:10154000A0916E01B0916F01842B952BA62BB72B28
:1015500080936C0190936D01A0936E01B0936F0125
:101560008FEFE81AF80A4E145F0469F62FEFC21ADB
:10157000D20A219685E0C816D10409F0B8CFDF91D0
:10158000CF911F910F91FF90EF90DF90CF90BF9080
:10159000AF909F908F907F906F905F904F903F9013
:1015A0002F900895FC012081762F622F7183608334
:1015B0000895CF930E943A0685FBCC27C0F90E947C
:1015C0003A0686FDC2600E943A0687FDC4600E940A
:1015D0003A0684FDC8600E943A0683FDC0610E94FD
:1015E0003A0682FDC0628C2FCF91089508952F9204
:1015F0003F924F925F926F927F928F929F92AF92A3
:10160000BF92CF92DF92EF92FF920F931F93CF93EF
:10161000DF93CDB7DEB7AA970FB6F894DEBF0FBE43
:10162000CDBF209066013090670122E02216310480
:101630000CF0E5C08091F3059091F4059C0197FFB3
:1016400002C0215C3F4FA90126E0559547952A9598
:10165000E1F75CA34BA360E470E00E9435213C01FC
:101660008EE0EEE0F1E0DE01519601900D928A9558
:10167000E1F72E0151E1450E511CCE01499698A388
:101680008F8F5AA249A2E0916401F0916501FEA3F7
:10169000EDA3F201819191912F01CDA0DEA0C81A96
:1016A000D90A1C141D040CF05CC010E000E093018A
:1016B0002C193D0938A72FA3A601460D571D5AA77F
:1016C00049A72BA13CA1200F311F3A8329838FA169
:1016D00098A5800F911F9C838B833E832D8349A502
:1016E0005AA5401B510B58874F832BA13CA1201BAF
:1016F000310B3A8729875C874B873E872D87988BEC
:101700008F87CE0101967C01F701A080B180F0E8BF
:10171000AF16B104C0F4F70182809380F0E48F1615
:10172000910488F421E02216310411F440E007C04E
:10173000682D8A2D0E94930641E08111F7CFB401F4
:10174000C5010E94B40634E0E30EF11C49A15AA180
:101750004E155F05C9F60F5F1F4FC016D1060CF07E
:10176000B0CF8F8D98A14816590609F08CCF809183
:10177000620190916301019618161906ECF090939E
:10178000630180936201AA960FB6F894DEBF0FBE84
:10179000CDBFDF91CF911F910F91FF90EF90DF9020
:1017A000CF90BF90AF909F908F907F906F905F9001
:1017B0004F903F902F900895109263011092620114
:1017C0008091600190916101EDA1FEA18E0F9F1F9C
:1017D0008D32F1E09F072CF49093650180936401B2
:1017E000D2CF81E090E090936501809364012FEF68
:1017F000221A320A3092670120926601C4CF21E09A
:1018000040E870E060E090E080E00E9442060E94C4
:10181000830601E010E041E0B80190E080E00E9422
:10182000B40620E04EE7B80181E090E00E94420655
:1018300041E0B8018FE790E00E94B4060E94830661
:101840000E5F1F4F0F33110531F702E010E041E04A
:10185000B80190E080E00E94B40620E04EE7B801B5
:1018600081E090E00E94420641E0B8018FE790E0FD
:101870000E94B4060E9483060E5F1F4F00341105BC
:1018800031F721E040E86FE370E090E080E00E94F3
:1018900042060E94830668EE73E080E090E00E94BA
:1018A0004F050E946E08AA960FB6F894DEBF0FBED1
:1018B000CDBFDF91CF911F910F91FF90EF90DF90FF
:1018C000CF90BF90AF909F908F907F906F905F90E0
:1018D0004F903F902F900C941D092F923F924F9262
:1018E0005F926F927F928F929F92AF92BF92CF92B0
:1018F000DF92EF92FF920F931F93CF93DF93CDB7B9
:10190000DEB7C154D1090FB6F894DEBF0FBECDBF0C
:101910000E94C209C0907101D0907201D7FC32C000
:10192000760120E4C216D1047CF181E090E090932E
:1019300081058093800510927201109271010E94BE
:101940001D098091290890912A080E94380ACF5BCE
:10195000DF4F0FB6F894DEBF0FBECDBFDF91CF9142
:101960001F910F91FF90EF90DF90CF90BF90AF90BD
:101970009F908F907F906F905F904F903F902F90AF
:101980000C94A808F12CE12C40916A0122964FAFEB
:1019900022976090680170906901B9EF4B2EB5E015
:1019A0005B2E10E000E0B12CA12C80E4882E912C5D
:1019B000061517050CF44CC0FE01339621E030E00B
:1019C0002A153B050CF4B5C0FE0131963F01882471
:1019D0008394912C8A149B040CF0DFC0D3018D9169
:1019E0009C91119712964D905C908C010F5F1F4F48
:1019F0000415150534F5481A590AB2E04B1651047E
:101A000004F1E114F104E9F0480E591E2296EFADFD
:101A10002297EE2309F4B0C0C701800F911F80FD0B
:101A20000BC06E2D802F0E949306811105C041E0EE
:101A3000B701C8010E94B4060F5F1F4F04151505BA
:101A400059F7F2E08F0E911C24E0620E711CC2CF98
:101A5000D2012D913D912D010F5F1F4FC801B301A0
:101A60000E943521FC01EE0FFF1FE750FA4F308036
:101A70002180C901B4010E943521FC01832D922DE2
:101A8000B4010E943521AF018E179F070CF4AC0101
:101A9000E416F5060CF48CCFAF01E817F9070CF447
:101AA000AC01E416F5060CF083CFE817F90709F44A
:101AB0007FCF37FF02C0215C3F4F76E035952795F9
:101AC0007A95E1F7432D522D57FF02C0415C5F4FDD
:101AD00066E0559547956A95E1F724173507A9F013
:101AE000B7016E1B7F0B421B530B649FD001659F98
:101AF000B00D749FB00D1124BC016E1B7F0BCD0186
:101B00000E943521AB01420F531FB0E2AB16B10466
:101B10000CF04ECFF501EE0FFF1F81E090E08C0F2F
:101B20009D1FE80FF91F51834083D50111965D0178
:101B30003FCFDF010D911D914D01C9010197DF01DB
:101B40007E916E91061717073CF4718360830197AD
:101B5000FD018F3F980799F7FC013196EE0FFF1FAB
:101B600081E090E08C0F9D1FE80FF91F1183008327
:101B70002F5F3F4FF40124CF6E2D802F0E949306DC
:101B8000811105C041E0B701C8010E94B4060F5F92
:101B90001F4F0415150581F754CF4FEFC41AD40A0F
:101BA000D0927201C092710180E4C816D1040CF485
:101BB000C6CE81E090E090938105809380051092DD
:101BC0007201109271018091290890912A080E9457
:101BD000380AB5CE1F93CF93DF930E94D90A182FEE
:101BE000109279051092780510927B0510927A0573
:101BF00081E080930001CCEAD0E0FE01649166238D
:101C000039F089EF96E00E9456072196892BA9F7B3
:101C1000112331F081E090E090938105809380055D
:101C2000DF91CF911F9108951F93CF93DF93EC0124
:101C3000FB0118814981812F942F60E470E00E949C
:101C40003521E80FF91F212F342F37FF02C0215C07
:101C50003F4F207CE034F10540F42E0F3F1F3983C5
:101C60002883DF91CF911F910895280F391FF7CF57
:101C7000CF93DF93EC01888199819C0197FF02C08B
:101C8000215C3F4FE6E035952795EA95E1F7FB01AA
:101C9000E20FF31F60E470E00E943521E038F105A7
:101CA00060F456E0EE0FFF1F5A95E1F78E0F9F1F6D
:101CB00099838883DF91CF91089546E0220F331FE7
:101CC0004A95E1F7820F931FF3CF60FF04C06FEFD7
:101CD0007FEF0C94380E61FF03C061E070E0F9CF34
:101CE00062FF04C06FEF7FEF0C94140E63FF03C01C
:101CF00061E070E0F9CF0895CF93DF93C091290898
:101D0000D0912A0860911F086F70862321F089E224
:101D100098E00E94650E2091290830912A08AE01B2
:101D2000D7FF02C0415C5F4F76E0559547957A95A5
:101D3000E1F7C90137FDCF9666E0959587956A95DD
:101D4000E1F74817590771F4E0E4F0E0CE01BF0174
:101D50000E943521EC01C901BF010E943521C8173D
:101D6000D90741F010926D0810926C0881E0DF9164
:101D7000CF91089580E0FBCF089590E080E0089532
:101D80000F931F93CF93DF93FC01CB01AB0177FF40
:101D900002C0415C5F4F76E0559547957A95E1F733
:101DA0009F01F7FF02C0215C3F4F66E03595279504
:101DB0006A95E1F742175307C4F024173507BCF4BE
:101DC00022E000E410E0B8010E943521EC01CF01CF
:101DD000B8010E943521C817D9075CF42460822F0E
:101DE000DF91CF911F910F91089521E0EACF20E07C
:101DF000E8CF8C179D079CF72860F1CFCF92DF9238
:101E0000EF92FF920F931F93CF93DF9310922708C7
:101E1000E0912008F0912108CF019927DC01AA0F59
:101E2000BB1FA35EB84F0D911C912F2F30E0D9013D
:101E3000AA0FBB1FA35EB84FCD91DC91E0901D08A7
:101E4000F0901E0801978E0D9F1DB7010E9435214D
:101E5000DC01AA0FBB1FA35EB84FCD90DC90C90177
:101E60000196B7010E943521DC01AA0FBB1FA35EBA
:101E7000B84FED90FC90FE1315C0B601C8010E944A
:101E8000C00EC82FB701C8010E94C00E8C2B8093D2
:101E90002708DF91CF911F910F91FF90EF90DF9076
:101EA000CF900895E0902908F0902A08B801C70162
:101EB0000E94C00E182FBE01C7010E94C00E812BC8
:101EC000E6CFCF93DF939C01CB01B90137FF02C06E
:101ED000615C7F4FF6E075956795FA95E1F7AC0187
:101EE00097FF02C0415C5F4FE6E055954795EA9544
:101EF000E1F76417750779F4E0E4F0E0BF010E94B0
:101F00003521EC01C901BF010E9435219C0181E00E
:101F1000C217D30709F080E0DF91CF910895CF92E7
:101F2000DF92EF92FF920F931F93CF93DF939C0169
:101F3000CB017A018B0177FF02C0015C1F4F76E075
:101F4000159507957A95E1F7F701F7FCFF9656E0AE
:101F5000F595E7955A95E1F760E4C62ED12CB601C8
:101F60000E943521EC01C701B6010E9435217C0198
:101F70008C179D070CF44EC00E171F07F9F4FC01D7
:101F8000C90137FDCF9646E0959587954A95E1F7CB
:101F90000817190789F4C90160E470E00E9435212F
:101FA0009C01EC16FD060CF4E7012C173D0724F00C
:101FB00081E0E217F3072CF580E023C0C817D907AA
:101FC000D9F7C901B6010E943521C817D907A1F771
:101FD00037FF02C0215C3F4F86E0359527958A95F3
:101FE000E1F7C801E017F1070CF4CF012817390712
:101FF0001CF30E171F070CF48F0181E00217130763
:10200000DCF2DF91CF911F910F91FF90EF90DF9065
:10201000CF9008950E171F0779F6FE01B1CF3F92BA
:102020004F925F926F927F928F929F92AF92BF92E8
:10203000CF92DF92EF92FF920F931F93CF93DF9394
:10204000382F292F6B015A0160E470E00E9435217E
:10205000EC01632E722E77FE03C08FE3680E711CB5
:1020600006E0759467940A95E1F72601F12CE12CBE
:10207000F0E0E0E080E4882E912CEA14FB040CF000
:1020800091C0D2012D913D912D01BFEFEB1AFB0ABA
:10209000C701B5010E943521DC01AA0FBB1FAC0DA1
:1020A000BD1D4C9111963C90C901B4010E9435218F
:1020B0008C01842F932DB4010E943521C017D107C4
:1020C000CCF1C817D907CCF637FF02C0215C3F4FCF
:1020D000B901B6E075956795BA95E1F7242F332DD0
:1020E00037FF02C0215C3F4FA6E035952795AA95A2
:1020F000E1F7261B370BAE01401B510B249FD0018B
:10210000259FB00D349FB00D1124AC01401B510B25
:102110009301261B370B429FC001439F900D529F96
:10212000900D1124A81BB90B1A161B060CF0A5CF95
:102130003196A3CFC817D9070CF49FCF37FF02C041
:10214000215C3F4FB90156E0759567955A95E1F7C7
:10215000242F332D37FF02C0215C3F4F46E03595D9
:1021600027954A95E1F7261B370BAE01401B510B13
:10217000249FD001259FB00D349FB00D1124AC01D8
:10218000401B510B9301261B370B429FC001439FFD
:10219000900D529F900D1124A81BB90BB7FF6DCF66
:1021A00031976BCF81E0EF2B09F480E0DF91CF9185
:1021B0001F910F91FF90EF90DF90CF90BF90AF9065
:1021C0009F908F907F906F905F904F903F90089579
:1021D0002F923F924F925F926F927F928F929F9237
:1021E000AF92BF92CF92DF92EF92FF920F931F9325
:1021F000CF93DF93CDB7DEB7C250D1400FB6F8947E
:10220000DEBF0FBECDBF90916B089230E0F410920C
:102210006B08CE5FDE4F0FB6F894DEBF0FBECDBFAA
:10222000DF91CF911F910F91FF90EF90DF90CF90B2
:10223000BF90AF909F908F907F906F905F904F90E6
:102240003F902F9008950091220810912308680173
:10225000DD24012F11277801409024085090250893
:1022600042019924452C5524A92EB12C8C149D048F
:1022700094F5C5010E947503820127019C2D8D2DC7
:102280006401892E982EFE0131965F01CE018F5F89
:102290009E4F11921192E817F907D9F7BBE22B2E46
:1022A000B8E03B2ECF5FDE4FB982A882C150D1404B
:1022B000F501D101F12CE12C60906B08712CE61432
:1022C000F7040CF080C02FEFE21AF20A8D919D9175
:1022D00081939193F1CFC814D904A9F6F601EE0FBA
:1022E000FF1FE35EF84F0190F081E02DD801AA0FA7
:1022F000BB1FA35EB84FED90FC90AF01F7FF02C08B
:10230000415C5F4F96E0559547959A95E1F79701A7
:10231000F7FE02C0215C3F4FA6E035952795AA95B0
:10232000E1F7D501AA0FBB1FA75DB74F8C9111969E
:102330009C9130902B0820902C082417350711F120
:10234000BC0177FF02C0615C7F4FF6E07595679531
:10235000FA95E1F7832D922D97FDCF96E6E09595BE
:102360008795EA95E1F74217530744F46817790710
:102370000CF089CFC5010E94750385CF861797079A
:10238000CCF381CF20E430E0B9010E9435213C013B
:10239000832D922DB9010E9435211C01C701B9017D
:1023A0000E9435217C01CF01B9010E9435218E1593
:1023B0009F0524F462147304ECF265CF26143704ED
:1023C0000CF061CFD7CFC2018414950441F4609121
:1023D0001D0870911E08C40101960E943521F70165
:1023E000EE0FFF1FEA0DFB1D8C159D05C1F040E8A7
:1023F000E416F10461F15FEFE51AF50ADC01AA0FBA
:10240000BB1FA35EB84F2D913C9121933193019650
:1024100060911D0870911E080E943521E5CFC016FD
:10242000D106A9F080E8E816F1048CF4F701EE0F6C
:10243000FF1FEA0DFB1DD601AA0FBB1FA35EB84FFD
:102440008D919C9191838083D70111967D01A70185
:10245000B5018091190790911A070E940F108823E7
:1024600009F490C0C814D90469F5E9EFF5E090E0EB
:1024700080E06816790641F00196D1012D913D91D9
:102480001D0121933193F5CF70926901609268012B
:10249000EDE1F7E090E080E0E816F90609F4FEC00F
:1024A000CF5FDE4FA881B981C150D1402D913D91C0
:1024B000CF5FDE4FB983A883C150D14021933193C0
:1024C0000196EACFC016D10649F4C8010196609181
:1024D0001D0870911E080E9435218C01E9EFF5E07E
:1024E00030E020E008151905C1F02038310559F118
:1024F0002F5F3F4FD801AA0FBB1FA35EB84F8D912E
:102500009C9181939193C801019660911D087091EF
:102510001E080E9435218C01E5CF0415150599F0A0
:102520002038310581F0F901EE0FFF1FE750FA4F17
:10253000D801AA0FBB1FA35EB84F8D919C919183C8
:1025400080832F5F3F4FF301EE0FFF1FE15EF74FD8
:10255000D901AA0FBB1FA750BA4F4FE158E04E1741
:102560005F0759F032972038310539F02F5F3F4F20
:10257000848595858D939D93F2CF30936901209347
:10258000680186CFE9EFF5E0D50190E080E0C8145E
:10259000D90409F03FC090E080E06816790641F068
:1025A0000196D1012D913D911D0121933193F5CFDC
:1025B0007092690160926801C016D10649F4C801A1
:1025C000019660911D0870911E080E9435218C01B2
:1025D0009501F12CE12C0815190551F1B0E8EB1625
:1025E000F104F1F1EFEFEE1AFE0AF801EE0FFF1F12
:1025F000E35EF84F80819181D9018D939D939D0178
:10260000C801019660911D0870911E080E94352135
:102610008C01E1CFE816F90631F02D913D9121931F
:1026200031930196F7CFF0926901E0926801C4CF2F
:1026300004151505A9F0B0E8EB16F10489F0D701EF
:10264000AA0FBB1FAA0DBB1DF801EE0FFF1FE35E13
:10265000F84F808191818D939C93F70131967F0192
:10266000F301EE0FFF1FE15EF74FD701AA0FBB1F6B
:10267000AA0DBB1D2FE138E02E173F0709F408CF44
:10268000329740E8E416F10409F402CF5FEFE51A4F
:10269000F50A848595858D939D93EECFF0921E0863
:1026A000E0921D08F0E0E0E090E4892E912C20916A
:1026B0001D0830911E08E217F3070CF077C0253093
:1026C00031050CF473C05F01BFEFAB1ABB0ACF0139
:1026D0000197820F931FB9010E943521DC01AA0FD7
:1026E000BB1FA35EB84FCD90DC90CF01880F991F20
:1026F000AC01435E584F3A01DA01ED90FC90C50100
:10270000B9010E943521DC01AA0FBB1FA35EB84F9F
:102710000D911C91C601D7FCCF96A6E095958795A3
:10272000AA95E1F7A701F7FE02C0415C5F4F76E092
:10273000559547957A95E1F784179507E1F4A80137
:1027400017FF02C0415C5F4F66E0559547956A955B
:10275000E1F78417950779F4D301CF0121503109AE
:1027600082179307ECF4019612964D915C911397A2
:102770004D935D93F5CFC601B4010E9435216C01E4
:10278000C701B4010E943521C816D90639F4C80121
:10279000B4010E943521C816D906F1F2F50187CFA0
:1027A00030931E0820931D085F01F8CF10926B082C
:1027B0008091070781111092070780917301882388
:1027C00009F427CDCE5FDE4F0FB6F894DEBF0FBE03
:1027D000CDBFDF91CF911F910F91FF90EF90DF90D0
:1027E000CF90BF90AF909F908F907F906F905F90B1
:1027F0004F903F902F900C94FD072F923F924F9255
:102800005F926F927F928F929F92AF92BF92CF9280
:10281000DF92EF92FF920F931F93CF93DF93CDB789
:10282000DEB769970FB6F894DEBF0FBECDBF282E76
:1028300020911F08922F9F7080912708392F3823ED
:1028400009F122952F70A9F0921799F020916B0849
:10285000203278F44091290850912A08E22FF0E0C4
:10286000EE0FFF1FE55DF74F518340832F5F2093ED
:102870006B0840E1949F90011124922B90931F08C4
:102880000E947C0E30906B08332009F422C18091A5
:10289000290890912A0820912B0830912C08BC011E
:1028A00097FF02C0615C7F4FF6E075956795FA95DA
:1028B000E1F7A90137FF02C0415C5F4FE6E05595A3
:1028C0004795EA95E1F76417750771F4E0E4F0E0E5
:1028D000BF010E9435218C01C901BF010E94352131
:1028E0000817190709F4F5C0C0902908D0902A08E4
:1028F00040901D0850901E0810E000E004151505DA
:102900000CF0E7C038018FEF681A780AC301B201F2
:102910000E9435217C01FC01EE0FFF1FE35EF84FA2
:10292000A080B180F801EE0FFF1FE35EF84F8080BA
:102930009180A501B401C6010E948F0F882309F47C
:1029400098C0B401C6010E94610F811102C2B50195
:10295000C6010E94610F8111870180912408909126
:1029600025088827082B192B109325080093240885
:102970006E2D84E298E00E94D20A80916B0880322A
:1029800078F42091290830912A08E82FF0E0EE0F22
:10299000FF1FE55DF74F318320838F5F80936B08C6
:1029A0000E94E81082E090E090938105809380057A
:1029B000109272011092710120926A010E94C20964
:1029C0009DE1492E97E0592E10E000E060911D082E
:1029D00070911E08061717070CF075C038019FEF9D
:1029E000691A790AC3010E9435217C01F201A19084
:1029F000B1902F01FC01EE0FFF1FE35EF84F8080C6
:102A00009180C0902908D0902A08B501C6010E9483
:102A1000610F882381F180912008909121088827F7
:102A2000802B912B9093210880932008602F80E2C7
:102A300098E00E94D20A81E080936B010E94FE0E12
:102A400069960FB6F894DEBF0FBECDBFDF91CF9170
:102A50001F910F91FF90EF90DF90CF90BF90AF90BC
:102A60009F908F907F906F905F904F903F902F90AE
:102A70000895830143CFB401C6010E94610F8823EA
:102A800069F0809120089091210888278E299F293C
:102A900090932108809320086E2DC9CFA401B50121
:102AA000C6010E948F0F882361F0809120089091C9
:102AB00021088827082B192B109321080093200840
:102AC000EBCF830183CF809127088F7C80932708E9
:102AD000B2CF80911F0882958F70813009F401C1B7
:102AE000823009F400C1843009F4FFC0883009F451
:102AF000FEC080E08095182F1F70512EF1E0F31575
:102B000008F065C0232D30E0F9013197C090290805
:102B1000D0902A08D901AA0FBB1FA75DB74F8D918E
:102B20009C91AC0197FF02C0415C5F4FB6E05595A8
:102B30004795BA95E1F7B601D7FE02C0615C7F4FB9
:102B4000A6E075956795AA95E1F77A01E61AF70A66
:102B50001E141F041CF07B01E41AF50A60E4A62E83
:102B6000B12CB5010E9435214C01C601B5010E946E
:102B70003521A401481B590B141615061CF0AC0195
:102B800048195909E40EF51E43E0E416F104FCF47B
:102B9000EE0FFF1FE55DF74F60817181220F331F3C
:102BA000F901E95DF74F808191810E94C00E81306B
:102BB00009F49FC0823009F49EC0843009F49DC09E
:102BC000883009F49CC080E0582E509451228091A6
:102BD0001C0190911D01A0911E01B0911F01898BD4
:102BE0009A8BAB8BBC8B88E0E0E2F1E0DE011996BA
:102BF00001900D928A95E1F788E0E8E2F1E0DE01CC
:102C0000119601900D928A95E1F71E0181E1280E3F
:102C1000311C10E000E0F10141901F01842D85215D
:102C200009F448C08091290890912A08988F8F8BC9
:102C3000E9E0F0E0EC0FFD1FE00FF11FC080D18054
:102C4000B601CE0147960E94380EE1E0F0E0EC0FAD
:102C5000FD1FE00FF11FA080B180B501CE014796A6
:102C60000E94140E80901D0890901E0830E020E015
:102C7000EF88F88C281539050CF043C03901FFEFB7
:102C80006F1A7F0AC301B4010E943521FC01EE0FC7
:102C9000FF1FE35EF84F40815181220F331FF9017E
:102CA000E35EF84F60817181C7010E948F0F93012D
:102CB0008823F1F20E5F1F4F0830110509F0ABCFEA
:102CC00080916B088F3130F080911F0882958F7052
:102CD00009F05822809127088073582A50922708BB
:102CE000AFCE82E007CF81E005CF88E003CF84E05C
:102CF00001CF82E069CF81E067CF88E065CF84E0D3
:102D000063CF40916B08498F842F8150990B4C0100
:102D100030E020E028153905F4F439019FEF691AF5
:102D2000790AF901EE0FFF1FE35DF74F40815181F2
:102D3000220F331FF901E55DF74F60817181C701F3
:102D40000E948F0F9301882329F3842D80955822A8
:102D5000B1CF780102CE498D442381F040912908FA
:102D600050912A08F401EE0FFF1FE55DF74F6081D7
:102D70007181C7010E948F0F8111E7CFFE8AED8A12
:102D8000B601CE0145960E94380EB501CE0145969A
:102D90000E94140EB0906B08EB2DE150FF0B7F01E9
:102DA00030E020E02E153F05D4F46901FFEFCF1A83
:102DB000DF0AF901EE0FFF1FE35DF74F40815181FC
:102DC000220F331FF901E55DF74F608171818D8915
:102DD0009E890E948F0F9601882321F3B6CFBB20D6
:102DE00009F468CF4091290850912A08F701EE0FA5
:102DF000FF1FE55DF74F608171818D899E890E947B
:102E00008F0F882309F456CFA0CF2F923F924F9275
:102E10005F926F927F928F929F92AF92BF92CF926A
:102E2000DF92EF92FF920F931F93CF93DF9300D027
:102E300000D000D01F92CDB7DEB780917301811111
:102E40000E94FD070E94C2090E94D90A382E282F2D
:102E50002F70222E809128088F708095982F9223B2
:102E600080911F08992309F453C0807F892B809398
:102E70001F083092280880912708982F907331F40A
:102E8000132D107309F04BC010926B01209127088D
:102E9000822F807309F46CC20BE218E0EE24E394F5
:102EA000F12C80E4C82ED12C80916B08E82FF0E043
:102EB000EE16FF060CF0ECC0F801A190B1908F0166
:102EC00090804181892D942FB6010E9435219C016B
:102ED000E92DF42FF7FDFF96A6E0F595E795AA9565
:102EE000E1F7C501B6010E943521B7FE03C04FE3EB
:102EF000A40EB11CAF01BC01C501E6E09595879514
:102F0000EA95E1F70E94D2068FEFE81AF80ACCCFD3
:102F1000922F982309F0ADCF807F822BA8CF90917C
:102F20006B019111B3CF90911F089F709B839923E0
:102F300009F4ACCF892309F0A9CF80912908909199
:102F40002A089A8389836B81CE0101960E94650EBF
:102F500060901D0870901E08A3016DE177E08981E3
:102F60009A810E940F10882309F490CF809127083E
:102F7000812B809327088DE197E09E838D8310E05D
:102F800000E0061517050CF068C0ED81FE81A190E8
:102F9000B190FE83ED832801FFEF4F1A5F0AC20153
:102FA000B3010E9435214C018F83FC01EE0FFF1FFE
:102FB000E35EF84FC080D180E0902908F0902A08A5
:102FC000A601B501C7010E948F0F882309F45CC0D8
:102FD0003701F7FE03C02FE3620E711C46E07594C3
:102FE00067944A95E1F7C501B7FCCF9636E0959511
:102FF00087953A95E1F76816790671F420E430E098
:10300000C701B9010E943521FC01C501B9010E9427
:103010003521E817F907D1F1C601D7FCCF9626E094
:10302000959587952A95E1F76816790679F420E455
:1030300030E0C701B9010E943521FC01C601B90188
:103040000E943521E817F90709F48401009322084A
:103050006F8182E298E00E94D20A809129089091C3
:103060002A0890932C0880932B0881E080936B08AA
:1030700020911F082F704B8130E1439FC001112424
:10308000822B80931F0802CF82017BCF0F83DECF7C
:10309000882391F1EE0FFF1FE75DF74F108131811B
:1030A000F0912908E0912A088F2F9E2F60E470E0AC
:1030B0000E9435217C014F2F5E2F57FF02C0415CDB
:1030C0005F4FFA01A6E0F595E795AA95E1F7812F04
:1030D000932F60E470E00E943521A12FB32FB7FD3C
:1030E000DF969701AF01BC01CD01E6E0959587958C
:1030F000EA95E1F70E94D20634FE27C180912708A5
:1031000084FF23C1809182059091830563E070E084
:103110000E942121892B19F481E00E94FD138091E6
:10312000FD06811113C080912708807390910707D5
:10313000992309F488C220916C0830916D082630DB
:10314000310508F080C281110E944E030091FD06F6
:10315000002339F080912708807309F07FC2109214
:10316000FD068091800590918105019709F0D4C0FA
:103170008091290890912A080E94380A0E94A80884
:103180008091FD06882309F4C7C08091FE069091C6
:10319000FF069093F6058093F50521E020937301D7
:1031A00010927401109275011092760110927701BD
:1031B0004C0197FF03C04FE3840E911C26E09594C9
:1031C00087942A95E1F71401E2E02E1A310860E4B1
:1031D00070E00E9435218C01025011095801D12C58
:1031E000C12C94012D5F3F4F3C832B83412C512CEC
:1031F00032014394710135E03C9DC0013D9D900D2D
:10320000112488199909FC013296FE83ED83F0E8B8
:10321000EF16F10458F520E4A216B10438F56A2D32
:103220008E2D0E949306882309F18D819E818E0D3B
:103230009F1DB301A20104C0440F551F661F771FD5
:103240008A95D2F78091740190917501A0917601D1
:10325000B0917701842B952BA62BB72B809374010B
:1032600090937501A0937601B09377013FEFE31A35
:10327000F30A8B819C818E159F0549F69FEFC91A31
:10328000D90AEFEFAE1ABE0AF5E0CF16D10409F065
:10329000B1CF8091030725E0622F0E941521837032
:1032A000829FC0011124B12CA12C9C012D543F4FB1
:1032B000390180E8882E912CF301EA0DFB1DE49181
:1032C000F12CE12CCE2ED12CC4010E2C02C09595F0
:1032D00087950A94E2F78C219D21892B69F0C10121
:1032E0008E0D9F1D8038910538F40034110520F4AF
:1032F00041E0B8010E94B4063FEFE31AF30A45E04B
:10330000E416F10409F78FEFA81AB80A0F5F1F4FF0
:1033100095E0A916B10481F627960FB6F894DEBFA2
:103320000FBECDBFDF91CF911F910F91FF90EF9016
:10333000DF90CF90BF90AF909F908F907F906F90D5
:103340005F904F903F902F90089535FEE8CE80918A
:10335000270885FFE4CE809182059091830565E082
:1033600070E00E942121892B09F0D9CE80E0D5CED2
:10337000222009F4D4CE809182059091830563E0E8
:1033800070E00E942121892B09F0C9CE0091290803
:1033900010912A08822F0E947C0E209129083091DA
:1033A0002A08390137FF03C09FE3690E711C56E0FC
:1033B000759467945A95E1F7C80117FDCF9646E0DA
:1033C000959587954A95E1F76816790679F4E0E4D2
:1033D000F0E0C901BF010E9435217C01C801BF0195
:1033E0000E943521E816F90609F499CE00912008CB
:1033F0001091210818013324812E9924F101EE0F38
:10340000FF1FE35EF84FC080D180F401EE0FFF1F75
:10341000E35EF84FE080F180A0901D08B0901E0898
:10342000C601D7FCCF9666E0959587956A95E1F73A
:103430006816790681F4E0E4F0E0C901BF010E945A
:1034400035212C01C601BF010E943521602F48168D
:10345000590609F4C7C0C701F7FCCF9656E0959509
:1034600087955A95E1F76816790679F4E0E4F0E07B
:10347000C901BF010E9435219C01C701BF010E9403
:1034800035212817390709F4A5C0609029087090E4
:103490002A08A701B601C3010E948F0F81113BC00A
:1034A000C10101978A0D9B1DB5010E9435212C0198
:1034B000FC01EE0FFF1FE35EF84F40815181B60122
:1034C000C3010E948F0F642D811121C0C401019698
:1034D000B5010E9435216C01FC01EE0FFF1FE35E78
:1034E000F84F40815181B701C3010E948F0F2DE138
:1034F000422E27E0522EF12CE12C882309F47AC0C9
:1035000000270C291093210800932008682D80E2E1
:1035100098E00E94D20A2091200830912108632E61
:103520007724F901FF27EE0FFF1FE35EF84FC080FD
:10353000D180F301EE0FFF1FE35EF84FE080F180D2
:10354000E0912908F0912A088F01F7FF02C0015C81
:103550001F4FB6E015950795BA95E1F7C601D7FC60
:10356000CF96A6E095958795AA95E1F708171907D4
:1035700081F470E4A72EB12CCF01B5010E94352152
:103580004C01C601B5010E9435218816990609F43F
:1035900058C0C701F7FCCF9666E0959587956A9568
:1035A000E1F70817190711F500E410E0CF01B801A1
:1035B0000E943521FC01C701B8010E943521E8179E
:1035C000F907A1F42227622A732A709221086092D7
:1035D00020080CC0002708291929109321080093FE
:1035E0002008682D80E298E00E94D20A0E94FE0E18
:1035F00096CD7401EA14FB040CF08DCFF2012191F9
:1036000031912F014701FFEF8F1A9F0AC401B501C5
:103610000E9435216C01FC01EE0FFF1FE35EF84FA5
:1036200040815181B901C3010E948F0F882309F3A2
:103630000027E02AF12AF0922108E09220086C2D60
:10364000D1CF622FCFCF882309F480CD80916C0831
:1036500090916D088D9708F479CD76CDD0906B0858
:1036600021E02D1508F07BCD80916C0890916D08BC
:10367000059708F476CD809103078F5F843108F0B9
:103680006EC080930307809104078F5F80930407C7
:1036900090910107891708F465C0109204071091F2
:1036A0000007812F90E0AC014F5F5F4F2D2D30E080
:1036B000421753070CF058C0880F991FFC01E35DB7
:1036C000F74FE080F180A090FE06B090FF06B701B2
:1036D000C5010E94610F882309F456C01F5F109333
:1036E00000071D1508F450C01092FD0683E090E01D
:1036F00090938105809380058091290890912A08F4
:103700009093F4058093F30581E090E09093650138
:10371000809364011092630110926201109267011C
:10372000109266018AE090E09093610180936001BD
:103730000E94C20920912608822F90E046E09595CC
:1037400087954A95E1F70097C1F0815030E4839F57
:10375000C00111242F73822B8093260802CD109272
:10376000030791CF00E09BCF4217530709F0F9CC34
:10377000E0902908F0902A08A6CF84E090E090938A
:10378000810580938005EDCC002309F4EACCB701D4
:10379000C5010E94C00E8230B9F050F46FEF7FEF88
:1037A000813009F0DECC8EEF96E00E94380ED9CC45
:1037B000843069F061E070E0883009F0D2CC8EEF9F
:1037C00096E00E94140ECDCC61E070E0ECCF6FEF7C
:1037D0007FEFF5CF1F920F920FB60F9211248F93A8
:1037E0009F938091E1009091E100937F9093E1009D
:1037F00083FF0FC01092E90091E09093EB001092CC
:10380000EC0092E39093ED001092A20598E0909363
:10381000F00082FF22C093E09093E9009091F200C3
:10382000992319F09AE39093E800909193059923D6
:1038300041F090919305915090939305911101C09F
:103840005D9A9091A105992341F09091A105915025
:103850009093A105911101C0289A84FF18C080910E
:10386000E2008E7E81608093E2008091E1008F7E95
:103870008093E100809194058E7E80618093940511
:103880009F918F910F900FBE0F901F90189580FF02
:10389000F7CF8091E2008E7E80618093E20080917C
:1038A000E1008E7E8093E100809194058E7E8160A0
:1038B000E5CF1F920F920FB60F921124CF92DF9295
:1038C000EF92FF920F931F932F933F934F935F932A
:1038D0006F937F938F939F93AF93BF93EF93FF93D8
:1038E000CF93DF93CDB7DEB76C97DEBFCDBF10921D
:1038F000E9008091E80083FF25C068E0CE0145968D
:103900000E941D0582EF8093E8008D8987FF39C0F2
:103910009091E80090FFFCCF982F907609F034C189
:103920009E894F89588D2F89F88C911131C080382C
:1039300061F5809192058093F1001092F1008EEF75
:103940008093E8006C960FB6F894DEBF0FBECDBF33
:10395000DF91CF91FF91EF91BF91AF919F918F91A7
:103960007F916F915F914F913F912F911F910F9197
:10397000FF90EF90DF90CF900F900FBE0F901F90B1
:1039800018959EEF9093E800C7CF1092F100D5CF25
:10399000913059F48111D3CF4130510581F6809196
:1039A00092058D7F80939205CACF933049F481119F
:1039B000C6CF4130510519F6809192058260F2CF51
:1039C000953041F48091E80080FFFCCF206820937F
:1039D000E300B5CF963009F0A9C00B8D1C8D22E015
:1039E0001092E9001092900510928F05F2122EC0ED
:1039F00010928E0510928D050E94EC041F8299E0B2
:103A00009983FA8291E09E8390EA98879AEF99874A
:103A100020918F0530919005275F3F4F3C832B838A
:103A20008D831092E9001092900510928F051093EB
:103A30008E0500938D0549E050E0BE016F5F7F4F1A
:103A400080E00E94C6040E94EC0479CF10938E059A
:103A500000938D050E94D003DC0112960D911C91FC
:103A60000115110509F451C1D801ED91FC910480B3
:103A7000F581E02DBE016B5E7F4FC801099500976F
:103A800009F03EC1F80100851185EACFF3E0FF128D
:103A90000EC08F89882309F440C0823061F440E869
:103AA00067E08DE396E00E949304811148CF81E2A4
:103AB0008093EB0047CF813029F440E86BE081E34D
:103AC00096E0F1CF833099F70E94D003DC01129683
:103AD000ED90FC908E010F5F1F4F6801E114F1041F
:103AE00079F0D701ED91FC910680F781E02DB801C6
:103AF000C7010995080F111DF701E084F184EECF8D
:103B0000D8011C92F60101900020E9F73197BF011E
:103B10006C197D0940E0C601C6CF6BE176E0FB0180
:103B2000449150E080E80E94C60409CF973009F420
:103B3000BECF983021F481E08093F10000CF99301E
:103B400009F0FDCE837009F0B2CFEBE3F1E081E044
:103B500031E096E32191222371F08093E9003093C4
:103B6000EB00DF0111972C912093EC009093ED0076
:103B70008F5F873079F78EE78093EA001092EA0032
:103B80008F898093A205DBCE8B8D9C8D1092E900EE
:103B90001092900510928F0590938E0580938D055D
:103BA000898D811192C08E899D89913A49F4813223
:103BB00009F07DCF47E050E066E071E080E0B3CFF0
:103BC000913209F074CF833269F48F89988DB0E017
:103BD000A0E08093020190930301A0930401B093AD
:103BE0000501ADCE803269F48091E80082FFFCCF00
:103BF00067E086E091E00E941D058BEF8093E8006E
:103C00009ECE823209F09BCE8F8980930D01EEEF1C
:103C1000FFE7859194918B3F9C4D51F1E0E0F8E0F6
:103C20008091060190910701A0910801B0910901CE
:103C3000803B9440A105B105F1F480910D0180FD18
:103C40001AC0EE3F8AE0F80789F587E797E7918386
:103C50008083809160008093910588E19BE00FB69E
:103C6000F894A895809360000FBE9093600067CE93
:103C7000EEEFFAE0D5CF808191818737974709F041
:103C80005ECEA895809160008861809360008091ED
:103C9000910580936000EE3F2AE0F20789F0809161
:103CA000FE0A9091FF0A9183808349CE80819181A1
:103CB0008737980751F29093FF0A8093FE0AC5CF89
:103CC0001092FF0A1092FE0A3ACE0E94D003DC0145
:103CD00012960D911C910115110509F4E8CED80139
:103CE000ED91FC910190F081E02DBE016B5E7F4F64
:103CF000C8010995811123CEF80100851185EBCF0C
:103D0000181619060CF41BCED2CEF1E0FF12BECE6F
:103D10006FE176E004CF1F920F920FB60F9211243D
:103D20002F933F938F939F93AF93BF93809185057C
:103D300090918605A0918705B09188053091840502
:103D400023E0230F2D3758F50196A11DB11D2093B7
:103D500084058093850590938605A0938705B0938D
:103D600088058091890590918A05A0918B05B09175
:103D70008C050196A11DB11D8093890590938A053C
:103D8000A0938B05B0938C05BF91AF919F918F91BC
:103D90003F912F910F900FBE0F901F90189526E81E
:103DA000230F0296A11DB11DD2CF0C940D211092AC
:103DB000A6051092A50588EE93E0A0E0B0E0809300
:103DC000A7059093A805A093A905B093AA0585E43B
:103DD00091E09093A4058093A3058FEF9FEF9093BC
:103DE000B0058093AF051092F8051092F705109278
:103DF000F6051092F5051092F4051092F305109255
:103E00001F0882E091E0909321088093200810928F
:103E1000230810922208109225081092240880ECA2
:103E20008093260883E08093270810922808EBE20D
:103E3000F8E01192119288E0EB36F807D1F7109272
:103E40006B0810926D0810926C088FE390E19093CC
:103E50002A0880932908EDE1F7E01192119288E099
:103E6000ED31F807D1F784E090E090931E0880933D
:103E70001D0810921E0710921D078FE390E090938B
:103E8000200780931F078FEF9FE190932207809375
:103E9000210780EC9FE1909324078093230781E022
:103EA00090E090931C0780931B0720E230E1309351
:103EB0001A072093190710920B0710920C0780E045
:103EC00090E190930A078093090710920F071092D0
:103ED000100790930E0780930D071092130710920E
:103EE00014079093120780931107109217071092EE
:103EF000180790931607809315071092FD061092ED
:103F0000000782E090E090930207809301071092EF
:103F100003071092040710920607109205071092EB
:103F20000707109208073093FF062093FE061092B1
:103F3000FC061092FB0687E591E09093FA068093C9
:103F4000F906E9EFF5E01192119286E0E93FF807F2
:103F5000D1F70895789484B5826084BD84B581607A
:103F600084BD85B5826085BD85B5816085BD809144
:103F70006E00816080936E001092810080918100BC
:103F800082608093810080918100816080938100B4
:103F90008091800081608093800080919100826098
:103FA0008093910080919100816080939100809135
:103FB00090008160809390008091C1008460809324
:103FC000C1008091C10082608093C1008091C100D6
:103FD00081608093C1008091C30081608093C300A1
:103FE0008091C00082608093C0008091C200816097
:103FF0008093C20080917A00846080937A008091DF
:104000007A00826080937A0080917A008160809348
:104010007A0080917A00806880937A001092A205DD
:1040200010929205109294058091D7008160809340
:10403000D70080EA8093D80089B5806189BD89B5B1
:10404000826089BD09B400FEFDCF61E070E080E0D0
:1040500090E00E944F058091D8008F7C8061809312
:10406000D8008091E000807F8093E0008091E100A3
:104070008E7E8093E1008DE08093E200559A209A35
:1040800081EC80937C0085B1806F85B984B1877E97
:1040900084B984B1876E84B95E9A5F988AB1806D65
:1040A0008AB9769A6E9881B3806F81BB899880B304
:1040B0008D7080BB80E58CBD81E08DBD0E94820546
:1040C0005F9A0E9482055E985C98ECECF5E0849122
:1040D0008EBD00000DB407FEFDCF319685E0E93DB1
:1040E000F807A9F75C9A81E88093640080916500E5
:1040F00081608093650080E18093010180E0E8E7C2
:10410000F1E081118FEF002481938193819381935A
:104110000394D1F710927B0510927A0510927905DD
:10412000109278050E946E080E941D090E94FE0EE2
:104130008091290890912A080E94380A0E94A808B4
:1041400080916C0890916D08019690936D08809312
:104150006C080E94830611E0C0E0D0E001E08FB758
:10416000F89440918505509186056091870570917E
:1041700088058FBF80917E05882339F010927E05D7
:10418000209769F30E940000EACF80917F05942F69
:10419000981B892F90910101891738F48F5F891737
:1041A00078F713BF889513BEEBCF00937E0540933D
:1041B0007F0580917C0590917D05019690937D050A
:1041C00080937C05809182059091830501968F3FB5
:1041D0009105F0F49093830580938205E09180052A
:1041E000F0918105EE0FFF1FE05DFE4F0190F08121
:1041F000E02D309709F0099580916C0890916D0839
:10420000019690936D0880936C080E948306B8CF46
:104210001092830510928205E1CFF999FECF92BDED
:1042200081BDF89A992780B50895991B79E004C05B
:10423000991F961708F0961B881F7A95C9F78095E5
:104240000895AA1BBB1B51E107C0AA1FBB1FA617DD
:10425000B70710F0A61BB70B881F991F5A95A9F72F
:1042600080959095BC01CD01089597FB072E16F41B
:10427000009407D077FD09D00E94212107FC05D0CA
:104280003EF4909581959F4F0895709561957F4F6D
:104290000895EE0FFF1F0590F491E02D0994F89416
:0242A000FFCF4E
:1042A2000110FFFFFFFF00E100000000000000001E
:1042B200030007000B000F001100130001020408A5
:1042C200FFFF01000000000000000000FFFF0100EE
:1042D200EA0D05176D0CF70AF60A00C1808100008D
:1042E2000000000000E40388050504FA034B0409FA
:1042F2000427040000000056070D06BD0EBC0E0088
:00000001FF
